{
  "contractName": "Auction",
  "abi": [
    {
      "constant": true,
      "inputs": [
        {
          "name": "",
          "type": "uint256"
        }
      ],
      "name": "patentNameMap",
      "outputs": [
        {
          "name": "",
          "type": "string"
        }
      ],
      "payable": false,
      "stateMutability": "view",
      "type": "function"
    },
    {
      "constant": true,
      "inputs": [
        {
          "name": "patentId",
          "type": "uint256"
        }
      ],
      "name": "getPatentName",
      "outputs": [
        {
          "name": "",
          "type": "string"
        }
      ],
      "payable": false,
      "stateMutability": "view",
      "type": "function"
    },
    {
      "constant": true,
      "inputs": [
        {
          "name": "",
          "type": "address"
        },
        {
          "name": "",
          "type": "uint256"
        }
      ],
      "name": "userBidMap",
      "outputs": [
        {
          "name": "",
          "type": "uint256"
        }
      ],
      "payable": false,
      "stateMutability": "view",
      "type": "function"
    },
    {
      "constant": false,
      "inputs": [
        {
          "name": "patentId",
          "type": "uint256"
        },
        {
          "name": "person",
          "type": "address"
        }
      ],
      "name": "addLisenceHolder",
      "outputs": [],
      "payable": false,
      "stateMutability": "nonpayable",
      "type": "function"
    },
    {
      "constant": true,
      "inputs": [
        {
          "name": "",
          "type": "address"
        },
        {
          "name": "",
          "type": "uint256"
        }
      ],
      "name": "userBidAmountMap",
      "outputs": [
        {
          "name": "",
          "type": "uint256"
        }
      ],
      "payable": false,
      "stateMutability": "view",
      "type": "function"
    },
    {
      "constant": true,
      "inputs": [
        {
          "name": "patentId",
          "type": "uint256"
        }
      ],
      "name": "getPatents",
      "outputs": [
        {
          "components": [
            {
              "name": "owners",
              "type": "address[]"
            },
            {
              "name": "lisenceHolders",
              "type": "address[]"
            },
            {
              "name": "patentName",
              "type": "string"
            },
            {
              "name": "patentType",
              "type": "string"
            },
            {
              "name": "issueDate",
              "type": "string"
            }
          ],
          "name": "",
          "type": "tuple"
        }
      ],
      "payable": false,
      "stateMutability": "view",
      "type": "function"
    },
    {
      "constant": false,
      "inputs": [
        {
          "name": "owners",
          "type": "address[]"
        },
        {
          "name": "lisenceHolders",
          "type": "address[]"
        },
        {
          "name": "patentName",
          "type": "string"
        },
        {
          "name": "issueDate",
          "type": "string"
        },
        {
          "name": "patentType",
          "type": "string"
        }
      ],
      "name": "registerPatent",
      "outputs": [
        {
          "name": "",
          "type": "uint256"
        }
      ],
      "payable": false,
      "stateMutability": "nonpayable",
      "type": "function"
    },
    {
      "constant": false,
      "inputs": [
        {
          "name": "patentId",
          "type": "uint256"
        },
        {
          "name": "person",
          "type": "address"
        }
      ],
      "name": "addOwner",
      "outputs": [],
      "payable": false,
      "stateMutability": "nonpayable",
      "type": "function"
    },
    {
      "constant": true,
      "inputs": [
        {
          "name": "patentId",
          "type": "uint256"
        }
      ],
      "name": "getOwnerList",
      "outputs": [
        {
          "name": "",
          "type": "address[]"
        }
      ],
      "payable": false,
      "stateMutability": "view",
      "type": "function"
    },
    {
      "constant": true,
      "inputs": [
        {
          "name": "",
          "type": "uint256"
        }
      ],
      "name": "bidList",
      "outputs": [
        {
          "name": "bider",
          "type": "address"
        },
        {
          "name": "minimumBid",
          "type": "uint256"
        },
        {
          "name": "patentId",
          "type": "uint256"
        },
        {
          "name": "time",
          "type": "uint256"
        }
      ],
      "payable": false,
      "stateMutability": "view",
      "type": "function"
    },
    {
      "constant": true,
      "inputs": [
        {
          "name": "",
          "type": "uint256"
        },
        {
          "name": "",
          "type": "uint256"
        }
      ],
      "name": "patentOwnerMap",
      "outputs": [
        {
          "name": "",
          "type": "address"
        }
      ],
      "payable": false,
      "stateMutability": "view",
      "type": "function"
    },
    {
      "constant": false,
      "inputs": [
        {
          "name": "patentid",
          "type": "uint256"
        },
        {
          "name": "receiver",
          "type": "address"
        }
      ],
      "name": "transferPatent",
      "outputs": [],
      "payable": false,
      "stateMutability": "nonpayable",
      "type": "function"
    },
    {
      "anonymous": false,
      "inputs": [
        {
          "indexed": false,
          "name": "patentId",
          "type": "uint256"
        },
        {
          "indexed": false,
          "name": "name",
          "type": "string"
        }
      ],
      "name": "NewBid",
      "type": "event"
    },
    {
      "constant": false,
      "inputs": [
        {
          "name": "patentId",
          "type": "uint256"
        },
        {
          "name": "bidAmount",
          "type": "uint256"
        }
      ],
      "name": "addBid",
      "outputs": [],
      "payable": false,
      "stateMutability": "nonpayable",
      "type": "function"
    },
    {
      "constant": true,
      "inputs": [
        {
          "name": "patentId",
          "type": "uint256"
        }
      ],
      "name": "allBids",
      "outputs": [
        {
          "name": "",
          "type": "string"
        }
      ],
      "payable": false,
      "stateMutability": "view",
      "type": "function"
    },
    {
      "constant": true,
      "inputs": [],
      "name": "getMyBids",
      "outputs": [
        {
          "name": "",
          "type": "uint256[]"
        },
        {
          "name": "",
          "type": "uint256[]"
        }
      ],
      "payable": false,
      "stateMutability": "view",
      "type": "function"
    }
  ],
  "bytecode": "0x608060405234801561001057600080fd5b50611d0f806100206000396000f3fe6080604052600436106100db576000357c0100000000000000000000000000000000000000000000000000000000900463ffffffff16806305c1ba22146100e0578063087344d31461011d57806320f5a9e61461015a57806321b23f041461019757806325700466146101c05780632fb5eac2146101e957806337f170c1146102265780636dba911d14610263578063788077a7146102a0578063813d2ed0146102cc5780638cd1bb20146103095780638dd95e9914610332578063995620371461036f578063be90b054146103af578063d510bbd7146103ec575b600080fd5b3480156100ec57600080fd5b50610107600480360361010291908101906116e9565b610415565b6040516101149190611a7f565b60405180910390f35b34801561012957600080fd5b50610144600480360361013f91908101906116e9565b6104c5565b6040516101519190611aa1565b60405180910390f35b34801561016657600080fd5b50610181600480360361017c91908101906115be565b61057a565b60405161018e9190611ae5565b60405180910390f35b3480156101a357600080fd5b506101be60048036036101b9919081019061174e565b6105aa565b005b3480156101cc57600080fd5b506101e760048036036101e29190810190611712565b61077e565b005b3480156101f557600080fd5b50610210600480360361020b91908101906116e9565b610806565b60405161021d9190611aa1565b60405180910390f35b34801561023257600080fd5b5061024d600480360361024891908101906115be565b61081d565b60405161025a9190611ae5565b60405180910390f35b34801561026f57600080fd5b5061028a600480360361028591908101906116e9565b61084d565b6040516102979190611ac3565b60405180910390f35b3480156102ac57600080fd5b506102b5610b87565b6040516102c3929190611a48565b60405180910390f35b3480156102d857600080fd5b506102f360048036036102ee91908101906115fa565b610cb4565b6040516103009190611ae5565b60405180910390f35b34801561031557600080fd5b50610330600480360361032b9190810190611712565b610e10565b005b34801561033e57600080fd5b50610359600480360361035491908101906116e9565b610e98565b6040516103669190611a26565b60405180910390f35b34801561037b57600080fd5b50610396600480360361039191908101906116e9565b610f39565b6040516103a694939291906119e1565b60405180910390f35b3480156103bb57600080fd5b506103d660048036036103d1919081019061174e565b610f98565b6040516103e391906119c6565b60405180910390f35b3480156103f857600080fd5b50610413600480360361040e9190810190611712565b610fe5565b005b60026020528060005260406000206000915090508054600181600116156101000203166002900480601f0160208091040260200160405190810160405280929190818152602001828054600181600116156101000203166002900480156104bd5780601f10610492576101008083540402835291602001916104bd565b820191906000526020600020905b8154815290600101906020018083116104a057829003601f168201915b505050505081565b6060600260008381526020019081526020016000208054600181600116156101000203166002900480601f01602080910402602001604051908101604052809291908181526020018280546001816001161561010002031660029004801561056e5780601f106105435761010080835404028352916020019161056e565b820191906000526020600020905b81548152906001019060200180831161055157829003601f168201915b50505050509050919050565b60046020528160005260406000208181548110151561059557fe5b90600052602060002001600091509150505481565b60606105b583610e98565b9050600360a0604051908101604052808381526020013373ffffffffffffffffffffffffffffffffffffffff1681526020018481526020018581526020014281525090806001815401808255809150509060018203906000526020600020906005020160009091929091909150600082015181600001908051906020019061063e92919061112e565b5060208201518160010160006101000a81548173ffffffffffffffffffffffffffffffffffffffff021916908373ffffffffffffffffffffffffffffffffffffffff160217905550604082015181600201556060820151816003015560808201518160040155505050600460003373ffffffffffffffffffffffffffffffffffffffff1673ffffffffffffffffffffffffffffffffffffffff168152602001908152602001600020839080600181540180825580915050906001820390600052602060002001600090919290919091505550600560003373ffffffffffffffffffffffffffffffffffffffff1673ffffffffffffffffffffffffffffffffffffffff168152602001908152602001600020829080600181540180825580915050906001820390600052602060002001600090919290919091505550505050565b60008281548110151561078d57fe5b90600052602060002090600502016001018190806001815401808255809150509060018203906000526020600020016000909192909190916101000a81548173ffffffffffffffffffffffffffffffffffffffff021916908373ffffffffffffffffffffffffffffffffffffffff160217905550505050565b606080610812836104c5565b905080915050919050565b60056020528160005260406000208181548110151561083857fe5b90600052602060002001600091509150505481565b6108556111b8565b60008281548110151561086457fe5b906000526020600020906005020160a060405190810160405290816000820180548060200260200160405190810160405280929190818152602001828054801561090357602002820191906000526020600020905b8160009054906101000a900473ffffffffffffffffffffffffffffffffffffffff1673ffffffffffffffffffffffffffffffffffffffff16815260200190600101908083116108b9575b505050505081526020016001820180548060200260200160405190810160405280929190818152602001828054801561099157602002820191906000526020600020905b8160009054906101000a900473ffffffffffffffffffffffffffffffffffffffff1673ffffffffffffffffffffffffffffffffffffffff1681526020019060010190808311610947575b50505050508152602001600282018054600181600116156101000203166002900480601f016020809104026020016040519081016040528092919081815260200182805460018160011615610100020316600290048015610a335780601f10610a0857610100808354040283529160200191610a33565b820191906000526020600020905b815481529060010190602001808311610a1657829003601f168201915b50505050508152602001600382018054600181600116156101000203166002900480601f016020809104026020016040519081016040528092919081815260200182805460018160011615610100020316600290048015610ad55780601f10610aaa57610100808354040283529160200191610ad5565b820191906000526020600020905b815481529060010190602001808311610ab857829003601f168201915b50505050508152602001600482018054600181600116156101000203166002900480601f016020809104026020016040519081016040528092919081815260200182805460018160011615610100020316600290048015610b775780601f10610b4c57610100808354040283529160200191610b77565b820191906000526020600020905b815481529060010190602001808311610b5a57829003601f168201915b5050505050815250509050919050565b606080600460003373ffffffffffffffffffffffffffffffffffffffff1673ffffffffffffffffffffffffffffffffffffffff168152602001908152602001600020600560003373ffffffffffffffffffffffffffffffffffffffff1673ffffffffffffffffffffffffffffffffffffffff16815260200190815260200160002081805480602002602001604051908101604052809291908181526020018280548015610c5357602002820191906000526020600020905b815481526020019060010190808311610c3f575b5050505050915080805480602002602001604051908101604052809291908181526020018280548015610ca557602002820191906000526020600020905b815481526020019060010190808311610c91575b50505050509050915091509091565b60008060a06040519081016040528088815260200187815260200186815260200184815260200185815250908060018154018082558091505090600182039060005260206000209060050201600090919290919091506000820151816000019080519060200190610d269291906111e8565b506020820151816001019080519060200190610d439291906111e8565b506040820151816002019080519060200190610d60929190611272565b506060820151816003019080519060200190610d7d929190611272565b506080820151816004019080519060200190610d9a929190611272565b505050506000600160008054905003905086600160008381526020019081526020016000209080519060200190610dd29291906112f2565b5084600260008381526020019081526020016000209080519060200190610dfa92919061137c565b5060016000805490500391505095945050505050565b600082815481101515610e1f57fe5b90600052602060002090600502016000018190806001815401808255809150509060018203906000526020600020016000909192909190916101000a81548173ffffffffffffffffffffffffffffffffffffffff021916908373ffffffffffffffffffffffffffffffffffffffff160217905550505050565b606060016000838152602001908152602001600020805480602002602001604051908101604052809291908181526020018280548015610f2d57602002820191906000526020600020905b8160009054906101000a900473ffffffffffffffffffffffffffffffffffffffff1673ffffffffffffffffffffffffffffffffffffffff1681526020019060010190808311610ee3575b50505050509050919050565b600381815481101515610f4857fe5b90600052602060002090600502016000915090508060010160009054906101000a900473ffffffffffffffffffffffffffffffffffffffff16908060020154908060030154908060040154905084565b600160205281600052604060002081815481101515610fb357fe5b906000526020600020016000915091509054906101000a900473ffffffffffffffffffffffffffffffffffffffff1681565b60008090505b600083815481101515610ffa57fe5b906000526020600020906005020160000180549050811015611129573373ffffffffffffffffffffffffffffffffffffffff1660008481548110151561103c57fe5b90600052602060002090600502016000018281548110151561105a57fe5b9060005260206000200160009054906101000a900473ffffffffffffffffffffffffffffffffffffffff1673ffffffffffffffffffffffffffffffffffffffff16141561111c57816000848154811015156110b157fe5b9060005260206000209060050201600001828154811015156110cf57fe5b9060005260206000200160006101000a81548173ffffffffffffffffffffffffffffffffffffffff021916908373ffffffffffffffffffffffffffffffffffffffff160217905550611129565b8080600101915050610feb565b505050565b8280548282559060005260206000209081019282156111a7579160200282015b828111156111a65782518260006101000a81548173ffffffffffffffffffffffffffffffffffffffff021916908373ffffffffffffffffffffffffffffffffffffffff1602179055509160200191906001019061114e565b5b5090506111b491906113fc565b5090565b60a06040519081016040528060608152602001606081526020016060815260200160608152602001606081525090565b828054828255906000526020600020908101928215611261579160200282015b828111156112605782518260006101000a81548173ffffffffffffffffffffffffffffffffffffffff021916908373ffffffffffffffffffffffffffffffffffffffff16021790555091602001919060010190611208565b5b50905061126e919061143f565b5090565b828054600181600116156101000203166002900490600052602060002090601f016020900481019282601f106112b357805160ff19168380011785556112e1565b828001600101855582156112e1579182015b828111156112e05782518255916020019190600101906112c5565b5b5090506112ee9190611482565b5090565b82805482825590600052602060002090810192821561136b579160200282015b8281111561136a5782518260006101000a81548173ffffffffffffffffffffffffffffffffffffffff021916908373ffffffffffffffffffffffffffffffffffffffff16021790555091602001919060010190611312565b5b50905061137891906113fc565b5090565b828054600181600116156101000203166002900490600052602060002090601f016020900481019282601f106113bd57805160ff19168380011785556113eb565b828001600101855582156113eb579182015b828111156113ea5782518255916020019190600101906113cf565b5b5090506113f89190611482565b5090565b61143c91905b8082111561143857600081816101000a81549073ffffffffffffffffffffffffffffffffffffffff021916905550600101611402565b5090565b90565b61147f91905b8082111561147b57600081816101000a81549073ffffffffffffffffffffffffffffffffffffffff021916905550600101611445565b5090565b90565b6114a491905b808211156114a0576000816000905550600101611488565b5090565b90565b60006114b38235611c54565b905092915050565b60006114c78235611c66565b905092915050565b600082601f83011215156114e257600080fd5b81356114f56114f082611b2d565b611b00565b9150818183526020840193506020810190508385602084028201111561151a57600080fd5b60005b8381101561154a578161153088826114bb565b84526020840193506020830192505060018101905061151d565b5050505092915050565b600082601f830112151561156757600080fd5b813561157a61157582611b55565b611b00565b9150808252602083016020830185838301111561159657600080fd5b6115a1838284611c82565b50505092915050565b60006115b68235611c78565b905092915050565b600080604083850312156115d157600080fd5b60006115df858286016114a7565b92505060206115f0858286016115aa565b9150509250929050565b600080600080600060a0868803121561161257600080fd5b600086013567ffffffffffffffff81111561162c57600080fd5b611638888289016114cf565b955050602086013567ffffffffffffffff81111561165557600080fd5b611661888289016114cf565b945050604086013567ffffffffffffffff81111561167e57600080fd5b61168a88828901611554565b935050606086013567ffffffffffffffff8111156116a757600080fd5b6116b388828901611554565b925050608086013567ffffffffffffffff8111156116d057600080fd5b6116dc88828901611554565b9150509295509295909350565b6000602082840312156116fb57600080fd5b6000611709848285016115aa565b91505092915050565b6000806040838503121561172557600080fd5b6000611733858286016115aa565b9250506020611744858286016114bb565b9150509250929050565b6000806040838503121561176157600080fd5b600061176f858286016115aa565b9250506020611780858286016115aa565b9150509250929050565b61179381611c18565b82525050565b6117a281611c06565b82525050565b60006117b382611ba8565b8084526020840193506117c583611b81565b60005b828110156117f7576117db868351611799565b6117e482611bdf565b91506020860195506001810190506117c8565b50849250505092915050565b600061180e82611bb3565b80845260208401935061182083611b8e565b60005b828110156118525761183686835161178a565b61183f82611bec565b9150602086019550600181019050611823565b50849250505092915050565b600061186982611bbe565b80845260208401935061187b83611b9b565b60005b828110156118ad576118918683516119b7565b61189a82611bf9565b915060208601955060018101905061187e565b50849250505092915050565b60006118c482611bd4565b8084526118d8816020860160208601611c91565b6118e181611cc4565b602085010191505092915050565b60006118fa82611bc9565b80845261190e816020860160208601611c91565b61191781611cc4565b602085010191505092915050565b600060a08301600083015184820360008601526119428282611803565b9150506020830151848203602086015261195c8282611803565b9150506040830151848203604086015261197682826118ef565b9150506060830151848203606086015261199082826118ef565b915050608083015184820360808601526119aa82826118ef565b9150508091505092915050565b6119c081611c4a565b82525050565b60006020820190506119db6000830184611799565b92915050565b60006080820190506119f66000830187611799565b611a0360208301866119b7565b611a1060408301856119b7565b611a1d60608301846119b7565b95945050505050565b60006020820190508181036000830152611a4081846117a8565b905092915050565b60006040820190508181036000830152611a62818561185e565b90508181036020830152611a76818461185e565b90509392505050565b60006020820190508181036000830152611a9981846118ef565b905092915050565b60006020820190508181036000830152611abb81846118b9565b905092915050565b60006020820190508181036000830152611add8184611925565b905092915050565b6000602082019050611afa60008301846119b7565b92915050565b6000604051905081810181811067ffffffffffffffff82111715611b2357600080fd5b8060405250919050565b600067ffffffffffffffff821115611b4457600080fd5b602082029050602081019050919050565b600067ffffffffffffffff821115611b6c57600080fd5b601f19601f8301169050602081019050919050565b6000602082019050919050565b6000602082019050919050565b6000602082019050919050565b600081519050919050565b600081519050919050565b600081519050919050565b600081519050919050565b600081519050919050565b6000602082019050919050565b6000602082019050919050565b6000602082019050919050565b6000611c1182611c2a565b9050919050565b6000611c2382611c2a565b9050919050565b600073ffffffffffffffffffffffffffffffffffffffff82169050919050565b6000819050919050565b6000611c5f82611c2a565b9050919050565b6000611c7182611c2a565b9050919050565b6000819050919050565b82818337600083830152505050565b60005b83811015611caf578082015181840152602081019050611c94565b83811115611cbe576000848401525b50505050565b6000601f19601f830116905091905056fea265627a7a72305820a73291a1ca5e0daee2be53106eace60d65710512ba7f82ac1375225dce615a676c6578706572696d656e74616cf50037",
  "source": "pragma experimental ABIEncoderV2;\n\nimport \"./PatentManager.sol\";\n\ncontract Auction is PatentManager{\n\n    // event;\n    event NewBid(uint patentId, string name);\n    \n    struct Bid{\n        address[] auctioneer;\n        address bider;\n        uint minimumBid;\n        uint patentId;\n        uint time;\n    }\n\n    Bid[] public bidList;\n\n    //\n    mapping(address => uint[]) public userBidMap;\n    mapping(address => uint[]) public userBidAmountMap;\n    \n\n    function addBid(uint patentId, uint bidAmount) public {\n\n        address[] memory patentOwners = getOwnerList(patentId);\n        // string memory name = getPatentName(patentId);\n\n        bidList.push(Bid(patentOwners, msg.sender, bidAmount, patentId, now));\n        userBidMap[msg.sender].push(patentId);\n        userBidAmountMap[msg.sender].push(bidAmount);\n        \n    }\n\n    function allBids(uint patentId) public view returns (string memory){\n        string memory xx = getPatentName(patentId);\n        return(xx);\n    }\n\n    // By a person who is biding for multiple IPs\n    function getMyBids() public view returns (uint[] memory, uint[] memory){\n        return (userBidMap[msg.sender], userBidAmountMap[msg.sender]);\n    }   \n}",
  "sourcePath": "/home/abhijeet/work/Blockchain/patent_bidding_transfer/patent-backend/contracts/Auction.sol",
  "compiler": {
    "name": "solc",
    "version": "0.5.0+commit.1d4f565a.Emscripten.clang"
  },
  "schemaVersion": "3.0.1",
  "updatedAt": "2019-02-07T07:41:50.984Z",
  "devdoc": {
    "methods": {}
  },
  "userdoc": {
    "methods": {}
  }
}