{
  "contractName": "AuctionProcess",
  "abi": [
    {
      "constant": true,
      "inputs": [
        {
          "name": "",
          "type": "uint256"
        }
      ],
      "name": "patentNameMap",
      "outputs": [
        {
          "name": "",
          "type": "string"
        }
      ],
      "payable": false,
      "stateMutability": "view",
      "type": "function",
      "signature": "0x05c1ba22"
    },
    {
      "constant": true,
      "inputs": [
        {
          "name": "patentId",
          "type": "uint256"
        }
      ],
      "name": "getPatentName",
      "outputs": [
        {
          "name": "",
          "type": "string"
        }
      ],
      "payable": false,
      "stateMutability": "view",
      "type": "function",
      "signature": "0x087344d3"
    },
    {
      "constant": true,
      "inputs": [
        {
          "name": "patentId",
          "type": "uint256"
        }
      ],
      "name": "getPatentType",
      "outputs": [
        {
          "name": "",
          "type": "string"
        }
      ],
      "payable": false,
      "stateMutability": "view",
      "type": "function",
      "signature": "0x1a241775"
    },
    {
      "constant": true,
      "inputs": [
        {
          "name": "",
          "type": "address"
        },
        {
          "name": "",
          "type": "uint256"
        }
      ],
      "name": "userBidMap",
      "outputs": [
        {
          "name": "auctionId",
          "type": "uint256"
        },
        {
          "name": "bidPrice",
          "type": "uint256"
        }
      ],
      "payable": false,
      "stateMutability": "view",
      "type": "function",
      "signature": "0x20f5a9e6"
    },
    {
      "constant": false,
      "inputs": [
        {
          "name": "auctionId",
          "type": "uint256"
        },
        {
          "name": "bidAmount",
          "type": "uint256"
        }
      ],
      "name": "addBid",
      "outputs": [],
      "payable": false,
      "stateMutability": "nonpayable",
      "type": "function",
      "signature": "0x21b23f04"
    },
    {
      "constant": false,
      "inputs": [
        {
          "name": "patentId",
          "type": "uint256"
        },
        {
          "name": "person",
          "type": "address"
        }
      ],
      "name": "addLisenceHolder",
      "outputs": [],
      "payable": false,
      "stateMutability": "nonpayable",
      "type": "function",
      "signature": "0x25700466"
    },
    {
      "constant": true,
      "inputs": [
        {
          "name": "auctionId",
          "type": "uint256"
        }
      ],
      "name": "allBids",
      "outputs": [
        {
          "components": [
            {
              "name": "bidderAddress",
              "type": "address"
            },
            {
              "name": "bidPrice",
              "type": "uint256"
            }
          ],
          "name": "",
          "type": "tuple[]"
        }
      ],
      "payable": false,
      "stateMutability": "view",
      "type": "function",
      "signature": "0x2fb5eac2"
    },
    {
      "constant": true,
      "inputs": [
        {
          "name": "",
          "type": "address"
        },
        {
          "name": "",
          "type": "uint256"
        }
      ],
      "name": "ownerPatentsMap",
      "outputs": [
        {
          "name": "patentName",
          "type": "string"
        },
        {
          "name": "patentType",
          "type": "string"
        },
        {
          "name": "patentSubType",
          "type": "string"
        },
        {
          "name": "issueDate",
          "type": "string"
        },
        {
          "name": "patentId",
          "type": "uint256"
        }
      ],
      "payable": false,
      "stateMutability": "view",
      "type": "function",
      "signature": "0x46e5e8e2"
    },
    {
      "constant": false,
      "inputs": [
        {
          "name": "owners",
          "type": "address[]"
        },
        {
          "name": "lisenceHolders",
          "type": "address[]"
        },
        {
          "name": "patentName",
          "type": "string"
        },
        {
          "name": "issueDate",
          "type": "string"
        },
        {
          "name": "patentType",
          "type": "string"
        },
        {
          "name": "patentSubType",
          "type": "string"
        }
      ],
      "name": "registerPatent",
      "outputs": [
        {
          "name": "",
          "type": "uint256"
        }
      ],
      "payable": false,
      "stateMutability": "nonpayable",
      "type": "function",
      "signature": "0x4b2be01c"
    },
    {
      "constant": true,
      "inputs": [],
      "name": "getMyBids",
      "outputs": [
        {
          "components": [
            {
              "name": "auctionId",
              "type": "uint256"
            },
            {
              "name": "bidPrice",
              "type": "uint256"
            }
          ],
          "name": "",
          "type": "tuple[]"
        }
      ],
      "payable": false,
      "stateMutability": "view",
      "type": "function",
      "signature": "0x788077a7"
    },
    {
      "constant": false,
      "inputs": [
        {
          "name": "patentId",
          "type": "uint256"
        },
        {
          "name": "person",
          "type": "address"
        }
      ],
      "name": "addOwner",
      "outputs": [],
      "payable": false,
      "stateMutability": "nonpayable",
      "type": "function",
      "signature": "0x8cd1bb20"
    },
    {
      "constant": true,
      "inputs": [
        {
          "name": "patentId",
          "type": "uint256"
        }
      ],
      "name": "getOwnerList",
      "outputs": [
        {
          "name": "",
          "type": "address[]"
        }
      ],
      "payable": false,
      "stateMutability": "view",
      "type": "function",
      "signature": "0x8dd95e99"
    },
    {
      "constant": true,
      "inputs": [
        {
          "name": "patentId",
          "type": "uint256"
        }
      ],
      "name": "getPatent",
      "outputs": [
        {
          "components": [
            {
              "name": "owners",
              "type": "address[]"
            },
            {
              "name": "lisenceHolders",
              "type": "address[]"
            },
            {
              "name": "patentName",
              "type": "string"
            },
            {
              "name": "patentType",
              "type": "string"
            },
            {
              "name": "patentSubType",
              "type": "string"
            },
            {
              "name": "issueDate",
              "type": "string"
            },
            {
              "name": "patentId",
              "type": "uint256"
            }
          ],
          "name": "",
          "type": "tuple"
        }
      ],
      "payable": false,
      "stateMutability": "view",
      "type": "function",
      "signature": "0x9c6d0d78"
    },
    {
      "constant": true,
      "inputs": [
        {
          "name": "",
          "type": "uint256"
        },
        {
          "name": "",
          "type": "uint256"
        }
      ],
      "name": "patentOwnerMap",
      "outputs": [
        {
          "name": "",
          "type": "address"
        }
      ],
      "payable": false,
      "stateMutability": "view",
      "type": "function",
      "signature": "0xbe90b054"
    },
    {
      "constant": false,
      "inputs": [
        {
          "name": "patentId",
          "type": "uint256"
        },
        {
          "name": "receiver",
          "type": "address"
        }
      ],
      "name": "transferPatent",
      "outputs": [],
      "payable": false,
      "stateMutability": "nonpayable",
      "type": "function",
      "signature": "0xd510bbd7"
    },
    {
      "constant": true,
      "inputs": [
        {
          "name": "",
          "type": "uint256"
        },
        {
          "name": "",
          "type": "uint256"
        }
      ],
      "name": "auctionToBidersMap",
      "outputs": [
        {
          "name": "bidderAddress",
          "type": "address"
        },
        {
          "name": "bidPrice",
          "type": "uint256"
        }
      ],
      "payable": false,
      "stateMutability": "view",
      "type": "function",
      "signature": "0xd88730d5"
    },
    {
      "constant": true,
      "inputs": [
        {
          "name": "",
          "type": "uint256"
        }
      ],
      "name": "patents",
      "outputs": [
        {
          "name": "patentName",
          "type": "string"
        },
        {
          "name": "patentType",
          "type": "string"
        },
        {
          "name": "patentSubType",
          "type": "string"
        },
        {
          "name": "issueDate",
          "type": "string"
        },
        {
          "name": "patentId",
          "type": "uint256"
        }
      ],
      "payable": false,
      "stateMutability": "view",
      "type": "function",
      "signature": "0xf422bc68"
    },
    {
      "constant": true,
      "inputs": [
        {
          "name": "owner",
          "type": "address"
        }
      ],
      "name": "getPatentsByOwner",
      "outputs": [
        {
          "components": [
            {
              "name": "owners",
              "type": "address[]"
            },
            {
              "name": "lisenceHolders",
              "type": "address[]"
            },
            {
              "name": "patentName",
              "type": "string"
            },
            {
              "name": "patentType",
              "type": "string"
            },
            {
              "name": "patentSubType",
              "type": "string"
            },
            {
              "name": "issueDate",
              "type": "string"
            },
            {
              "name": "patentId",
              "type": "uint256"
            }
          ],
          "name": "",
          "type": "tuple[]"
        }
      ],
      "payable": false,
      "stateMutability": "view",
      "type": "function",
      "signature": "0xfc8f39f5"
    },
    {
      "constant": false,
      "inputs": [
        {
          "name": "patentId",
          "type": "uint256"
        },
        {
          "name": "minimumBid",
          "type": "uint256"
        },
        {
          "name": "numberOfDays",
          "type": "uint256"
        }
      ],
      "name": "createAuction",
      "outputs": [
        {
          "name": "",
          "type": "uint256"
        }
      ],
      "payable": false,
      "stateMutability": "nonpayable",
      "type": "function",
      "signature": "0xcda4beef"
    },
    {
      "constant": true,
      "inputs": [
        {
          "name": "auctionId",
          "type": "uint256"
        }
      ],
      "name": "getResult",
      "outputs": [
        {
          "name": "",
          "type": "string"
        },
        {
          "name": "",
          "type": "address"
        }
      ],
      "payable": false,
      "stateMutability": "view",
      "type": "function",
      "signature": "0x995e4339"
    },
    {
      "constant": true,
      "inputs": [],
      "name": "getAuctions",
      "outputs": [
        {
          "components": [
            {
              "name": "auctionId",
              "type": "uint256"
            },
            {
              "name": "patentId",
              "type": "uint256"
            },
            {
              "name": "endTime",
              "type": "uint256"
            },
            {
              "name": "minimumBidAuctioneer",
              "type": "uint256"
            },
            {
              "name": "patentType",
              "type": "string"
            },
            {
              "name": "auctioneer",
              "type": "address[]"
            }
          ],
          "name": "",
          "type": "tuple[]"
        }
      ],
      "payable": false,
      "stateMutability": "view",
      "type": "function",
      "signature": "0xd7c06919"
    }
  ],
  "bytecode": "0x608060405234801561001057600080fd5b50613f4a806100206000396000f3fe60806040526004361061011d576000357c0100000000000000000000000000000000000000000000000000000000900463ffffffff16806305c1ba2214610122578063087344d31461015f5780631a2417751461019c57806320f5a9e6146101d957806321b23f041461021757806325700466146102405780632fb5eac21461026957806346e5e8e2146102a65780634b2be01c146102e7578063788077a7146103245780638cd1bb201461034f5780638dd95e9914610378578063995e4339146103b55780639c6d0d78146103f3578063be90b05414610430578063cda4beef1461046d578063d510bbd7146104aa578063d7c06919146104d3578063d88730d5146104fe578063f422bc681461053c578063fc8f39f51461057d575b600080fd5b34801561012e57600080fd5b50610149600480360361014491908101906133d8565b6105ba565b6040516101569190613b5e565b60405180910390f35b34801561016b57600080fd5b50610186600480360361018191908101906133d8565b61066a565b6040516101939190613b80565b60405180910390f35b3480156101a857600080fd5b506101c360048036036101be91908101906133d8565b61071f565b6040516101d09190613b80565b60405180910390f35b3480156101e557600080fd5b5061020060048036036101fb9190810190613283565b6107e1565b60405161020e929190613c7e565b60405180910390f35b34801561022357600080fd5b5061023e6004803603610239919081019061343d565b610821565b005b34801561024c57600080fd5b5061026760048036036102629190810190613401565b610978565b005b34801561027557600080fd5b50610290600480360361028b91908101906133d8565b610a00565b60405161029d9190613ad6565b60405180910390f35b3480156102b257600080fd5b506102cd60048036036102c89190810190613283565b610ad2565b6040516102de959493929190613bd2565b60405180910390f35b3480156102f357600080fd5b5061030e600480360361030991908101906132bf565b610d84565b60405161031b9190613c63565b60405180910390f35b34801561033057600080fd5b5061033961109f565b6040516103469190613b1a565b60405180910390f35b34801561035b57600080fd5b5061037660048036036103719190810190613401565b61114f565b005b34801561038457600080fd5b5061039f600480360361039a91908101906133d8565b611339565b6040516103ac9190613ab4565b60405180910390f35b3480156103c157600080fd5b506103dc60048036036103d791908101906133d8565b6113da565b6040516103ea929190613ba2565b60405180910390f35b3480156103ff57600080fd5b5061041a600480360361041591908101906133d8565b611541565b6040516104279190613c41565b60405180910390f35b34801561043c57600080fd5b506104576004803603610452919081019061343d565b611927565b6040516104649190613a70565b60405180910390f35b34801561047957600080fd5b50610494600480360361048f9190810190613479565b611974565b6040516104a19190613c63565b60405180910390f35b3480156104b657600080fd5b506104d160048036036104cc9190810190613401565b611acc565b005b3480156104df57600080fd5b506104e86122f7565b6040516104f59190613af8565b60405180910390f35b34801561050a57600080fd5b506105256004803603610520919081019061343d565b6124f1565b604051610533929190613a8b565b60405180910390f35b34801561054857600080fd5b50610563600480360361055e91908101906133d8565b612551565b604051610574959493929190613bd2565b60405180910390f35b34801561058957600080fd5b506105a4600480360361059f919081019061325a565b6127f6565b6040516105b19190613b3c565b60405180910390f35b60026020528060005260406000206000915090508054600181600116156101000203166002900480601f0160208091040260200160405190810160405280929190818152602001828054600181600116156101000203166002900480156106625780601f1061063757610100808354040283529160200191610662565b820191906000526020600020905b81548152906001019060200180831161064557829003601f168201915b505050505081565b6060600260008381526020019081526020016000208054600181600116156101000203166002900480601f0160208091040260200160405190810160405280929190818152602001828054600181600116156101000203166002900480156107135780601f106106e857610100808354040283529160200191610713565b820191906000526020600020905b8154815290600101906020018083116106f657829003601f168201915b50505050509050919050565b606060008281548110151561073057fe5b90600052602060002090600702016003018054600181600116156101000203166002900480601f0160208091040260200160405190810160405280929190818152602001828054600181600116156101000203166002900480156107d55780601f106107aa576101008083540402835291602001916107d5565b820191906000526020600020905b8154815290600101906020018083116107b857829003601f168201915b50505050509050919050565b6004602052816000526040600020818154811015156107fc57fe5b9060005260206000209060020201600091509150508060000154908060010154905082565b600460003373ffffffffffffffffffffffffffffffffffffffff1673ffffffffffffffffffffffffffffffffffffffff1681526020019081526020016000206040805190810160405280848152602001838152509080600181540180825580915050906001820390600052602060002090600202016000909192909190915060008201518160000155602082015181600101555050506005600083815260200190815260200160002060408051908101604052803373ffffffffffffffffffffffffffffffffffffffff168152602001838152509080600181540180825580915050906001820390600052602060002090600202016000909192909190915060008201518160000160006101000a81548173ffffffffffffffffffffffffffffffffffffffff021916908373ffffffffffffffffffffffffffffffffffffffff160217905550602082015181600101555050505050565b60008281548110151561098757fe5b90600052602060002090600702016001018190806001815401808255809150509060018203906000526020600020016000909192909190916101000a81548173ffffffffffffffffffffffffffffffffffffffff021916908373ffffffffffffffffffffffffffffffffffffffff160217905550505050565b606060056000838152602001908152602001600020805480602002602001604051908101604052809291908181526020016000905b82821015610ac757838290600052602060002090600202016040805190810160405290816000820160009054906101000a900473ffffffffffffffffffffffffffffffffffffffff1673ffffffffffffffffffffffffffffffffffffffff1673ffffffffffffffffffffffffffffffffffffffff16815260200160018201548152505081526020019060010190610a35565b505050509050919050565b600360205281600052604060002081815481101515610aed57fe5b906000526020600020906007020160009150915050806002018054600181600116156101000203166002900480601f016020809104026020016040519081016040528092919081815260200182805460018160011615610100020316600290048015610b9a5780601f10610b6f57610100808354040283529160200191610b9a565b820191906000526020600020905b815481529060010190602001808311610b7d57829003601f168201915b505050505090806003018054600181600116156101000203166002900480601f016020809104026020016040519081016040528092919081815260200182805460018160011615610100020316600290048015610c385780601f10610c0d57610100808354040283529160200191610c38565b820191906000526020600020905b815481529060010190602001808311610c1b57829003601f168201915b505050505090806004018054600181600116156101000203166002900480601f016020809104026020016040519081016040528092919081815260200182805460018160011615610100020316600290048015610cd65780601f10610cab57610100808354040283529160200191610cd6565b820191906000526020600020905b815481529060010190602001808311610cb957829003601f168201915b505050505090806005018054600181600116156101000203166002900480601f016020809104026020016040519081016040528092919081815260200182805460018160011615610100020316600290048015610d745780601f10610d4957610100808354040283529160200191610d74565b820191906000526020600020905b815481529060010190602001808311610d5757829003601f168201915b5050505050908060060154905085565b6000806000805490509050600060e0604051908101604052808a815260200189815260200188815260200186815260200185815260200187815260200183815250908060018154018082558091505090600182039060005260206000209060070201600090919290919091506000820151816000019080519060200190610e0c929190612c43565b506020820151816001019080519060200190610e29929190612c43565b506040820151816002019080519060200190610e46929190612ccd565b506060820151816003019080519060200190610e63929190612ccd565b506080820151816004019080519060200190610e80929190612ccd565b5060a0820151816005019080519060200190610e9d929190612ccd565b5060c0820151816006015550505087600160008381526020019081526020016000209080519060200190610ed2929190612d4d565b5085600260008381526020019081526020016000209080519060200190610efa929190612dd7565b5060008090505b885181101561109057600360008a83815181101515610f1c57fe5b9060200190602002015173ffffffffffffffffffffffffffffffffffffffff1673ffffffffffffffffffffffffffffffffffffffff168152602001908152602001600020600083815481101515610f6f57fe5b9060005260206000209060070201908060018154018082558091505090600182039060005260206000209060070201600090919290919091506000820181600001908054610fbe929190612e57565b506001820181600101908054610fd5929190612e57565b5060028201816002019080546001816001161561010002031660029004610ffd929190612ea9565b5060038201816003019080546001816001161561010002031660029004611025929190612ea9565b506004820181600401908054600181600116156101000203166002900461104d929190612ea9565b5060058201816005019080546001816001161561010002031660029004611075929190612ea9565b50600682015481600601555050508080600101915050610f01565b50809150509695505050505050565b6060600460003373ffffffffffffffffffffffffffffffffffffffff1673ffffffffffffffffffffffffffffffffffffffff168152602001908152602001600020805480602002602001604051908101604052809291908181526020016000905b8282101561114657838290600052602060002090600202016040805190810160405290816000820154815260200160018201548152505081526020019060010190611100565b50505050905090565b60008281548110151561115e57fe5b90600052602060002090600702016000018190806001815401808255809150509060018203906000526020600020016000909192909190916101000a81548173ffffffffffffffffffffffffffffffffffffffff021916908373ffffffffffffffffffffffffffffffffffffffff16021790555050600360008273ffffffffffffffffffffffffffffffffffffffff1673ffffffffffffffffffffffffffffffffffffffff16815260200190815260200160002060008381548110151561122157fe5b9060005260206000209060070201908060018154018082558091505090600182039060005260206000209060070201600090919290919091506000820181600001908054611270929190612e57565b506001820181600101908054611287929190612e57565b50600282018160020190805460018160011615610100020316600290046112af929190612ea9565b50600382018160030190805460018160011615610100020316600290046112d7929190612ea9565b50600482018160040190805460018160011615610100020316600290046112ff929190612ea9565b5060058201816005019080546001816001161561010002031660029004611327929190612ea9565b50600682015481600601555050505050565b6060600160008381526020019081526020016000208054806020026020016040519081016040528092919081815260200182805480156113ce57602002820191906000526020600020905b8160009054906101000a900473ffffffffffffffffffffffffffffffffffffffff1673ffffffffffffffffffffffffffffffffffffffff1681526020019060010190808311611384575b50505050509050919050565b6060600060606113e984610a00565b9050600060076000868152602001908152602001600020549050600080600090505b83518110156114815782848281518110151561142357fe5b9060200190602002015160200151111561147457838181518110151561144557fe5b90602001906020020151602001519250838181518110151561146357fe5b906020019060200201516000015191505b808060010191505061140b565b50600073ffffffffffffffffffffffffffffffffffffffff168173ffffffffffffffffffffffffffffffffffffffff161415156114fc57806040805190810160405280600781526020017f5355434345535300000000000000000000000000000000000000000000000000815250909450945050505061153c565b806040805190810160405280600781526020017f4641494c5552450000000000000000000000000000000000000000000000000081525090945094505050505b915091565b611549612f30565b60008281548110151561155857fe5b906000526020600020906007020160e06040519081016040529081600082018054806020026020016040519081016040528092919081815260200182805480156115f757602002820191906000526020600020905b8160009054906101000a900473ffffffffffffffffffffffffffffffffffffffff1673ffffffffffffffffffffffffffffffffffffffff16815260200190600101908083116115ad575b505050505081526020016001820180548060200260200160405190810160405280929190818152602001828054801561168557602002820191906000526020600020905b8160009054906101000a900473ffffffffffffffffffffffffffffffffffffffff1673ffffffffffffffffffffffffffffffffffffffff168152602001906001019080831161163b575b50505050508152602001600282018054600181600116156101000203166002900480601f0160208091040260200160405190810160405280929190818152602001828054600181600116156101000203166002900480156117275780601f106116fc57610100808354040283529160200191611727565b820191906000526020600020905b81548152906001019060200180831161170a57829003601f168201915b50505050508152602001600382018054600181600116156101000203166002900480601f0160208091040260200160405190810160405280929190818152602001828054600181600116156101000203166002900480156117c95780601f1061179e576101008083540402835291602001916117c9565b820191906000526020600020905b8154815290600101906020018083116117ac57829003601f168201915b50505050508152602001600482018054600181600116156101000203166002900480601f01602080910402602001604051908101604052809291908181526020018280546001816001161561010002031660029004801561186b5780601f106118405761010080835404028352916020019161186b565b820191906000526020600020905b81548152906001019060200180831161184e57829003601f168201915b50505050508152602001600582018054600181600116156101000203166002900480601f01602080910402602001604051908101604052809291908181526020018280546001816001161561010002031660029004801561190d5780601f106118e25761010080835404028352916020019161190d565b820191906000526020600020905b8154815290600101906020018083116118f057829003601f168201915b505050505081526020016006820154815250509050919050565b60016020528160005260406000208181548110151561194257fe5b906000526020600020016000915091509054906101000a900473ffffffffffffffffffffffffffffffffffffffff1681565b6000808490506000603c80601886020202905060008142019050611996612f6e565b60c0604051908101604052808581526020018981526020018381526020018881526020016119c38a61071f565b81526020016119d18a611339565b8152509050600660003373ffffffffffffffffffffffffffffffffffffffff1673ffffffffffffffffffffffffffffffffffffffff1681526020019081526020016000208190806001815401808255809150509060018203906000526020600020906006020160009091929091909150600082015181600001556020820151816001015560408201518160020155606082015181600301556080820151816004019080519060200190611a85929190612ccd565b5060a0820151816005019080519060200190611aa2929190612fa5565b50505050866007600086815260200190815260200160002081905550839450505050509392505050565b60008090505b600083815481101515611ae157fe5b906000526020600020906007020160000180549050811015611c10573373ffffffffffffffffffffffffffffffffffffffff16600084815481101515611b2357fe5b906000526020600020906007020160000182815481101515611b4157fe5b9060005260206000200160009054906101000a900473ffffffffffffffffffffffffffffffffffffffff1673ffffffffffffffffffffffffffffffffffffffff161415611c035781600084815481101515611b9857fe5b906000526020600020906007020160000182815481101515611bb657fe5b9060005260206000200160006101000a81548173ffffffffffffffffffffffffffffffffffffffff021916908373ffffffffffffffffffffffffffffffffffffffff160217905550611c10565b8080600101915050611ad2565b5060008090505b600360003373ffffffffffffffffffffffffffffffffffffffff1673ffffffffffffffffffffffffffffffffffffffff16815260200190815260200160002080549050811015611f8157600080905083600360003373ffffffffffffffffffffffffffffffffffffffff1673ffffffffffffffffffffffffffffffffffffffff16815260200190815260200160002083815481101515611cb357fe5b9060005260206000209060070201600601541415611cd45781905050611f81565b60006001600360003373ffffffffffffffffffffffffffffffffffffffff1673ffffffffffffffffffffffffffffffffffffffff16815260200190815260200160002080549050039050600360003373ffffffffffffffffffffffffffffffffffffffff1673ffffffffffffffffffffffffffffffffffffffff16815260200190815260200160002081815481101515611d6a57fe5b9060005260206000209060070201600360003373ffffffffffffffffffffffffffffffffffffffff1673ffffffffffffffffffffffffffffffffffffffff16815260200190815260200160002083815481101515611dc457fe5b90600052602060002090600702016000820181600001908054611de8929190612e57565b506001820181600101908054611dff929190612e57565b5060028201816002019080546001816001161561010002031660029004611e27929190612ea9565b5060038201816003019080546001816001161561010002031660029004611e4f929190612ea9565b5060048201816004019080546001816001161561010002031660029004611e77929190612ea9565b5060058201816005019080546001816001161561010002031660029004611e9f929190612ea9565b5060068201548160060155905050600360003373ffffffffffffffffffffffffffffffffffffffff1673ffffffffffffffffffffffffffffffffffffffff16815260200190815260200160002081815481101515611ef957fe5b906000526020600020906007020160008082016000611f18919061302f565b600182016000611f28919061302f565b600282016000611f389190613050565b600382016000611f489190613050565b600482016000611f589190613050565b600582016000611f689190613050565b6006820160009055505050508080600101915050611c17565b5060008090505b600360003373ffffffffffffffffffffffffffffffffffffffff1673ffffffffffffffffffffffffffffffffffffffff168152602001908152602001600020805490508110156122f257600080905083600360003373ffffffffffffffffffffffffffffffffffffffff1673ffffffffffffffffffffffffffffffffffffffff1681526020019081526020016000208381548110151561202457fe5b906000526020600020906007020160060154141561204557819050506122f2565b60006001600360003373ffffffffffffffffffffffffffffffffffffffff1673ffffffffffffffffffffffffffffffffffffffff16815260200190815260200160002080549050039050600360003373ffffffffffffffffffffffffffffffffffffffff1673ffffffffffffffffffffffffffffffffffffffff168152602001908152602001600020818154811015156120db57fe5b9060005260206000209060070201600360003373ffffffffffffffffffffffffffffffffffffffff1673ffffffffffffffffffffffffffffffffffffffff1681526020019081526020016000208381548110151561213557fe5b90600052602060002090600702016000820181600001908054612159929190612e57565b506001820181600101908054612170929190612e57565b5060028201816002019080546001816001161561010002031660029004612198929190612ea9565b50600382018160030190805460018160011615610100020316600290046121c0929190612ea9565b50600482018160040190805460018160011615610100020316600290046121e8929190612ea9565b5060058201816005019080546001816001161561010002031660029004612210929190612ea9565b5060068201548160060155905050600360003373ffffffffffffffffffffffffffffffffffffffff1673ffffffffffffffffffffffffffffffffffffffff1681526020019081526020016000208181548110151561226a57fe5b906000526020600020906007020160008082016000612289919061302f565b600182016000612299919061302f565b6002820160006122a99190613050565b6003820160006122b99190613050565b6004820160006122c99190613050565b6005820160006122d99190613050565b6006820160009055505050508080600101915050611f88565b505050565b606080600660003373ffffffffffffffffffffffffffffffffffffffff1673ffffffffffffffffffffffffffffffffffffffff168152602001908152602001600020805480602002602001604051908101604052809291908181526020016000905b828210156124e4578382906000526020600020906006020160c0604051908101604052908160008201548152602001600182015481526020016002820154815260200160038201548152602001600482018054600181600116156101000203166002900480601f01602080910402602001604051908101604052809291908181526020018280546001816001161561010002031660029004801561243e5780601f106124135761010080835404028352916020019161243e565b820191906000526020600020905b81548152906001019060200180831161242157829003601f168201915b50505050508152602001600582018054806020026020016040519081016040528092919081815260200182805480156124cc57602002820191906000526020600020905b8160009054906101000a900473ffffffffffffffffffffffffffffffffffffffff1673ffffffffffffffffffffffffffffffffffffffff1681526020019060010190808311612482575b50505050508152505081526020019060010190612359565b5050505090508091505090565b60056020528160005260406000208181548110151561250c57fe5b9060005260206000209060020201600091509150508060000160009054906101000a900473ffffffffffffffffffffffffffffffffffffffff16908060010154905082565b60008181548110151561256057fe5b9060005260206000209060070201600091509050806002018054600181600116156101000203166002900480601f01602080910402602001604051908101604052809291908181526020018280546001816001161561010002031660029004801561260c5780601f106125e15761010080835404028352916020019161260c565b820191906000526020600020905b8154815290600101906020018083116125ef57829003601f168201915b505050505090806003018054600181600116156101000203166002900480601f0160208091040260200160405190810160405280929190818152602001828054600181600116156101000203166002900480156126aa5780601f1061267f576101008083540402835291602001916126aa565b820191906000526020600020905b81548152906001019060200180831161268d57829003601f168201915b505050505090806004018054600181600116156101000203166002900480601f0160208091040260200160405190810160405280929190818152602001828054600181600116156101000203166002900480156127485780601f1061271d57610100808354040283529160200191612748565b820191906000526020600020905b81548152906001019060200180831161272b57829003601f168201915b505050505090806005018054600181600116156101000203166002900480601f0160208091040260200160405190810160405280929190818152602001828054600181600116156101000203166002900480156127e65780601f106127bb576101008083540402835291602001916127e6565b820191906000526020600020905b8154815290600101906020018083116127c957829003601f168201915b5050505050908060060154905085565b6060600360008373ffffffffffffffffffffffffffffffffffffffff1673ffffffffffffffffffffffffffffffffffffffff168152602001908152602001600020805480602002602001604051908101604052809291908181526020016000905b82821015612c38578382906000526020600020906007020160e060405190810160405290816000820180548060200260200160405190810160405280929190818152602001828054801561290057602002820191906000526020600020905b8160009054906101000a900473ffffffffffffffffffffffffffffffffffffffff1673ffffffffffffffffffffffffffffffffffffffff16815260200190600101908083116128b6575b505050505081526020016001820180548060200260200160405190810160405280929190818152602001828054801561298e57602002820191906000526020600020905b8160009054906101000a900473ffffffffffffffffffffffffffffffffffffffff1673ffffffffffffffffffffffffffffffffffffffff1681526020019060010190808311612944575b50505050508152602001600282018054600181600116156101000203166002900480601f016020809104026020016040519081016040528092919081815260200182805460018160011615610100020316600290048015612a305780601f10612a0557610100808354040283529160200191612a30565b820191906000526020600020905b815481529060010190602001808311612a1357829003601f168201915b50505050508152602001600382018054600181600116156101000203166002900480601f016020809104026020016040519081016040528092919081815260200182805460018160011615610100020316600290048015612ad25780601f10612aa757610100808354040283529160200191612ad2565b820191906000526020600020905b815481529060010190602001808311612ab557829003601f168201915b50505050508152602001600482018054600181600116156101000203166002900480601f016020809104026020016040519081016040528092919081815260200182805460018160011615610100020316600290048015612b745780601f10612b4957610100808354040283529160200191612b74565b820191906000526020600020905b815481529060010190602001808311612b5757829003601f168201915b50505050508152602001600582018054600181600116156101000203166002900480601f016020809104026020016040519081016040528092919081815260200182805460018160011615610100020316600290048015612c165780601f10612beb57610100808354040283529160200191612c16565b820191906000526020600020905b815481529060010190602001808311612bf957829003601f168201915b5050505050815260200160068201548152505081526020019060010190612857565b505050509050919050565b828054828255906000526020600020908101928215612cbc579160200282015b82811115612cbb5782518260006101000a81548173ffffffffffffffffffffffffffffffffffffffff021916908373ffffffffffffffffffffffffffffffffffffffff16021790555091602001919060010190612c63565b5b509050612cc99190613098565b5090565b828054600181600116156101000203166002900490600052602060002090601f016020900481019282601f10612d0e57805160ff1916838001178555612d3c565b82800160010185558215612d3c579182015b82811115612d3b578251825591602001919060010190612d20565b5b509050612d4991906130db565b5090565b828054828255906000526020600020908101928215612dc6579160200282015b82811115612dc55782518260006101000a81548173ffffffffffffffffffffffffffffffffffffffff021916908373ffffffffffffffffffffffffffffffffffffffff16021790555091602001919060010190612d6d565b5b509050612dd39190613100565b5090565b828054600181600116156101000203166002900490600052602060002090601f016020900481019282601f10612e1857805160ff1916838001178555612e46565b82800160010185558215612e46579182015b82811115612e45578251825591602001919060010190612e2a565b5b509050612e5391906130db565b5090565b828054828255906000526020600020908101928215612e985760005260206000209182015b82811115612e97578254825591600101919060010190612e7c565b5b509050612ea59190613098565b5090565b828054600181600116156101000203166002900490600052602060002090601f016020900481019282601f10612ee25780548555612f1f565b82800160010185558215612f1f57600052602060002091601f016020900482015b82811115612f1e578254825591600101919060010190612f03565b5b509050612f2c91906130db565b5090565b60e060405190810160405280606081526020016060815260200160608152602001606081526020016060815260200160608152602001600081525090565b60c0604051908101604052806000815260200160008152602001600081526020016000815260200160608152602001606081525090565b82805482825590600052602060002090810192821561301e579160200282015b8281111561301d5782518260006101000a81548173ffffffffffffffffffffffffffffffffffffffff021916908373ffffffffffffffffffffffffffffffffffffffff16021790555091602001919060010190612fc5565b5b50905061302b9190613100565b5090565b508054600082559060005260206000209081019061304d91906130db565b50565b50805460018160011615610100020316600290046000825580601f106130765750613095565b601f01602090049060005260206000209081019061309491906130db565b5b50565b6130d891905b808211156130d457600081816101000a81549073ffffffffffffffffffffffffffffffffffffffff02191690555060010161309e565b5090565b90565b6130fd91905b808211156130f95760008160009055506001016130e1565b5090565b90565b61314091905b8082111561313c57600081816101000a81549073ffffffffffffffffffffffffffffffffffffffff021916905550600101613106565b5090565b90565b600061314f8235613e8f565b905092915050565b60006131638235613ea1565b905092915050565b600082601f830112151561317e57600080fd5b813561319161318c82613cd4565b613ca7565b915081818352602084019350602081019050838560208402820111156131b657600080fd5b60005b838110156131e657816131cc8882613157565b8452602084019350602083019250506001810190506131b9565b5050505092915050565b600082601f830112151561320357600080fd5b813561321661321182613cfc565b613ca7565b9150808252602083016020830185838301111561323257600080fd5b61323d838284613ebd565b50505092915050565b60006132528235613eb3565b905092915050565b60006020828403121561326c57600080fd5b600061327a84828501613143565b91505092915050565b6000806040838503121561329657600080fd5b60006132a485828601613143565b92505060206132b585828601613246565b9150509250929050565b60008060008060008060c087890312156132d857600080fd5b600087013567ffffffffffffffff8111156132f257600080fd5b6132fe89828a0161316b565b965050602087013567ffffffffffffffff81111561331b57600080fd5b61332789828a0161316b565b955050604087013567ffffffffffffffff81111561334457600080fd5b61335089828a016131f0565b945050606087013567ffffffffffffffff81111561336d57600080fd5b61337989828a016131f0565b935050608087013567ffffffffffffffff81111561339657600080fd5b6133a289828a016131f0565b92505060a087013567ffffffffffffffff8111156133bf57600080fd5b6133cb89828a016131f0565b9150509295509295509295565b6000602082840312156133ea57600080fd5b60006133f884828501613246565b91505092915050565b6000806040838503121561341457600080fd5b600061342285828601613246565b925050602061343385828601613157565b9150509250929050565b6000806040838503121561345057600080fd5b600061345e85828601613246565b925050602061346f85828601613246565b9150509250929050565b60008060006060848603121561348e57600080fd5b600061349c86828701613246565b93505060206134ad86828701613246565b92505060406134be86828701613246565b9150509250925092565b6134d181613e53565b82525050565b6134e081613e41565b82525050565b60006134f182613d8e565b80845260208401935061350383613d35565b60005b82811015613535576135198683516134d7565b61352282613df3565b9150602086019550600181019050613506565b50849250505092915050565b600061354c82613d83565b80845260208401935061355e83613d28565b60005b82811015613590576135748683516134d7565b61357d82613de6565b9150602086019550600181019050613561565b50849250505092915050565b60006135a782613d99565b8084526020840193506135b983613d42565b60005b828110156135eb576135cf8683516134c8565b6135d882613e00565b91506020860195506001810190506135bc565b50849250505092915050565b600061360282613da4565b80845260208401935061361483613d4f565b60005b828110156136465761362a8683516137f5565b61363382613e0d565b9150604086019550600181019050613617565b50849250505092915050565b600061365d82613daf565b8084526020840193508360208202850161367685613d5c565b60005b848110156136af578383038852613691838351613824565b925061369c82613e1a565b9150602088019750600181019050613679565b508196508694505050505092915050565b60006136cb82613dba565b8084526020840193506136dd83613d69565b60005b8281101561370f576136f38683516138b4565b6136fc82613e27565b91506040860195506001810190506136e0565b50849250505092915050565b600061372682613dc5565b8084526020840193508360208202850161373f85613d76565b60005b8481101561377857838303885261375a8383516139a2565b925061376582613e34565b9150602088019750600181019050613742565b508196508694505050505092915050565b600061379482613ddb565b8084526137a8816020860160208601613ecc565b6137b181613eff565b602085010191505092915050565b60006137ca82613dd0565b8084526137de816020860160208601613ecc565b6137e781613eff565b602085010191505092915050565b60408201600082015161380b60008501826134d7565b50602082015161381e6020850182613a61565b50505050565b600060c08301600083015161383c6000860182613a61565b50602083015161384f6020860182613a61565b5060408301516138626040860182613a61565b5060608301516138756060860182613a61565b506080830151848203608086015261388d82826137bf565b91505060a083015184820360a08601526138a78282613541565b9150508091505092915050565b6040820160008201516138ca6000850182613a61565b5060208201516138dd6020850182613a61565b50505050565b600060e0830160008301518482036000860152613900828261359c565b9150506020830151848203602086015261391a828261359c565b9150506040830151848203604086015261393482826137bf565b9150506060830151848203606086015261394e82826137bf565b9150506080830151848203608086015261396882826137bf565b91505060a083015184820360a086015261398282826137bf565b91505060c083015161399760c0860182613a61565b508091505092915050565b600060e08301600083015184820360008601526139bf828261359c565b915050602083015184820360208601526139d9828261359c565b915050604083015184820360408601526139f382826137bf565b91505060608301518482036060860152613a0d82826137bf565b91505060808301518482036080860152613a2782826137bf565b91505060a083015184820360a0860152613a4182826137bf565b91505060c0830151613a5660c0860182613a61565b508091505092915050565b613a6a81613e85565b82525050565b6000602082019050613a8560008301846134d7565b92915050565b6000604082019050613aa060008301856134d7565b613aad6020830184613a61565b9392505050565b60006020820190508181036000830152613ace81846134e6565b905092915050565b60006020820190508181036000830152613af081846135f7565b905092915050565b60006020820190508181036000830152613b128184613652565b905092915050565b60006020820190508181036000830152613b3481846136c0565b905092915050565b60006020820190508181036000830152613b56818461371b565b905092915050565b60006020820190508181036000830152613b7881846137bf565b905092915050565b60006020820190508181036000830152613b9a8184613789565b905092915050565b60006040820190508181036000830152613bbc8185613789565b9050613bcb60208301846134d7565b9392505050565b600060a0820190508181036000830152613bec81886137bf565b90508181036020830152613c0081876137bf565b90508181036040830152613c1481866137bf565b90508181036060830152613c2881856137bf565b9050613c376080830184613a61565b9695505050505050565b60006020820190508181036000830152613c5b81846138e3565b905092915050565b6000602082019050613c786000830184613a61565b92915050565b6000604082019050613c936000830185613a61565b613ca06020830184613a61565b9392505050565b6000604051905081810181811067ffffffffffffffff82111715613cca57600080fd5b8060405250919050565b600067ffffffffffffffff821115613ceb57600080fd5b602082029050602081019050919050565b600067ffffffffffffffff821115613d1357600080fd5b601f19601f8301169050602081019050919050565b6000602082019050919050565b6000602082019050919050565b6000602082019050919050565b6000602082019050919050565b6000602082019050919050565b6000602082019050919050565b6000602082019050919050565b600081519050919050565b600081519050919050565b600081519050919050565b600081519050919050565b600081519050919050565b600081519050919050565b600081519050919050565b600081519050919050565b600081519050919050565b6000602082019050919050565b6000602082019050919050565b6000602082019050919050565b6000602082019050919050565b6000602082019050919050565b6000602082019050919050565b6000602082019050919050565b6000613e4c82613e65565b9050919050565b6000613e5e82613e65565b9050919050565b600073ffffffffffffffffffffffffffffffffffffffff82169050919050565b6000819050919050565b6000613e9a82613e65565b9050919050565b6000613eac82613e65565b9050919050565b6000819050919050565b82818337600083830152505050565b60005b83811015613eea578082015181840152602081019050613ecf565b83811115613ef9576000848401525b50505050565b6000601f19601f830116905091905056fea265627a7a72305820a65b529a86002b6bfa2103c7a8344d37e3ef1a705c17f0702ff1547c9d9553926c6578706572696d656e74616cf50037",
  "source": "pragma experimental ABIEncoderV2;\n\nimport \"./PatentManager.sol\";\nimport \"./Bidding.sol\";\n\ncontract AuctionProcess is PatentManager, Bidding{\n\n    struct Auction {\n        uint auctionId;\n        uint patentId;\n        uint endTime; \n        uint minimumBidAuctioneer; // set by the Auctioneer !\n        string patentType;\n        address[] auctioneer;\n    }\n\n    // Maps auctioneer to the aucitonId \n    // May contain multiple auctionIds \n    mapping(address => Auction[]) auctioneerAuctionMap;\n    mapping(uint=>uint) auctionToPriceMap;\n\n\n    function createAuction(uint patentId, uint minimumBid, uint numberOfDays) public returns(uint) {\n        uint auctionId = patentId;\n        uint num_seconds = numberOfDays*24*60*60;\n        uint endTime = block.timestamp + num_seconds;\n        Auction memory a = Auction(auctionId, patentId, endTime, minimumBid, getPatentType(patentId), getOwnerList(patentId));\n        auctioneerAuctionMap[msg.sender].push(a);\n        auctionToPriceMap[auctionId] = minimumBid;\n    \n        return (auctionId);\n    }\n\n    function getResult(uint auctionId) public view returns (string memory , address){\n        AddressPrice[] memory priceMap = allBids(auctionId);\n        uint maxBid = auctionToPriceMap[auctionId];\n        address winner;\n        for ( uint bidderCount = 0; bidderCount < priceMap.length ; bidderCount++ ){\n            if(priceMap[bidderCount].bidPrice > maxBid){\n                maxBid = priceMap[bidderCount].bidPrice;\n                winner = priceMap[bidderCount].bidderAddress;\n            }\n        }\n\n        if(winner != address(0x0)){\n            return (\"SUCCESS\", winner);\n        }else{\n            return (\"FAILURE\", winner);\n        }\n    } \n\n    function getAuctions() public view returns(Auction[] memory){   \n        Auction[] memory auction = auctioneerAuctionMap[msg.sender]; \n        return auction;\n    }\n}",
  "sourcePath": "/media/anup/B290EFD890EFA159/Block8/patent_bidding_transfer/patent-backend/contracts/AuctionProcess.sol",
  "compiler": {
    "name": "solc",
    "version": "0.5.0+commit.1d4f565a.Emscripten.clang"
  },
  "schemaVersion": "3.0.1",
  "updatedAt": "2019-02-19T12:08:04.330Z",
  "devdoc": {
    "methods": {}
  },
  "userdoc": {
    "methods": {}
  }
}