{
  "contractName": "AuctionProcess",
  "abi": [
    {
      "constant": true,
      "inputs": [
        {
          "name": "",
          "type": "uint256"
        }
      ],
      "name": "patentNameMap",
      "outputs": [
        {
          "name": "",
          "type": "string"
        }
      ],
      "payable": false,
      "stateMutability": "view",
      "type": "function"
    },
    {
      "constant": true,
      "inputs": [
        {
          "name": "patentId",
          "type": "uint256"
        }
      ],
      "name": "getPatentName",
      "outputs": [
        {
          "name": "",
          "type": "string"
        }
      ],
      "payable": false,
      "stateMutability": "view",
      "type": "function"
    },
    {
      "constant": true,
      "inputs": [
        {
          "name": "patentId",
          "type": "uint256"
        }
      ],
      "name": "getPatentType",
      "outputs": [
        {
          "name": "",
          "type": "string"
        }
      ],
      "payable": false,
      "stateMutability": "view",
      "type": "function"
    },
    {
      "constant": true,
      "inputs": [
        {
          "name": "",
          "type": "address"
        },
        {
          "name": "",
          "type": "uint256"
        }
      ],
      "name": "userBidMap",
      "outputs": [
        {
          "name": "auctionId",
          "type": "uint256"
        },
        {
          "name": "bidPrice",
          "type": "uint256"
        }
      ],
      "payable": false,
      "stateMutability": "view",
      "type": "function"
    },
    {
      "constant": false,
      "inputs": [
        {
          "name": "auctionId",
          "type": "uint256"
        },
        {
          "name": "bidAmount",
          "type": "uint256"
        }
      ],
      "name": "addBid",
      "outputs": [],
      "payable": false,
      "stateMutability": "nonpayable",
      "type": "function"
    },
    {
      "constant": false,
      "inputs": [
        {
          "name": "patentId",
          "type": "uint256"
        },
        {
          "name": "person",
          "type": "address"
        }
      ],
      "name": "addLisenceHolder",
      "outputs": [],
      "payable": false,
      "stateMutability": "nonpayable",
      "type": "function"
    },
    {
      "constant": true,
      "inputs": [
        {
          "name": "auctionId",
          "type": "uint256"
        }
      ],
      "name": "allBids",
      "outputs": [
        {
          "components": [
            {
              "name": "bidderAddress",
              "type": "address"
            },
            {
              "name": "bidPrice",
              "type": "uint256"
            }
          ],
          "name": "",
          "type": "tuple[]"
        }
      ],
      "payable": false,
      "stateMutability": "view",
      "type": "function"
    },
    {
      "constant": true,
      "inputs": [
        {
          "name": "",
          "type": "address"
        },
        {
          "name": "",
          "type": "uint256"
        }
      ],
      "name": "ownerPatentsMap",
      "outputs": [
        {
          "name": "patentName",
          "type": "string"
        },
        {
          "name": "patentType",
          "type": "string"
        },
        {
          "name": "issueDate",
          "type": "string"
        },
        {
          "name": "patentId",
          "type": "uint256"
        }
      ],
      "payable": false,
      "stateMutability": "view",
      "type": "function"
    },
    {
      "constant": true,
      "inputs": [],
      "name": "getMyBids",
      "outputs": [
        {
          "components": [
            {
              "name": "auctionId",
              "type": "uint256"
            },
            {
              "name": "bidPrice",
              "type": "uint256"
            }
          ],
          "name": "",
          "type": "tuple[]"
        }
      ],
      "payable": false,
      "stateMutability": "view",
      "type": "function"
    },
    {
      "constant": false,
      "inputs": [
        {
          "name": "owners",
          "type": "address[]"
        },
        {
          "name": "lisenceHolders",
          "type": "address[]"
        },
        {
          "name": "patentName",
          "type": "string"
        },
        {
          "name": "issueDate",
          "type": "string"
        },
        {
          "name": "patentType",
          "type": "string"
        }
      ],
      "name": "registerPatent",
      "outputs": [
        {
          "name": "",
          "type": "uint256"
        }
      ],
      "payable": false,
      "stateMutability": "nonpayable",
      "type": "function"
    },
    {
      "constant": false,
      "inputs": [
        {
          "name": "patentId",
          "type": "uint256"
        },
        {
          "name": "person",
          "type": "address"
        }
      ],
      "name": "addOwner",
      "outputs": [],
      "payable": false,
      "stateMutability": "nonpayable",
      "type": "function"
    },
    {
      "constant": true,
      "inputs": [
        {
          "name": "patentId",
          "type": "uint256"
        }
      ],
      "name": "getOwnerList",
      "outputs": [
        {
          "name": "",
          "type": "address[]"
        }
      ],
      "payable": false,
      "stateMutability": "view",
      "type": "function"
    },
    {
      "constant": true,
      "inputs": [
        {
          "name": "patentId",
          "type": "uint256"
        }
      ],
      "name": "getPatent",
      "outputs": [
        {
          "components": [
            {
              "name": "owners",
              "type": "address[]"
            },
            {
              "name": "lisenceHolders",
              "type": "address[]"
            },
            {
              "name": "patentName",
              "type": "string"
            },
            {
              "name": "patentType",
              "type": "string"
            },
            {
              "name": "issueDate",
              "type": "string"
            },
            {
              "name": "patentId",
              "type": "uint256"
            }
          ],
          "name": "",
          "type": "tuple"
        }
      ],
      "payable": false,
      "stateMutability": "view",
      "type": "function"
    },
    {
      "constant": true,
      "inputs": [
        {
          "name": "",
          "type": "uint256"
        },
        {
          "name": "",
          "type": "uint256"
        }
      ],
      "name": "patentOwnerMap",
      "outputs": [
        {
          "name": "",
          "type": "address"
        }
      ],
      "payable": false,
      "stateMutability": "view",
      "type": "function"
    },
    {
      "constant": false,
      "inputs": [
        {
          "name": "patentId",
          "type": "uint256"
        },
        {
          "name": "receiver",
          "type": "address"
        }
      ],
      "name": "transferPatent",
      "outputs": [],
      "payable": false,
      "stateMutability": "nonpayable",
      "type": "function"
    },
    {
      "constant": true,
      "inputs": [
        {
          "name": "",
          "type": "uint256"
        },
        {
          "name": "",
          "type": "uint256"
        }
      ],
      "name": "auctionToBidersMap",
      "outputs": [
        {
          "name": "bidderAddress",
          "type": "address"
        },
        {
          "name": "bidPrice",
          "type": "uint256"
        }
      ],
      "payable": false,
      "stateMutability": "view",
      "type": "function"
    },
    {
      "constant": true,
      "inputs": [
        {
          "name": "owner",
          "type": "address"
        }
      ],
      "name": "getPatentsByOwner",
      "outputs": [
        {
          "components": [
            {
              "name": "owners",
              "type": "address[]"
            },
            {
              "name": "lisenceHolders",
              "type": "address[]"
            },
            {
              "name": "patentName",
              "type": "string"
            },
            {
              "name": "patentType",
              "type": "string"
            },
            {
              "name": "issueDate",
              "type": "string"
            },
            {
              "name": "patentId",
              "type": "uint256"
            }
          ],
          "name": "",
          "type": "tuple[]"
        }
      ],
      "payable": false,
      "stateMutability": "view",
      "type": "function"
    },
    {
      "anonymous": false,
      "inputs": [
        {
          "indexed": false,
          "name": "patentId",
          "type": "uint256"
        },
        {
          "indexed": false,
          "name": "name",
          "type": "string"
        }
      ],
      "name": "NewBid",
      "type": "event"
    },
    {
      "constant": false,
      "inputs": [
        {
          "name": "patentId",
          "type": "uint256"
        },
        {
          "name": "minimumBid",
          "type": "uint256"
        },
        {
          "name": "numberOfDays",
          "type": "uint256"
        }
      ],
      "name": "createAuction",
      "outputs": [
        {
          "name": "",
          "type": "uint256"
        }
      ],
      "payable": false,
      "stateMutability": "nonpayable",
      "type": "function"
    }
  ],
  "bytecode": "0x608060405234801561001057600080fd5b50612ff1806100206000396000f3fe6080604052600436106100fc576000357c0100000000000000000000000000000000000000000000000000000000900463ffffffff16806305c1ba2214610101578063087344d31461013e5780631a2417751461017b57806320f5a9e6146101b857806321b23f04146101f6578063257004661461021f5780632fb5eac21461024857806346e5e8e214610285578063788077a7146102c5578063813d2ed0146102f05780638cd1bb201461032d5780638dd95e99146103565780639c6d0d7814610393578063be90b054146103d0578063cda4beef1461040d578063d510bbd71461044a578063d88730d514610473578063fc8f39f5146104b1575b600080fd5b34801561010d57600080fd5b50610128600480360361012391908101906126bd565b6104ee565b6040516101359190612c94565b60405180910390f35b34801561014a57600080fd5b50610165600480360361016091908101906126bd565b61059e565b6040516101729190612cb6565b60405180910390f35b34801561018757600080fd5b506101a2600480360361019d91908101906126bd565b610653565b6040516101af9190612cb6565b60405180910390f35b3480156101c457600080fd5b506101df60048036036101da9190810190612592565b610715565b6040516101ed929190612d6f565b60405180910390f35b34801561020257600080fd5b5061021d60048036036102189190810190612722565b610755565b005b34801561022b57600080fd5b50610246600480360361024191908101906126e6565b6108ac565b005b34801561025457600080fd5b5061026f600480360361026a91908101906126bd565b610934565b60405161027c9190612c2e565b60405180910390f35b34801561029157600080fd5b506102ac60048036036102a79190810190612592565b610a06565b6040516102bc9493929190612cd8565b60405180910390f35b3480156102d157600080fd5b506102da610c1a565b6040516102e79190612c50565b60405180910390f35b3480156102fc57600080fd5b50610317600480360361031291908101906125ce565b610cca565b6040516103249190612d54565b60405180910390f35b34801561033957600080fd5b50610354600480360361034f91908101906126e6565b610f99565b005b34801561036257600080fd5b5061037d600480360361037891908101906126bd565b61115b565b60405161038a9190612c0c565b60405180910390f35b34801561039f57600080fd5b506103ba60048036036103b591908101906126bd565b6111fc565b6040516103c79190612d32565b60405180910390f35b3480156103dc57600080fd5b506103f760048036036103f29190810190612722565b611540565b6040516104049190612bc8565b60405180910390f35b34801561041957600080fd5b50610434600480360361042f919081019061275e565b61158d565b6040516104419190612d54565b60405180910390f35b34801561045657600080fd5b50610471600480360361046c91908101906126e6565b611703565b005b34801561047f57600080fd5b5061049a60048036036104959190810190612722565b611b85565b6040516104a8929190612be3565b60405180910390f35b3480156104bd57600080fd5b506104d860048036036104d39190810190612569565b611be5565b6040516104e59190612c72565b60405180910390f35b60026020528060005260406000206000915090508054600181600116156101000203166002900480601f0160208091040260200160405190810160405280929190818152602001828054600181600116156101000203166002900480156105965780601f1061056b57610100808354040283529160200191610596565b820191906000526020600020905b81548152906001019060200180831161057957829003601f168201915b505050505081565b6060600260008381526020019081526020016000208054600181600116156101000203166002900480601f0160208091040260200160405190810160405280929190818152602001828054600181600116156101000203166002900480156106475780601f1061061c57610100808354040283529160200191610647565b820191906000526020600020905b81548152906001019060200180831161062a57829003601f168201915b50505050509050919050565b606060008281548110151561066457fe5b90600052602060002090600602016003018054600181600116156101000203166002900480601f0160208091040260200160405190810160405280929190818152602001828054600181600116156101000203166002900480156107095780601f106106de57610100808354040283529160200191610709565b820191906000526020600020905b8154815290600101906020018083116106ec57829003601f168201915b50505050509050919050565b60046020528160005260406000208181548110151561073057fe5b9060005260206000209060020201600091509150508060000154908060010154905082565b600460003373ffffffffffffffffffffffffffffffffffffffff1673ffffffffffffffffffffffffffffffffffffffff1681526020019081526020016000206040805190810160405280848152602001838152509080600181540180825580915050906001820390600052602060002090600202016000909192909190915060008201518160000155602082015181600101555050506005600083815260200190815260200160002060408051908101604052803373ffffffffffffffffffffffffffffffffffffffff168152602001838152509080600181540180825580915050906001820390600052602060002090600202016000909192909190915060008201518160000160006101000a81548173ffffffffffffffffffffffffffffffffffffffff021916908373ffffffffffffffffffffffffffffffffffffffff160217905550602082015181600101555050505050565b6000828154811015156108bb57fe5b90600052602060002090600602016001018190806001815401808255809150509060018203906000526020600020016000909192909190916101000a81548173ffffffffffffffffffffffffffffffffffffffff021916908373ffffffffffffffffffffffffffffffffffffffff160217905550505050565b606060056000838152602001908152602001600020805480602002602001604051908101604052809291908181526020016000905b828210156109fb57838290600052602060002090600202016040805190810160405290816000820160009054906101000a900473ffffffffffffffffffffffffffffffffffffffff1673ffffffffffffffffffffffffffffffffffffffff1673ffffffffffffffffffffffffffffffffffffffff16815260200160018201548152505081526020019060010190610969565b505050509050919050565b600360205281600052604060002081815481101515610a2157fe5b906000526020600020906006020160009150915050806002018054600181600116156101000203166002900480601f016020809104026020016040519081016040528092919081815260200182805460018160011615610100020316600290048015610ace5780601f10610aa357610100808354040283529160200191610ace565b820191906000526020600020905b815481529060010190602001808311610ab157829003601f168201915b505050505090806003018054600181600116156101000203166002900480601f016020809104026020016040519081016040528092919081815260200182805460018160011615610100020316600290048015610b6c5780601f10610b4157610100808354040283529160200191610b6c565b820191906000526020600020905b815481529060010190602001808311610b4f57829003601f168201915b505050505090806004018054600181600116156101000203166002900480601f016020809104026020016040519081016040528092919081815260200182805460018160011615610100020316600290048015610c0a5780601f10610bdf57610100808354040283529160200191610c0a565b820191906000526020600020905b815481529060010190602001808311610bed57829003601f168201915b5050505050908060050154905084565b6060600460003373ffffffffffffffffffffffffffffffffffffffff1673ffffffffffffffffffffffffffffffffffffffff168152602001908152602001600020805480602002602001604051908101604052809291908181526020016000905b82821015610cc157838290600052602060002090600202016040805190810160405290816000820154815260200160018201548152505081526020019060010190610c7b565b50505050905090565b6000806000805490509050600060c06040519081016040528089815260200188815260200187815260200185815260200186815260200183815250908060018154018082558091505090600182039060005260206000209060060201600090919290919091506000820151816000019080519060200190610d4c929190611f90565b506020820151816001019080519060200190610d69929190611f90565b506040820151816002019080519060200190610d8692919061201a565b506060820151816003019080519060200190610da392919061201a565b506080820151816004019080519060200190610dc092919061201a565b5060a0820151816005015550505086600160008381526020019081526020016000209080519060200190610df592919061209a565b5084600260008381526020019081526020016000209080519060200190610e1d929190612124565b5060008090505b8751811015610f8b57600360008983815181101515610e3f57fe5b9060200190602002015173ffffffffffffffffffffffffffffffffffffffff1673ffffffffffffffffffffffffffffffffffffffff168152602001908152602001600020600083815481101515610e9257fe5b9060005260206000209060060201908060018154018082558091505090600182039060005260206000209060060201600090919290919091506000820181600001908054610ee19291906121a4565b506001820181600101908054610ef89291906121a4565b5060028201816002019080546001816001161561010002031660029004610f209291906121f6565b5060038201816003019080546001816001161561010002031660029004610f489291906121f6565b5060048201816004019080546001816001161561010002031660029004610f709291906121f6565b50600582015481600501555050508080600101915050610e24565b508091505095945050505050565b600082815481101515610fa857fe5b90600052602060002090600602016000018190806001815401808255809150509060018203906000526020600020016000909192909190916101000a81548173ffffffffffffffffffffffffffffffffffffffff021916908373ffffffffffffffffffffffffffffffffffffffff16021790555050600360008273ffffffffffffffffffffffffffffffffffffffff1673ffffffffffffffffffffffffffffffffffffffff16815260200190815260200160002060008381548110151561106b57fe5b90600052602060002090600602019080600181540180825580915050906001820390600052602060002090600602016000909192909190915060008201816000019080546110ba9291906121a4565b5060018201816001019080546110d19291906121a4565b50600282018160020190805460018160011615610100020316600290046110f99291906121f6565b50600382018160030190805460018160011615610100020316600290046111219291906121f6565b50600482018160040190805460018160011615610100020316600290046111499291906121f6565b50600582015481600501555050505050565b6060600160008381526020019081526020016000208054806020026020016040519081016040528092919081815260200182805480156111f057602002820191906000526020600020905b8160009054906101000a900473ffffffffffffffffffffffffffffffffffffffff1673ffffffffffffffffffffffffffffffffffffffff16815260200190600101908083116111a6575b50505050509050919050565b61120461227d565b60008281548110151561121357fe5b906000526020600020906006020160c06040519081016040529081600082018054806020026020016040519081016040528092919081815260200182805480156112b257602002820191906000526020600020905b8160009054906101000a900473ffffffffffffffffffffffffffffffffffffffff1673ffffffffffffffffffffffffffffffffffffffff1681526020019060010190808311611268575b505050505081526020016001820180548060200260200160405190810160405280929190818152602001828054801561134057602002820191906000526020600020905b8160009054906101000a900473ffffffffffffffffffffffffffffffffffffffff1673ffffffffffffffffffffffffffffffffffffffff16815260200190600101908083116112f6575b50505050508152602001600282018054600181600116156101000203166002900480601f0160208091040260200160405190810160405280929190818152602001828054600181600116156101000203166002900480156113e25780601f106113b7576101008083540402835291602001916113e2565b820191906000526020600020905b8154815290600101906020018083116113c557829003601f168201915b50505050508152602001600382018054600181600116156101000203166002900480601f0160208091040260200160405190810160405280929190818152602001828054600181600116156101000203166002900480156114845780601f1061145957610100808354040283529160200191611484565b820191906000526020600020905b81548152906001019060200180831161146757829003601f168201915b50505050508152602001600482018054600181600116156101000203166002900480601f0160208091040260200160405190810160405280929190818152602001828054600181600116156101000203166002900480156115265780601f106114fb57610100808354040283529160200191611526565b820191906000526020600020905b81548152906001019060200180831161150957829003601f168201915b505050505081526020016005820154815250509050919050565b60016020528160005260406000208181548110151561155b57fe5b906000526020600020016000915091509054906101000a900473ffffffffffffffffffffffffffffffffffffffff1681565b600080846040516020016115a19190612d54565b604051602081830303815290604052805190602001206001900490506000603c80601886020202905060008142039050600660003373ffffffffffffffffffffffffffffffffffffffff1673ffffffffffffffffffffffffffffffffffffffff16815260200190815260200160002060c06040519081016040528085815260200189815260200183815260200188815260200161163d8a610653565b815260200161164b8a61115b565b815250908060018154018082558091505090600182039060005260206000209060060201600090919290919091506000820151816000015560208201518160010155604082015181600201556060820151816003015560808201518160040190805190602001906116bd92919061201a565b5060a08201518160050190805190602001906116da9291906122b4565b505050508560076000858152602001908152602001600020819055508293505050509392505050565b60008090505b60008381548110151561171857fe5b906000526020600020906006020160000180549050811015611847573373ffffffffffffffffffffffffffffffffffffffff1660008481548110151561175a57fe5b90600052602060002090600602016000018281548110151561177857fe5b9060005260206000200160009054906101000a900473ffffffffffffffffffffffffffffffffffffffff1673ffffffffffffffffffffffffffffffffffffffff16141561183a57816000848154811015156117cf57fe5b9060005260206000209060060201600001828154811015156117ed57fe5b9060005260206000200160006101000a81548173ffffffffffffffffffffffffffffffffffffffff021916908373ffffffffffffffffffffffffffffffffffffffff160217905550611847565b8080600101915050611709565b5060008090505b600360003373ffffffffffffffffffffffffffffffffffffffff1673ffffffffffffffffffffffffffffffffffffffff16815260200190815260200160002080549050811015611b8057600080905083600360003373ffffffffffffffffffffffffffffffffffffffff1673ffffffffffffffffffffffffffffffffffffffff168152602001908152602001600020838154811015156118ea57fe5b906000526020600020906006020160050154141561190b5781905050611b80565b60006001600360003373ffffffffffffffffffffffffffffffffffffffff1673ffffffffffffffffffffffffffffffffffffffff16815260200190815260200160002080549050039050600360003373ffffffffffffffffffffffffffffffffffffffff1673ffffffffffffffffffffffffffffffffffffffff168152602001908152602001600020818154811015156119a157fe5b9060005260206000209060060201600360003373ffffffffffffffffffffffffffffffffffffffff1673ffffffffffffffffffffffffffffffffffffffff168152602001908152602001600020838154811015156119fb57fe5b90600052602060002090600602016000820181600001908054611a1f9291906121a4565b506001820181600101908054611a369291906121a4565b5060028201816002019080546001816001161561010002031660029004611a5e9291906121f6565b5060038201816003019080546001816001161561010002031660029004611a869291906121f6565b5060048201816004019080546001816001161561010002031660029004611aae9291906121f6565b5060058201548160050155905050600360003373ffffffffffffffffffffffffffffffffffffffff1673ffffffffffffffffffffffffffffffffffffffff16815260200190815260200160002081815481101515611b0857fe5b906000526020600020906006020160008082016000611b27919061233e565b600182016000611b37919061233e565b600282016000611b47919061235f565b600382016000611b57919061235f565b600482016000611b67919061235f565b600582016000905550505050808060010191505061184e565b505050565b600560205281600052604060002081815481101515611ba057fe5b9060005260206000209060020201600091509150508060000160009054906101000a900473ffffffffffffffffffffffffffffffffffffffff16908060010154905082565b6060600360008373ffffffffffffffffffffffffffffffffffffffff1673ffffffffffffffffffffffffffffffffffffffff168152602001908152602001600020805480602002602001604051908101604052809291908181526020016000905b82821015611f85578382906000526020600020906006020160c0604051908101604052908160008201805480602002602001604051908101604052809291908181526020018280548015611cef57602002820191906000526020600020905b8160009054906101000a900473ffffffffffffffffffffffffffffffffffffffff1673ffffffffffffffffffffffffffffffffffffffff1681526020019060010190808311611ca5575b5050505050815260200160018201805480602002602001604051908101604052809291908181526020018280548015611d7d57602002820191906000526020600020905b8160009054906101000a900473ffffffffffffffffffffffffffffffffffffffff1673ffffffffffffffffffffffffffffffffffffffff1681526020019060010190808311611d33575b50505050508152602001600282018054600181600116156101000203166002900480601f016020809104026020016040519081016040528092919081815260200182805460018160011615610100020316600290048015611e1f5780601f10611df457610100808354040283529160200191611e1f565b820191906000526020600020905b815481529060010190602001808311611e0257829003601f168201915b50505050508152602001600382018054600181600116156101000203166002900480601f016020809104026020016040519081016040528092919081815260200182805460018160011615610100020316600290048015611ec15780601f10611e9657610100808354040283529160200191611ec1565b820191906000526020600020905b815481529060010190602001808311611ea457829003601f168201915b50505050508152602001600482018054600181600116156101000203166002900480601f016020809104026020016040519081016040528092919081815260200182805460018160011615610100020316600290048015611f635780601f10611f3857610100808354040283529160200191611f63565b820191906000526020600020905b815481529060010190602001808311611f4657829003601f168201915b5050505050815260200160058201548152505081526020019060010190611c46565b505050509050919050565b828054828255906000526020600020908101928215612009579160200282015b828111156120085782518260006101000a81548173ffffffffffffffffffffffffffffffffffffffff021916908373ffffffffffffffffffffffffffffffffffffffff16021790555091602001919060010190611fb0565b5b50905061201691906123a7565b5090565b828054600181600116156101000203166002900490600052602060002090601f016020900481019282601f1061205b57805160ff1916838001178555612089565b82800160010185558215612089579182015b8281111561208857825182559160200191906001019061206d565b5b50905061209691906123ea565b5090565b828054828255906000526020600020908101928215612113579160200282015b828111156121125782518260006101000a81548173ffffffffffffffffffffffffffffffffffffffff021916908373ffffffffffffffffffffffffffffffffffffffff160217905550916020019190600101906120ba565b5b509050612120919061240f565b5090565b828054600181600116156101000203166002900490600052602060002090601f016020900481019282601f1061216557805160ff1916838001178555612193565b82800160010185558215612193579182015b82811115612192578251825591602001919060010190612177565b5b5090506121a091906123ea565b5090565b8280548282559060005260206000209081019282156121e55760005260206000209182015b828111156121e45782548255916001019190600101906121c9565b5b5090506121f291906123a7565b5090565b828054600181600116156101000203166002900490600052602060002090601f016020900481019282601f1061222f578054855561226c565b8280016001018555821561226c57600052602060002091601f016020900482015b8281111561226b578254825591600101919060010190612250565b5b50905061227991906123ea565b5090565b60c0604051908101604052806060815260200160608152602001606081526020016060815260200160608152602001600081525090565b82805482825590600052602060002090810192821561232d579160200282015b8281111561232c5782518260006101000a81548173ffffffffffffffffffffffffffffffffffffffff021916908373ffffffffffffffffffffffffffffffffffffffff160217905550916020019190600101906122d4565b5b50905061233a919061240f565b5090565b508054600082559060005260206000209081019061235c91906123ea565b50565b50805460018160011615610100020316600290046000825580601f1061238557506123a4565b601f0160209004906000526020600020908101906123a391906123ea565b5b50565b6123e791905b808211156123e357600081816101000a81549073ffffffffffffffffffffffffffffffffffffffff0219169055506001016123ad565b5090565b90565b61240c91905b808211156124085760008160009055506001016123f0565b5090565b90565b61244f91905b8082111561244b57600081816101000a81549073ffffffffffffffffffffffffffffffffffffffff021916905550600101612415565b5090565b90565b600061245e8235612f36565b905092915050565b60006124728235612f48565b905092915050565b600082601f830112151561248d57600080fd5b81356124a061249b82612dc5565b612d98565b915081818352602084019350602081019050838560208402820111156124c557600080fd5b60005b838110156124f557816124db8882612466565b8452602084019350602083019250506001810190506124c8565b5050505092915050565b600082601f830112151561251257600080fd5b813561252561252082612ded565b612d98565b9150808252602083016020830185838301111561254157600080fd5b61254c838284612f64565b50505092915050565b60006125618235612f5a565b905092915050565b60006020828403121561257b57600080fd5b600061258984828501612452565b91505092915050565b600080604083850312156125a557600080fd5b60006125b385828601612452565b92505060206125c485828601612555565b9150509250929050565b600080600080600060a086880312156125e657600080fd5b600086013567ffffffffffffffff81111561260057600080fd5b61260c8882890161247a565b955050602086013567ffffffffffffffff81111561262957600080fd5b6126358882890161247a565b945050604086013567ffffffffffffffff81111561265257600080fd5b61265e888289016124ff565b935050606086013567ffffffffffffffff81111561267b57600080fd5b612687888289016124ff565b925050608086013567ffffffffffffffff8111156126a457600080fd5b6126b0888289016124ff565b9150509295509295909350565b6000602082840312156126cf57600080fd5b60006126dd84828501612555565b91505092915050565b600080604083850312156126f957600080fd5b600061270785828601612555565b925050602061271885828601612466565b9150509250929050565b6000806040838503121561273557600080fd5b600061274385828601612555565b925050602061275485828601612555565b9150509250929050565b60008060006060848603121561277357600080fd5b600061278186828701612555565b935050602061279286828701612555565b92505060406127a386828701612555565b9150509250925092565b6127b681612efa565b82525050565b6127c581612ee8565b82525050565b60006127d682612e5a565b8084526020840193506127e883612e19565b60005b8281101561281a576127fe8683516127bc565b61280782612ea7565b91506020860195506001810190506127eb565b50849250505092915050565b600061283182612e65565b80845260208401935061284383612e26565b60005b82811015612875576128598683516127ad565b61286282612eb4565b9150602086019550600181019050612846565b50849250505092915050565b600061288c82612e70565b80845260208401935061289e83612e33565b60005b828110156128d0576128b4868351612a11565b6128bd82612ec1565b91506040860195506001810190506128a1565b50849250505092915050565b60006128e782612e7b565b8084526020840193506128f983612e40565b60005b8281101561292b5761290f868351612a40565b61291882612ece565b91506040860195506001810190506128fc565b50849250505092915050565b600061294282612e86565b8084526020840193508360208202850161295b85612e4d565b60005b84811015612994578383038852612976838351612b14565b925061298182612edb565b915060208801975060018101905061295e565b508196508694505050505092915050565b60006129b082612e9c565b8084526129c4816020860160208601612f73565b6129cd81612fa6565b602085010191505092915050565b60006129e682612e91565b8084526129fa816020860160208601612f73565b612a0381612fa6565b602085010191505092915050565b604082016000820151612a2760008501826127bc565b506020820151612a3a6020850182612bb9565b50505050565b604082016000820151612a566000850182612bb9565b506020820151612a696020850182612bb9565b50505050565b600060c0830160008301518482036000860152612a8c8282612826565b91505060208301518482036020860152612aa68282612826565b91505060408301518482036040860152612ac082826129db565b91505060608301518482036060860152612ada82826129db565b91505060808301518482036080860152612af482826129db565b91505060a0830151612b0960a0860182612bb9565b508091505092915050565b600060c0830160008301518482036000860152612b318282612826565b91505060208301518482036020860152612b4b8282612826565b91505060408301518482036040860152612b6582826129db565b91505060608301518482036060860152612b7f82826129db565b91505060808301518482036080860152612b9982826129db565b91505060a0830151612bae60a0860182612bb9565b508091505092915050565b612bc281612f2c565b82525050565b6000602082019050612bdd60008301846127bc565b92915050565b6000604082019050612bf860008301856127bc565b612c056020830184612bb9565b9392505050565b60006020820190508181036000830152612c2681846127cb565b905092915050565b60006020820190508181036000830152612c488184612881565b905092915050565b60006020820190508181036000830152612c6a81846128dc565b905092915050565b60006020820190508181036000830152612c8c8184612937565b905092915050565b60006020820190508181036000830152612cae81846129db565b905092915050565b60006020820190508181036000830152612cd081846129a5565b905092915050565b60006080820190508181036000830152612cf281876129db565b90508181036020830152612d0681866129db565b90508181036040830152612d1a81856129db565b9050612d296060830184612bb9565b95945050505050565b60006020820190508181036000830152612d4c8184612a6f565b905092915050565b6000602082019050612d696000830184612bb9565b92915050565b6000604082019050612d846000830185612bb9565b612d916020830184612bb9565b9392505050565b6000604051905081810181811067ffffffffffffffff82111715612dbb57600080fd5b8060405250919050565b600067ffffffffffffffff821115612ddc57600080fd5b602082029050602081019050919050565b600067ffffffffffffffff821115612e0457600080fd5b601f19601f8301169050602081019050919050565b6000602082019050919050565b6000602082019050919050565b6000602082019050919050565b6000602082019050919050565b6000602082019050919050565b600081519050919050565b600081519050919050565b600081519050919050565b600081519050919050565b600081519050919050565b600081519050919050565b600081519050919050565b6000602082019050919050565b6000602082019050919050565b6000602082019050919050565b6000602082019050919050565b6000602082019050919050565b6000612ef382612f0c565b9050919050565b6000612f0582612f0c565b9050919050565b600073ffffffffffffffffffffffffffffffffffffffff82169050919050565b6000819050919050565b6000612f4182612f0c565b9050919050565b6000612f5382612f0c565b9050919050565b6000819050919050565b82818337600083830152505050565b60005b83811015612f91578082015181840152602081019050612f76565b83811115612fa0576000848401525b50505050565b6000601f19601f830116905091905056fea265627a7a72305820d1efa199126d6c9286ea2ddfa3d199c1f0e124c058137b17501ba1c0e68894cd6c6578706572696d656e74616cf50037",
  "source": "// In this particular contract our aim would be to \n// write a contract which would handle the auctioning process for the bids made for a particular Item \npragma experimental ABIEncoderV2;\n\nimport \"./PatentManager.sol\";\nimport \"./Bidding.sol\";\n\ncontract AuctionProcess is PatentManager, Bidding{\n\n    struct Auction {\n        uint auctionId;\n        uint patentId;\n        uint endTime; \n        uint minimumBidAuctioneer; // set by the Auctioneer !\n        string patentType;\n        address[] auctioneer;\n    }\n\n    // Maps auctioneer to the aucitonId \n    // May contain multiple auctionIds \n    mapping(address => Auction[]) auctioneerAuctionMap;\n    mapping(uint=>uint) auctionToPriceMap;\n\n    function createAuction(uint patentId, uint minimumBid, uint numberOfDays) public returns(uint) {\n            \n        uint auctionId = uint(keccak256(abi.encode(patentId)));\n        uint num_seconds = numberOfDays*24*60*60;\n        uint endTime = block.timestamp - num_seconds;\n\n        // useless warning invoked !\n        auctioneerAuctionMap[msg.sender].push(Auction(auctionId, patentId, endTime, minimumBid, getPatentType(patentId), getOwnerList(patentId)));\n        auctionToPriceMap[auctionId] = minimumBid;\n\n        return (auctionId);\n    }\n\n    function getResult(uint auctionId) private returns (string memory , address){\n        // this function is going to define the result process i.e how are we going to take out the result and decide the winner for the auction. \n        AddressPrice[] memory priceMap = allBids(auctionId);\n        uint maxBid = auctionToPriceMap[auctionId];\n        address winner;\n        for ( uint bidderCount = 0; bidderCount < priceMap.length ; bidderCount++ ){\n            if(priceMap[bidderCount].bidPrice > maxBid){\n                maxBid = priceMap[bidderCount].bidPrice;\n                winner = priceMap[bidderCount].bidderAddress;\n            }\n        }\n\n        if(winner != address(0x0)){\n            return (\"SUCCESS\", winner);\n        }else{\n            return (\"FAILURE\", winner);\n        }\n    } \n}",
  "sourcePath": "/home/abhijeet/work/Blockchain/patent_bidding_transfer/patent-backend/contracts/AuctionProcess.sol",
  "compiler": {
    "name": "solc",
    "version": "0.5.0+commit.1d4f565a.Emscripten.clang"
  },
  "schemaVersion": "3.0.1",
  "updatedAt": "2019-02-07T07:38:24.781Z",
  "devdoc": {
    "methods": {}
  },
  "userdoc": {
    "methods": {}
  }
}