{
  "contractName": "AuctionProcess",
  "abi": [
    {
      "constant": true,
      "inputs": [
        {
          "name": "",
          "type": "uint256"
        }
      ],
      "name": "patentNameMap",
      "outputs": [
        {
          "name": "",
          "type": "string"
        }
      ],
      "payable": false,
      "stateMutability": "view",
      "type": "function",
      "signature": "0x05c1ba22"
    },
    {
      "constant": true,
      "inputs": [
        {
          "name": "patentId",
          "type": "uint256"
        }
      ],
      "name": "getPatentName",
      "outputs": [
        {
          "name": "",
          "type": "string"
        }
      ],
      "payable": false,
      "stateMutability": "view",
      "type": "function",
      "signature": "0x087344d3"
    },
    {
      "constant": true,
      "inputs": [
        {
          "name": "patentId",
          "type": "uint256"
        }
      ],
      "name": "getPatentType",
      "outputs": [
        {
          "name": "",
          "type": "string"
        }
      ],
      "payable": false,
      "stateMutability": "view",
      "type": "function",
      "signature": "0x1a241775"
    },
    {
      "constant": true,
      "inputs": [
        {
          "name": "",
          "type": "address"
        },
        {
          "name": "",
          "type": "uint256"
        }
      ],
      "name": "userBidMap",
      "outputs": [
        {
          "name": "auctionId",
          "type": "uint256"
        },
        {
          "name": "bidPrice",
          "type": "uint256"
        }
      ],
      "payable": false,
      "stateMutability": "view",
      "type": "function",
      "signature": "0x20f5a9e6"
    },
    {
      "constant": false,
      "inputs": [
        {
          "name": "auctionId",
          "type": "uint256"
        },
        {
          "name": "bidAmount",
          "type": "uint256"
        }
      ],
      "name": "addBid",
      "outputs": [],
      "payable": false,
      "stateMutability": "nonpayable",
      "type": "function",
      "signature": "0x21b23f04"
    },
    {
      "constant": false,
      "inputs": [
        {
          "name": "patentId",
          "type": "uint256"
        },
        {
          "name": "person",
          "type": "address"
        }
      ],
      "name": "addLisenceHolder",
      "outputs": [],
      "payable": false,
      "stateMutability": "nonpayable",
      "type": "function",
      "signature": "0x25700466"
    },
    {
      "constant": true,
      "inputs": [
        {
          "name": "auctionId",
          "type": "uint256"
        }
      ],
      "name": "allBids",
      "outputs": [
        {
          "components": [
            {
              "name": "bidderAddress",
              "type": "address"
            },
            {
              "name": "bidPrice",
              "type": "uint256"
            }
          ],
          "name": "",
          "type": "tuple[]"
        }
      ],
      "payable": false,
      "stateMutability": "view",
      "type": "function",
      "signature": "0x2fb5eac2"
    },
    {
      "constant": true,
      "inputs": [
        {
          "name": "",
          "type": "address"
        },
        {
          "name": "",
          "type": "uint256"
        }
      ],
      "name": "ownerPatentsMap",
      "outputs": [
        {
          "name": "patentName",
          "type": "string"
        },
        {
          "name": "patentType",
          "type": "string"
        },
        {
          "name": "issueDate",
          "type": "string"
        },
        {
          "name": "patentId",
          "type": "uint256"
        }
      ],
      "payable": false,
      "stateMutability": "view",
      "type": "function",
      "signature": "0x46e5e8e2"
    },
    {
      "constant": true,
      "inputs": [],
      "name": "getMyBids",
      "outputs": [
        {
          "components": [
            {
              "name": "auctionId",
              "type": "uint256"
            },
            {
              "name": "bidPrice",
              "type": "uint256"
            }
          ],
          "name": "",
          "type": "tuple[]"
        }
      ],
      "payable": false,
      "stateMutability": "view",
      "type": "function",
      "signature": "0x788077a7"
    },
    {
      "constant": false,
      "inputs": [
        {
          "name": "owners",
          "type": "address[]"
        },
        {
          "name": "lisenceHolders",
          "type": "address[]"
        },
        {
          "name": "patentName",
          "type": "string"
        },
        {
          "name": "issueDate",
          "type": "string"
        },
        {
          "name": "patentType",
          "type": "string"
        }
      ],
      "name": "registerPatent",
      "outputs": [
        {
          "name": "",
          "type": "uint256"
        }
      ],
      "payable": false,
      "stateMutability": "nonpayable",
      "type": "function",
      "signature": "0x813d2ed0"
    },
    {
      "constant": false,
      "inputs": [
        {
          "name": "patentId",
          "type": "uint256"
        },
        {
          "name": "person",
          "type": "address"
        }
      ],
      "name": "addOwner",
      "outputs": [],
      "payable": false,
      "stateMutability": "nonpayable",
      "type": "function",
      "signature": "0x8cd1bb20"
    },
    {
      "constant": true,
      "inputs": [
        {
          "name": "patentId",
          "type": "uint256"
        }
      ],
      "name": "getOwnerList",
      "outputs": [
        {
          "name": "",
          "type": "address[]"
        }
      ],
      "payable": false,
      "stateMutability": "view",
      "type": "function",
      "signature": "0x8dd95e99"
    },
    {
      "constant": true,
      "inputs": [
        {
          "name": "patentId",
          "type": "uint256"
        }
      ],
      "name": "getPatent",
      "outputs": [
        {
          "components": [
            {
              "name": "owners",
              "type": "address[]"
            },
            {
              "name": "lisenceHolders",
              "type": "address[]"
            },
            {
              "name": "patentName",
              "type": "string"
            },
            {
              "name": "patentType",
              "type": "string"
            },
            {
              "name": "issueDate",
              "type": "string"
            },
            {
              "name": "patentId",
              "type": "uint256"
            }
          ],
          "name": "",
          "type": "tuple"
        }
      ],
      "payable": false,
      "stateMutability": "view",
      "type": "function",
      "signature": "0x9c6d0d78"
    },
    {
      "constant": true,
      "inputs": [
        {
          "name": "",
          "type": "uint256"
        },
        {
          "name": "",
          "type": "uint256"
        }
      ],
      "name": "patentOwnerMap",
      "outputs": [
        {
          "name": "",
          "type": "address"
        }
      ],
      "payable": false,
      "stateMutability": "view",
      "type": "function",
      "signature": "0xbe90b054"
    },
    {
      "constant": false,
      "inputs": [
        {
          "name": "patentId",
          "type": "uint256"
        },
        {
          "name": "receiver",
          "type": "address"
        }
      ],
      "name": "transferPatent",
      "outputs": [],
      "payable": false,
      "stateMutability": "nonpayable",
      "type": "function",
      "signature": "0xd510bbd7"
    },
    {
      "constant": true,
      "inputs": [
        {
          "name": "",
          "type": "uint256"
        },
        {
          "name": "",
          "type": "uint256"
        }
      ],
      "name": "auctionToBidersMap",
      "outputs": [
        {
          "name": "bidderAddress",
          "type": "address"
        },
        {
          "name": "bidPrice",
          "type": "uint256"
        }
      ],
      "payable": false,
      "stateMutability": "view",
      "type": "function",
      "signature": "0xd88730d5"
    },
    {
      "constant": true,
      "inputs": [
        {
          "name": "owner",
          "type": "address"
        }
      ],
      "name": "getPatentsByOwner",
      "outputs": [
        {
          "components": [
            {
              "name": "owners",
              "type": "address[]"
            },
            {
              "name": "lisenceHolders",
              "type": "address[]"
            },
            {
              "name": "patentName",
              "type": "string"
            },
            {
              "name": "patentType",
              "type": "string"
            },
            {
              "name": "issueDate",
              "type": "string"
            },
            {
              "name": "patentId",
              "type": "uint256"
            }
          ],
          "name": "",
          "type": "tuple[]"
        }
      ],
      "payable": false,
      "stateMutability": "view",
      "type": "function",
      "signature": "0xfc8f39f5"
    },
    {
      "anonymous": false,
      "inputs": [
        {
          "indexed": false,
          "name": "patentId",
          "type": "uint256"
        },
        {
          "indexed": false,
          "name": "name",
          "type": "string"
        }
      ],
      "name": "NewBid",
      "type": "event",
      "signature": "0x8a0eb4626fa5529109f8a38b40cc2401f886d7785ef5ed452ad466626ba4c3ad"
    },
    {
      "constant": false,
      "inputs": [
        {
          "name": "patentId",
          "type": "uint256"
        },
        {
          "name": "minimumBid",
          "type": "uint256"
        },
        {
          "name": "numberOfDays",
          "type": "uint256"
        }
      ],
      "name": "createAuction",
      "outputs": [
        {
          "name": "",
          "type": "uint256"
        }
      ],
      "payable": false,
      "stateMutability": "nonpayable",
      "type": "function",
      "signature": "0xcda4beef"
    }
  ],
  "bytecode": "0x608060405234801561001057600080fd5b50613357806100206000396000f3fe6080604052600436106100fc576000357c0100000000000000000000000000000000000000000000000000000000900463ffffffff16806305c1ba2214610101578063087344d31461013e5780631a2417751461017b57806320f5a9e6146101b857806321b23f04146101f6578063257004661461021f5780632fb5eac21461024857806346e5e8e214610285578063788077a7146102c5578063813d2ed0146102f05780638cd1bb201461032d5780638dd95e99146103565780639c6d0d7814610393578063be90b054146103d0578063cda4beef1461040d578063d510bbd71461044a578063d88730d514610473578063fc8f39f5146104b1575b600080fd5b34801561010d57600080fd5b5061012860048036036101239190810190612a23565b6104ee565b6040516101359190612ffa565b60405180910390f35b34801561014a57600080fd5b5061016560048036036101609190810190612a23565b61059e565b604051610172919061301c565b60405180910390f35b34801561018757600080fd5b506101a2600480360361019d9190810190612a23565b610653565b6040516101af919061301c565b60405180910390f35b3480156101c457600080fd5b506101df60048036036101da91908101906128f8565b610715565b6040516101ed9291906130d5565b60405180910390f35b34801561020257600080fd5b5061021d60048036036102189190810190612a88565b610755565b005b34801561022b57600080fd5b5061024660048036036102419190810190612a4c565b6108ac565b005b34801561025457600080fd5b5061026f600480360361026a9190810190612a23565b610934565b60405161027c9190612f94565b60405180910390f35b34801561029157600080fd5b506102ac60048036036102a791908101906128f8565b610a06565b6040516102bc949392919061303e565b60405180910390f35b3480156102d157600080fd5b506102da610c1a565b6040516102e79190612fb6565b60405180910390f35b3480156102fc57600080fd5b5061031760048036036103129190810190612934565b610cca565b60405161032491906130ba565b60405180910390f35b34801561033957600080fd5b50610354600480360361034f9190810190612a4c565b610f99565b005b34801561036257600080fd5b5061037d60048036036103789190810190612a23565b61115b565b60405161038a9190612f72565b60405180910390f35b34801561039f57600080fd5b506103ba60048036036103b59190810190612a23565b6111fc565b6040516103c79190613098565b60405180910390f35b3480156103dc57600080fd5b506103f760048036036103f29190810190612a88565b611540565b6040516104049190612f2e565b60405180910390f35b34801561041957600080fd5b50610434600480360361042f9190810190612ac4565b61158d565b60405161044191906130ba565b60405180910390f35b34801561045657600080fd5b50610471600480360361046c9190810190612a4c565b611730565b005b34801561047f57600080fd5b5061049a60048036036104959190810190612a88565b611eeb565b6040516104a8929190612f49565b60405180910390f35b3480156104bd57600080fd5b506104d860048036036104d391908101906128cf565b611f4b565b6040516104e59190612fd8565b60405180910390f35b60026020528060005260406000206000915090508054600181600116156101000203166002900480601f0160208091040260200160405190810160405280929190818152602001828054600181600116156101000203166002900480156105965780601f1061056b57610100808354040283529160200191610596565b820191906000526020600020905b81548152906001019060200180831161057957829003601f168201915b505050505081565b6060600260008381526020019081526020016000208054600181600116156101000203166002900480601f0160208091040260200160405190810160405280929190818152602001828054600181600116156101000203166002900480156106475780601f1061061c57610100808354040283529160200191610647565b820191906000526020600020905b81548152906001019060200180831161062a57829003601f168201915b50505050509050919050565b606060008281548110151561066457fe5b90600052602060002090600602016003018054600181600116156101000203166002900480601f0160208091040260200160405190810160405280929190818152602001828054600181600116156101000203166002900480156107095780601f106106de57610100808354040283529160200191610709565b820191906000526020600020905b8154815290600101906020018083116106ec57829003601f168201915b50505050509050919050565b60046020528160005260406000208181548110151561073057fe5b9060005260206000209060020201600091509150508060000154908060010154905082565b600460003373ffffffffffffffffffffffffffffffffffffffff1673ffffffffffffffffffffffffffffffffffffffff1681526020019081526020016000206040805190810160405280848152602001838152509080600181540180825580915050906001820390600052602060002090600202016000909192909190915060008201518160000155602082015181600101555050506005600083815260200190815260200160002060408051908101604052803373ffffffffffffffffffffffffffffffffffffffff168152602001838152509080600181540180825580915050906001820390600052602060002090600202016000909192909190915060008201518160000160006101000a81548173ffffffffffffffffffffffffffffffffffffffff021916908373ffffffffffffffffffffffffffffffffffffffff160217905550602082015181600101555050505050565b6000828154811015156108bb57fe5b90600052602060002090600602016001018190806001815401808255809150509060018203906000526020600020016000909192909190916101000a81548173ffffffffffffffffffffffffffffffffffffffff021916908373ffffffffffffffffffffffffffffffffffffffff160217905550505050565b606060056000838152602001908152602001600020805480602002602001604051908101604052809291908181526020016000905b828210156109fb57838290600052602060002090600202016040805190810160405290816000820160009054906101000a900473ffffffffffffffffffffffffffffffffffffffff1673ffffffffffffffffffffffffffffffffffffffff1673ffffffffffffffffffffffffffffffffffffffff16815260200160018201548152505081526020019060010190610969565b505050509050919050565b600360205281600052604060002081815481101515610a2157fe5b906000526020600020906006020160009150915050806002018054600181600116156101000203166002900480601f016020809104026020016040519081016040528092919081815260200182805460018160011615610100020316600290048015610ace5780601f10610aa357610100808354040283529160200191610ace565b820191906000526020600020905b815481529060010190602001808311610ab157829003601f168201915b505050505090806003018054600181600116156101000203166002900480601f016020809104026020016040519081016040528092919081815260200182805460018160011615610100020316600290048015610b6c5780601f10610b4157610100808354040283529160200191610b6c565b820191906000526020600020905b815481529060010190602001808311610b4f57829003601f168201915b505050505090806004018054600181600116156101000203166002900480601f016020809104026020016040519081016040528092919081815260200182805460018160011615610100020316600290048015610c0a5780601f10610bdf57610100808354040283529160200191610c0a565b820191906000526020600020905b815481529060010190602001808311610bed57829003601f168201915b5050505050908060050154905084565b6060600460003373ffffffffffffffffffffffffffffffffffffffff1673ffffffffffffffffffffffffffffffffffffffff168152602001908152602001600020805480602002602001604051908101604052809291908181526020016000905b82821015610cc157838290600052602060002090600202016040805190810160405290816000820154815260200160018201548152505081526020019060010190610c7b565b50505050905090565b6000806000805490509050600060c06040519081016040528089815260200188815260200187815260200185815260200186815260200183815250908060018154018082558091505090600182039060005260206000209060060201600090919290919091506000820151816000019080519060200190610d4c9291906122f6565b506020820151816001019080519060200190610d699291906122f6565b506040820151816002019080519060200190610d86929190612380565b506060820151816003019080519060200190610da3929190612380565b506080820151816004019080519060200190610dc0929190612380565b5060a0820151816005015550505086600160008381526020019081526020016000209080519060200190610df5929190612400565b5084600260008381526020019081526020016000209080519060200190610e1d92919061248a565b5060008090505b8751811015610f8b57600360008983815181101515610e3f57fe5b9060200190602002015173ffffffffffffffffffffffffffffffffffffffff1673ffffffffffffffffffffffffffffffffffffffff168152602001908152602001600020600083815481101515610e9257fe5b9060005260206000209060060201908060018154018082558091505090600182039060005260206000209060060201600090919290919091506000820181600001908054610ee192919061250a565b506001820181600101908054610ef892919061250a565b5060028201816002019080546001816001161561010002031660029004610f2092919061255c565b5060038201816003019080546001816001161561010002031660029004610f4892919061255c565b5060048201816004019080546001816001161561010002031660029004610f7092919061255c565b50600582015481600501555050508080600101915050610e24565b508091505095945050505050565b600082815481101515610fa857fe5b90600052602060002090600602016000018190806001815401808255809150509060018203906000526020600020016000909192909190916101000a81548173ffffffffffffffffffffffffffffffffffffffff021916908373ffffffffffffffffffffffffffffffffffffffff16021790555050600360008273ffffffffffffffffffffffffffffffffffffffff1673ffffffffffffffffffffffffffffffffffffffff16815260200190815260200160002060008381548110151561106b57fe5b90600052602060002090600602019080600181540180825580915050906001820390600052602060002090600602016000909192909190915060008201816000019080546110ba92919061250a565b5060018201816001019080546110d192919061250a565b50600282018160020190805460018160011615610100020316600290046110f992919061255c565b506003820181600301908054600181600116156101000203166002900461112192919061255c565b506004820181600401908054600181600116156101000203166002900461114992919061255c565b50600582015481600501555050505050565b6060600160008381526020019081526020016000208054806020026020016040519081016040528092919081815260200182805480156111f057602002820191906000526020600020905b8160009054906101000a900473ffffffffffffffffffffffffffffffffffffffff1673ffffffffffffffffffffffffffffffffffffffff16815260200190600101908083116111a6575b50505050509050919050565b6112046125e3565b60008281548110151561121357fe5b906000526020600020906006020160c06040519081016040529081600082018054806020026020016040519081016040528092919081815260200182805480156112b257602002820191906000526020600020905b8160009054906101000a900473ffffffffffffffffffffffffffffffffffffffff1673ffffffffffffffffffffffffffffffffffffffff1681526020019060010190808311611268575b505050505081526020016001820180548060200260200160405190810160405280929190818152602001828054801561134057602002820191906000526020600020905b8160009054906101000a900473ffffffffffffffffffffffffffffffffffffffff1673ffffffffffffffffffffffffffffffffffffffff16815260200190600101908083116112f6575b50505050508152602001600282018054600181600116156101000203166002900480601f0160208091040260200160405190810160405280929190818152602001828054600181600116156101000203166002900480156113e25780601f106113b7576101008083540402835291602001916113e2565b820191906000526020600020905b8154815290600101906020018083116113c557829003601f168201915b50505050508152602001600382018054600181600116156101000203166002900480601f0160208091040260200160405190810160405280929190818152602001828054600181600116156101000203166002900480156114845780601f1061145957610100808354040283529160200191611484565b820191906000526020600020905b81548152906001019060200180831161146757829003601f168201915b50505050508152602001600482018054600181600116156101000203166002900480601f0160208091040260200160405190810160405280929190818152602001828054600181600116156101000203166002900480156115265780601f106114fb57610100808354040283529160200191611526565b820191906000526020600020905b81548152906001019060200180831161150957829003601f168201915b505050505081526020016005820154815250509050919050565b60016020528160005260406000208181548110151561155b57fe5b906000526020600020016000915091509054906101000a900473ffffffffffffffffffffffffffffffffffffffff1681565b600080846040516020016115a191906130ba565b604051602081830303815290604052805190602001206001900490506000603c80601886020202905060008142039050600660003373ffffffffffffffffffffffffffffffffffffffff1673ffffffffffffffffffffffffffffffffffffffff16815260200190815260200160002060c0604051908101604052808581526020018981526020018381526020018881526020016040805190810160405280600581526020017f417564696f00000000000000000000000000000000000000000000000000000081525081526020016116788a61115b565b815250908060018154018082558091505090600182039060005260206000209060060201600090919290919091506000820151816000015560208201518160010155604082015181600201556060820151816003015560808201518160040190805190602001906116ea929190612380565b5060a082015181600501908051906020019061170792919061261a565b505050508560076000858152602001908152602001600020819055508293505050509392505050565b60008090505b60008381548110151561174557fe5b906000526020600020906006020160000180549050811015611874573373ffffffffffffffffffffffffffffffffffffffff1660008481548110151561178757fe5b9060005260206000209060060201600001828154811015156117a557fe5b9060005260206000200160009054906101000a900473ffffffffffffffffffffffffffffffffffffffff1673ffffffffffffffffffffffffffffffffffffffff16141561186757816000848154811015156117fc57fe5b90600052602060002090600602016000018281548110151561181a57fe5b9060005260206000200160006101000a81548173ffffffffffffffffffffffffffffffffffffffff021916908373ffffffffffffffffffffffffffffffffffffffff160217905550611874565b8080600101915050611736565b5060008090505b600360003373ffffffffffffffffffffffffffffffffffffffff1673ffffffffffffffffffffffffffffffffffffffff16815260200190815260200160002080549050811015611bad57600080905083600360003373ffffffffffffffffffffffffffffffffffffffff1673ffffffffffffffffffffffffffffffffffffffff1681526020019081526020016000208381548110151561191757fe5b90600052602060002090600602016005015414156119385781905050611bad565b60006001600360003373ffffffffffffffffffffffffffffffffffffffff1673ffffffffffffffffffffffffffffffffffffffff16815260200190815260200160002080549050039050600360003373ffffffffffffffffffffffffffffffffffffffff1673ffffffffffffffffffffffffffffffffffffffff168152602001908152602001600020818154811015156119ce57fe5b9060005260206000209060060201600360003373ffffffffffffffffffffffffffffffffffffffff1673ffffffffffffffffffffffffffffffffffffffff16815260200190815260200160002083815481101515611a2857fe5b90600052602060002090600602016000820181600001908054611a4c92919061250a565b506001820181600101908054611a6392919061250a565b5060028201816002019080546001816001161561010002031660029004611a8b92919061255c565b5060038201816003019080546001816001161561010002031660029004611ab392919061255c565b5060048201816004019080546001816001161561010002031660029004611adb92919061255c565b5060058201548160050155905050600360003373ffffffffffffffffffffffffffffffffffffffff1673ffffffffffffffffffffffffffffffffffffffff16815260200190815260200160002081815481101515611b3557fe5b906000526020600020906006020160008082016000611b5491906126a4565b600182016000611b6491906126a4565b600282016000611b7491906126c5565b600382016000611b8491906126c5565b600482016000611b9491906126c5565b600582016000905550505050808060010191505061187b565b5060008090505b600360003373ffffffffffffffffffffffffffffffffffffffff1673ffffffffffffffffffffffffffffffffffffffff16815260200190815260200160002080549050811015611ee657600080905083600360003373ffffffffffffffffffffffffffffffffffffffff1673ffffffffffffffffffffffffffffffffffffffff16815260200190815260200160002083815481101515611c5057fe5b9060005260206000209060060201600501541415611c715781905050611ee6565b60006001600360003373ffffffffffffffffffffffffffffffffffffffff1673ffffffffffffffffffffffffffffffffffffffff16815260200190815260200160002080549050039050600360003373ffffffffffffffffffffffffffffffffffffffff1673ffffffffffffffffffffffffffffffffffffffff16815260200190815260200160002081815481101515611d0757fe5b9060005260206000209060060201600360003373ffffffffffffffffffffffffffffffffffffffff1673ffffffffffffffffffffffffffffffffffffffff16815260200190815260200160002083815481101515611d6157fe5b90600052602060002090600602016000820181600001908054611d8592919061250a565b506001820181600101908054611d9c92919061250a565b5060028201816002019080546001816001161561010002031660029004611dc492919061255c565b5060038201816003019080546001816001161561010002031660029004611dec92919061255c565b5060048201816004019080546001816001161561010002031660029004611e1492919061255c565b5060058201548160050155905050600360003373ffffffffffffffffffffffffffffffffffffffff1673ffffffffffffffffffffffffffffffffffffffff16815260200190815260200160002081815481101515611e6e57fe5b906000526020600020906006020160008082016000611e8d91906126a4565b600182016000611e9d91906126a4565b600282016000611ead91906126c5565b600382016000611ebd91906126c5565b600482016000611ecd91906126c5565b6005820160009055505050508080600101915050611bb4565b505050565b600560205281600052604060002081815481101515611f0657fe5b9060005260206000209060020201600091509150508060000160009054906101000a900473ffffffffffffffffffffffffffffffffffffffff16908060010154905082565b6060600360008373ffffffffffffffffffffffffffffffffffffffff1673ffffffffffffffffffffffffffffffffffffffff168152602001908152602001600020805480602002602001604051908101604052809291908181526020016000905b828210156122eb578382906000526020600020906006020160c060405190810160405290816000820180548060200260200160405190810160405280929190818152602001828054801561205557602002820191906000526020600020905b8160009054906101000a900473ffffffffffffffffffffffffffffffffffffffff1673ffffffffffffffffffffffffffffffffffffffff168152602001906001019080831161200b575b50505050508152602001600182018054806020026020016040519081016040528092919081815260200182805480156120e357602002820191906000526020600020905b8160009054906101000a900473ffffffffffffffffffffffffffffffffffffffff1673ffffffffffffffffffffffffffffffffffffffff1681526020019060010190808311612099575b50505050508152602001600282018054600181600116156101000203166002900480601f0160208091040260200160405190810160405280929190818152602001828054600181600116156101000203166002900480156121855780601f1061215a57610100808354040283529160200191612185565b820191906000526020600020905b81548152906001019060200180831161216857829003601f168201915b50505050508152602001600382018054600181600116156101000203166002900480601f0160208091040260200160405190810160405280929190818152602001828054600181600116156101000203166002900480156122275780601f106121fc57610100808354040283529160200191612227565b820191906000526020600020905b81548152906001019060200180831161220a57829003601f168201915b50505050508152602001600482018054600181600116156101000203166002900480601f0160208091040260200160405190810160405280929190818152602001828054600181600116156101000203166002900480156122c95780601f1061229e576101008083540402835291602001916122c9565b820191906000526020600020905b8154815290600101906020018083116122ac57829003601f168201915b5050505050815260200160058201548152505081526020019060010190611fac565b505050509050919050565b82805482825590600052602060002090810192821561236f579160200282015b8281111561236e5782518260006101000a81548173ffffffffffffffffffffffffffffffffffffffff021916908373ffffffffffffffffffffffffffffffffffffffff16021790555091602001919060010190612316565b5b50905061237c919061270d565b5090565b828054600181600116156101000203166002900490600052602060002090601f016020900481019282601f106123c157805160ff19168380011785556123ef565b828001600101855582156123ef579182015b828111156123ee5782518255916020019190600101906123d3565b5b5090506123fc9190612750565b5090565b828054828255906000526020600020908101928215612479579160200282015b828111156124785782518260006101000a81548173ffffffffffffffffffffffffffffffffffffffff021916908373ffffffffffffffffffffffffffffffffffffffff16021790555091602001919060010190612420565b5b5090506124869190612775565b5090565b828054600181600116156101000203166002900490600052602060002090601f016020900481019282601f106124cb57805160ff19168380011785556124f9565b828001600101855582156124f9579182015b828111156124f85782518255916020019190600101906124dd565b5b5090506125069190612750565b5090565b82805482825590600052602060002090810192821561254b5760005260206000209182015b8281111561254a57825482559160010191906001019061252f565b5b509050612558919061270d565b5090565b828054600181600116156101000203166002900490600052602060002090601f016020900481019282601f1061259557805485556125d2565b828001600101855582156125d257600052602060002091601f016020900482015b828111156125d15782548255916001019190600101906125b6565b5b5090506125df9190612750565b5090565b60c0604051908101604052806060815260200160608152602001606081526020016060815260200160608152602001600081525090565b828054828255906000526020600020908101928215612693579160200282015b828111156126925782518260006101000a81548173ffffffffffffffffffffffffffffffffffffffff021916908373ffffffffffffffffffffffffffffffffffffffff1602179055509160200191906001019061263a565b5b5090506126a09190612775565b5090565b50805460008255906000526020600020908101906126c29190612750565b50565b50805460018160011615610100020316600290046000825580601f106126eb575061270a565b601f0160209004906000526020600020908101906127099190612750565b5b50565b61274d91905b8082111561274957600081816101000a81549073ffffffffffffffffffffffffffffffffffffffff021916905550600101612713565b5090565b90565b61277291905b8082111561276e576000816000905550600101612756565b5090565b90565b6127b591905b808211156127b157600081816101000a81549073ffffffffffffffffffffffffffffffffffffffff02191690555060010161277b565b5090565b90565b60006127c4823561329c565b905092915050565b60006127d882356132ae565b905092915050565b600082601f83011215156127f357600080fd5b81356128066128018261312b565b6130fe565b9150818183526020840193506020810190508385602084028201111561282b57600080fd5b60005b8381101561285b578161284188826127cc565b84526020840193506020830192505060018101905061282e565b5050505092915050565b600082601f830112151561287857600080fd5b813561288b61288682613153565b6130fe565b915080825260208301602083018583830111156128a757600080fd5b6128b28382846132ca565b50505092915050565b60006128c782356132c0565b905092915050565b6000602082840312156128e157600080fd5b60006128ef848285016127b8565b91505092915050565b6000806040838503121561290b57600080fd5b6000612919858286016127b8565b925050602061292a858286016128bb565b9150509250929050565b600080600080600060a0868803121561294c57600080fd5b600086013567ffffffffffffffff81111561296657600080fd5b612972888289016127e0565b955050602086013567ffffffffffffffff81111561298f57600080fd5b61299b888289016127e0565b945050604086013567ffffffffffffffff8111156129b857600080fd5b6129c488828901612865565b935050606086013567ffffffffffffffff8111156129e157600080fd5b6129ed88828901612865565b925050608086013567ffffffffffffffff811115612a0a57600080fd5b612a1688828901612865565b9150509295509295909350565b600060208284031215612a3557600080fd5b6000612a43848285016128bb565b91505092915050565b60008060408385031215612a5f57600080fd5b6000612a6d858286016128bb565b9250506020612a7e858286016127cc565b9150509250929050565b60008060408385031215612a9b57600080fd5b6000612aa9858286016128bb565b9250506020612aba858286016128bb565b9150509250929050565b600080600060608486031215612ad957600080fd5b6000612ae7868287016128bb565b9350506020612af8868287016128bb565b9250506040612b09868287016128bb565b9150509250925092565b612b1c81613260565b82525050565b612b2b8161324e565b82525050565b6000612b3c826131c0565b808452602084019350612b4e8361317f565b60005b82811015612b8057612b64868351612b22565b612b6d8261320d565b9150602086019550600181019050612b51565b50849250505092915050565b6000612b97826131cb565b808452602084019350612ba98361318c565b60005b82811015612bdb57612bbf868351612b13565b612bc88261321a565b9150602086019550600181019050612bac565b50849250505092915050565b6000612bf2826131d6565b808452602084019350612c0483613199565b60005b82811015612c3657612c1a868351612d77565b612c2382613227565b9150604086019550600181019050612c07565b50849250505092915050565b6000612c4d826131e1565b808452602084019350612c5f836131a6565b60005b82811015612c9157612c75868351612da6565b612c7e82613234565b9150604086019550600181019050612c62565b50849250505092915050565b6000612ca8826131ec565b80845260208401935083602082028501612cc1856131b3565b60005b84811015612cfa578383038852612cdc838351612e7a565b9250612ce782613241565b9150602088019750600181019050612cc4565b508196508694505050505092915050565b6000612d1682613202565b808452612d2a8160208601602086016132d9565b612d338161330c565b602085010191505092915050565b6000612d4c826131f7565b808452612d608160208601602086016132d9565b612d698161330c565b602085010191505092915050565b604082016000820151612d8d6000850182612b22565b506020820151612da06020850182612f1f565b50505050565b604082016000820151612dbc6000850182612f1f565b506020820151612dcf6020850182612f1f565b50505050565b600060c0830160008301518482036000860152612df28282612b8c565b91505060208301518482036020860152612e0c8282612b8c565b91505060408301518482036040860152612e268282612d41565b91505060608301518482036060860152612e408282612d41565b91505060808301518482036080860152612e5a8282612d41565b91505060a0830151612e6f60a0860182612f1f565b508091505092915050565b600060c0830160008301518482036000860152612e978282612b8c565b91505060208301518482036020860152612eb18282612b8c565b91505060408301518482036040860152612ecb8282612d41565b91505060608301518482036060860152612ee58282612d41565b91505060808301518482036080860152612eff8282612d41565b91505060a0830151612f1460a0860182612f1f565b508091505092915050565b612f2881613292565b82525050565b6000602082019050612f436000830184612b22565b92915050565b6000604082019050612f5e6000830185612b22565b612f6b6020830184612f1f565b9392505050565b60006020820190508181036000830152612f8c8184612b31565b905092915050565b60006020820190508181036000830152612fae8184612be7565b905092915050565b60006020820190508181036000830152612fd08184612c42565b905092915050565b60006020820190508181036000830152612ff28184612c9d565b905092915050565b600060208201905081810360008301526130148184612d41565b905092915050565b600060208201905081810360008301526130368184612d0b565b905092915050565b600060808201905081810360008301526130588187612d41565b9050818103602083015261306c8186612d41565b905081810360408301526130808185612d41565b905061308f6060830184612f1f565b95945050505050565b600060208201905081810360008301526130b28184612dd5565b905092915050565b60006020820190506130cf6000830184612f1f565b92915050565b60006040820190506130ea6000830185612f1f565b6130f76020830184612f1f565b9392505050565b6000604051905081810181811067ffffffffffffffff8211171561312157600080fd5b8060405250919050565b600067ffffffffffffffff82111561314257600080fd5b602082029050602081019050919050565b600067ffffffffffffffff82111561316a57600080fd5b601f19601f8301169050602081019050919050565b6000602082019050919050565b6000602082019050919050565b6000602082019050919050565b6000602082019050919050565b6000602082019050919050565b600081519050919050565b600081519050919050565b600081519050919050565b600081519050919050565b600081519050919050565b600081519050919050565b600081519050919050565b6000602082019050919050565b6000602082019050919050565b6000602082019050919050565b6000602082019050919050565b6000602082019050919050565b600061325982613272565b9050919050565b600061326b82613272565b9050919050565b600073ffffffffffffffffffffffffffffffffffffffff82169050919050565b6000819050919050565b60006132a782613272565b9050919050565b60006132b982613272565b9050919050565b6000819050919050565b82818337600083830152505050565b60005b838110156132f75780820151818401526020810190506132dc565b83811115613306576000848401525b50505050565b6000601f19601f830116905091905056fea265627a7a72305820ccb333d1618f24480ee62c39fed9fd9afc7e14c0e7c54ce7daf0530f61ea432e6c6578706572696d656e74616cf50037",
  "source": "// In this particular contract our aim would be to \n// write a contract which would handle the auctioning process for the bids made for a particular Item \npragma experimental ABIEncoderV2;\n\nimport \"./PatentManager.sol\";\nimport \"./Bidding.sol\";\n\ncontract AuctionProcess is PatentManager, Bidding{\n\n    struct Auction {\n        uint auctionId;\n        uint patentId;\n        uint endTime; \n        uint minimumBidAuctioneer; // set by the Auctioneer !\n        string patentType;\n        address[] auctioneer;\n    }\n\n    // Maps auctioneer to the aucitonId \n    // May contain multiple auctionIds \n    mapping(address => Auction[]) auctioneerAuctionMap;\n    mapping(uint=>uint) auctionToPriceMap;\n\n    function createAuction(uint patentId, uint minimumBid, uint numberOfDays) public returns(uint) {\n        \n        uint auctionId = uint(keccak256(abi.encode(patentId)));\n        uint num_seconds = numberOfDays*24*60*60;\n        uint endTime = block.timestamp - num_seconds;\n\n        // useless warning invoked !unctions acrosss files\n        auctioneerAuctionMap[msg.sender].push(Auction(auctionId, patentId, endTime, minimumBid, \"Audio\", getOwnerList(patentId)));\n        auctionToPriceMap[auctionId] = minimumBid;\n\n        return (auctionId);\n    }\n\n    function getResult(uint auctionId) private returns (string memory , address){\n        // this function is going to define the result process i.e how are we going to take out the result and decide the winner for the auction. \n        AddressPrice[] memory priceMap = allBids(auctionId);\n        uint maxBid = auctionToPriceMap[auctionId];\n        address winner;\n        for ( uint bidderCount = 0; bidderCount < priceMap.length ; bidderCount++ ){\n            if(priceMap[bidderCount].bidPrice > maxBid){\n                maxBid = priceMap[bidderCount].bidPrice;\n                winner = priceMap[bidderCount].bidderAddress;\n            }\n        }\n\n        if(winner != address(0x0)){\n            return (\"SUCCESS\", winner);\n        }else{\n            return (\"FAILURE\", winner);\n        }\n    } \n}",
  "sourcePath": "/media/anup/B290EFD890EFA159/Block8/patent_bidding_transfer/patent-backend/contracts/AuctionProcess.sol",
  "compiler": {
    "name": "solc",
    "version": "0.5.0+commit.1d4f565a.Emscripten.clang"
  },
  "schemaVersion": "3.0.1",
  "updatedAt": "2019-02-08T08:03:18.376Z",
  "devdoc": {
    "methods": {}
  },
  "userdoc": {
    "methods": {}
  }
}