{
  "contractName": "AuctionProcess",
  "abi": [
    {
      "constant": true,
      "inputs": [
        {
          "name": "",
          "type": "uint256"
        }
      ],
      "name": "patentNameMap",
      "outputs": [
        {
          "name": "",
          "type": "string"
        }
      ],
      "payable": false,
      "stateMutability": "view",
      "type": "function",
      "signature": "0x05c1ba22"
    },
    {
      "constant": true,
      "inputs": [
        {
          "name": "patentId",
          "type": "uint256"
        }
      ],
      "name": "getPatentName",
      "outputs": [
        {
          "name": "",
          "type": "string"
        }
      ],
      "payable": false,
      "stateMutability": "view",
      "type": "function",
      "signature": "0x087344d3"
    },
    {
      "constant": true,
      "inputs": [
        {
          "name": "patentId",
          "type": "uint256"
        }
      ],
      "name": "getPatentType",
      "outputs": [
        {
          "name": "",
          "type": "string"
        }
      ],
      "payable": false,
      "stateMutability": "view",
      "type": "function",
      "signature": "0x1a241775"
    },
    {
      "constant": true,
      "inputs": [
        {
          "name": "",
          "type": "address"
        },
        {
          "name": "",
          "type": "uint256"
        }
      ],
      "name": "userBidMap",
      "outputs": [
        {
          "name": "auctionId",
          "type": "uint256"
        },
        {
          "name": "bidPrice",
          "type": "uint256"
        }
      ],
      "payable": false,
      "stateMutability": "view",
      "type": "function",
      "signature": "0x20f5a9e6"
    },
    {
      "constant": false,
      "inputs": [
        {
          "name": "auctionId",
          "type": "uint256"
        },
        {
          "name": "bidAmount",
          "type": "uint256"
        }
      ],
      "name": "addBid",
      "outputs": [],
      "payable": false,
      "stateMutability": "nonpayable",
      "type": "function",
      "signature": "0x21b23f04"
    },
    {
      "constant": false,
      "inputs": [
        {
          "name": "patentId",
          "type": "uint256"
        },
        {
          "name": "person",
          "type": "address"
        }
      ],
      "name": "addLisenceHolder",
      "outputs": [],
      "payable": false,
      "stateMutability": "nonpayable",
      "type": "function",
      "signature": "0x25700466"
    },
    {
      "constant": true,
      "inputs": [
        {
          "name": "auctionId",
          "type": "uint256"
        }
      ],
      "name": "allBids",
      "outputs": [
        {
          "components": [
            {
              "name": "bidderAddress",
              "type": "address"
            },
            {
              "name": "bidPrice",
              "type": "uint256"
            }
          ],
          "name": "",
          "type": "tuple[]"
        }
      ],
      "payable": false,
      "stateMutability": "view",
      "type": "function",
      "signature": "0x2fb5eac2"
    },
    {
      "constant": true,
      "inputs": [
        {
          "name": "",
          "type": "address"
        },
        {
          "name": "",
          "type": "uint256"
        }
      ],
      "name": "ownerPatentsMap",
      "outputs": [
        {
          "name": "patentName",
          "type": "string"
        },
        {
          "name": "patentType",
          "type": "string"
        },
        {
          "name": "patentSubType",
          "type": "string"
        },
        {
          "name": "issueDate",
          "type": "string"
        },
        {
          "name": "patentId",
          "type": "uint256"
        }
      ],
      "payable": false,
      "stateMutability": "view",
      "type": "function",
      "signature": "0x46e5e8e2"
    },
    {
      "constant": false,
      "inputs": [
        {
          "name": "owners",
          "type": "address[]"
        },
        {
          "name": "lisenceHolders",
          "type": "address[]"
        },
        {
          "name": "patentName",
          "type": "string"
        },
        {
          "name": "issueDate",
          "type": "string"
        },
        {
          "name": "patentType",
          "type": "string"
        },
        {
          "name": "patentSubType",
          "type": "string"
        }
      ],
      "name": "registerPatent",
      "outputs": [
        {
          "name": "",
          "type": "uint256"
        }
      ],
      "payable": false,
      "stateMutability": "nonpayable",
      "type": "function",
      "signature": "0x4b2be01c"
    },
    {
      "constant": true,
      "inputs": [],
      "name": "getMyBids",
      "outputs": [
        {
          "components": [
            {
              "name": "auctionId",
              "type": "uint256"
            },
            {
              "name": "bidPrice",
              "type": "uint256"
            }
          ],
          "name": "",
          "type": "tuple[]"
        }
      ],
      "payable": false,
      "stateMutability": "view",
      "type": "function",
      "signature": "0x788077a7"
    },
    {
      "constant": false,
      "inputs": [
        {
          "name": "patentId",
          "type": "uint256"
        },
        {
          "name": "person",
          "type": "address"
        }
      ],
      "name": "addOwner",
      "outputs": [],
      "payable": false,
      "stateMutability": "nonpayable",
      "type": "function",
      "signature": "0x8cd1bb20"
    },
    {
      "constant": true,
      "inputs": [
        {
          "name": "patentId",
          "type": "uint256"
        }
      ],
      "name": "getOwnerList",
      "outputs": [
        {
          "name": "",
          "type": "address[]"
        }
      ],
      "payable": false,
      "stateMutability": "view",
      "type": "function",
      "signature": "0x8dd95e99"
    },
    {
      "constant": true,
      "inputs": [
        {
          "name": "patentId",
          "type": "uint256"
        }
      ],
      "name": "getPatent",
      "outputs": [
        {
          "components": [
            {
              "name": "owners",
              "type": "address[]"
            },
            {
              "name": "lisenceHolders",
              "type": "address[]"
            },
            {
              "name": "patentName",
              "type": "string"
            },
            {
              "name": "patentType",
              "type": "string"
            },
            {
              "name": "patentSubType",
              "type": "string"
            },
            {
              "name": "issueDate",
              "type": "string"
            },
            {
              "name": "patentId",
              "type": "uint256"
            }
          ],
          "name": "",
          "type": "tuple"
        }
      ],
      "payable": false,
      "stateMutability": "view",
      "type": "function",
      "signature": "0x9c6d0d78"
    },
    {
      "constant": true,
      "inputs": [
        {
          "name": "",
          "type": "uint256"
        },
        {
          "name": "",
          "type": "uint256"
        }
      ],
      "name": "patentOwnerMap",
      "outputs": [
        {
          "name": "",
          "type": "address"
        }
      ],
      "payable": false,
      "stateMutability": "view",
      "type": "function",
      "signature": "0xbe90b054"
    },
    {
      "constant": false,
      "inputs": [
        {
          "name": "patentId",
          "type": "uint256"
        },
        {
          "name": "receiver",
          "type": "address"
        }
      ],
      "name": "transferPatent",
      "outputs": [],
      "payable": false,
      "stateMutability": "nonpayable",
      "type": "function",
      "signature": "0xd510bbd7"
    },
    {
      "constant": true,
      "inputs": [
        {
          "name": "",
          "type": "uint256"
        },
        {
          "name": "",
          "type": "uint256"
        }
      ],
      "name": "auctionToBidersMap",
      "outputs": [
        {
          "name": "bidderAddress",
          "type": "address"
        },
        {
          "name": "bidPrice",
          "type": "uint256"
        }
      ],
      "payable": false,
      "stateMutability": "view",
      "type": "function",
      "signature": "0xd88730d5"
    },
    {
      "constant": true,
      "inputs": [
        {
          "name": "owner",
          "type": "address"
        }
      ],
      "name": "getPatentsByOwner",
      "outputs": [
        {
          "components": [
            {
              "name": "owners",
              "type": "address[]"
            },
            {
              "name": "lisenceHolders",
              "type": "address[]"
            },
            {
              "name": "patentName",
              "type": "string"
            },
            {
              "name": "patentType",
              "type": "string"
            },
            {
              "name": "patentSubType",
              "type": "string"
            },
            {
              "name": "issueDate",
              "type": "string"
            },
            {
              "name": "patentId",
              "type": "uint256"
            }
          ],
          "name": "",
          "type": "tuple[]"
        }
      ],
      "payable": false,
      "stateMutability": "view",
      "type": "function",
      "signature": "0xfc8f39f5"
    },
    {
      "constant": false,
      "inputs": [
        {
          "name": "patentId",
          "type": "uint256"
        },
        {
          "name": "minimumBid",
          "type": "uint256"
        },
        {
          "name": "numberOfDays",
          "type": "uint256"
        }
      ],
      "name": "createAuction",
      "outputs": [
        {
          "name": "",
          "type": "uint256"
        }
      ],
      "payable": false,
      "stateMutability": "nonpayable",
      "type": "function",
      "signature": "0xcda4beef"
    },
    {
      "constant": true,
      "inputs": [
        {
          "name": "auctionId",
          "type": "uint256"
        }
      ],
      "name": "getResult",
      "outputs": [
        {
          "name": "",
          "type": "string"
        },
        {
          "name": "",
          "type": "address"
        }
      ],
      "payable": false,
      "stateMutability": "view",
      "type": "function",
      "signature": "0x995e4339"
    },
    {
      "constant": true,
      "inputs": [],
      "name": "getAuctions",
      "outputs": [
        {
          "components": [
            {
              "name": "auctionId",
              "type": "uint256"
            },
            {
              "name": "patentId",
              "type": "uint256"
            },
            {
              "name": "endTime",
              "type": "uint256"
            },
            {
              "name": "minimumBidAuctioneer",
              "type": "uint256"
            },
            {
              "name": "patentType",
              "type": "string"
            },
            {
              "name": "auctioneer",
              "type": "address[]"
            }
          ],
          "name": "",
          "type": "tuple[]"
        }
      ],
      "payable": false,
      "stateMutability": "view",
      "type": "function",
      "signature": "0xd7c06919"
    }
  ],
  "bytecode": "0x608060405234801561001057600080fd5b50613c59806100206000396000f3fe608060405260043610610112576000357c0100000000000000000000000000000000000000000000000000000000900463ffffffff16806305c1ba2214610117578063087344d3146101545780631a2417751461019157806320f5a9e6146101ce57806321b23f041461020c57806325700466146102355780632fb5eac21461025e57806346e5e8e21461029b5780634b2be01c146102dc578063788077a7146103195780638cd1bb20146103445780638dd95e991461036d578063995e4339146103aa5780639c6d0d78146103e8578063be90b05414610425578063cda4beef14610462578063d510bbd71461049f578063d7c06919146104c8578063d88730d5146104f3578063fc8f39f514610531575b600080fd5b34801561012357600080fd5b5061013e600480360361013991908101906130e7565b61056e565b60405161014b919061386d565b60405180910390f35b34801561016057600080fd5b5061017b600480360361017691908101906130e7565b61061e565b604051610188919061388f565b60405180910390f35b34801561019d57600080fd5b506101b860048036036101b391908101906130e7565b6106d3565b6040516101c5919061388f565b60405180910390f35b3480156101da57600080fd5b506101f560048036036101f09190810190612f92565b610795565b60405161020392919061398d565b60405180910390f35b34801561021857600080fd5b50610233600480360361022e919081019061314c565b6107d5565b005b34801561024157600080fd5b5061025c60048036036102579190810190613110565b61092c565b005b34801561026a57600080fd5b50610285600480360361028091908101906130e7565b6109b4565b60405161029291906137e5565b60405180910390f35b3480156102a757600080fd5b506102c260048036036102bd9190810190612f92565b610a86565b6040516102d39594939291906138e1565b60405180910390f35b3480156102e857600080fd5b5061030360048036036102fe9190810190612fce565b610d38565b6040516103109190613972565b60405180910390f35b34801561032557600080fd5b5061032e611053565b60405161033b9190613829565b60405180910390f35b34801561035057600080fd5b5061036b60048036036103669190810190613110565b611103565b005b34801561037957600080fd5b50610394600480360361038f91908101906130e7565b6112ed565b6040516103a191906137c3565b60405180910390f35b3480156103b657600080fd5b506103d160048036036103cc91908101906130e7565b61138e565b6040516103df9291906138b1565b60405180910390f35b3480156103f457600080fd5b5061040f600480360361040a91908101906130e7565b6114f5565b60405161041c9190613950565b60405180910390f35b34801561043157600080fd5b5061044c6004803603610447919081019061314c565b6118db565b604051610459919061377f565b60405180910390f35b34801561046e57600080fd5b5061048960048036036104849190810190613188565b611928565b6040516104969190613972565b60405180910390f35b3480156104ab57600080fd5b506104c660048036036104c19190810190613110565b611a80565b005b3480156104d457600080fd5b506104dd6122ab565b6040516104ea9190613807565b60405180910390f35b3480156104ff57600080fd5b5061051a6004803603610515919081019061314c565b6124a5565b60405161052892919061379a565b60405180910390f35b34801561053d57600080fd5b5061055860048036036105539190810190612f69565b612505565b604051610565919061384b565b60405180910390f35b60026020528060005260406000206000915090508054600181600116156101000203166002900480601f0160208091040260200160405190810160405280929190818152602001828054600181600116156101000203166002900480156106165780601f106105eb57610100808354040283529160200191610616565b820191906000526020600020905b8154815290600101906020018083116105f957829003601f168201915b505050505081565b6060600260008381526020019081526020016000208054600181600116156101000203166002900480601f0160208091040260200160405190810160405280929190818152602001828054600181600116156101000203166002900480156106c75780601f1061069c576101008083540402835291602001916106c7565b820191906000526020600020905b8154815290600101906020018083116106aa57829003601f168201915b50505050509050919050565b60606000828154811015156106e457fe5b90600052602060002090600702016003018054600181600116156101000203166002900480601f0160208091040260200160405190810160405280929190818152602001828054600181600116156101000203166002900480156107895780601f1061075e57610100808354040283529160200191610789565b820191906000526020600020905b81548152906001019060200180831161076c57829003601f168201915b50505050509050919050565b6004602052816000526040600020818154811015156107b057fe5b9060005260206000209060020201600091509150508060000154908060010154905082565b600460003373ffffffffffffffffffffffffffffffffffffffff1673ffffffffffffffffffffffffffffffffffffffff1681526020019081526020016000206040805190810160405280848152602001838152509080600181540180825580915050906001820390600052602060002090600202016000909192909190915060008201518160000155602082015181600101555050506005600083815260200190815260200160002060408051908101604052803373ffffffffffffffffffffffffffffffffffffffff168152602001838152509080600181540180825580915050906001820390600052602060002090600202016000909192909190915060008201518160000160006101000a81548173ffffffffffffffffffffffffffffffffffffffff021916908373ffffffffffffffffffffffffffffffffffffffff160217905550602082015181600101555050505050565b60008281548110151561093b57fe5b90600052602060002090600702016001018190806001815401808255809150509060018203906000526020600020016000909192909190916101000a81548173ffffffffffffffffffffffffffffffffffffffff021916908373ffffffffffffffffffffffffffffffffffffffff160217905550505050565b606060056000838152602001908152602001600020805480602002602001604051908101604052809291908181526020016000905b82821015610a7b57838290600052602060002090600202016040805190810160405290816000820160009054906101000a900473ffffffffffffffffffffffffffffffffffffffff1673ffffffffffffffffffffffffffffffffffffffff1673ffffffffffffffffffffffffffffffffffffffff168152602001600182015481525050815260200190600101906109e9565b505050509050919050565b600360205281600052604060002081815481101515610aa157fe5b906000526020600020906007020160009150915050806002018054600181600116156101000203166002900480601f016020809104026020016040519081016040528092919081815260200182805460018160011615610100020316600290048015610b4e5780601f10610b2357610100808354040283529160200191610b4e565b820191906000526020600020905b815481529060010190602001808311610b3157829003601f168201915b505050505090806003018054600181600116156101000203166002900480601f016020809104026020016040519081016040528092919081815260200182805460018160011615610100020316600290048015610bec5780601f10610bc157610100808354040283529160200191610bec565b820191906000526020600020905b815481529060010190602001808311610bcf57829003601f168201915b505050505090806004018054600181600116156101000203166002900480601f016020809104026020016040519081016040528092919081815260200182805460018160011615610100020316600290048015610c8a5780601f10610c5f57610100808354040283529160200191610c8a565b820191906000526020600020905b815481529060010190602001808311610c6d57829003601f168201915b505050505090806005018054600181600116156101000203166002900480601f016020809104026020016040519081016040528092919081815260200182805460018160011615610100020316600290048015610d285780601f10610cfd57610100808354040283529160200191610d28565b820191906000526020600020905b815481529060010190602001808311610d0b57829003601f168201915b5050505050908060060154905085565b6000806000805490509050600060e0604051908101604052808a815260200189815260200188815260200186815260200185815260200187815260200183815250908060018154018082558091505090600182039060005260206000209060070201600090919290919091506000820151816000019080519060200190610dc0929190612952565b506020820151816001019080519060200190610ddd929190612952565b506040820151816002019080519060200190610dfa9291906129dc565b506060820151816003019080519060200190610e179291906129dc565b506080820151816004019080519060200190610e349291906129dc565b5060a0820151816005019080519060200190610e519291906129dc565b5060c0820151816006015550505087600160008381526020019081526020016000209080519060200190610e86929190612a5c565b5085600260008381526020019081526020016000209080519060200190610eae929190612ae6565b5060008090505b885181101561104457600360008a83815181101515610ed057fe5b9060200190602002015173ffffffffffffffffffffffffffffffffffffffff1673ffffffffffffffffffffffffffffffffffffffff168152602001908152602001600020600083815481101515610f2357fe5b9060005260206000209060070201908060018154018082558091505090600182039060005260206000209060070201600090919290919091506000820181600001908054610f72929190612b66565b506001820181600101908054610f89929190612b66565b5060028201816002019080546001816001161561010002031660029004610fb1929190612bb8565b5060038201816003019080546001816001161561010002031660029004610fd9929190612bb8565b5060048201816004019080546001816001161561010002031660029004611001929190612bb8565b5060058201816005019080546001816001161561010002031660029004611029929190612bb8565b50600682015481600601555050508080600101915050610eb5565b50809150509695505050505050565b6060600460003373ffffffffffffffffffffffffffffffffffffffff1673ffffffffffffffffffffffffffffffffffffffff168152602001908152602001600020805480602002602001604051908101604052809291908181526020016000905b828210156110fa578382906000526020600020906002020160408051908101604052908160008201548152602001600182015481525050815260200190600101906110b4565b50505050905090565b60008281548110151561111257fe5b90600052602060002090600702016000018190806001815401808255809150509060018203906000526020600020016000909192909190916101000a81548173ffffffffffffffffffffffffffffffffffffffff021916908373ffffffffffffffffffffffffffffffffffffffff16021790555050600360008273ffffffffffffffffffffffffffffffffffffffff1673ffffffffffffffffffffffffffffffffffffffff1681526020019081526020016000206000838154811015156111d557fe5b9060005260206000209060070201908060018154018082558091505090600182039060005260206000209060070201600090919290919091506000820181600001908054611224929190612b66565b50600182018160010190805461123b929190612b66565b5060028201816002019080546001816001161561010002031660029004611263929190612bb8565b506003820181600301908054600181600116156101000203166002900461128b929190612bb8565b50600482018160040190805460018160011615610100020316600290046112b3929190612bb8565b50600582018160050190805460018160011615610100020316600290046112db929190612bb8565b50600682015481600601555050505050565b60606001600083815260200190815260200160002080548060200260200160405190810160405280929190818152602001828054801561138257602002820191906000526020600020905b8160009054906101000a900473ffffffffffffffffffffffffffffffffffffffff1673ffffffffffffffffffffffffffffffffffffffff1681526020019060010190808311611338575b50505050509050919050565b60606000606061139d846109b4565b9050600060076000868152602001908152602001600020549050600080600090505b8351811015611435578284828151811015156113d757fe5b906020019060200201516020015111156114285783818151811015156113f957fe5b90602001906020020151602001519250838181518110151561141757fe5b906020019060200201516000015191505b80806001019150506113bf565b50600073ffffffffffffffffffffffffffffffffffffffff168173ffffffffffffffffffffffffffffffffffffffff161415156114b057806040805190810160405280600781526020017f535543434553530000000000000000000000000000000000000000000000000081525090945094505050506114f0565b806040805190810160405280600781526020017f4641494c5552450000000000000000000000000000000000000000000000000081525090945094505050505b915091565b6114fd612c3f565b60008281548110151561150c57fe5b906000526020600020906007020160e06040519081016040529081600082018054806020026020016040519081016040528092919081815260200182805480156115ab57602002820191906000526020600020905b8160009054906101000a900473ffffffffffffffffffffffffffffffffffffffff1673ffffffffffffffffffffffffffffffffffffffff1681526020019060010190808311611561575b505050505081526020016001820180548060200260200160405190810160405280929190818152602001828054801561163957602002820191906000526020600020905b8160009054906101000a900473ffffffffffffffffffffffffffffffffffffffff1673ffffffffffffffffffffffffffffffffffffffff16815260200190600101908083116115ef575b50505050508152602001600282018054600181600116156101000203166002900480601f0160208091040260200160405190810160405280929190818152602001828054600181600116156101000203166002900480156116db5780601f106116b0576101008083540402835291602001916116db565b820191906000526020600020905b8154815290600101906020018083116116be57829003601f168201915b50505050508152602001600382018054600181600116156101000203166002900480601f01602080910402602001604051908101604052809291908181526020018280546001816001161561010002031660029004801561177d5780601f106117525761010080835404028352916020019161177d565b820191906000526020600020905b81548152906001019060200180831161176057829003601f168201915b50505050508152602001600482018054600181600116156101000203166002900480601f01602080910402602001604051908101604052809291908181526020018280546001816001161561010002031660029004801561181f5780601f106117f45761010080835404028352916020019161181f565b820191906000526020600020905b81548152906001019060200180831161180257829003601f168201915b50505050508152602001600582018054600181600116156101000203166002900480601f0160208091040260200160405190810160405280929190818152602001828054600181600116156101000203166002900480156118c15780601f10611896576101008083540402835291602001916118c1565b820191906000526020600020905b8154815290600101906020018083116118a457829003601f168201915b505050505081526020016006820154815250509050919050565b6001602052816000526040600020818154811015156118f657fe5b906000526020600020016000915091509054906101000a900473ffffffffffffffffffffffffffffffffffffffff1681565b6000808490506000603c8060188602020290506000814201905061194a612c7d565b60c0604051908101604052808581526020018981526020018381526020018881526020016119778a6106d3565b81526020016119858a6112ed565b8152509050600660003373ffffffffffffffffffffffffffffffffffffffff1673ffffffffffffffffffffffffffffffffffffffff1681526020019081526020016000208190806001815401808255809150509060018203906000526020600020906006020160009091929091909150600082015181600001556020820151816001015560408201518160020155606082015181600301556080820151816004019080519060200190611a399291906129dc565b5060a0820151816005019080519060200190611a56929190612cb4565b50505050866007600086815260200190815260200160002081905550839450505050509392505050565b60008090505b600083815481101515611a9557fe5b906000526020600020906007020160000180549050811015611bc4573373ffffffffffffffffffffffffffffffffffffffff16600084815481101515611ad757fe5b906000526020600020906007020160000182815481101515611af557fe5b9060005260206000200160009054906101000a900473ffffffffffffffffffffffffffffffffffffffff1673ffffffffffffffffffffffffffffffffffffffff161415611bb75781600084815481101515611b4c57fe5b906000526020600020906007020160000182815481101515611b6a57fe5b9060005260206000200160006101000a81548173ffffffffffffffffffffffffffffffffffffffff021916908373ffffffffffffffffffffffffffffffffffffffff160217905550611bc4565b8080600101915050611a86565b5060008090505b600360003373ffffffffffffffffffffffffffffffffffffffff1673ffffffffffffffffffffffffffffffffffffffff16815260200190815260200160002080549050811015611f3557600080905083600360003373ffffffffffffffffffffffffffffffffffffffff1673ffffffffffffffffffffffffffffffffffffffff16815260200190815260200160002083815481101515611c6757fe5b9060005260206000209060070201600601541415611c885781905050611f35565b60006001600360003373ffffffffffffffffffffffffffffffffffffffff1673ffffffffffffffffffffffffffffffffffffffff16815260200190815260200160002080549050039050600360003373ffffffffffffffffffffffffffffffffffffffff1673ffffffffffffffffffffffffffffffffffffffff16815260200190815260200160002081815481101515611d1e57fe5b9060005260206000209060070201600360003373ffffffffffffffffffffffffffffffffffffffff1673ffffffffffffffffffffffffffffffffffffffff16815260200190815260200160002083815481101515611d7857fe5b90600052602060002090600702016000820181600001908054611d9c929190612b66565b506001820181600101908054611db3929190612b66565b5060028201816002019080546001816001161561010002031660029004611ddb929190612bb8565b5060038201816003019080546001816001161561010002031660029004611e03929190612bb8565b5060048201816004019080546001816001161561010002031660029004611e2b929190612bb8565b5060058201816005019080546001816001161561010002031660029004611e53929190612bb8565b5060068201548160060155905050600360003373ffffffffffffffffffffffffffffffffffffffff1673ffffffffffffffffffffffffffffffffffffffff16815260200190815260200160002081815481101515611ead57fe5b906000526020600020906007020160008082016000611ecc9190612d3e565b600182016000611edc9190612d3e565b600282016000611eec9190612d5f565b600382016000611efc9190612d5f565b600482016000611f0c9190612d5f565b600582016000611f1c9190612d5f565b6006820160009055505050508080600101915050611bcb565b5060008090505b600360003373ffffffffffffffffffffffffffffffffffffffff1673ffffffffffffffffffffffffffffffffffffffff168152602001908152602001600020805490508110156122a657600080905083600360003373ffffffffffffffffffffffffffffffffffffffff1673ffffffffffffffffffffffffffffffffffffffff16815260200190815260200160002083815481101515611fd857fe5b9060005260206000209060070201600601541415611ff957819050506122a6565b60006001600360003373ffffffffffffffffffffffffffffffffffffffff1673ffffffffffffffffffffffffffffffffffffffff16815260200190815260200160002080549050039050600360003373ffffffffffffffffffffffffffffffffffffffff1673ffffffffffffffffffffffffffffffffffffffff1681526020019081526020016000208181548110151561208f57fe5b9060005260206000209060070201600360003373ffffffffffffffffffffffffffffffffffffffff1673ffffffffffffffffffffffffffffffffffffffff168152602001908152602001600020838154811015156120e957fe5b9060005260206000209060070201600082018160000190805461210d929190612b66565b506001820181600101908054612124929190612b66565b506002820181600201908054600181600116156101000203166002900461214c929190612bb8565b5060038201816003019080546001816001161561010002031660029004612174929190612bb8565b506004820181600401908054600181600116156101000203166002900461219c929190612bb8565b50600582018160050190805460018160011615610100020316600290046121c4929190612bb8565b5060068201548160060155905050600360003373ffffffffffffffffffffffffffffffffffffffff1673ffffffffffffffffffffffffffffffffffffffff1681526020019081526020016000208181548110151561221e57fe5b90600052602060002090600702016000808201600061223d9190612d3e565b60018201600061224d9190612d3e565b60028201600061225d9190612d5f565b60038201600061226d9190612d5f565b60048201600061227d9190612d5f565b60058201600061228d9190612d5f565b6006820160009055505050508080600101915050611f3c565b505050565b606080600660003373ffffffffffffffffffffffffffffffffffffffff1673ffffffffffffffffffffffffffffffffffffffff168152602001908152602001600020805480602002602001604051908101604052809291908181526020016000905b82821015612498578382906000526020600020906006020160c0604051908101604052908160008201548152602001600182015481526020016002820154815260200160038201548152602001600482018054600181600116156101000203166002900480601f0160208091040260200160405190810160405280929190818152602001828054600181600116156101000203166002900480156123f25780601f106123c7576101008083540402835291602001916123f2565b820191906000526020600020905b8154815290600101906020018083116123d557829003601f168201915b505050505081526020016005820180548060200260200160405190810160405280929190818152602001828054801561248057602002820191906000526020600020905b8160009054906101000a900473ffffffffffffffffffffffffffffffffffffffff1673ffffffffffffffffffffffffffffffffffffffff1681526020019060010190808311612436575b5050505050815250508152602001906001019061230d565b5050505090508091505090565b6005602052816000526040600020818154811015156124c057fe5b9060005260206000209060020201600091509150508060000160009054906101000a900473ffffffffffffffffffffffffffffffffffffffff16908060010154905082565b6060600360008373ffffffffffffffffffffffffffffffffffffffff1673ffffffffffffffffffffffffffffffffffffffff168152602001908152602001600020805480602002602001604051908101604052809291908181526020016000905b82821015612947578382906000526020600020906007020160e060405190810160405290816000820180548060200260200160405190810160405280929190818152602001828054801561260f57602002820191906000526020600020905b8160009054906101000a900473ffffffffffffffffffffffffffffffffffffffff1673ffffffffffffffffffffffffffffffffffffffff16815260200190600101908083116125c5575b505050505081526020016001820180548060200260200160405190810160405280929190818152602001828054801561269d57602002820191906000526020600020905b8160009054906101000a900473ffffffffffffffffffffffffffffffffffffffff1673ffffffffffffffffffffffffffffffffffffffff1681526020019060010190808311612653575b50505050508152602001600282018054600181600116156101000203166002900480601f01602080910402602001604051908101604052809291908181526020018280546001816001161561010002031660029004801561273f5780601f106127145761010080835404028352916020019161273f565b820191906000526020600020905b81548152906001019060200180831161272257829003601f168201915b50505050508152602001600382018054600181600116156101000203166002900480601f0160208091040260200160405190810160405280929190818152602001828054600181600116156101000203166002900480156127e15780601f106127b6576101008083540402835291602001916127e1565b820191906000526020600020905b8154815290600101906020018083116127c457829003601f168201915b50505050508152602001600482018054600181600116156101000203166002900480601f0160208091040260200160405190810160405280929190818152602001828054600181600116156101000203166002900480156128835780601f1061285857610100808354040283529160200191612883565b820191906000526020600020905b81548152906001019060200180831161286657829003601f168201915b50505050508152602001600582018054600181600116156101000203166002900480601f0160208091040260200160405190810160405280929190818152602001828054600181600116156101000203166002900480156129255780601f106128fa57610100808354040283529160200191612925565b820191906000526020600020905b81548152906001019060200180831161290857829003601f168201915b5050505050815260200160068201548152505081526020019060010190612566565b505050509050919050565b8280548282559060005260206000209081019282156129cb579160200282015b828111156129ca5782518260006101000a81548173ffffffffffffffffffffffffffffffffffffffff021916908373ffffffffffffffffffffffffffffffffffffffff16021790555091602001919060010190612972565b5b5090506129d89190612da7565b5090565b828054600181600116156101000203166002900490600052602060002090601f016020900481019282601f10612a1d57805160ff1916838001178555612a4b565b82800160010185558215612a4b579182015b82811115612a4a578251825591602001919060010190612a2f565b5b509050612a589190612dea565b5090565b828054828255906000526020600020908101928215612ad5579160200282015b82811115612ad45782518260006101000a81548173ffffffffffffffffffffffffffffffffffffffff021916908373ffffffffffffffffffffffffffffffffffffffff16021790555091602001919060010190612a7c565b5b509050612ae29190612e0f565b5090565b828054600181600116156101000203166002900490600052602060002090601f016020900481019282601f10612b2757805160ff1916838001178555612b55565b82800160010185558215612b55579182015b82811115612b54578251825591602001919060010190612b39565b5b509050612b629190612dea565b5090565b828054828255906000526020600020908101928215612ba75760005260206000209182015b82811115612ba6578254825591600101919060010190612b8b565b5b509050612bb49190612da7565b5090565b828054600181600116156101000203166002900490600052602060002090601f016020900481019282601f10612bf15780548555612c2e565b82800160010185558215612c2e57600052602060002091601f016020900482015b82811115612c2d578254825591600101919060010190612c12565b5b509050612c3b9190612dea565b5090565b60e060405190810160405280606081526020016060815260200160608152602001606081526020016060815260200160608152602001600081525090565b60c0604051908101604052806000815260200160008152602001600081526020016000815260200160608152602001606081525090565b828054828255906000526020600020908101928215612d2d579160200282015b82811115612d2c5782518260006101000a81548173ffffffffffffffffffffffffffffffffffffffff021916908373ffffffffffffffffffffffffffffffffffffffff16021790555091602001919060010190612cd4565b5b509050612d3a9190612e0f565b5090565b5080546000825590600052602060002090810190612d5c9190612dea565b50565b50805460018160011615610100020316600290046000825580601f10612d855750612da4565b601f016020900490600052602060002090810190612da39190612dea565b5b50565b612de791905b80821115612de357600081816101000a81549073ffffffffffffffffffffffffffffffffffffffff021916905550600101612dad565b5090565b90565b612e0c91905b80821115612e08576000816000905550600101612df0565b5090565b90565b612e4f91905b80821115612e4b57600081816101000a81549073ffffffffffffffffffffffffffffffffffffffff021916905550600101612e15565b5090565b90565b6000612e5e8235613b9e565b905092915050565b6000612e728235613bb0565b905092915050565b600082601f8301121515612e8d57600080fd5b8135612ea0612e9b826139e3565b6139b6565b91508181835260208401935060208101905083856020840282011115612ec557600080fd5b60005b83811015612ef55781612edb8882612e66565b845260208401935060208301925050600181019050612ec8565b5050505092915050565b600082601f8301121515612f1257600080fd5b8135612f25612f2082613a0b565b6139b6565b91508082526020830160208301858383011115612f4157600080fd5b612f4c838284613bcc565b50505092915050565b6000612f618235613bc2565b905092915050565b600060208284031215612f7b57600080fd5b6000612f8984828501612e52565b91505092915050565b60008060408385031215612fa557600080fd5b6000612fb385828601612e52565b9250506020612fc485828601612f55565b9150509250929050565b60008060008060008060c08789031215612fe757600080fd5b600087013567ffffffffffffffff81111561300157600080fd5b61300d89828a01612e7a565b965050602087013567ffffffffffffffff81111561302a57600080fd5b61303689828a01612e7a565b955050604087013567ffffffffffffffff81111561305357600080fd5b61305f89828a01612eff565b945050606087013567ffffffffffffffff81111561307c57600080fd5b61308889828a01612eff565b935050608087013567ffffffffffffffff8111156130a557600080fd5b6130b189828a01612eff565b92505060a087013567ffffffffffffffff8111156130ce57600080fd5b6130da89828a01612eff565b9150509295509295509295565b6000602082840312156130f957600080fd5b600061310784828501612f55565b91505092915050565b6000806040838503121561312357600080fd5b600061313185828601612f55565b925050602061314285828601612e66565b9150509250929050565b6000806040838503121561315f57600080fd5b600061316d85828601612f55565b925050602061317e85828601612f55565b9150509250929050565b60008060006060848603121561319d57600080fd5b60006131ab86828701612f55565b93505060206131bc86828701612f55565b92505060406131cd86828701612f55565b9150509250925092565b6131e081613b62565b82525050565b6131ef81613b50565b82525050565b600061320082613a9d565b80845260208401935061321283613a44565b60005b82811015613244576132288683516131e6565b61323182613b02565b9150602086019550600181019050613215565b50849250505092915050565b600061325b82613a92565b80845260208401935061326d83613a37565b60005b8281101561329f576132838683516131e6565b61328c82613af5565b9150602086019550600181019050613270565b50849250505092915050565b60006132b682613aa8565b8084526020840193506132c883613a51565b60005b828110156132fa576132de8683516131d7565b6132e782613b0f565b91506020860195506001810190506132cb565b50849250505092915050565b600061331182613ab3565b80845260208401935061332383613a5e565b60005b8281101561335557613339868351613504565b61334282613b1c565b9150604086019550600181019050613326565b50849250505092915050565b600061336c82613abe565b8084526020840193508360208202850161338585613a6b565b60005b848110156133be5783830388526133a0838351613533565b92506133ab82613b29565b9150602088019750600181019050613388565b508196508694505050505092915050565b60006133da82613ac9565b8084526020840193506133ec83613a78565b60005b8281101561341e576134028683516135c3565b61340b82613b36565b91506040860195506001810190506133ef565b50849250505092915050565b600061343582613ad4565b8084526020840193508360208202850161344e85613a85565b60005b848110156134875783830388526134698383516136b1565b925061347482613b43565b9150602088019750600181019050613451565b508196508694505050505092915050565b60006134a382613aea565b8084526134b7816020860160208601613bdb565b6134c081613c0e565b602085010191505092915050565b60006134d982613adf565b8084526134ed816020860160208601613bdb565b6134f681613c0e565b602085010191505092915050565b60408201600082015161351a60008501826131e6565b50602082015161352d6020850182613770565b50505050565b600060c08301600083015161354b6000860182613770565b50602083015161355e6020860182613770565b5060408301516135716040860182613770565b5060608301516135846060860182613770565b506080830151848203608086015261359c82826134ce565b91505060a083015184820360a08601526135b68282613250565b9150508091505092915050565b6040820160008201516135d96000850182613770565b5060208201516135ec6020850182613770565b50505050565b600060e083016000830151848203600086015261360f82826132ab565b9150506020830151848203602086015261362982826132ab565b9150506040830151848203604086015261364382826134ce565b9150506060830151848203606086015261365d82826134ce565b9150506080830151848203608086015261367782826134ce565b91505060a083015184820360a086015261369182826134ce565b91505060c08301516136a660c0860182613770565b508091505092915050565b600060e08301600083015184820360008601526136ce82826132ab565b915050602083015184820360208601526136e882826132ab565b9150506040830151848203604086015261370282826134ce565b9150506060830151848203606086015261371c82826134ce565b9150506080830151848203608086015261373682826134ce565b91505060a083015184820360a086015261375082826134ce565b91505060c083015161376560c0860182613770565b508091505092915050565b61377981613b94565b82525050565b600060208201905061379460008301846131e6565b92915050565b60006040820190506137af60008301856131e6565b6137bc6020830184613770565b9392505050565b600060208201905081810360008301526137dd81846131f5565b905092915050565b600060208201905081810360008301526137ff8184613306565b905092915050565b600060208201905081810360008301526138218184613361565b905092915050565b6000602082019050818103600083015261384381846133cf565b905092915050565b60006020820190508181036000830152613865818461342a565b905092915050565b6000602082019050818103600083015261388781846134ce565b905092915050565b600060208201905081810360008301526138a98184613498565b905092915050565b600060408201905081810360008301526138cb8185613498565b90506138da60208301846131e6565b9392505050565b600060a08201905081810360008301526138fb81886134ce565b9050818103602083015261390f81876134ce565b9050818103604083015261392381866134ce565b9050818103606083015261393781856134ce565b90506139466080830184613770565b9695505050505050565b6000602082019050818103600083015261396a81846135f2565b905092915050565b60006020820190506139876000830184613770565b92915050565b60006040820190506139a26000830185613770565b6139af6020830184613770565b9392505050565b6000604051905081810181811067ffffffffffffffff821117156139d957600080fd5b8060405250919050565b600067ffffffffffffffff8211156139fa57600080fd5b602082029050602081019050919050565b600067ffffffffffffffff821115613a2257600080fd5b601f19601f8301169050602081019050919050565b6000602082019050919050565b6000602082019050919050565b6000602082019050919050565b6000602082019050919050565b6000602082019050919050565b6000602082019050919050565b6000602082019050919050565b600081519050919050565b600081519050919050565b600081519050919050565b600081519050919050565b600081519050919050565b600081519050919050565b600081519050919050565b600081519050919050565b600081519050919050565b6000602082019050919050565b6000602082019050919050565b6000602082019050919050565b6000602082019050919050565b6000602082019050919050565b6000602082019050919050565b6000602082019050919050565b6000613b5b82613b74565b9050919050565b6000613b6d82613b74565b9050919050565b600073ffffffffffffffffffffffffffffffffffffffff82169050919050565b6000819050919050565b6000613ba982613b74565b9050919050565b6000613bbb82613b74565b9050919050565b6000819050919050565b82818337600083830152505050565b60005b83811015613bf9578082015181840152602081019050613bde565b83811115613c08576000848401525b50505050565b6000601f19601f830116905091905056fea265627a7a7230582017f0e38097fe973e999e0720a11d2141acb446539881603919bdb04d0e0ad2106c6578706572696d656e74616cf50037",
  "source": "pragma experimental ABIEncoderV2;\n\nimport \"./PatentManager.sol\";\nimport \"./Bidding.sol\";\n\ncontract AuctionProcess is PatentManager, Bidding{\n\n    struct Auction {\n        uint auctionId;\n        uint patentId;\n        uint endTime; \n        uint minimumBidAuctioneer; // set by the Auctioneer !\n        string patentType;\n        address[] auctioneer;\n    }\n\n    // Maps auctioneer to the aucitonId \n    // May contain multiple auctionIds \n    mapping(address => Auction[]) auctioneerAuctionMap;\n    mapping(uint=>uint) auctionToPriceMap;\n\n    function createAuction(uint patentId, uint minimumBid, uint numberOfDays) public returns(uint) {\n        uint auctionId = patentId;\n        uint num_seconds = numberOfDays*24*60*60;\n        uint endTime = block.timestamp + num_seconds;\n        Auction memory a = Auction(auctionId, patentId, endTime, minimumBid, getPatentType(patentId), getOwnerList(patentId));\n        auctioneerAuctionMap[msg.sender].push(a);\n        auctionToPriceMap[auctionId] = minimumBid;\n    \n        return (auctionId);\n    }\n\n    function getResult(uint auctionId) public view returns (string memory , address){\n        AddressPrice[] memory priceMap = allBids(auctionId);\n        uint maxBid = auctionToPriceMap[auctionId];\n        address winner;\n        for ( uint bidderCount = 0; bidderCount < priceMap.length ; bidderCount++ ){\n            if(priceMap[bidderCount].bidPrice > maxBid){\n                maxBid = priceMap[bidderCount].bidPrice;\n                winner = priceMap[bidderCount].bidderAddress;\n            }\n        }\n\n        if(winner != address(0x0)){\n            return (\"SUCCESS\", winner);\n        }else{\n            return (\"FAILURE\", winner);\n        }\n    } \n\n    function getAuctions() public view returns(Auction[] memory){   \n        Auction[] memory auction = auctioneerAuctionMap[msg.sender]; \n        return auction;\n    }\n}",
  "sourcePath": "/media/anup/B290EFD890EFA159/Block8/patent_bidding_transfer/patent-backend/contracts/AuctionProcess.sol",
  "compiler": {
    "name": "solc",
    "version": "0.5.0+commit.1d4f565a.Emscripten.clang"
  },
  "schemaVersion": "3.0.1",
  "updatedAt": "2019-02-14T13:11:08.733Z",
  "devdoc": {
    "methods": {}
  },
  "userdoc": {
    "methods": {}
  }
}