{
  "contractName": "Auction",
  "abi": [
    {
      "constant": true,
      "inputs": [
        {
          "name": "",
          "type": "uint256"
        }
      ],
      "name": "patentNameMap",
      "outputs": [
        {
          "name": "",
          "type": "string"
        }
      ],
      "payable": false,
      "stateMutability": "view",
      "type": "function",
      "signature": "0x05c1ba22"
    },
    {
      "constant": true,
      "inputs": [
        {
          "name": "patentId",
          "type": "uint256"
        }
      ],
      "name": "getPatentName",
      "outputs": [
        {
          "name": "",
          "type": "string"
        }
      ],
      "payable": false,
      "stateMutability": "view",
      "type": "function",
      "signature": "0x087344d3"
    },
    {
      "constant": true,
      "inputs": [
        {
          "name": "",
          "type": "address"
        },
        {
          "name": "",
          "type": "uint256"
        }
      ],
      "name": "userBidMap",
      "outputs": [
        {
          "name": "",
          "type": "uint256"
        }
      ],
      "payable": false,
      "stateMutability": "view",
      "type": "function",
      "signature": "0x20f5a9e6"
    },
    {
      "constant": false,
      "inputs": [
        {
          "name": "patentId",
          "type": "uint256"
        },
        {
          "name": "person",
          "type": "address"
        }
      ],
      "name": "addLisenceHolder",
      "outputs": [],
      "payable": false,
      "stateMutability": "nonpayable",
      "type": "function",
      "signature": "0x25700466"
    },
    {
      "constant": true,
      "inputs": [
        {
          "name": "",
          "type": "address"
        },
        {
          "name": "",
          "type": "uint256"
        }
      ],
      "name": "userBidAmountMap",
      "outputs": [
        {
          "name": "",
          "type": "uint256"
        }
      ],
      "payable": false,
      "stateMutability": "view",
      "type": "function",
      "signature": "0x37f170c1"
    },
    {
      "constant": true,
      "inputs": [
        {
          "name": "",
          "type": "address"
        },
        {
          "name": "",
          "type": "uint256"
        }
      ],
      "name": "ownerPatentsMap",
      "outputs": [
        {
          "name": "patentName",
          "type": "string"
        },
        {
          "name": "patentType",
          "type": "string"
        },
        {
          "name": "issueDate",
          "type": "string"
        },
        {
          "name": "patentId",
          "type": "uint256"
        }
      ],
      "payable": false,
      "stateMutability": "view",
      "type": "function",
      "signature": "0x46e5e8e2"
    },
    {
      "constant": false,
      "inputs": [
        {
          "name": "owners",
          "type": "address[]"
        },
        {
          "name": "lisenceHolders",
          "type": "address[]"
        },
        {
          "name": "patentName",
          "type": "string"
        },
        {
          "name": "issueDate",
          "type": "string"
        },
        {
          "name": "patentType",
          "type": "string"
        }
      ],
      "name": "registerPatent",
      "outputs": [
        {
          "name": "",
          "type": "uint256"
        }
      ],
      "payable": false,
      "stateMutability": "nonpayable",
      "type": "function",
      "signature": "0x813d2ed0"
    },
    {
      "constant": false,
      "inputs": [
        {
          "name": "patentId",
          "type": "uint256"
        },
        {
          "name": "person",
          "type": "address"
        }
      ],
      "name": "addOwner",
      "outputs": [],
      "payable": false,
      "stateMutability": "nonpayable",
      "type": "function",
      "signature": "0x8cd1bb20"
    },
    {
      "constant": true,
      "inputs": [
        {
          "name": "patentId",
          "type": "uint256"
        }
      ],
      "name": "getOwnerList",
      "outputs": [
        {
          "name": "",
          "type": "address[]"
        }
      ],
      "payable": false,
      "stateMutability": "view",
      "type": "function",
      "signature": "0x8dd95e99"
    },
    {
      "constant": true,
      "inputs": [
        {
          "name": "",
          "type": "uint256"
        }
      ],
      "name": "bidList",
      "outputs": [
        {
          "name": "bider",
          "type": "address"
        },
        {
          "name": "minimumBid",
          "type": "uint256"
        },
        {
          "name": "patentId",
          "type": "uint256"
        },
        {
          "name": "time",
          "type": "uint256"
        }
      ],
      "payable": false,
      "stateMutability": "view",
      "type": "function",
      "signature": "0x99562037"
    },
    {
      "constant": true,
      "inputs": [
        {
          "name": "patentId",
          "type": "uint256"
        }
      ],
      "name": "getPatent",
      "outputs": [
        {
          "components": [
            {
              "name": "owners",
              "type": "address[]"
            },
            {
              "name": "lisenceHolders",
              "type": "address[]"
            },
            {
              "name": "patentName",
              "type": "string"
            },
            {
              "name": "patentType",
              "type": "string"
            },
            {
              "name": "issueDate",
              "type": "string"
            },
            {
              "name": "patentId",
              "type": "uint256"
            }
          ],
          "name": "",
          "type": "tuple"
        }
      ],
      "payable": false,
      "stateMutability": "view",
      "type": "function",
      "signature": "0x9c6d0d78"
    },
    {
      "constant": true,
      "inputs": [
        {
          "name": "",
          "type": "uint256"
        },
        {
          "name": "",
          "type": "uint256"
        }
      ],
      "name": "patentOwnerMap",
      "outputs": [
        {
          "name": "",
          "type": "address"
        }
      ],
      "payable": false,
      "stateMutability": "view",
      "type": "function",
      "signature": "0xbe90b054"
    },
    {
      "constant": false,
      "inputs": [
        {
          "name": "patentId",
          "type": "uint256"
        },
        {
          "name": "receiver",
          "type": "address"
        }
      ],
      "name": "transferPatent",
      "outputs": [],
      "payable": false,
      "stateMutability": "nonpayable",
      "type": "function",
      "signature": "0xd510bbd7"
    },
    {
      "constant": true,
      "inputs": [
        {
          "name": "owner",
          "type": "address"
        }
      ],
      "name": "getPatentsByOwner",
      "outputs": [
        {
          "components": [
            {
              "name": "owners",
              "type": "address[]"
            },
            {
              "name": "lisenceHolders",
              "type": "address[]"
            },
            {
              "name": "patentName",
              "type": "string"
            },
            {
              "name": "patentType",
              "type": "string"
            },
            {
              "name": "issueDate",
              "type": "string"
            },
            {
              "name": "patentId",
              "type": "uint256"
            }
          ],
          "name": "",
          "type": "tuple[]"
        }
      ],
      "payable": false,
      "stateMutability": "view",
      "type": "function",
      "signature": "0xfc8f39f5"
    },
    {
      "anonymous": false,
      "inputs": [
        {
          "indexed": false,
          "name": "patentId",
          "type": "uint256"
        },
        {
          "indexed": false,
          "name": "name",
          "type": "string"
        }
      ],
      "name": "NewBid",
      "type": "event",
      "signature": "0x8a0eb4626fa5529109f8a38b40cc2401f886d7785ef5ed452ad466626ba4c3ad"
    },
    {
      "constant": false,
      "inputs": [
        {
          "name": "patentId",
          "type": "uint256"
        },
        {
          "name": "bidAmount",
          "type": "uint256"
        }
      ],
      "name": "addBid",
      "outputs": [],
      "payable": false,
      "stateMutability": "nonpayable",
      "type": "function",
      "signature": "0x21b23f04"
    },
    {
      "constant": true,
      "inputs": [
        {
          "name": "patentId",
          "type": "uint256"
        }
      ],
      "name": "allBids",
      "outputs": [
        {
          "name": "",
          "type": "string"
        }
      ],
      "payable": false,
      "stateMutability": "view",
      "type": "function",
      "signature": "0x2fb5eac2"
    },
    {
      "constant": true,
      "inputs": [],
      "name": "getMyBids",
      "outputs": [
        {
          "name": "",
          "type": "uint256[]"
        },
        {
          "name": "",
          "type": "uint256[]"
        }
      ],
      "payable": false,
      "stateMutability": "view",
      "type": "function",
      "signature": "0x788077a7"
    }
  ],
  "bytecode": "0x608060405234801561001057600080fd5b50612c8a806100206000396000f3fe6080604052600436106100f1576000357c0100000000000000000000000000000000000000000000000000000000900463ffffffff16806305c1ba22146100f6578063087344d31461013357806320f5a9e61461017057806321b23f04146101ad57806325700466146101d65780632fb5eac2146101ff57806337f170c11461023c57806346e5e8e214610279578063788077a7146102b9578063813d2ed0146102e55780638cd1bb20146103225780638dd95e991461034b57806399562037146103885780639c6d0d78146103c8578063be90b05414610405578063d510bbd714610442578063fc8f39f51461046b575b600080fd5b34801561010257600080fd5b5061011d6004803603610118919081019061249d565b6104a8565b60405161012a919061297b565b60405180910390f35b34801561013f57600080fd5b5061015a6004803603610155919081019061249d565b610558565b604051610167919061299d565b60405180910390f35b34801561017c57600080fd5b5061019760048036036101929190810190612372565b61060d565b6040516101a49190612a3b565b60405180910390f35b3480156101b957600080fd5b506101d460048036036101cf9190810190612502565b61063d565b005b3480156101e257600080fd5b506101fd60048036036101f891908101906124c6565b610811565b005b34801561020b57600080fd5b506102266004803603610221919081019061249d565b610899565b604051610233919061299d565b60405180910390f35b34801561024857600080fd5b50610263600480360361025e9190810190612372565b6108b0565b6040516102709190612a3b565b60405180910390f35b34801561028557600080fd5b506102a0600480360361029b9190810190612372565b6108e0565b6040516102b094939291906129bf565b60405180910390f35b3480156102c557600080fd5b506102ce610af4565b6040516102dc929190612944565b60405180910390f35b3480156102f157600080fd5b5061030c600480360361030791908101906123ae565b610c21565b6040516103199190612a3b565b60405180910390f35b34801561032e57600080fd5b50610349600480360361034491908101906124c6565b610ef0565b005b34801561035757600080fd5b50610372600480360361036d919081019061249d565b6110b2565b60405161037f9190612900565b60405180910390f35b34801561039457600080fd5b506103af60048036036103aa919081019061249d565b611153565b6040516103bf94939291906128bb565b60405180910390f35b3480156103d457600080fd5b506103ef60048036036103ea919081019061249d565b6111b2565b6040516103fc9190612a19565b60405180910390f35b34801561041157600080fd5b5061042c60048036036104279190810190612502565b6114f6565b60405161043991906128a0565b60405180910390f35b34801561044e57600080fd5b50610469600480360361046491908101906124c6565b611543565b005b34801561047757600080fd5b50610492600480360361048d9190810190612349565b6119c5565b60405161049f9190612922565b60405180910390f35b60026020528060005260406000206000915090508054600181600116156101000203166002900480601f0160208091040260200160405190810160405280929190818152602001828054600181600116156101000203166002900480156105505780601f1061052557610100808354040283529160200191610550565b820191906000526020600020905b81548152906001019060200180831161053357829003601f168201915b505050505081565b6060600260008381526020019081526020016000208054600181600116156101000203166002900480601f0160208091040260200160405190810160405280929190818152602001828054600181600116156101000203166002900480156106015780601f106105d657610100808354040283529160200191610601565b820191906000526020600020905b8154815290600101906020018083116105e457829003601f168201915b50505050509050919050565b60056020528160005260406000208181548110151561062857fe5b90600052602060002001600091509150505481565b6060610648836110b2565b9050600460a0604051908101604052808381526020013373ffffffffffffffffffffffffffffffffffffffff168152602001848152602001858152602001428152509080600181540180825580915050906001820390600052602060002090600502016000909192909190915060008201518160000190805190602001906106d1929190611d70565b5060208201518160010160006101000a81548173ffffffffffffffffffffffffffffffffffffffff021916908373ffffffffffffffffffffffffffffffffffffffff160217905550604082015181600201556060820151816003015560808201518160040155505050600560003373ffffffffffffffffffffffffffffffffffffffff1673ffffffffffffffffffffffffffffffffffffffff168152602001908152602001600020839080600181540180825580915050906001820390600052602060002001600090919290919091505550600660003373ffffffffffffffffffffffffffffffffffffffff1673ffffffffffffffffffffffffffffffffffffffff168152602001908152602001600020829080600181540180825580915050906001820390600052602060002001600090919290919091505550505050565b60008281548110151561082057fe5b90600052602060002090600602016001018190806001815401808255809150509060018203906000526020600020016000909192909190916101000a81548173ffffffffffffffffffffffffffffffffffffffff021916908373ffffffffffffffffffffffffffffffffffffffff160217905550505050565b6060806108a583610558565b905080915050919050565b6006602052816000526040600020818154811015156108cb57fe5b90600052602060002001600091509150505481565b6003602052816000526040600020818154811015156108fb57fe5b906000526020600020906006020160009150915050806002018054600181600116156101000203166002900480601f0160208091040260200160405190810160405280929190818152602001828054600181600116156101000203166002900480156109a85780601f1061097d576101008083540402835291602001916109a8565b820191906000526020600020905b81548152906001019060200180831161098b57829003601f168201915b505050505090806003018054600181600116156101000203166002900480601f016020809104026020016040519081016040528092919081815260200182805460018160011615610100020316600290048015610a465780601f10610a1b57610100808354040283529160200191610a46565b820191906000526020600020905b815481529060010190602001808311610a2957829003601f168201915b505050505090806004018054600181600116156101000203166002900480601f016020809104026020016040519081016040528092919081815260200182805460018160011615610100020316600290048015610ae45780601f10610ab957610100808354040283529160200191610ae4565b820191906000526020600020905b815481529060010190602001808311610ac757829003601f168201915b5050505050908060050154905084565b606080600560003373ffffffffffffffffffffffffffffffffffffffff1673ffffffffffffffffffffffffffffffffffffffff168152602001908152602001600020600660003373ffffffffffffffffffffffffffffffffffffffff1673ffffffffffffffffffffffffffffffffffffffff16815260200190815260200160002081805480602002602001604051908101604052809291908181526020018280548015610bc057602002820191906000526020600020905b815481526020019060010190808311610bac575b5050505050915080805480602002602001604051908101604052809291908181526020018280548015610c1257602002820191906000526020600020905b815481526020019060010190808311610bfe575b50505050509050915091509091565b6000806000805490509050600060c06040519081016040528089815260200188815260200187815260200185815260200186815260200183815250908060018154018082558091505090600182039060005260206000209060060201600090919290919091506000820151816000019080519060200190610ca3929190611dfa565b506020820151816001019080519060200190610cc0929190611dfa565b506040820151816002019080519060200190610cdd929190611e84565b506060820151816003019080519060200190610cfa929190611e84565b506080820151816004019080519060200190610d17929190611e84565b5060a0820151816005015550505086600160008381526020019081526020016000209080519060200190610d4c929190611f04565b5084600260008381526020019081526020016000209080519060200190610d74929190611f8e565b5060008090505b8751811015610ee257600360008983815181101515610d9657fe5b9060200190602002015173ffffffffffffffffffffffffffffffffffffffff1673ffffffffffffffffffffffffffffffffffffffff168152602001908152602001600020600083815481101515610de957fe5b9060005260206000209060060201908060018154018082558091505090600182039060005260206000209060060201600090919290919091506000820181600001908054610e3892919061200e565b506001820181600101908054610e4f92919061200e565b5060028201816002019080546001816001161561010002031660029004610e77929190612060565b5060038201816003019080546001816001161561010002031660029004610e9f929190612060565b5060048201816004019080546001816001161561010002031660029004610ec7929190612060565b50600582015481600501555050508080600101915050610d7b565b508091505095945050505050565b600082815481101515610eff57fe5b90600052602060002090600602016000018190806001815401808255809150509060018203906000526020600020016000909192909190916101000a81548173ffffffffffffffffffffffffffffffffffffffff021916908373ffffffffffffffffffffffffffffffffffffffff16021790555050600360008273ffffffffffffffffffffffffffffffffffffffff1673ffffffffffffffffffffffffffffffffffffffff168152602001908152602001600020600083815481101515610fc257fe5b906000526020600020906006020190806001815401808255809150509060018203906000526020600020906006020160009091929091909150600082018160000190805461101192919061200e565b50600182018160010190805461102892919061200e565b5060028201816002019080546001816001161561010002031660029004611050929190612060565b5060038201816003019080546001816001161561010002031660029004611078929190612060565b50600482018160040190805460018160011615610100020316600290046110a0929190612060565b50600582015481600501555050505050565b60606001600083815260200190815260200160002080548060200260200160405190810160405280929190818152602001828054801561114757602002820191906000526020600020905b8160009054906101000a900473ffffffffffffffffffffffffffffffffffffffff1673ffffffffffffffffffffffffffffffffffffffff16815260200190600101908083116110fd575b50505050509050919050565b60048181548110151561116257fe5b90600052602060002090600502016000915090508060010160009054906101000a900473ffffffffffffffffffffffffffffffffffffffff16908060020154908060030154908060040154905084565b6111ba6120e7565b6000828154811015156111c957fe5b906000526020600020906006020160c060405190810160405290816000820180548060200260200160405190810160405280929190818152602001828054801561126857602002820191906000526020600020905b8160009054906101000a900473ffffffffffffffffffffffffffffffffffffffff1673ffffffffffffffffffffffffffffffffffffffff168152602001906001019080831161121e575b50505050508152602001600182018054806020026020016040519081016040528092919081815260200182805480156112f657602002820191906000526020600020905b8160009054906101000a900473ffffffffffffffffffffffffffffffffffffffff1673ffffffffffffffffffffffffffffffffffffffff16815260200190600101908083116112ac575b50505050508152602001600282018054600181600116156101000203166002900480601f0160208091040260200160405190810160405280929190818152602001828054600181600116156101000203166002900480156113985780601f1061136d57610100808354040283529160200191611398565b820191906000526020600020905b81548152906001019060200180831161137b57829003601f168201915b50505050508152602001600382018054600181600116156101000203166002900480601f01602080910402602001604051908101604052809291908181526020018280546001816001161561010002031660029004801561143a5780601f1061140f5761010080835404028352916020019161143a565b820191906000526020600020905b81548152906001019060200180831161141d57829003601f168201915b50505050508152602001600482018054600181600116156101000203166002900480601f0160208091040260200160405190810160405280929190818152602001828054600181600116156101000203166002900480156114dc5780601f106114b1576101008083540402835291602001916114dc565b820191906000526020600020905b8154815290600101906020018083116114bf57829003601f168201915b505050505081526020016005820154815250509050919050565b60016020528160005260406000208181548110151561151157fe5b906000526020600020016000915091509054906101000a900473ffffffffffffffffffffffffffffffffffffffff1681565b60008090505b60008381548110151561155857fe5b906000526020600020906006020160000180549050811015611687573373ffffffffffffffffffffffffffffffffffffffff1660008481548110151561159a57fe5b9060005260206000209060060201600001828154811015156115b857fe5b9060005260206000200160009054906101000a900473ffffffffffffffffffffffffffffffffffffffff1673ffffffffffffffffffffffffffffffffffffffff16141561167a578160008481548110151561160f57fe5b90600052602060002090600602016000018281548110151561162d57fe5b9060005260206000200160006101000a81548173ffffffffffffffffffffffffffffffffffffffff021916908373ffffffffffffffffffffffffffffffffffffffff160217905550611687565b8080600101915050611549565b5060008090505b600360003373ffffffffffffffffffffffffffffffffffffffff1673ffffffffffffffffffffffffffffffffffffffff168152602001908152602001600020805490508110156119c057600080905083600360003373ffffffffffffffffffffffffffffffffffffffff1673ffffffffffffffffffffffffffffffffffffffff1681526020019081526020016000208381548110151561172a57fe5b906000526020600020906006020160050154141561174b57819050506119c0565b60006001600360003373ffffffffffffffffffffffffffffffffffffffff1673ffffffffffffffffffffffffffffffffffffffff16815260200190815260200160002080549050039050600360003373ffffffffffffffffffffffffffffffffffffffff1673ffffffffffffffffffffffffffffffffffffffff168152602001908152602001600020818154811015156117e157fe5b9060005260206000209060060201600360003373ffffffffffffffffffffffffffffffffffffffff1673ffffffffffffffffffffffffffffffffffffffff1681526020019081526020016000208381548110151561183b57fe5b9060005260206000209060060201600082018160000190805461185f92919061200e565b50600182018160010190805461187692919061200e565b506002820181600201908054600181600116156101000203166002900461189e929190612060565b50600382018160030190805460018160011615610100020316600290046118c6929190612060565b50600482018160040190805460018160011615610100020316600290046118ee929190612060565b5060058201548160050155905050600360003373ffffffffffffffffffffffffffffffffffffffff1673ffffffffffffffffffffffffffffffffffffffff1681526020019081526020016000208181548110151561194857fe5b906000526020600020906006020160008082016000611967919061211e565b600182016000611977919061211e565b600282016000611987919061213f565b600382016000611997919061213f565b6004820160006119a7919061213f565b600582016000905550505050808060010191505061168e565b505050565b6060600360008373ffffffffffffffffffffffffffffffffffffffff1673ffffffffffffffffffffffffffffffffffffffff168152602001908152602001600020805480602002602001604051908101604052809291908181526020016000905b82821015611d65578382906000526020600020906006020160c0604051908101604052908160008201805480602002602001604051908101604052809291908181526020018280548015611acf57602002820191906000526020600020905b8160009054906101000a900473ffffffffffffffffffffffffffffffffffffffff1673ffffffffffffffffffffffffffffffffffffffff1681526020019060010190808311611a85575b5050505050815260200160018201805480602002602001604051908101604052809291908181526020018280548015611b5d57602002820191906000526020600020905b8160009054906101000a900473ffffffffffffffffffffffffffffffffffffffff1673ffffffffffffffffffffffffffffffffffffffff1681526020019060010190808311611b13575b50505050508152602001600282018054600181600116156101000203166002900480601f016020809104026020016040519081016040528092919081815260200182805460018160011615610100020316600290048015611bff5780601f10611bd457610100808354040283529160200191611bff565b820191906000526020600020905b815481529060010190602001808311611be257829003601f168201915b50505050508152602001600382018054600181600116156101000203166002900480601f016020809104026020016040519081016040528092919081815260200182805460018160011615610100020316600290048015611ca15780601f10611c7657610100808354040283529160200191611ca1565b820191906000526020600020905b815481529060010190602001808311611c8457829003601f168201915b50505050508152602001600482018054600181600116156101000203166002900480601f016020809104026020016040519081016040528092919081815260200182805460018160011615610100020316600290048015611d435780601f10611d1857610100808354040283529160200191611d43565b820191906000526020600020905b815481529060010190602001808311611d2657829003601f168201915b5050505050815260200160058201548152505081526020019060010190611a26565b505050509050919050565b828054828255906000526020600020908101928215611de9579160200282015b82811115611de85782518260006101000a81548173ffffffffffffffffffffffffffffffffffffffff021916908373ffffffffffffffffffffffffffffffffffffffff16021790555091602001919060010190611d90565b5b509050611df69190612187565b5090565b828054828255906000526020600020908101928215611e73579160200282015b82811115611e725782518260006101000a81548173ffffffffffffffffffffffffffffffffffffffff021916908373ffffffffffffffffffffffffffffffffffffffff16021790555091602001919060010190611e1a565b5b509050611e8091906121ca565b5090565b828054600181600116156101000203166002900490600052602060002090601f016020900481019282601f10611ec557805160ff1916838001178555611ef3565b82800160010185558215611ef3579182015b82811115611ef2578251825591602001919060010190611ed7565b5b509050611f00919061220d565b5090565b828054828255906000526020600020908101928215611f7d579160200282015b82811115611f7c5782518260006101000a81548173ffffffffffffffffffffffffffffffffffffffff021916908373ffffffffffffffffffffffffffffffffffffffff16021790555091602001919060010190611f24565b5b509050611f8a9190612187565b5090565b828054600181600116156101000203166002900490600052602060002090601f016020900481019282601f10611fcf57805160ff1916838001178555611ffd565b82800160010185558215611ffd579182015b82811115611ffc578251825591602001919060010190611fe1565b5b50905061200a919061220d565b5090565b82805482825590600052602060002090810192821561204f5760005260206000209182015b8281111561204e578254825591600101919060010190612033565b5b50905061205c91906121ca565b5090565b828054600181600116156101000203166002900490600052602060002090601f016020900481019282601f1061209957805485556120d6565b828001600101855582156120d657600052602060002091601f016020900482015b828111156120d55782548255916001019190600101906120ba565b5b5090506120e3919061220d565b5090565b60c0604051908101604052806060815260200160608152602001606081526020016060815260200160608152602001600081525090565b508054600082559060005260206000209081019061213c919061220d565b50565b50805460018160011615610100020316600290046000825580601f106121655750612184565b601f016020900490600052602060002090810190612183919061220d565b5b50565b6121c791905b808211156121c357600081816101000a81549073ffffffffffffffffffffffffffffffffffffffff02191690555060010161218d565b5090565b90565b61220a91905b8082111561220657600081816101000a81549073ffffffffffffffffffffffffffffffffffffffff0219169055506001016121d0565b5090565b90565b61222f91905b8082111561222b576000816000905550600101612213565b5090565b90565b600061223e8235612bcf565b905092915050565b60006122528235612be1565b905092915050565b600082601f830112151561226d57600080fd5b813561228061227b82612a83565b612a56565b915081818352602084019350602081019050838560208402820111156122a557600080fd5b60005b838110156122d557816122bb8882612246565b8452602084019350602083019250506001810190506122a8565b5050505092915050565b600082601f83011215156122f257600080fd5b813561230561230082612aab565b612a56565b9150808252602083016020830185838301111561232157600080fd5b61232c838284612bfd565b50505092915050565b60006123418235612bf3565b905092915050565b60006020828403121561235b57600080fd5b600061236984828501612232565b91505092915050565b6000806040838503121561238557600080fd5b600061239385828601612232565b92505060206123a485828601612335565b9150509250929050565b600080600080600060a086880312156123c657600080fd5b600086013567ffffffffffffffff8111156123e057600080fd5b6123ec8882890161225a565b955050602086013567ffffffffffffffff81111561240957600080fd5b6124158882890161225a565b945050604086013567ffffffffffffffff81111561243257600080fd5b61243e888289016122df565b935050606086013567ffffffffffffffff81111561245b57600080fd5b612467888289016122df565b925050608086013567ffffffffffffffff81111561248457600080fd5b612490888289016122df565b9150509295509295909350565b6000602082840312156124af57600080fd5b60006124bd84828501612335565b91505092915050565b600080604083850312156124d957600080fd5b60006124e785828601612335565b92505060206124f885828601612246565b9150509250929050565b6000806040838503121561251557600080fd5b600061252385828601612335565b925050602061253485828601612335565b9150509250929050565b61254781612b93565b82525050565b61255681612b81565b82525050565b600061256782612b0b565b80845260208401935061257983612ad7565b60005b828110156125ab5761258f86835161254d565b61259882612b4d565b915060208601955060018101905061257c565b50849250505092915050565b60006125c282612b16565b8084526020840193506125d483612ae4565b60005b82811015612606576125ea86835161253e565b6125f382612b5a565b91506020860195506001810190506125d7565b50849250505092915050565b600061261d82612b21565b8084526020840193508360208202850161263685612af1565b60005b8481101561266f5783830388526126518383516127ec565b925061265c82612b67565b9150602088019750600181019050612639565b508196508694505050505092915050565b600061268b82612b2c565b80845260208401935061269d83612afe565b60005b828110156126cf576126b3868351612891565b6126bc82612b74565b91506020860195506001810190506126a0565b50849250505092915050565b60006126e682612b42565b8084526126fa816020860160208601612c0c565b61270381612c3f565b602085010191505092915050565b600061271c82612b37565b808452612730816020860160208601612c0c565b61273981612c3f565b602085010191505092915050565b600060c083016000830151848203600086015261276482826125b7565b9150506020830151848203602086015261277e82826125b7565b915050604083015184820360408601526127988282612711565b915050606083015184820360608601526127b28282612711565b915050608083015184820360808601526127cc8282612711565b91505060a08301516127e160a0860182612891565b508091505092915050565b600060c083016000830151848203600086015261280982826125b7565b9150506020830151848203602086015261282382826125b7565b9150506040830151848203604086015261283d8282612711565b915050606083015184820360608601526128578282612711565b915050608083015184820360808601526128718282612711565b91505060a083015161288660a0860182612891565b508091505092915050565b61289a81612bc5565b82525050565b60006020820190506128b5600083018461254d565b92915050565b60006080820190506128d0600083018761254d565b6128dd6020830186612891565b6128ea6040830185612891565b6128f76060830184612891565b95945050505050565b6000602082019050818103600083015261291a818461255c565b905092915050565b6000602082019050818103600083015261293c8184612612565b905092915050565b6000604082019050818103600083015261295e8185612680565b905081810360208301526129728184612680565b90509392505050565b600060208201905081810360008301526129958184612711565b905092915050565b600060208201905081810360008301526129b781846126db565b905092915050565b600060808201905081810360008301526129d98187612711565b905081810360208301526129ed8186612711565b90508181036040830152612a018185612711565b9050612a106060830184612891565b95945050505050565b60006020820190508181036000830152612a338184612747565b905092915050565b6000602082019050612a506000830184612891565b92915050565b6000604051905081810181811067ffffffffffffffff82111715612a7957600080fd5b8060405250919050565b600067ffffffffffffffff821115612a9a57600080fd5b602082029050602081019050919050565b600067ffffffffffffffff821115612ac257600080fd5b601f19601f8301169050602081019050919050565b6000602082019050919050565b6000602082019050919050565b6000602082019050919050565b6000602082019050919050565b600081519050919050565b600081519050919050565b600081519050919050565b600081519050919050565b600081519050919050565b600081519050919050565b6000602082019050919050565b6000602082019050919050565b6000602082019050919050565b6000602082019050919050565b6000612b8c82612ba5565b9050919050565b6000612b9e82612ba5565b9050919050565b600073ffffffffffffffffffffffffffffffffffffffff82169050919050565b6000819050919050565b6000612bda82612ba5565b9050919050565b6000612bec82612ba5565b9050919050565b6000819050919050565b82818337600083830152505050565b60005b83811015612c2a578082015181840152602081019050612c0f565b83811115612c39576000848401525b50505050565b6000601f19601f830116905091905056fea265627a7a72305820cff4b3bb40831e0c12b343d196c305a1f188814a6c2693326b965de32c9c03416c6578706572696d656e74616cf50037",
  "source": "pragma experimental ABIEncoderV2;\n\nimport \"./PatentManager.sol\";\n\ncontract Auction is PatentManager{\n\n    // event;\n    event NewBid(uint patentId, string name);\n    \n    struct Bid{\n        address[] auctioneer;\n        address bider;\n        uint minimumBid;\n        uint patentId;\n        uint time;\n    }\n\n    Bid[] public bidList;\n\n    //\n    mapping(address => uint[]) public userBidMap;\n    mapping(address => uint[]) public userBidAmountMap;\n    \n\n    function addBid(uint patentId, uint bidAmount) public {\n\n        address[] memory patentOwners = getOwnerList(patentId);\n        // string memory name = getPatentName(patentId);\n\n        bidList.push(Bid(patentOwners, msg.sender, bidAmount, patentId, now));\n        userBidMap[msg.sender].push(patentId);\n        userBidAmountMap[msg.sender].push(bidAmount);\n        \n    }\n\n    function allBids(uint patentId) public view returns (string memory){\n        string memory xx = getPatentName(patentId);\n        return(xx);\n    }\n\n    // By a person who is biding for multiple IPs\n    function getMyBids() public view returns (uint[] memory, uint[] memory){\n        return (userBidMap[msg.sender], userBidAmountMap[msg.sender]);\n    }   \n}",
  "sourcePath": "/media/anup/B290EFD890EFA159/Block8/patent_bidding_transfer/patent-backend/contracts/Auction.sol",
  "compiler": {
    "name": "solc",
    "version": "0.5.0+commit.1d4f565a.Emscripten.clang"
  },
  "schemaVersion": "3.0.1",
  "updatedAt": "2019-01-29T08:13:00.702Z",
  "devdoc": {
    "methods": {}
  },
  "userdoc": {
    "methods": {}
  }
}