{
  "contractName": "AuctionProcess",
  "abi": [
    {
      "constant": true,
      "inputs": [
        {
          "name": "",
          "type": "uint256"
        }
      ],
      "name": "patentNameMap",
      "outputs": [
        {
          "name": "",
          "type": "string"
        }
      ],
      "payable": false,
      "stateMutability": "view",
      "type": "function",
      "signature": "0x05c1ba22"
    },
    {
      "constant": true,
      "inputs": [
        {
          "name": "patentId",
          "type": "uint256"
        }
      ],
      "name": "getPatentName",
      "outputs": [
        {
          "name": "",
          "type": "string"
        }
      ],
      "payable": false,
      "stateMutability": "view",
      "type": "function",
      "signature": "0x087344d3"
    },
    {
      "constant": true,
      "inputs": [
        {
          "name": "patentId",
          "type": "uint256"
        }
      ],
      "name": "getPatentType",
      "outputs": [
        {
          "name": "",
          "type": "string"
        }
      ],
      "payable": false,
      "stateMutability": "view",
      "type": "function",
      "signature": "0x1a241775"
    },
    {
      "constant": true,
      "inputs": [
        {
          "name": "",
          "type": "address"
        },
        {
          "name": "",
          "type": "uint256"
        }
      ],
      "name": "userBidMap",
      "outputs": [
        {
          "name": "auctionId",
          "type": "uint256"
        },
        {
          "name": "bidPrice",
          "type": "uint256"
        }
      ],
      "payable": false,
      "stateMutability": "view",
      "type": "function",
      "signature": "0x20f5a9e6"
    },
    {
      "constant": false,
      "inputs": [
        {
          "name": "auctionId",
          "type": "uint256"
        },
        {
          "name": "bidAmount",
          "type": "uint256"
        }
      ],
      "name": "addBid",
      "outputs": [],
      "payable": false,
      "stateMutability": "nonpayable",
      "type": "function",
      "signature": "0x21b23f04"
    },
    {
      "constant": false,
      "inputs": [
        {
          "name": "patentId",
          "type": "uint256"
        },
        {
          "name": "person",
          "type": "address"
        }
      ],
      "name": "addLisenceHolder",
      "outputs": [],
      "payable": false,
      "stateMutability": "nonpayable",
      "type": "function",
      "signature": "0x25700466"
    },
    {
      "constant": true,
      "inputs": [
        {
          "name": "auctionId",
          "type": "uint256"
        }
      ],
      "name": "allBids",
      "outputs": [
        {
          "components": [
            {
              "name": "bidderAddress",
              "type": "address"
            },
            {
              "name": "bidPrice",
              "type": "uint256"
            }
          ],
          "name": "",
          "type": "tuple[]"
        }
      ],
      "payable": false,
      "stateMutability": "view",
      "type": "function",
      "signature": "0x2fb5eac2"
    },
    {
      "constant": true,
      "inputs": [
        {
          "name": "",
          "type": "address"
        },
        {
          "name": "",
          "type": "uint256"
        }
      ],
      "name": "ownerPatentsMap",
      "outputs": [
        {
          "name": "patentName",
          "type": "string"
        },
        {
          "name": "patentType",
          "type": "string"
        },
        {
          "name": "issueDate",
          "type": "string"
        },
        {
          "name": "patentId",
          "type": "uint256"
        }
      ],
      "payable": false,
      "stateMutability": "view",
      "type": "function",
      "signature": "0x46e5e8e2"
    },
    {
      "constant": true,
      "inputs": [],
      "name": "getMyBids",
      "outputs": [
        {
          "components": [
            {
              "name": "auctionId",
              "type": "uint256"
            },
            {
              "name": "bidPrice",
              "type": "uint256"
            }
          ],
          "name": "",
          "type": "tuple[]"
        }
      ],
      "payable": false,
      "stateMutability": "view",
      "type": "function",
      "signature": "0x788077a7"
    },
    {
      "constant": false,
      "inputs": [
        {
          "name": "owners",
          "type": "address[]"
        },
        {
          "name": "lisenceHolders",
          "type": "address[]"
        },
        {
          "name": "patentName",
          "type": "string"
        },
        {
          "name": "issueDate",
          "type": "string"
        },
        {
          "name": "patentType",
          "type": "string"
        }
      ],
      "name": "registerPatent",
      "outputs": [
        {
          "name": "",
          "type": "uint256"
        }
      ],
      "payable": false,
      "stateMutability": "nonpayable",
      "type": "function",
      "signature": "0x813d2ed0"
    },
    {
      "constant": false,
      "inputs": [
        {
          "name": "patentId",
          "type": "uint256"
        },
        {
          "name": "person",
          "type": "address"
        }
      ],
      "name": "addOwner",
      "outputs": [],
      "payable": false,
      "stateMutability": "nonpayable",
      "type": "function",
      "signature": "0x8cd1bb20"
    },
    {
      "constant": true,
      "inputs": [
        {
          "name": "patentId",
          "type": "uint256"
        }
      ],
      "name": "getOwnerList",
      "outputs": [
        {
          "name": "",
          "type": "address[]"
        }
      ],
      "payable": false,
      "stateMutability": "view",
      "type": "function",
      "signature": "0x8dd95e99"
    },
    {
      "constant": true,
      "inputs": [
        {
          "name": "patentId",
          "type": "uint256"
        }
      ],
      "name": "getPatent",
      "outputs": [
        {
          "components": [
            {
              "name": "owners",
              "type": "address[]"
            },
            {
              "name": "lisenceHolders",
              "type": "address[]"
            },
            {
              "name": "patentName",
              "type": "string"
            },
            {
              "name": "patentType",
              "type": "string"
            },
            {
              "name": "issueDate",
              "type": "string"
            },
            {
              "name": "patentId",
              "type": "uint256"
            }
          ],
          "name": "",
          "type": "tuple"
        }
      ],
      "payable": false,
      "stateMutability": "view",
      "type": "function",
      "signature": "0x9c6d0d78"
    },
    {
      "constant": true,
      "inputs": [
        {
          "name": "",
          "type": "uint256"
        },
        {
          "name": "",
          "type": "uint256"
        }
      ],
      "name": "patentOwnerMap",
      "outputs": [
        {
          "name": "",
          "type": "address"
        }
      ],
      "payable": false,
      "stateMutability": "view",
      "type": "function",
      "signature": "0xbe90b054"
    },
    {
      "constant": false,
      "inputs": [
        {
          "name": "patentId",
          "type": "uint256"
        },
        {
          "name": "receiver",
          "type": "address"
        }
      ],
      "name": "transferPatent",
      "outputs": [],
      "payable": false,
      "stateMutability": "nonpayable",
      "type": "function",
      "signature": "0xd510bbd7"
    },
    {
      "constant": true,
      "inputs": [
        {
          "name": "",
          "type": "uint256"
        },
        {
          "name": "",
          "type": "uint256"
        }
      ],
      "name": "auctionToBidersMap",
      "outputs": [
        {
          "name": "bidderAddress",
          "type": "address"
        },
        {
          "name": "bidPrice",
          "type": "uint256"
        }
      ],
      "payable": false,
      "stateMutability": "view",
      "type": "function",
      "signature": "0xd88730d5"
    },
    {
      "constant": true,
      "inputs": [
        {
          "name": "owner",
          "type": "address"
        }
      ],
      "name": "getPatentsByOwner",
      "outputs": [
        {
          "components": [
            {
              "name": "owners",
              "type": "address[]"
            },
            {
              "name": "lisenceHolders",
              "type": "address[]"
            },
            {
              "name": "patentName",
              "type": "string"
            },
            {
              "name": "patentType",
              "type": "string"
            },
            {
              "name": "issueDate",
              "type": "string"
            },
            {
              "name": "patentId",
              "type": "uint256"
            }
          ],
          "name": "",
          "type": "tuple[]"
        }
      ],
      "payable": false,
      "stateMutability": "view",
      "type": "function",
      "signature": "0xfc8f39f5"
    },
    {
      "constant": false,
      "inputs": [
        {
          "name": "patentId",
          "type": "uint256"
        },
        {
          "name": "minimumBid",
          "type": "uint256"
        },
        {
          "name": "numberOfDays",
          "type": "uint256"
        }
      ],
      "name": "createAuction",
      "outputs": [
        {
          "name": "",
          "type": "uint256"
        }
      ],
      "payable": false,
      "stateMutability": "nonpayable",
      "type": "function",
      "signature": "0xcda4beef"
    },
    {
      "constant": true,
      "inputs": [
        {
          "name": "auctionId",
          "type": "uint256"
        }
      ],
      "name": "getResult",
      "outputs": [
        {
          "name": "",
          "type": "string"
        },
        {
          "name": "",
          "type": "address"
        }
      ],
      "payable": false,
      "stateMutability": "view",
      "type": "function",
      "signature": "0x995e4339"
    },
    {
      "constant": true,
      "inputs": [],
      "name": "getAuctions",
      "outputs": [
        {
          "components": [
            {
              "name": "auctionId",
              "type": "uint256"
            },
            {
              "name": "patentId",
              "type": "uint256"
            },
            {
              "name": "endTime",
              "type": "uint256"
            },
            {
              "name": "minimumBidAuctioneer",
              "type": "uint256"
            },
            {
              "name": "patentType",
              "type": "string"
            },
            {
              "name": "auctioneer",
              "type": "address[]"
            }
          ],
          "name": "",
          "type": "tuple[]"
        }
      ],
      "payable": false,
      "stateMutability": "view",
      "type": "function",
      "signature": "0xd7c06919"
    }
  ],
  "bytecode": "0x608060405234801561001057600080fd5b50613918806100206000396000f3fe608060405260043610610112576000357c0100000000000000000000000000000000000000000000000000000000900463ffffffff16806305c1ba2214610117578063087344d3146101545780631a2417751461019157806320f5a9e6146101ce57806321b23f041461020c57806325700466146102355780632fb5eac21461025e57806346e5e8e21461029b578063788077a7146102db578063813d2ed0146103065780638cd1bb20146103435780638dd95e991461036c578063995e4339146103a95780639c6d0d78146103e7578063be90b05414610424578063cda4beef14610461578063d510bbd71461049e578063d7c06919146104c7578063d88730d5146104f2578063fc8f39f514610530575b600080fd5b34801561012357600080fd5b5061013e60048036036101399190810190612def565b61056d565b60405161014b9190613541565b60405180910390f35b34801561016057600080fd5b5061017b60048036036101769190810190612def565b61061d565b6040516101889190613563565b60405180910390f35b34801561019d57600080fd5b506101b860048036036101b39190810190612def565b6106d2565b6040516101c59190613563565b60405180910390f35b3480156101da57600080fd5b506101f560048036036101f09190810190612cc4565b610794565b60405161020392919061364c565b60405180910390f35b34801561021857600080fd5b50610233600480360361022e9190810190612e54565b6107d4565b005b34801561024157600080fd5b5061025c60048036036102579190810190612e18565b61092b565b005b34801561026a57600080fd5b5061028560048036036102809190810190612def565b6109b3565b60405161029291906134b9565b60405180910390f35b3480156102a757600080fd5b506102c260048036036102bd9190810190612cc4565b610a85565b6040516102d294939291906135b5565b60405180910390f35b3480156102e757600080fd5b506102f0610c99565b6040516102fd91906134fd565b60405180910390f35b34801561031257600080fd5b5061032d60048036036103289190810190612d00565b610d49565b60405161033a9190613631565b60405180910390f35b34801561034f57600080fd5b5061036a60048036036103659190810190612e18565b611018565b005b34801561037857600080fd5b50610393600480360361038e9190810190612def565b6111da565b6040516103a09190613497565b60405180910390f35b3480156103b557600080fd5b506103d060048036036103cb9190810190612def565b61127b565b6040516103de929190613585565b60405180910390f35b3480156103f357600080fd5b5061040e60048036036104099190810190612def565b6113e2565b60405161041b919061360f565b60405180910390f35b34801561043057600080fd5b5061044b60048036036104469190810190612e54565b611726565b6040516104589190613453565b60405180910390f35b34801561046d57600080fd5b5061048860048036036104839190810190612e90565b611773565b6040516104959190613631565b60405180910390f35b3480156104aa57600080fd5b506104c560048036036104c09190810190612e18565b6118cb565b005b3480156104d357600080fd5b506104dc612086565b6040516104e991906134db565b60405180910390f35b3480156104fe57600080fd5b5061051960048036036105149190810190612e54565b612280565b60405161052792919061346e565b60405180910390f35b34801561053c57600080fd5b5061055760048036036105529190810190612c9b565b6122e0565b604051610564919061351f565b60405180910390f35b60026020528060005260406000206000915090508054600181600116156101000203166002900480601f0160208091040260200160405190810160405280929190818152602001828054600181600116156101000203166002900480156106155780601f106105ea57610100808354040283529160200191610615565b820191906000526020600020905b8154815290600101906020018083116105f857829003601f168201915b505050505081565b6060600260008381526020019081526020016000208054600181600116156101000203166002900480601f0160208091040260200160405190810160405280929190818152602001828054600181600116156101000203166002900480156106c65780601f1061069b576101008083540402835291602001916106c6565b820191906000526020600020905b8154815290600101906020018083116106a957829003601f168201915b50505050509050919050565b60606000828154811015156106e357fe5b90600052602060002090600602016003018054600181600116156101000203166002900480601f0160208091040260200160405190810160405280929190818152602001828054600181600116156101000203166002900480156107885780601f1061075d57610100808354040283529160200191610788565b820191906000526020600020905b81548152906001019060200180831161076b57829003601f168201915b50505050509050919050565b6004602052816000526040600020818154811015156107af57fe5b9060005260206000209060020201600091509150508060000154908060010154905082565b600460003373ffffffffffffffffffffffffffffffffffffffff1673ffffffffffffffffffffffffffffffffffffffff1681526020019081526020016000206040805190810160405280848152602001838152509080600181540180825580915050906001820390600052602060002090600202016000909192909190915060008201518160000155602082015181600101555050506005600083815260200190815260200160002060408051908101604052803373ffffffffffffffffffffffffffffffffffffffff168152602001838152509080600181540180825580915050906001820390600052602060002090600202016000909192909190915060008201518160000160006101000a81548173ffffffffffffffffffffffffffffffffffffffff021916908373ffffffffffffffffffffffffffffffffffffffff160217905550602082015181600101555050505050565b60008281548110151561093a57fe5b90600052602060002090600602016001018190806001815401808255809150509060018203906000526020600020016000909192909190916101000a81548173ffffffffffffffffffffffffffffffffffffffff021916908373ffffffffffffffffffffffffffffffffffffffff160217905550505050565b606060056000838152602001908152602001600020805480602002602001604051908101604052809291908181526020016000905b82821015610a7a57838290600052602060002090600202016040805190810160405290816000820160009054906101000a900473ffffffffffffffffffffffffffffffffffffffff1673ffffffffffffffffffffffffffffffffffffffff1673ffffffffffffffffffffffffffffffffffffffff168152602001600182015481525050815260200190600101906109e8565b505050509050919050565b600360205281600052604060002081815481101515610aa057fe5b906000526020600020906006020160009150915050806002018054600181600116156101000203166002900480601f016020809104026020016040519081016040528092919081815260200182805460018160011615610100020316600290048015610b4d5780601f10610b2257610100808354040283529160200191610b4d565b820191906000526020600020905b815481529060010190602001808311610b3057829003601f168201915b505050505090806003018054600181600116156101000203166002900480601f016020809104026020016040519081016040528092919081815260200182805460018160011615610100020316600290048015610beb5780601f10610bc057610100808354040283529160200191610beb565b820191906000526020600020905b815481529060010190602001808311610bce57829003601f168201915b505050505090806004018054600181600116156101000203166002900480601f016020809104026020016040519081016040528092919081815260200182805460018160011615610100020316600290048015610c895780601f10610c5e57610100808354040283529160200191610c89565b820191906000526020600020905b815481529060010190602001808311610c6c57829003601f168201915b5050505050908060050154905084565b6060600460003373ffffffffffffffffffffffffffffffffffffffff1673ffffffffffffffffffffffffffffffffffffffff168152602001908152602001600020805480602002602001604051908101604052809291908181526020016000905b82821015610d4057838290600052602060002090600202016040805190810160405290816000820154815260200160018201548152505081526020019060010190610cfa565b50505050905090565b6000806000805490509050600060c06040519081016040528089815260200188815260200187815260200185815260200186815260200183815250908060018154018082558091505090600182039060005260206000209060060201600090919290919091506000820151816000019080519060200190610dcb92919061268b565b506020820151816001019080519060200190610de892919061268b565b506040820151816002019080519060200190610e05929190612715565b506060820151816003019080519060200190610e22929190612715565b506080820151816004019080519060200190610e3f929190612715565b5060a0820151816005015550505086600160008381526020019081526020016000209080519060200190610e74929190612795565b5084600260008381526020019081526020016000209080519060200190610e9c92919061281f565b5060008090505b875181101561100a57600360008983815181101515610ebe57fe5b9060200190602002015173ffffffffffffffffffffffffffffffffffffffff1673ffffffffffffffffffffffffffffffffffffffff168152602001908152602001600020600083815481101515610f1157fe5b9060005260206000209060060201908060018154018082558091505090600182039060005260206000209060060201600090919290919091506000820181600001908054610f6092919061289f565b506001820181600101908054610f7792919061289f565b5060028201816002019080546001816001161561010002031660029004610f9f9291906128f1565b5060038201816003019080546001816001161561010002031660029004610fc79291906128f1565b5060048201816004019080546001816001161561010002031660029004610fef9291906128f1565b50600582015481600501555050508080600101915050610ea3565b508091505095945050505050565b60008281548110151561102757fe5b90600052602060002090600602016000018190806001815401808255809150509060018203906000526020600020016000909192909190916101000a81548173ffffffffffffffffffffffffffffffffffffffff021916908373ffffffffffffffffffffffffffffffffffffffff16021790555050600360008273ffffffffffffffffffffffffffffffffffffffff1673ffffffffffffffffffffffffffffffffffffffff1681526020019081526020016000206000838154811015156110ea57fe5b906000526020600020906006020190806001815401808255809150509060018203906000526020600020906006020160009091929091909150600082018160000190805461113992919061289f565b50600182018160010190805461115092919061289f565b50600282018160020190805460018160011615610100020316600290046111789291906128f1565b50600382018160030190805460018160011615610100020316600290046111a09291906128f1565b50600482018160040190805460018160011615610100020316600290046111c89291906128f1565b50600582015481600501555050505050565b60606001600083815260200190815260200160002080548060200260200160405190810160405280929190818152602001828054801561126f57602002820191906000526020600020905b8160009054906101000a900473ffffffffffffffffffffffffffffffffffffffff1673ffffffffffffffffffffffffffffffffffffffff1681526020019060010190808311611225575b50505050509050919050565b60606000606061128a846109b3565b9050600060076000868152602001908152602001600020549050600080600090505b8351811015611322578284828151811015156112c457fe5b906020019060200201516020015111156113155783818151811015156112e657fe5b90602001906020020151602001519250838181518110151561130457fe5b906020019060200201516000015191505b80806001019150506112ac565b50600073ffffffffffffffffffffffffffffffffffffffff168173ffffffffffffffffffffffffffffffffffffffff1614151561139d57806040805190810160405280600781526020017f535543434553530000000000000000000000000000000000000000000000000081525090945094505050506113dd565b806040805190810160405280600781526020017f4641494c5552450000000000000000000000000000000000000000000000000081525090945094505050505b915091565b6113ea612978565b6000828154811015156113f957fe5b906000526020600020906006020160c060405190810160405290816000820180548060200260200160405190810160405280929190818152602001828054801561149857602002820191906000526020600020905b8160009054906101000a900473ffffffffffffffffffffffffffffffffffffffff1673ffffffffffffffffffffffffffffffffffffffff168152602001906001019080831161144e575b505050505081526020016001820180548060200260200160405190810160405280929190818152602001828054801561152657602002820191906000526020600020905b8160009054906101000a900473ffffffffffffffffffffffffffffffffffffffff1673ffffffffffffffffffffffffffffffffffffffff16815260200190600101908083116114dc575b50505050508152602001600282018054600181600116156101000203166002900480601f0160208091040260200160405190810160405280929190818152602001828054600181600116156101000203166002900480156115c85780601f1061159d576101008083540402835291602001916115c8565b820191906000526020600020905b8154815290600101906020018083116115ab57829003601f168201915b50505050508152602001600382018054600181600116156101000203166002900480601f01602080910402602001604051908101604052809291908181526020018280546001816001161561010002031660029004801561166a5780601f1061163f5761010080835404028352916020019161166a565b820191906000526020600020905b81548152906001019060200180831161164d57829003601f168201915b50505050508152602001600482018054600181600116156101000203166002900480601f01602080910402602001604051908101604052809291908181526020018280546001816001161561010002031660029004801561170c5780601f106116e15761010080835404028352916020019161170c565b820191906000526020600020905b8154815290600101906020018083116116ef57829003601f168201915b505050505081526020016005820154815250509050919050565b60016020528160005260406000208181548110151561174157fe5b906000526020600020016000915091509054906101000a900473ffffffffffffffffffffffffffffffffffffffff1681565b6000808490506000603c806018860202029050600081420190506117956129af565b60c0604051908101604052808581526020018981526020018381526020018881526020016117c28a6106d2565b81526020016117d08a6111da565b8152509050600660003373ffffffffffffffffffffffffffffffffffffffff1673ffffffffffffffffffffffffffffffffffffffff1681526020019081526020016000208190806001815401808255809150509060018203906000526020600020906006020160009091929091909150600082015181600001556020820151816001015560408201518160020155606082015181600301556080820151816004019080519060200190611884929190612715565b5060a08201518160050190805190602001906118a19291906129e6565b50505050866007600086815260200190815260200160002081905550839450505050509392505050565b60008090505b6000838154811015156118e057fe5b906000526020600020906006020160000180549050811015611a0f573373ffffffffffffffffffffffffffffffffffffffff1660008481548110151561192257fe5b90600052602060002090600602016000018281548110151561194057fe5b9060005260206000200160009054906101000a900473ffffffffffffffffffffffffffffffffffffffff1673ffffffffffffffffffffffffffffffffffffffff161415611a02578160008481548110151561199757fe5b9060005260206000209060060201600001828154811015156119b557fe5b9060005260206000200160006101000a81548173ffffffffffffffffffffffffffffffffffffffff021916908373ffffffffffffffffffffffffffffffffffffffff160217905550611a0f565b80806001019150506118d1565b5060008090505b600360003373ffffffffffffffffffffffffffffffffffffffff1673ffffffffffffffffffffffffffffffffffffffff16815260200190815260200160002080549050811015611d4857600080905083600360003373ffffffffffffffffffffffffffffffffffffffff1673ffffffffffffffffffffffffffffffffffffffff16815260200190815260200160002083815481101515611ab257fe5b9060005260206000209060060201600501541415611ad35781905050611d48565b60006001600360003373ffffffffffffffffffffffffffffffffffffffff1673ffffffffffffffffffffffffffffffffffffffff16815260200190815260200160002080549050039050600360003373ffffffffffffffffffffffffffffffffffffffff1673ffffffffffffffffffffffffffffffffffffffff16815260200190815260200160002081815481101515611b6957fe5b9060005260206000209060060201600360003373ffffffffffffffffffffffffffffffffffffffff1673ffffffffffffffffffffffffffffffffffffffff16815260200190815260200160002083815481101515611bc357fe5b90600052602060002090600602016000820181600001908054611be792919061289f565b506001820181600101908054611bfe92919061289f565b5060028201816002019080546001816001161561010002031660029004611c269291906128f1565b5060038201816003019080546001816001161561010002031660029004611c4e9291906128f1565b5060048201816004019080546001816001161561010002031660029004611c769291906128f1565b5060058201548160050155905050600360003373ffffffffffffffffffffffffffffffffffffffff1673ffffffffffffffffffffffffffffffffffffffff16815260200190815260200160002081815481101515611cd057fe5b906000526020600020906006020160008082016000611cef9190612a70565b600182016000611cff9190612a70565b600282016000611d0f9190612a91565b600382016000611d1f9190612a91565b600482016000611d2f9190612a91565b6005820160009055505050508080600101915050611a16565b5060008090505b600360003373ffffffffffffffffffffffffffffffffffffffff1673ffffffffffffffffffffffffffffffffffffffff1681526020019081526020016000208054905081101561208157600080905083600360003373ffffffffffffffffffffffffffffffffffffffff1673ffffffffffffffffffffffffffffffffffffffff16815260200190815260200160002083815481101515611deb57fe5b9060005260206000209060060201600501541415611e0c5781905050612081565b60006001600360003373ffffffffffffffffffffffffffffffffffffffff1673ffffffffffffffffffffffffffffffffffffffff16815260200190815260200160002080549050039050600360003373ffffffffffffffffffffffffffffffffffffffff1673ffffffffffffffffffffffffffffffffffffffff16815260200190815260200160002081815481101515611ea257fe5b9060005260206000209060060201600360003373ffffffffffffffffffffffffffffffffffffffff1673ffffffffffffffffffffffffffffffffffffffff16815260200190815260200160002083815481101515611efc57fe5b90600052602060002090600602016000820181600001908054611f2092919061289f565b506001820181600101908054611f3792919061289f565b5060028201816002019080546001816001161561010002031660029004611f5f9291906128f1565b5060038201816003019080546001816001161561010002031660029004611f879291906128f1565b5060048201816004019080546001816001161561010002031660029004611faf9291906128f1565b5060058201548160050155905050600360003373ffffffffffffffffffffffffffffffffffffffff1673ffffffffffffffffffffffffffffffffffffffff1681526020019081526020016000208181548110151561200957fe5b9060005260206000209060060201600080820160006120289190612a70565b6001820160006120389190612a70565b6002820160006120489190612a91565b6003820160006120589190612a91565b6004820160006120689190612a91565b6005820160009055505050508080600101915050611d4f565b505050565b606080600660003373ffffffffffffffffffffffffffffffffffffffff1673ffffffffffffffffffffffffffffffffffffffff168152602001908152602001600020805480602002602001604051908101604052809291908181526020016000905b82821015612273578382906000526020600020906006020160c0604051908101604052908160008201548152602001600182015481526020016002820154815260200160038201548152602001600482018054600181600116156101000203166002900480601f0160208091040260200160405190810160405280929190818152602001828054600181600116156101000203166002900480156121cd5780601f106121a2576101008083540402835291602001916121cd565b820191906000526020600020905b8154815290600101906020018083116121b057829003601f168201915b505050505081526020016005820180548060200260200160405190810160405280929190818152602001828054801561225b57602002820191906000526020600020905b8160009054906101000a900473ffffffffffffffffffffffffffffffffffffffff1673ffffffffffffffffffffffffffffffffffffffff1681526020019060010190808311612211575b505050505081525050815260200190600101906120e8565b5050505090508091505090565b60056020528160005260406000208181548110151561229b57fe5b9060005260206000209060020201600091509150508060000160009054906101000a900473ffffffffffffffffffffffffffffffffffffffff16908060010154905082565b6060600360008373ffffffffffffffffffffffffffffffffffffffff1673ffffffffffffffffffffffffffffffffffffffff168152602001908152602001600020805480602002602001604051908101604052809291908181526020016000905b82821015612680578382906000526020600020906006020160c06040519081016040529081600082018054806020026020016040519081016040528092919081815260200182805480156123ea57602002820191906000526020600020905b8160009054906101000a900473ffffffffffffffffffffffffffffffffffffffff1673ffffffffffffffffffffffffffffffffffffffff16815260200190600101908083116123a0575b505050505081526020016001820180548060200260200160405190810160405280929190818152602001828054801561247857602002820191906000526020600020905b8160009054906101000a900473ffffffffffffffffffffffffffffffffffffffff1673ffffffffffffffffffffffffffffffffffffffff168152602001906001019080831161242e575b50505050508152602001600282018054600181600116156101000203166002900480601f01602080910402602001604051908101604052809291908181526020018280546001816001161561010002031660029004801561251a5780601f106124ef5761010080835404028352916020019161251a565b820191906000526020600020905b8154815290600101906020018083116124fd57829003601f168201915b50505050508152602001600382018054600181600116156101000203166002900480601f0160208091040260200160405190810160405280929190818152602001828054600181600116156101000203166002900480156125bc5780601f10612591576101008083540402835291602001916125bc565b820191906000526020600020905b81548152906001019060200180831161259f57829003601f168201915b50505050508152602001600482018054600181600116156101000203166002900480601f01602080910402602001604051908101604052809291908181526020018280546001816001161561010002031660029004801561265e5780601f106126335761010080835404028352916020019161265e565b820191906000526020600020905b81548152906001019060200180831161264157829003601f168201915b5050505050815260200160058201548152505081526020019060010190612341565b505050509050919050565b828054828255906000526020600020908101928215612704579160200282015b828111156127035782518260006101000a81548173ffffffffffffffffffffffffffffffffffffffff021916908373ffffffffffffffffffffffffffffffffffffffff160217905550916020019190600101906126ab565b5b5090506127119190612ad9565b5090565b828054600181600116156101000203166002900490600052602060002090601f016020900481019282601f1061275657805160ff1916838001178555612784565b82800160010185558215612784579182015b82811115612783578251825591602001919060010190612768565b5b5090506127919190612b1c565b5090565b82805482825590600052602060002090810192821561280e579160200282015b8281111561280d5782518260006101000a81548173ffffffffffffffffffffffffffffffffffffffff021916908373ffffffffffffffffffffffffffffffffffffffff160217905550916020019190600101906127b5565b5b50905061281b9190612b41565b5090565b828054600181600116156101000203166002900490600052602060002090601f016020900481019282601f1061286057805160ff191683800117855561288e565b8280016001018555821561288e579182015b8281111561288d578251825591602001919060010190612872565b5b50905061289b9190612b1c565b5090565b8280548282559060005260206000209081019282156128e05760005260206000209182015b828111156128df5782548255916001019190600101906128c4565b5b5090506128ed9190612ad9565b5090565b828054600181600116156101000203166002900490600052602060002090601f016020900481019282601f1061292a5780548555612967565b8280016001018555821561296757600052602060002091601f016020900482015b8281111561296657825482559160010191906001019061294b565b5b5090506129749190612b1c565b5090565b60c0604051908101604052806060815260200160608152602001606081526020016060815260200160608152602001600081525090565b60c0604051908101604052806000815260200160008152602001600081526020016000815260200160608152602001606081525090565b828054828255906000526020600020908101928215612a5f579160200282015b82811115612a5e5782518260006101000a81548173ffffffffffffffffffffffffffffffffffffffff021916908373ffffffffffffffffffffffffffffffffffffffff16021790555091602001919060010190612a06565b5b509050612a6c9190612b41565b5090565b5080546000825590600052602060002090810190612a8e9190612b1c565b50565b50805460018160011615610100020316600290046000825580601f10612ab75750612ad6565b601f016020900490600052602060002090810190612ad59190612b1c565b5b50565b612b1991905b80821115612b1557600081816101000a81549073ffffffffffffffffffffffffffffffffffffffff021916905550600101612adf565b5090565b90565b612b3e91905b80821115612b3a576000816000905550600101612b22565b5090565b90565b612b8191905b80821115612b7d57600081816101000a81549073ffffffffffffffffffffffffffffffffffffffff021916905550600101612b47565b5090565b90565b6000612b90823561385d565b905092915050565b6000612ba4823561386f565b905092915050565b600082601f8301121515612bbf57600080fd5b8135612bd2612bcd826136a2565b613675565b91508181835260208401935060208101905083856020840282011115612bf757600080fd5b60005b83811015612c275781612c0d8882612b98565b845260208401935060208301925050600181019050612bfa565b5050505092915050565b600082601f8301121515612c4457600080fd5b8135612c57612c52826136ca565b613675565b91508082526020830160208301858383011115612c7357600080fd5b612c7e83828461388b565b50505092915050565b6000612c938235613881565b905092915050565b600060208284031215612cad57600080fd5b6000612cbb84828501612b84565b91505092915050565b60008060408385031215612cd757600080fd5b6000612ce585828601612b84565b9250506020612cf685828601612c87565b9150509250929050565b600080600080600060a08688031215612d1857600080fd5b600086013567ffffffffffffffff811115612d3257600080fd5b612d3e88828901612bac565b955050602086013567ffffffffffffffff811115612d5b57600080fd5b612d6788828901612bac565b945050604086013567ffffffffffffffff811115612d8457600080fd5b612d9088828901612c31565b935050606086013567ffffffffffffffff811115612dad57600080fd5b612db988828901612c31565b925050608086013567ffffffffffffffff811115612dd657600080fd5b612de288828901612c31565b9150509295509295909350565b600060208284031215612e0157600080fd5b6000612e0f84828501612c87565b91505092915050565b60008060408385031215612e2b57600080fd5b6000612e3985828601612c87565b9250506020612e4a85828601612b98565b9150509250929050565b60008060408385031215612e6757600080fd5b6000612e7585828601612c87565b9250506020612e8685828601612c87565b9150509250929050565b600080600060608486031215612ea557600080fd5b6000612eb386828701612c87565b9350506020612ec486828701612c87565b9250506040612ed586828701612c87565b9150509250925092565b612ee881613821565b82525050565b612ef78161380f565b82525050565b6000612f088261375c565b808452602084019350612f1a83613703565b60005b82811015612f4c57612f30868351612eee565b612f39826137c1565b9150602086019550600181019050612f1d565b50849250505092915050565b6000612f6382613751565b808452602084019350612f75836136f6565b60005b82811015612fa757612f8b868351612eee565b612f94826137b4565b9150602086019550600181019050612f78565b50849250505092915050565b6000612fbe82613767565b808452602084019350612fd083613710565b60005b8281101561300257612fe6868351612edf565b612fef826137ce565b9150602086019550600181019050612fd3565b50849250505092915050565b600061301982613772565b80845260208401935061302b8361371d565b60005b8281101561305d5761304186835161320c565b61304a826137db565b915060408601955060018101905061302e565b50849250505092915050565b60006130748261377d565b8084526020840193508360208202850161308d8561372a565b60005b848110156130c65783830388526130a883835161323b565b92506130b3826137e8565b9150602088019750600181019050613090565b508196508694505050505092915050565b60006130e282613788565b8084526020840193506130f483613737565b60005b828110156131265761310a8683516132cb565b613113826137f5565b91506040860195506001810190506130f7565b50849250505092915050565b600061313d82613793565b8084526020840193508360208202850161315685613744565b60005b8481101561318f57838303885261317183835161339f565b925061317c82613802565b9150602088019750600181019050613159565b508196508694505050505092915050565b60006131ab826137a9565b8084526131bf81602086016020860161389a565b6131c8816138cd565b602085010191505092915050565b60006131e18261379e565b8084526131f581602086016020860161389a565b6131fe816138cd565b602085010191505092915050565b6040820160008201516132226000850182612eee565b5060208201516132356020850182613444565b50505050565b600060c0830160008301516132536000860182613444565b5060208301516132666020860182613444565b5060408301516132796040860182613444565b50606083015161328c6060860182613444565b50608083015184820360808601526132a482826131d6565b91505060a083015184820360a08601526132be8282612f58565b9150508091505092915050565b6040820160008201516132e16000850182613444565b5060208201516132f46020850182613444565b50505050565b600060c08301600083015184820360008601526133178282612fb3565b915050602083015184820360208601526133318282612fb3565b9150506040830151848203604086015261334b82826131d6565b9150506060830151848203606086015261336582826131d6565b9150506080830151848203608086015261337f82826131d6565b91505060a083015161339460a0860182613444565b508091505092915050565b600060c08301600083015184820360008601526133bc8282612fb3565b915050602083015184820360208601526133d68282612fb3565b915050604083015184820360408601526133f082826131d6565b9150506060830151848203606086015261340a82826131d6565b9150506080830151848203608086015261342482826131d6565b91505060a083015161343960a0860182613444565b508091505092915050565b61344d81613853565b82525050565b60006020820190506134686000830184612eee565b92915050565b60006040820190506134836000830185612eee565b6134906020830184613444565b9392505050565b600060208201905081810360008301526134b18184612efd565b905092915050565b600060208201905081810360008301526134d3818461300e565b905092915050565b600060208201905081810360008301526134f58184613069565b905092915050565b6000602082019050818103600083015261351781846130d7565b905092915050565b600060208201905081810360008301526135398184613132565b905092915050565b6000602082019050818103600083015261355b81846131d6565b905092915050565b6000602082019050818103600083015261357d81846131a0565b905092915050565b6000604082019050818103600083015261359f81856131a0565b90506135ae6020830184612eee565b9392505050565b600060808201905081810360008301526135cf81876131d6565b905081810360208301526135e381866131d6565b905081810360408301526135f781856131d6565b90506136066060830184613444565b95945050505050565b6000602082019050818103600083015261362981846132fa565b905092915050565b60006020820190506136466000830184613444565b92915050565b60006040820190506136616000830185613444565b61366e6020830184613444565b9392505050565b6000604051905081810181811067ffffffffffffffff8211171561369857600080fd5b8060405250919050565b600067ffffffffffffffff8211156136b957600080fd5b602082029050602081019050919050565b600067ffffffffffffffff8211156136e157600080fd5b601f19601f8301169050602081019050919050565b6000602082019050919050565b6000602082019050919050565b6000602082019050919050565b6000602082019050919050565b6000602082019050919050565b6000602082019050919050565b6000602082019050919050565b600081519050919050565b600081519050919050565b600081519050919050565b600081519050919050565b600081519050919050565b600081519050919050565b600081519050919050565b600081519050919050565b600081519050919050565b6000602082019050919050565b6000602082019050919050565b6000602082019050919050565b6000602082019050919050565b6000602082019050919050565b6000602082019050919050565b6000602082019050919050565b600061381a82613833565b9050919050565b600061382c82613833565b9050919050565b600073ffffffffffffffffffffffffffffffffffffffff82169050919050565b6000819050919050565b600061386882613833565b9050919050565b600061387a82613833565b9050919050565b6000819050919050565b82818337600083830152505050565b60005b838110156138b857808201518184015260208101905061389d565b838111156138c7576000848401525b50505050565b6000601f19601f830116905091905056fea265627a7a72305820fe7e61d33d3598674fb5d90fbea0aef941859b8c21f0329f1c08f5c8075a6af96c6578706572696d656e74616cf50037",
  "source": "pragma experimental ABIEncoderV2;\n\nimport \"./PatentManager.sol\";\nimport \"./Bidding.sol\";\n\ncontract AuctionProcess is PatentManager, Bidding{\n\n    struct Auction {\n        uint auctionId;\n        uint patentId;\n        uint endTime; \n        uint minimumBidAuctioneer; // set by the Auctioneer !\n        string patentType;\n        address[] auctioneer;\n    }\n\n    // Maps auctioneer to the aucitonId \n    // May contain multiple auctionIds \n    mapping(address => Auction[]) auctioneerAuctionMap;\n    mapping(uint=>uint) auctionToPriceMap;\n\n    function createAuction(uint patentId, uint minimumBid, uint numberOfDays) public returns(uint) {\n        uint auctionId = patentId;\n        uint num_seconds = numberOfDays*24*60*60;\n        uint endTime = block.timestamp + num_seconds;\n        Auction memory a = Auction(auctionId, patentId, endTime, minimumBid, getPatentType(patentId), getOwnerList(patentId));\n        auctioneerAuctionMap[msg.sender].push(a);\n        auctionToPriceMap[auctionId] = minimumBid;\n    \n        return (auctionId);\n    }\n\n    function getResult(uint auctionId) public view returns (string memory , address){\n        AddressPrice[] memory priceMap = allBids(auctionId);\n        uint maxBid = auctionToPriceMap[auctionId];\n        address winner;\n        for ( uint bidderCount = 0; bidderCount < priceMap.length ; bidderCount++ ){\n            if(priceMap[bidderCount].bidPrice > maxBid){\n                maxBid = priceMap[bidderCount].bidPrice;\n                winner = priceMap[bidderCount].bidderAddress;\n            }\n        }\n\n        if(winner != address(0x0)){\n            return (\"SUCCESS\", winner);\n        }else{\n            return (\"FAILURE\", winner);\n        }\n    } \n\n    function getAuctions() public view returns(Auction[] memory){   \n        Auction[] memory auction = auctioneerAuctionMap[msg.sender]; \n        return auction;\n    }\n}",
  "sourcePath": "/media/anup/B290EFD890EFA159/Block8/patent_bidding_transfer/patent-backend/contracts/AuctionProcess.sol",
  "compiler": {
    "name": "solc",
    "version": "0.5.0+commit.1d4f565a.Emscripten.clang"
  },
  "schemaVersion": "3.0.1",
  "updatedAt": "2019-02-12T10:49:02.100Z",
  "devdoc": {
    "methods": {}
  },
  "userdoc": {
    "methods": {}
  }
}