{
  "contractName": "AuctionProcess",
  "abi": [
    {
      "constant": true,
      "inputs": [
        {
          "name": "",
          "type": "uint256"
        }
      ],
      "name": "patentNameMap",
      "outputs": [
        {
          "name": "",
          "type": "string"
        }
      ],
      "payable": false,
      "stateMutability": "view",
      "type": "function",
      "signature": "0x05c1ba22"
    },
    {
      "constant": true,
      "inputs": [
        {
          "name": "patentId",
          "type": "uint256"
        }
      ],
      "name": "getPatentName",
      "outputs": [
        {
          "name": "",
          "type": "string"
        }
      ],
      "payable": false,
      "stateMutability": "view",
      "type": "function",
      "signature": "0x087344d3"
    },
    {
      "constant": true,
      "inputs": [
        {
          "name": "patentId",
          "type": "uint256"
        }
      ],
      "name": "getPatentType",
      "outputs": [
        {
          "name": "",
          "type": "string"
        }
      ],
      "payable": false,
      "stateMutability": "view",
      "type": "function",
      "signature": "0x1a241775"
    },
    {
      "constant": true,
      "inputs": [
        {
          "name": "",
          "type": "address"
        },
        {
          "name": "",
          "type": "uint256"
        }
      ],
      "name": "userBidMap",
      "outputs": [
        {
          "name": "auctionId",
          "type": "uint256"
        },
        {
          "name": "bidPrice",
          "type": "uint256"
        }
      ],
      "payable": false,
      "stateMutability": "view",
      "type": "function",
      "signature": "0x20f5a9e6"
    },
    {
      "constant": false,
      "inputs": [
        {
          "name": "auctionId",
          "type": "uint256"
        },
        {
          "name": "bidAmount",
          "type": "uint256"
        }
      ],
      "name": "addBid",
      "outputs": [],
      "payable": false,
      "stateMutability": "nonpayable",
      "type": "function",
      "signature": "0x21b23f04"
    },
    {
      "constant": false,
      "inputs": [
        {
          "name": "patentId",
          "type": "uint256"
        },
        {
          "name": "person",
          "type": "address"
        }
      ],
      "name": "addLisenceHolder",
      "outputs": [],
      "payable": false,
      "stateMutability": "nonpayable",
      "type": "function",
      "signature": "0x25700466"
    },
    {
      "constant": true,
      "inputs": [
        {
          "name": "auctionId",
          "type": "uint256"
        }
      ],
      "name": "allBids",
      "outputs": [
        {
          "components": [
            {
              "name": "bidderAddress",
              "type": "address"
            },
            {
              "name": "bidPrice",
              "type": "uint256"
            }
          ],
          "name": "",
          "type": "tuple[]"
        }
      ],
      "payable": false,
      "stateMutability": "view",
      "type": "function",
      "signature": "0x2fb5eac2"
    },
    {
      "constant": true,
      "inputs": [
        {
          "name": "",
          "type": "address"
        },
        {
          "name": "",
          "type": "uint256"
        }
      ],
      "name": "ownerPatentsMap",
      "outputs": [
        {
          "name": "patentName",
          "type": "string"
        },
        {
          "name": "patentType",
          "type": "string"
        },
        {
          "name": "issueDate",
          "type": "string"
        },
        {
          "name": "patentId",
          "type": "uint256"
        }
      ],
      "payable": false,
      "stateMutability": "view",
      "type": "function",
      "signature": "0x46e5e8e2"
    },
    {
      "constant": true,
      "inputs": [],
      "name": "getMyBids",
      "outputs": [
        {
          "components": [
            {
              "name": "auctionId",
              "type": "uint256"
            },
            {
              "name": "bidPrice",
              "type": "uint256"
            }
          ],
          "name": "",
          "type": "tuple[]"
        }
      ],
      "payable": false,
      "stateMutability": "view",
      "type": "function",
      "signature": "0x788077a7"
    },
    {
      "constant": false,
      "inputs": [
        {
          "name": "owners",
          "type": "address[]"
        },
        {
          "name": "lisenceHolders",
          "type": "address[]"
        },
        {
          "name": "patentName",
          "type": "string"
        },
        {
          "name": "issueDate",
          "type": "string"
        },
        {
          "name": "patentType",
          "type": "string"
        }
      ],
      "name": "registerPatent",
      "outputs": [
        {
          "name": "",
          "type": "uint256"
        }
      ],
      "payable": false,
      "stateMutability": "nonpayable",
      "type": "function",
      "signature": "0x813d2ed0"
    },
    {
      "constant": false,
      "inputs": [
        {
          "name": "patentId",
          "type": "uint256"
        },
        {
          "name": "person",
          "type": "address"
        }
      ],
      "name": "addOwner",
      "outputs": [],
      "payable": false,
      "stateMutability": "nonpayable",
      "type": "function",
      "signature": "0x8cd1bb20"
    },
    {
      "constant": true,
      "inputs": [
        {
          "name": "patentId",
          "type": "uint256"
        }
      ],
      "name": "getOwnerList",
      "outputs": [
        {
          "name": "",
          "type": "address[]"
        }
      ],
      "payable": false,
      "stateMutability": "view",
      "type": "function",
      "signature": "0x8dd95e99"
    },
    {
      "constant": true,
      "inputs": [
        {
          "name": "patentId",
          "type": "uint256"
        }
      ],
      "name": "getPatent",
      "outputs": [
        {
          "components": [
            {
              "name": "owners",
              "type": "address[]"
            },
            {
              "name": "lisenceHolders",
              "type": "address[]"
            },
            {
              "name": "patentName",
              "type": "string"
            },
            {
              "name": "patentType",
              "type": "string"
            },
            {
              "name": "issueDate",
              "type": "string"
            },
            {
              "name": "patentId",
              "type": "uint256"
            }
          ],
          "name": "",
          "type": "tuple"
        }
      ],
      "payable": false,
      "stateMutability": "view",
      "type": "function",
      "signature": "0x9c6d0d78"
    },
    {
      "constant": true,
      "inputs": [
        {
          "name": "",
          "type": "uint256"
        },
        {
          "name": "",
          "type": "uint256"
        }
      ],
      "name": "patentOwnerMap",
      "outputs": [
        {
          "name": "",
          "type": "address"
        }
      ],
      "payable": false,
      "stateMutability": "view",
      "type": "function",
      "signature": "0xbe90b054"
    },
    {
      "constant": false,
      "inputs": [
        {
          "name": "patentId",
          "type": "uint256"
        },
        {
          "name": "receiver",
          "type": "address"
        }
      ],
      "name": "transferPatent",
      "outputs": [],
      "payable": false,
      "stateMutability": "nonpayable",
      "type": "function",
      "signature": "0xd510bbd7"
    },
    {
      "constant": true,
      "inputs": [
        {
          "name": "",
          "type": "uint256"
        },
        {
          "name": "",
          "type": "uint256"
        }
      ],
      "name": "auctionToBidersMap",
      "outputs": [
        {
          "name": "bidderAddress",
          "type": "address"
        },
        {
          "name": "bidPrice",
          "type": "uint256"
        }
      ],
      "payable": false,
      "stateMutability": "view",
      "type": "function",
      "signature": "0xd88730d5"
    },
    {
      "constant": true,
      "inputs": [
        {
          "name": "owner",
          "type": "address"
        }
      ],
      "name": "getPatentsByOwner",
      "outputs": [
        {
          "components": [
            {
              "name": "owners",
              "type": "address[]"
            },
            {
              "name": "lisenceHolders",
              "type": "address[]"
            },
            {
              "name": "patentName",
              "type": "string"
            },
            {
              "name": "patentType",
              "type": "string"
            },
            {
              "name": "issueDate",
              "type": "string"
            },
            {
              "name": "patentId",
              "type": "uint256"
            }
          ],
          "name": "",
          "type": "tuple[]"
        }
      ],
      "payable": false,
      "stateMutability": "view",
      "type": "function",
      "signature": "0xfc8f39f5"
    },
    {
      "constant": false,
      "inputs": [
        {
          "name": "patentId",
          "type": "uint256"
        },
        {
          "name": "minimumBid",
          "type": "uint256"
        },
        {
          "name": "numberOfDays",
          "type": "uint256"
        }
      ],
      "name": "createAuction",
      "outputs": [
        {
          "name": "",
          "type": "uint256"
        }
      ],
      "payable": false,
      "stateMutability": "nonpayable",
      "type": "function",
      "signature": "0xcda4beef"
    },
    {
      "constant": true,
      "inputs": [
        {
          "name": "auctionId",
          "type": "uint256"
        }
      ],
      "name": "getResult",
      "outputs": [
        {
          "name": "",
          "type": "string"
        },
        {
          "name": "",
          "type": "address"
        }
      ],
      "payable": false,
      "stateMutability": "view",
      "type": "function",
      "signature": "0x995e4339"
    },
    {
      "constant": true,
      "inputs": [],
      "name": "getAuctions",
      "outputs": [
        {
          "components": [
            {
              "name": "auctionId",
              "type": "uint256"
            },
            {
              "name": "patentId",
              "type": "uint256"
            },
            {
              "name": "endTime",
              "type": "uint256"
            },
            {
              "name": "minimumBidAuctioneer",
              "type": "uint256"
            },
            {
              "name": "patentType",
              "type": "string"
            },
            {
              "name": "auctioneer",
              "type": "address[]"
            }
          ],
          "name": "",
          "type": "tuple[]"
        }
      ],
      "payable": false,
      "stateMutability": "view",
      "type": "function",
      "signature": "0xd7c06919"
    }
  ],
  "bytecode": "0x608060405234801561001057600080fd5b506135df806100206000396000f3fe608060405260043610610112576000357c0100000000000000000000000000000000000000000000000000000000900463ffffffff16806305c1ba2214610117578063087344d3146101545780631a2417751461019157806320f5a9e6146101ce57806321b23f041461020c57806325700466146102355780632fb5eac21461025e57806346e5e8e21461029b578063788077a7146102db578063813d2ed0146103065780638cd1bb20146103435780638dd95e991461036c578063995e4339146103a95780639c6d0d78146103e7578063be90b05414610424578063cda4beef14610461578063d510bbd71461049e578063d7c06919146104c7578063d88730d5146104f2578063fc8f39f514610530575b600080fd5b34801561012357600080fd5b5061013e60048036036101399190810190612ab6565b61056d565b60405161014b9190613208565b60405180910390f35b34801561016057600080fd5b5061017b60048036036101769190810190612ab6565b61061d565b604051610188919061322a565b60405180910390f35b34801561019d57600080fd5b506101b860048036036101b39190810190612ab6565b6106d2565b6040516101c5919061322a565b60405180910390f35b3480156101da57600080fd5b506101f560048036036101f0919081019061298b565b610794565b604051610203929190613313565b60405180910390f35b34801561021857600080fd5b50610233600480360361022e9190810190612b1b565b6107d4565b005b34801561024157600080fd5b5061025c60048036036102579190810190612adf565b61092b565b005b34801561026a57600080fd5b5061028560048036036102809190810190612ab6565b6109b3565b6040516102929190613180565b60405180910390f35b3480156102a757600080fd5b506102c260048036036102bd919081019061298b565b610a85565b6040516102d2949392919061327c565b60405180910390f35b3480156102e757600080fd5b506102f0610c99565b6040516102fd91906131c4565b60405180910390f35b34801561031257600080fd5b5061032d600480360361032891908101906129c7565b610d49565b60405161033a91906132f8565b60405180910390f35b34801561034f57600080fd5b5061036a60048036036103659190810190612adf565b611018565b005b34801561037857600080fd5b50610393600480360361038e9190810190612ab6565b6111da565b6040516103a0919061315e565b60405180910390f35b3480156103b557600080fd5b506103d060048036036103cb9190810190612ab6565b61127b565b6040516103de92919061324c565b60405180910390f35b3480156103f357600080fd5b5061040e60048036036104099190810190612ab6565b6113e2565b60405161041b91906132d6565b60405180910390f35b34801561043057600080fd5b5061044b60048036036104469190810190612b1b565b611726565b604051610458919061311a565b60405180910390f35b34801561046d57600080fd5b5061048860048036036104839190810190612b57565b611773565b60405161049591906132f8565b60405180910390f35b3480156104aa57600080fd5b506104c560048036036104c09190810190612adf565b6118cb565b005b3480156104d357600080fd5b506104dc611d4d565b6040516104e991906131a2565b60405180910390f35b3480156104fe57600080fd5b5061051960048036036105149190810190612b1b565b611f47565b604051610527929190613135565b60405180910390f35b34801561053c57600080fd5b5061055760048036036105529190810190612962565b611fa7565b60405161056491906131e6565b60405180910390f35b60026020528060005260406000206000915090508054600181600116156101000203166002900480601f0160208091040260200160405190810160405280929190818152602001828054600181600116156101000203166002900480156106155780601f106105ea57610100808354040283529160200191610615565b820191906000526020600020905b8154815290600101906020018083116105f857829003601f168201915b505050505081565b6060600260008381526020019081526020016000208054600181600116156101000203166002900480601f0160208091040260200160405190810160405280929190818152602001828054600181600116156101000203166002900480156106c65780601f1061069b576101008083540402835291602001916106c6565b820191906000526020600020905b8154815290600101906020018083116106a957829003601f168201915b50505050509050919050565b60606000828154811015156106e357fe5b90600052602060002090600602016003018054600181600116156101000203166002900480601f0160208091040260200160405190810160405280929190818152602001828054600181600116156101000203166002900480156107885780601f1061075d57610100808354040283529160200191610788565b820191906000526020600020905b81548152906001019060200180831161076b57829003601f168201915b50505050509050919050565b6004602052816000526040600020818154811015156107af57fe5b9060005260206000209060020201600091509150508060000154908060010154905082565b600460003373ffffffffffffffffffffffffffffffffffffffff1673ffffffffffffffffffffffffffffffffffffffff1681526020019081526020016000206040805190810160405280848152602001838152509080600181540180825580915050906001820390600052602060002090600202016000909192909190915060008201518160000155602082015181600101555050506005600083815260200190815260200160002060408051908101604052803373ffffffffffffffffffffffffffffffffffffffff168152602001838152509080600181540180825580915050906001820390600052602060002090600202016000909192909190915060008201518160000160006101000a81548173ffffffffffffffffffffffffffffffffffffffff021916908373ffffffffffffffffffffffffffffffffffffffff160217905550602082015181600101555050505050565b60008281548110151561093a57fe5b90600052602060002090600602016001018190806001815401808255809150509060018203906000526020600020016000909192909190916101000a81548173ffffffffffffffffffffffffffffffffffffffff021916908373ffffffffffffffffffffffffffffffffffffffff160217905550505050565b606060056000838152602001908152602001600020805480602002602001604051908101604052809291908181526020016000905b82821015610a7a57838290600052602060002090600202016040805190810160405290816000820160009054906101000a900473ffffffffffffffffffffffffffffffffffffffff1673ffffffffffffffffffffffffffffffffffffffff1673ffffffffffffffffffffffffffffffffffffffff168152602001600182015481525050815260200190600101906109e8565b505050509050919050565b600360205281600052604060002081815481101515610aa057fe5b906000526020600020906006020160009150915050806002018054600181600116156101000203166002900480601f016020809104026020016040519081016040528092919081815260200182805460018160011615610100020316600290048015610b4d5780601f10610b2257610100808354040283529160200191610b4d565b820191906000526020600020905b815481529060010190602001808311610b3057829003601f168201915b505050505090806003018054600181600116156101000203166002900480601f016020809104026020016040519081016040528092919081815260200182805460018160011615610100020316600290048015610beb5780601f10610bc057610100808354040283529160200191610beb565b820191906000526020600020905b815481529060010190602001808311610bce57829003601f168201915b505050505090806004018054600181600116156101000203166002900480601f016020809104026020016040519081016040528092919081815260200182805460018160011615610100020316600290048015610c895780601f10610c5e57610100808354040283529160200191610c89565b820191906000526020600020905b815481529060010190602001808311610c6c57829003601f168201915b5050505050908060050154905084565b6060600460003373ffffffffffffffffffffffffffffffffffffffff1673ffffffffffffffffffffffffffffffffffffffff168152602001908152602001600020805480602002602001604051908101604052809291908181526020016000905b82821015610d4057838290600052602060002090600202016040805190810160405290816000820154815260200160018201548152505081526020019060010190610cfa565b50505050905090565b6000806000805490509050600060c06040519081016040528089815260200188815260200187815260200185815260200186815260200183815250908060018154018082558091505090600182039060005260206000209060060201600090919290919091506000820151816000019080519060200190610dcb929190612352565b506020820151816001019080519060200190610de8929190612352565b506040820151816002019080519060200190610e059291906123dc565b506060820151816003019080519060200190610e229291906123dc565b506080820151816004019080519060200190610e3f9291906123dc565b5060a0820151816005015550505086600160008381526020019081526020016000209080519060200190610e7492919061245c565b5084600260008381526020019081526020016000209080519060200190610e9c9291906124e6565b5060008090505b875181101561100a57600360008983815181101515610ebe57fe5b9060200190602002015173ffffffffffffffffffffffffffffffffffffffff1673ffffffffffffffffffffffffffffffffffffffff168152602001908152602001600020600083815481101515610f1157fe5b9060005260206000209060060201908060018154018082558091505090600182039060005260206000209060060201600090919290919091506000820181600001908054610f60929190612566565b506001820181600101908054610f77929190612566565b5060028201816002019080546001816001161561010002031660029004610f9f9291906125b8565b5060038201816003019080546001816001161561010002031660029004610fc79291906125b8565b5060048201816004019080546001816001161561010002031660029004610fef9291906125b8565b50600582015481600501555050508080600101915050610ea3565b508091505095945050505050565b60008281548110151561102757fe5b90600052602060002090600602016000018190806001815401808255809150509060018203906000526020600020016000909192909190916101000a81548173ffffffffffffffffffffffffffffffffffffffff021916908373ffffffffffffffffffffffffffffffffffffffff16021790555050600360008273ffffffffffffffffffffffffffffffffffffffff1673ffffffffffffffffffffffffffffffffffffffff1681526020019081526020016000206000838154811015156110ea57fe5b9060005260206000209060060201908060018154018082558091505090600182039060005260206000209060060201600090919290919091506000820181600001908054611139929190612566565b506001820181600101908054611150929190612566565b50600282018160020190805460018160011615610100020316600290046111789291906125b8565b50600382018160030190805460018160011615610100020316600290046111a09291906125b8565b50600482018160040190805460018160011615610100020316600290046111c89291906125b8565b50600582015481600501555050505050565b60606001600083815260200190815260200160002080548060200260200160405190810160405280929190818152602001828054801561126f57602002820191906000526020600020905b8160009054906101000a900473ffffffffffffffffffffffffffffffffffffffff1673ffffffffffffffffffffffffffffffffffffffff1681526020019060010190808311611225575b50505050509050919050565b60606000606061128a846109b3565b9050600060076000868152602001908152602001600020549050600080600090505b8351811015611322578284828151811015156112c457fe5b906020019060200201516020015111156113155783818151811015156112e657fe5b90602001906020020151602001519250838181518110151561130457fe5b906020019060200201516000015191505b80806001019150506112ac565b50600073ffffffffffffffffffffffffffffffffffffffff168173ffffffffffffffffffffffffffffffffffffffff1614151561139d57806040805190810160405280600781526020017f535543434553530000000000000000000000000000000000000000000000000081525090945094505050506113dd565b806040805190810160405280600781526020017f4641494c5552450000000000000000000000000000000000000000000000000081525090945094505050505b915091565b6113ea61263f565b6000828154811015156113f957fe5b906000526020600020906006020160c060405190810160405290816000820180548060200260200160405190810160405280929190818152602001828054801561149857602002820191906000526020600020905b8160009054906101000a900473ffffffffffffffffffffffffffffffffffffffff1673ffffffffffffffffffffffffffffffffffffffff168152602001906001019080831161144e575b505050505081526020016001820180548060200260200160405190810160405280929190818152602001828054801561152657602002820191906000526020600020905b8160009054906101000a900473ffffffffffffffffffffffffffffffffffffffff1673ffffffffffffffffffffffffffffffffffffffff16815260200190600101908083116114dc575b50505050508152602001600282018054600181600116156101000203166002900480601f0160208091040260200160405190810160405280929190818152602001828054600181600116156101000203166002900480156115c85780601f1061159d576101008083540402835291602001916115c8565b820191906000526020600020905b8154815290600101906020018083116115ab57829003601f168201915b50505050508152602001600382018054600181600116156101000203166002900480601f01602080910402602001604051908101604052809291908181526020018280546001816001161561010002031660029004801561166a5780601f1061163f5761010080835404028352916020019161166a565b820191906000526020600020905b81548152906001019060200180831161164d57829003601f168201915b50505050508152602001600482018054600181600116156101000203166002900480601f01602080910402602001604051908101604052809291908181526020018280546001816001161561010002031660029004801561170c5780601f106116e15761010080835404028352916020019161170c565b820191906000526020600020905b8154815290600101906020018083116116ef57829003601f168201915b505050505081526020016005820154815250509050919050565b60016020528160005260406000208181548110151561174157fe5b906000526020600020016000915091509054906101000a900473ffffffffffffffffffffffffffffffffffffffff1681565b6000808490506000603c80601886020202905060008142019050611795612676565b60c0604051908101604052808581526020018981526020018381526020018881526020016117c28a6106d2565b81526020016117d08a6111da565b8152509050600660003373ffffffffffffffffffffffffffffffffffffffff1673ffffffffffffffffffffffffffffffffffffffff16815260200190815260200160002081908060018154018082558091505090600182039060005260206000209060060201600090919290919091506000820151816000015560208201518160010155604082015181600201556060820151816003015560808201518160040190805190602001906118849291906123dc565b5060a08201518160050190805190602001906118a19291906126ad565b50505050866007600086815260200190815260200160002081905550839450505050509392505050565b60008090505b6000838154811015156118e057fe5b906000526020600020906006020160000180549050811015611a0f573373ffffffffffffffffffffffffffffffffffffffff1660008481548110151561192257fe5b90600052602060002090600602016000018281548110151561194057fe5b9060005260206000200160009054906101000a900473ffffffffffffffffffffffffffffffffffffffff1673ffffffffffffffffffffffffffffffffffffffff161415611a02578160008481548110151561199757fe5b9060005260206000209060060201600001828154811015156119b557fe5b9060005260206000200160006101000a81548173ffffffffffffffffffffffffffffffffffffffff021916908373ffffffffffffffffffffffffffffffffffffffff160217905550611a0f565b80806001019150506118d1565b5060008090505b600360003373ffffffffffffffffffffffffffffffffffffffff1673ffffffffffffffffffffffffffffffffffffffff16815260200190815260200160002080549050811015611d4857600080905083600360003373ffffffffffffffffffffffffffffffffffffffff1673ffffffffffffffffffffffffffffffffffffffff16815260200190815260200160002083815481101515611ab257fe5b9060005260206000209060060201600501541415611ad35781905050611d48565b60006001600360003373ffffffffffffffffffffffffffffffffffffffff1673ffffffffffffffffffffffffffffffffffffffff16815260200190815260200160002080549050039050600360003373ffffffffffffffffffffffffffffffffffffffff1673ffffffffffffffffffffffffffffffffffffffff16815260200190815260200160002081815481101515611b6957fe5b9060005260206000209060060201600360003373ffffffffffffffffffffffffffffffffffffffff1673ffffffffffffffffffffffffffffffffffffffff16815260200190815260200160002083815481101515611bc357fe5b90600052602060002090600602016000820181600001908054611be7929190612566565b506001820181600101908054611bfe929190612566565b5060028201816002019080546001816001161561010002031660029004611c269291906125b8565b5060038201816003019080546001816001161561010002031660029004611c4e9291906125b8565b5060048201816004019080546001816001161561010002031660029004611c769291906125b8565b5060058201548160050155905050600360003373ffffffffffffffffffffffffffffffffffffffff1673ffffffffffffffffffffffffffffffffffffffff16815260200190815260200160002081815481101515611cd057fe5b906000526020600020906006020160008082016000611cef9190612737565b600182016000611cff9190612737565b600282016000611d0f9190612758565b600382016000611d1f9190612758565b600482016000611d2f9190612758565b6005820160009055505050508080600101915050611a16565b505050565b606080600660003373ffffffffffffffffffffffffffffffffffffffff1673ffffffffffffffffffffffffffffffffffffffff168152602001908152602001600020805480602002602001604051908101604052809291908181526020016000905b82821015611f3a578382906000526020600020906006020160c0604051908101604052908160008201548152602001600182015481526020016002820154815260200160038201548152602001600482018054600181600116156101000203166002900480601f016020809104026020016040519081016040528092919081815260200182805460018160011615610100020316600290048015611e945780601f10611e6957610100808354040283529160200191611e94565b820191906000526020600020905b815481529060010190602001808311611e7757829003601f168201915b5050505050815260200160058201805480602002602001604051908101604052809291908181526020018280548015611f2257602002820191906000526020600020905b8160009054906101000a900473ffffffffffffffffffffffffffffffffffffffff1673ffffffffffffffffffffffffffffffffffffffff1681526020019060010190808311611ed8575b50505050508152505081526020019060010190611daf565b5050505090508091505090565b600560205281600052604060002081815481101515611f6257fe5b9060005260206000209060020201600091509150508060000160009054906101000a900473ffffffffffffffffffffffffffffffffffffffff16908060010154905082565b6060600360008373ffffffffffffffffffffffffffffffffffffffff1673ffffffffffffffffffffffffffffffffffffffff168152602001908152602001600020805480602002602001604051908101604052809291908181526020016000905b82821015612347578382906000526020600020906006020160c06040519081016040529081600082018054806020026020016040519081016040528092919081815260200182805480156120b157602002820191906000526020600020905b8160009054906101000a900473ffffffffffffffffffffffffffffffffffffffff1673ffffffffffffffffffffffffffffffffffffffff1681526020019060010190808311612067575b505050505081526020016001820180548060200260200160405190810160405280929190818152602001828054801561213f57602002820191906000526020600020905b8160009054906101000a900473ffffffffffffffffffffffffffffffffffffffff1673ffffffffffffffffffffffffffffffffffffffff16815260200190600101908083116120f5575b50505050508152602001600282018054600181600116156101000203166002900480601f0160208091040260200160405190810160405280929190818152602001828054600181600116156101000203166002900480156121e15780601f106121b6576101008083540402835291602001916121e1565b820191906000526020600020905b8154815290600101906020018083116121c457829003601f168201915b50505050508152602001600382018054600181600116156101000203166002900480601f0160208091040260200160405190810160405280929190818152602001828054600181600116156101000203166002900480156122835780601f1061225857610100808354040283529160200191612283565b820191906000526020600020905b81548152906001019060200180831161226657829003601f168201915b50505050508152602001600482018054600181600116156101000203166002900480601f0160208091040260200160405190810160405280929190818152602001828054600181600116156101000203166002900480156123255780601f106122fa57610100808354040283529160200191612325565b820191906000526020600020905b81548152906001019060200180831161230857829003601f168201915b5050505050815260200160058201548152505081526020019060010190612008565b505050509050919050565b8280548282559060005260206000209081019282156123cb579160200282015b828111156123ca5782518260006101000a81548173ffffffffffffffffffffffffffffffffffffffff021916908373ffffffffffffffffffffffffffffffffffffffff16021790555091602001919060010190612372565b5b5090506123d891906127a0565b5090565b828054600181600116156101000203166002900490600052602060002090601f016020900481019282601f1061241d57805160ff191683800117855561244b565b8280016001018555821561244b579182015b8281111561244a57825182559160200191906001019061242f565b5b50905061245891906127e3565b5090565b8280548282559060005260206000209081019282156124d5579160200282015b828111156124d45782518260006101000a81548173ffffffffffffffffffffffffffffffffffffffff021916908373ffffffffffffffffffffffffffffffffffffffff1602179055509160200191906001019061247c565b5b5090506124e29190612808565b5090565b828054600181600116156101000203166002900490600052602060002090601f016020900481019282601f1061252757805160ff1916838001178555612555565b82800160010185558215612555579182015b82811115612554578251825591602001919060010190612539565b5b50905061256291906127e3565b5090565b8280548282559060005260206000209081019282156125a75760005260206000209182015b828111156125a657825482559160010191906001019061258b565b5b5090506125b491906127a0565b5090565b828054600181600116156101000203166002900490600052602060002090601f016020900481019282601f106125f1578054855561262e565b8280016001018555821561262e57600052602060002091601f016020900482015b8281111561262d578254825591600101919060010190612612565b5b50905061263b91906127e3565b5090565b60c0604051908101604052806060815260200160608152602001606081526020016060815260200160608152602001600081525090565b60c0604051908101604052806000815260200160008152602001600081526020016000815260200160608152602001606081525090565b828054828255906000526020600020908101928215612726579160200282015b828111156127255782518260006101000a81548173ffffffffffffffffffffffffffffffffffffffff021916908373ffffffffffffffffffffffffffffffffffffffff160217905550916020019190600101906126cd565b5b5090506127339190612808565b5090565b508054600082559060005260206000209081019061275591906127e3565b50565b50805460018160011615610100020316600290046000825580601f1061277e575061279d565b601f01602090049060005260206000209081019061279c91906127e3565b5b50565b6127e091905b808211156127dc57600081816101000a81549073ffffffffffffffffffffffffffffffffffffffff0219169055506001016127a6565b5090565b90565b61280591905b808211156128015760008160009055506001016127e9565b5090565b90565b61284891905b8082111561284457600081816101000a81549073ffffffffffffffffffffffffffffffffffffffff02191690555060010161280e565b5090565b90565b60006128578235613524565b905092915050565b600061286b8235613536565b905092915050565b600082601f830112151561288657600080fd5b813561289961289482613369565b61333c565b915081818352602084019350602081019050838560208402820111156128be57600080fd5b60005b838110156128ee57816128d4888261285f565b8452602084019350602083019250506001810190506128c1565b5050505092915050565b600082601f830112151561290b57600080fd5b813561291e61291982613391565b61333c565b9150808252602083016020830185838301111561293a57600080fd5b612945838284613552565b50505092915050565b600061295a8235613548565b905092915050565b60006020828403121561297457600080fd5b60006129828482850161284b565b91505092915050565b6000806040838503121561299e57600080fd5b60006129ac8582860161284b565b92505060206129bd8582860161294e565b9150509250929050565b600080600080600060a086880312156129df57600080fd5b600086013567ffffffffffffffff8111156129f957600080fd5b612a0588828901612873565b955050602086013567ffffffffffffffff811115612a2257600080fd5b612a2e88828901612873565b945050604086013567ffffffffffffffff811115612a4b57600080fd5b612a57888289016128f8565b935050606086013567ffffffffffffffff811115612a7457600080fd5b612a80888289016128f8565b925050608086013567ffffffffffffffff811115612a9d57600080fd5b612aa9888289016128f8565b9150509295509295909350565b600060208284031215612ac857600080fd5b6000612ad68482850161294e565b91505092915050565b60008060408385031215612af257600080fd5b6000612b008582860161294e565b9250506020612b118582860161285f565b9150509250929050565b60008060408385031215612b2e57600080fd5b6000612b3c8582860161294e565b9250506020612b4d8582860161294e565b9150509250929050565b600080600060608486031215612b6c57600080fd5b6000612b7a8682870161294e565b9350506020612b8b8682870161294e565b9250506040612b9c8682870161294e565b9150509250925092565b612baf816134e8565b82525050565b612bbe816134d6565b82525050565b6000612bcf82613423565b808452602084019350612be1836133ca565b60005b82811015612c1357612bf7868351612bb5565b612c0082613488565b9150602086019550600181019050612be4565b50849250505092915050565b6000612c2a82613418565b808452602084019350612c3c836133bd565b60005b82811015612c6e57612c52868351612bb5565b612c5b8261347b565b9150602086019550600181019050612c3f565b50849250505092915050565b6000612c858261342e565b808452602084019350612c97836133d7565b60005b82811015612cc957612cad868351612ba6565b612cb682613495565b9150602086019550600181019050612c9a565b50849250505092915050565b6000612ce082613439565b808452602084019350612cf2836133e4565b60005b82811015612d2457612d08868351612ed3565b612d11826134a2565b9150604086019550600181019050612cf5565b50849250505092915050565b6000612d3b82613444565b80845260208401935083602082028501612d54856133f1565b60005b84811015612d8d578383038852612d6f838351612f02565b9250612d7a826134af565b9150602088019750600181019050612d57565b508196508694505050505092915050565b6000612da98261344f565b808452602084019350612dbb836133fe565b60005b82811015612ded57612dd1868351612f92565b612dda826134bc565b9150604086019550600181019050612dbe565b50849250505092915050565b6000612e048261345a565b80845260208401935083602082028501612e1d8561340b565b60005b84811015612e56578383038852612e38838351613066565b9250612e43826134c9565b9150602088019750600181019050612e20565b508196508694505050505092915050565b6000612e7282613470565b808452612e86816020860160208601613561565b612e8f81613594565b602085010191505092915050565b6000612ea882613465565b808452612ebc816020860160208601613561565b612ec581613594565b602085010191505092915050565b604082016000820151612ee96000850182612bb5565b506020820151612efc602085018261310b565b50505050565b600060c083016000830151612f1a600086018261310b565b506020830151612f2d602086018261310b565b506040830151612f40604086018261310b565b506060830151612f53606086018261310b565b5060808301518482036080860152612f6b8282612e9d565b91505060a083015184820360a0860152612f858282612c1f565b9150508091505092915050565b604082016000820151612fa8600085018261310b565b506020820151612fbb602085018261310b565b50505050565b600060c0830160008301518482036000860152612fde8282612c7a565b91505060208301518482036020860152612ff88282612c7a565b915050604083015184820360408601526130128282612e9d565b9150506060830151848203606086015261302c8282612e9d565b915050608083015184820360808601526130468282612e9d565b91505060a083015161305b60a086018261310b565b508091505092915050565b600060c08301600083015184820360008601526130838282612c7a565b9150506020830151848203602086015261309d8282612c7a565b915050604083015184820360408601526130b78282612e9d565b915050606083015184820360608601526130d18282612e9d565b915050608083015184820360808601526130eb8282612e9d565b91505060a083015161310060a086018261310b565b508091505092915050565b6131148161351a565b82525050565b600060208201905061312f6000830184612bb5565b92915050565b600060408201905061314a6000830185612bb5565b613157602083018461310b565b9392505050565b600060208201905081810360008301526131788184612bc4565b905092915050565b6000602082019050818103600083015261319a8184612cd5565b905092915050565b600060208201905081810360008301526131bc8184612d30565b905092915050565b600060208201905081810360008301526131de8184612d9e565b905092915050565b600060208201905081810360008301526132008184612df9565b905092915050565b600060208201905081810360008301526132228184612e9d565b905092915050565b600060208201905081810360008301526132448184612e67565b905092915050565b600060408201905081810360008301526132668185612e67565b90506132756020830184612bb5565b9392505050565b600060808201905081810360008301526132968187612e9d565b905081810360208301526132aa8186612e9d565b905081810360408301526132be8185612e9d565b90506132cd606083018461310b565b95945050505050565b600060208201905081810360008301526132f08184612fc1565b905092915050565b600060208201905061330d600083018461310b565b92915050565b6000604082019050613328600083018561310b565b613335602083018461310b565b9392505050565b6000604051905081810181811067ffffffffffffffff8211171561335f57600080fd5b8060405250919050565b600067ffffffffffffffff82111561338057600080fd5b602082029050602081019050919050565b600067ffffffffffffffff8211156133a857600080fd5b601f19601f8301169050602081019050919050565b6000602082019050919050565b6000602082019050919050565b6000602082019050919050565b6000602082019050919050565b6000602082019050919050565b6000602082019050919050565b6000602082019050919050565b600081519050919050565b600081519050919050565b600081519050919050565b600081519050919050565b600081519050919050565b600081519050919050565b600081519050919050565b600081519050919050565b600081519050919050565b6000602082019050919050565b6000602082019050919050565b6000602082019050919050565b6000602082019050919050565b6000602082019050919050565b6000602082019050919050565b6000602082019050919050565b60006134e1826134fa565b9050919050565b60006134f3826134fa565b9050919050565b600073ffffffffffffffffffffffffffffffffffffffff82169050919050565b6000819050919050565b600061352f826134fa565b9050919050565b6000613541826134fa565b9050919050565b6000819050919050565b82818337600083830152505050565b60005b8381101561357f578082015181840152602081019050613564565b8381111561358e576000848401525b50505050565b6000601f19601f830116905091905056fea265627a7a7230582090262d5792e4c8ad93a1039a4b3dbdcee482a48505bdbd7a5805c4792d23e2ec6c6578706572696d656e74616cf50037",
  "source": "pragma experimental ABIEncoderV2;\n\nimport \"./PatentManager.sol\";\nimport \"./Bidding.sol\";\n\ncontract AuctionProcess is PatentManager, Bidding{\n\n    struct Auction {\n        uint auctionId;\n        uint patentId;\n        uint endTime; \n        uint minimumBidAuctioneer; // set by the Auctioneer !\n        string patentType;\n        address[] auctioneer;\n    }\n\n    // Maps auctioneer to the aucitonId \n    // May contain multiple auctionIds \n    mapping(address => Auction[]) auctioneerAuctionMap;\n    mapping(uint=>uint) auctionToPriceMap;\n\n    function createAuction(uint patentId, uint minimumBid, uint numberOfDays) public returns(uint) {\n                    \n\n        uint auctionId = patentId;\n        uint num_seconds = numberOfDays*24*60*60;\n        uint endTime = block.timestamp + num_seconds;\n\n        Auction memory a = Auction(auctionId, patentId, endTime, minimumBid, getPatentType(patentId), getOwnerList(patentId));\n        auctioneerAuctionMap[msg.sender].push(a);\n        auctionToPriceMap[auctionId] = minimumBid;\n    \n        return (auctionId);\n    }\n\n    function getResult(uint auctionId) public view returns (string memory , address){\n        AddressPrice[] memory priceMap = allBids(auctionId);\n        uint maxBid = auctionToPriceMap[auctionId];\n        address winner;\n        for ( uint bidderCount = 0; bidderCount < priceMap.length ; bidderCount++ ){\n            if(priceMap[bidderCount].bidPrice > maxBid){\n                maxBid = priceMap[bidderCount].bidPrice;\n                winner = priceMap[bidderCount].bidderAddress;\n            }\n        }\n\n        if(winner != address(0x0)){\n            return (\"SUCCESS\", winner);\n        }else{\n            return (\"FAILURE\", winner);\n        }\n    } \n\n    function getAuctions() public view returns(Auction[] memory){   \n        Auction[] memory auction = auctioneerAuctionMap[msg.sender]; \n        return auction;\n    }\n}",
  "sourcePath": "/home/abhijeet/work/Blockchain/patent_bidding_transfer/patent-backend/contracts/AuctionProcess.sol",
  "compiler": {
    "name": "solc",
    "version": "0.5.0+commit.1d4f565a.Emscripten.clang"
  },
  "schemaVersion": "3.0.1",
  "updatedAt": "2019-02-08T11:50:14.610Z",
  "devdoc": {
    "methods": {}
  },
  "userdoc": {
    "methods": {}
  }
}