{
  "contractName": "Bidding",
  "abi": [
    {
      "constant": true,
      "inputs": [
        {
          "name": "",
          "type": "address"
        },
        {
          "name": "",
          "type": "uint256"
        }
      ],
      "name": "userBidMap",
      "outputs": [
        {
          "name": "auctionId",
          "type": "uint256"
        },
        {
          "name": "bidPrice",
          "type": "uint256"
        }
      ],
      "payable": false,
      "stateMutability": "view",
      "type": "function"
    },
    {
      "constant": true,
      "inputs": [
        {
          "name": "",
          "type": "uint256"
        },
        {
          "name": "",
          "type": "uint256"
        }
      ],
      "name": "auctionToBidersMap",
      "outputs": [
        {
          "name": "bidderAddress",
          "type": "address"
        },
        {
          "name": "bidPrice",
          "type": "uint256"
        }
      ],
      "payable": false,
      "stateMutability": "view",
      "type": "function"
    },
    {
      "anonymous": false,
      "inputs": [
        {
          "indexed": false,
          "name": "patentId",
          "type": "uint256"
        },
        {
          "indexed": false,
          "name": "name",
          "type": "string"
        }
      ],
      "name": "NewBid",
      "type": "event"
    },
    {
      "constant": false,
      "inputs": [
        {
          "name": "auctionId",
          "type": "uint256"
        },
        {
          "name": "bidAmount",
          "type": "uint256"
        }
      ],
      "name": "addBid",
      "outputs": [],
      "payable": false,
      "stateMutability": "nonpayable",
      "type": "function"
    },
    {
      "constant": true,
      "inputs": [
        {
          "name": "auctionId",
          "type": "uint256"
        }
      ],
      "name": "allBids",
      "outputs": [
        {
          "components": [
            {
              "name": "bidderAddress",
              "type": "address"
            },
            {
              "name": "bidPrice",
              "type": "uint256"
            }
          ],
          "name": "",
          "type": "tuple[]"
        }
      ],
      "payable": false,
      "stateMutability": "view",
      "type": "function"
    },
    {
      "constant": true,
      "inputs": [],
      "name": "getMyBids",
      "outputs": [
        {
          "components": [
            {
              "name": "auctionId",
              "type": "uint256"
            },
            {
              "name": "bidPrice",
              "type": "uint256"
            }
          ],
          "name": "",
          "type": "tuple[]"
        }
      ],
      "payable": false,
      "stateMutability": "view",
      "type": "function"
    }
  ],
  "bytecode": "0x608060405234801561001057600080fd5b50610863806100206000396000f3fe60806040526004361061006d576000357c0100000000000000000000000000000000000000000000000000000000900463ffffffff16806320f5a9e61461007257806321b23f04146100b05780632fb5eac2146100d9578063788077a714610116578063d88730d514610141575b600080fd5b34801561007e57600080fd5b506100996004803603610094919081019061051e565b61017f565b6040516100a792919061075e565b60405180910390f35b3480156100bc57600080fd5b506100d760048036036100d29190810190610583565b6101bf565b005b3480156100e557600080fd5b5061010060048036036100fb919081019061055a565b610315565b60405161010d919061071a565b60405180910390f35b34801561012257600080fd5b5061012b6103e7565b604051610138919061073c565b60405180910390f35b34801561014d57600080fd5b5061016860048036036101639190810190610583565b610496565b6040516101769291906106f1565b60405180910390f35b60006020528160005260406000208181548110151561019a57fe5b9060005260206000209060020201600091509150508060000154908060010154905082565b6000803373ffffffffffffffffffffffffffffffffffffffff1673ffffffffffffffffffffffffffffffffffffffff1681526020019081526020016000206040805190810160405280848152602001838152509080600181540180825580915050906001820390600052602060002090600202016000909192909190915060008201518160000155602082015181600101555050506001600083815260200190815260200160002060408051908101604052803373ffffffffffffffffffffffffffffffffffffffff168152602001838152509080600181540180825580915050906001820390600052602060002090600202016000909192909190915060008201518160000160006101000a81548173ffffffffffffffffffffffffffffffffffffffff021916908373ffffffffffffffffffffffffffffffffffffffff160217905550602082015181600101555050505050565b606060016000838152602001908152602001600020805480602002602001604051908101604052809291908181526020016000905b828210156103dc57838290600052602060002090600202016040805190810160405290816000820160009054906101000a900473ffffffffffffffffffffffffffffffffffffffff1673ffffffffffffffffffffffffffffffffffffffff1673ffffffffffffffffffffffffffffffffffffffff1681526020016001820154815250508152602001906001019061034a565b505050509050919050565b60606000803373ffffffffffffffffffffffffffffffffffffffff1673ffffffffffffffffffffffffffffffffffffffff168152602001908152602001600020805480602002602001604051908101604052809291908181526020016000905b8282101561048d57838290600052602060002090600202016040805190810160405290816000820154815260200160018201548152505081526020019060010190610447565b50505050905090565b6001602052816000526040600020818154811015156104b157fe5b9060005260206000209060020201600091509150508060000160009054906101000a900473ffffffffffffffffffffffffffffffffffffffff16908060010154905082565b6000610502823561080d565b905092915050565b6000610516823561081f565b905092915050565b6000806040838503121561053157600080fd5b600061053f858286016104f6565b92505060206105508582860161050a565b9150509250929050565b60006020828403121561056c57600080fd5b600061057a8482850161050a565b91505092915050565b6000806040838503121561059657600080fd5b60006105a48582860161050a565b92505060206105b58582860161050a565b9150509250929050565b6105c8816107d1565b82525050565b60006105d9826107a1565b8084526020840193506105eb83610787565b60005b8281101561061d57610601868351610684565b61060a826107b7565b91506040860195506001810190506105ee565b50849250505092915050565b6000610634826107ac565b80845260208401935061064683610794565b60005b828110156106785761065c8683516106b3565b610665826107c4565b9150604086019550600181019050610649565b50849250505092915050565b60408201600082015161069a60008501826105bf565b5060208201516106ad60208501826106e2565b50505050565b6040820160008201516106c960008501826106e2565b5060208201516106dc60208501826106e2565b50505050565b6106eb81610803565b82525050565b600060408201905061070660008301856105bf565b61071360208301846106e2565b9392505050565b6000602082019050818103600083015261073481846105ce565b905092915050565b600060208201905081810360008301526107568184610629565b905092915050565b600060408201905061077360008301856106e2565b61078060208301846106e2565b9392505050565b6000602082019050919050565b6000602082019050919050565b600081519050919050565b600081519050919050565b6000602082019050919050565b6000602082019050919050565b60006107dc826107e3565b9050919050565b600073ffffffffffffffffffffffffffffffffffffffff82169050919050565b6000819050919050565b6000610818826107e3565b9050919050565b600081905091905056fea265627a7a7230582085964be06c552daefd64afeb36f13f10ce23a40b6cce610444eb4abe884b899e6c6578706572696d656e74616cf50037",
  "source": "pragma experimental ABIEncoderV2;\n\nimport \"./AuctionProcess.sol\";\n\ncontract Bidding{\n\n    // event;\n    event NewBid(uint patentId, string name);\n\n    struct AddressPrice{\n        address bidderAddress;\n        uint bidPrice;\n    }\n\n    struct BidPrice{\n        uint auctionId;\n        uint bidPrice;\n    }\n\n    mapping(address => BidPrice[]) public userBidMap;\n    mapping(uint => AddressPrice[]) public auctionToBidersMap;\n\n    function addBid(uint auctionId, uint bidAmount) public {\n\n        // @ TODO :\n        /**\n        In this portion we have to add the require function the checks whether the time at which bidders is trying to bid is it less than the time for the auction or not ! */\n\n        userBidMap[msg.sender].push(BidPrice(auctionId, bidAmount));\n        auctionToBidersMap[auctionId].push(AddressPrice(msg.sender, bidAmount));\n    }\n\n    // returns all bids filed for a particular auctionID\n    function allBids(uint auctionId) public view returns (AddressPrice[] memory){\n        return auctionToBidersMap[auctionId];\n    }\n\n    // By a person who is biding for multiple IPs\n    function getMyBids() public view returns (BidPrice[] memory){\n        return userBidMap[msg.sender];\n    }   \n}",
  "sourcePath": "/home/abhijeet/work/Blockchain/patent_bidding_transfer/patent-backend/contracts/Bidding.sol",
  "compiler": {
    "name": "solc",
    "version": "0.5.0+commit.1d4f565a.Emscripten.clang"
  },
  "schemaVersion": "3.0.1",
  "updatedAt": "2019-02-07T07:38:24.784Z",
  "devdoc": {
    "methods": {}
  },
  "userdoc": {
    "methods": {}
  }
}