{
  "contractName": "PatentManager",
  "abi": [
    {
      "constant": true,
      "inputs": [
        {
          "name": "",
          "type": "uint256"
        }
      ],
      "name": "patentNameMap",
      "outputs": [
        {
          "name": "",
          "type": "string"
        }
      ],
      "payable": false,
      "stateMutability": "view",
      "type": "function"
    },
    {
      "constant": true,
      "inputs": [
        {
          "name": "",
          "type": "uint256"
        },
        {
          "name": "",
          "type": "uint256"
        }
      ],
      "name": "patentOwnerMap",
      "outputs": [
        {
          "name": "",
          "type": "address"
        }
      ],
      "payable": false,
      "stateMutability": "view",
      "type": "function"
    },
    {
      "constant": false,
      "inputs": [
        {
          "name": "owners",
          "type": "address[]"
        },
        {
          "name": "lisenceHolders",
          "type": "address[]"
        },
        {
          "name": "patentName",
          "type": "string"
        },
        {
          "name": "issueDate",
          "type": "string"
        },
        {
          "name": "patentType",
          "type": "string"
        }
      ],
      "name": "registerPatent",
      "outputs": [
        {
          "name": "",
          "type": "uint256"
        }
      ],
      "payable": false,
      "stateMutability": "nonpayable",
      "type": "function"
    },
    {
      "constant": false,
      "inputs": [
        {
          "name": "patentId",
          "type": "uint256"
        },
        {
          "name": "person",
          "type": "address"
        }
      ],
      "name": "addOwner",
      "outputs": [],
      "payable": false,
      "stateMutability": "nonpayable",
      "type": "function"
    },
    {
      "constant": false,
      "inputs": [
        {
          "name": "patentId",
          "type": "uint256"
        },
        {
          "name": "person",
          "type": "address"
        }
      ],
      "name": "addLisenceHolder",
      "outputs": [],
      "payable": false,
      "stateMutability": "nonpayable",
      "type": "function"
    },
    {
      "constant": false,
      "inputs": [
        {
          "name": "patentid",
          "type": "uint256"
        },
        {
          "name": "receiver",
          "type": "address"
        }
      ],
      "name": "transferPatent",
      "outputs": [],
      "payable": false,
      "stateMutability": "nonpayable",
      "type": "function"
    },
    {
      "constant": true,
      "inputs": [
        {
          "name": "patentId",
          "type": "uint256"
        }
      ],
      "name": "getPatents",
      "outputs": [
        {
          "components": [
            {
              "name": "owners",
              "type": "address[]"
            },
            {
              "name": "lisenceHolders",
              "type": "address[]"
            },
            {
              "name": "patentName",
              "type": "string"
            },
            {
              "name": "patentType",
              "type": "string"
            },
            {
              "name": "issueDate",
              "type": "string"
            }
          ],
          "name": "",
          "type": "tuple"
        }
      ],
      "payable": false,
      "stateMutability": "view",
      "type": "function"
    },
    {
      "constant": true,
      "inputs": [
        {
          "name": "patentId",
          "type": "uint256"
        }
      ],
      "name": "getOwnerList",
      "outputs": [
        {
          "name": "",
          "type": "address[]"
        }
      ],
      "payable": false,
      "stateMutability": "view",
      "type": "function"
    },
    {
      "constant": true,
      "inputs": [
        {
          "name": "patentId",
          "type": "uint256"
        }
      ],
      "name": "getPatentName",
      "outputs": [
        {
          "name": "",
          "type": "string"
        }
      ],
      "payable": false,
      "stateMutability": "view",
      "type": "function"
    }
  ],
  "bytecode": "0x608060405234801561001057600080fd5b506115c2806100206000396000f3fe608060405260043610610099576000357c0100000000000000000000000000000000000000000000000000000000900463ffffffff16806305c1ba221461009e578063087344d3146100db57806325700466146101185780636dba911d14610141578063813d2ed01461017e5780638cd1bb20146101bb5780638dd95e99146101e4578063be90b05414610221578063d510bbd71461025e575b600080fd5b3480156100aa57600080fd5b506100c560048036036100c091908101906110aa565b610287565b6040516100d29190611369565b60405180910390f35b3480156100e757600080fd5b5061010260048036036100fd91908101906110aa565b610337565b60405161010f919061138b565b60405180910390f35b34801561012457600080fd5b5061013f600480360361013a91908101906110d3565b6103ec565b005b34801561014d57600080fd5b50610168600480360361016391908101906110aa565b610474565b60405161017591906113ad565b60405180910390f35b34801561018a57600080fd5b506101a560048036036101a09190810190610fbb565b6107ae565b6040516101b291906113cf565b60405180910390f35b3480156101c757600080fd5b506101e260048036036101dd91908101906110d3565b61090a565b005b3480156101f057600080fd5b5061020b600480360361020691908101906110aa565b610992565b6040516102189190611347565b60405180910390f35b34801561022d57600080fd5b506102486004803603610243919081019061110f565b610a33565b604051610255919061132c565b60405180910390f35b34801561026a57600080fd5b50610285600480360361028091908101906110d3565b610a80565b005b60026020528060005260406000206000915090508054600181600116156101000203166002900480601f01602080910402602001604051908101604052809291908181526020018280546001816001161561010002031660029004801561032f5780601f106103045761010080835404028352916020019161032f565b820191906000526020600020905b81548152906001019060200180831161031257829003601f168201915b505050505081565b6060600260008381526020019081526020016000208054600181600116156101000203166002900480601f0160208091040260200160405190810160405280929190818152602001828054600181600116156101000203166002900480156103e05780601f106103b5576101008083540402835291602001916103e0565b820191906000526020600020905b8154815290600101906020018083116103c357829003601f168201915b50505050509050919050565b6000828154811015156103fb57fe5b90600052602060002090600502016001018190806001815401808255809150509060018203906000526020600020016000909192909190916101000a81548173ffffffffffffffffffffffffffffffffffffffff021916908373ffffffffffffffffffffffffffffffffffffffff160217905550505050565b61047c610bc9565b60008281548110151561048b57fe5b906000526020600020906005020160a060405190810160405290816000820180548060200260200160405190810160405280929190818152602001828054801561052a57602002820191906000526020600020905b8160009054906101000a900473ffffffffffffffffffffffffffffffffffffffff1673ffffffffffffffffffffffffffffffffffffffff16815260200190600101908083116104e0575b50505050508152602001600182018054806020026020016040519081016040528092919081815260200182805480156105b857602002820191906000526020600020905b8160009054906101000a900473ffffffffffffffffffffffffffffffffffffffff1673ffffffffffffffffffffffffffffffffffffffff168152602001906001019080831161056e575b50505050508152602001600282018054600181600116156101000203166002900480601f01602080910402602001604051908101604052809291908181526020018280546001816001161561010002031660029004801561065a5780601f1061062f5761010080835404028352916020019161065a565b820191906000526020600020905b81548152906001019060200180831161063d57829003601f168201915b50505050508152602001600382018054600181600116156101000203166002900480601f0160208091040260200160405190810160405280929190818152602001828054600181600116156101000203166002900480156106fc5780601f106106d1576101008083540402835291602001916106fc565b820191906000526020600020905b8154815290600101906020018083116106df57829003601f168201915b50505050508152602001600482018054600181600116156101000203166002900480601f01602080910402602001604051908101604052809291908181526020018280546001816001161561010002031660029004801561079e5780601f106107735761010080835404028352916020019161079e565b820191906000526020600020905b81548152906001019060200180831161078157829003601f168201915b5050505050815250509050919050565b60008060a06040519081016040528088815260200187815260200186815260200184815260200185815250908060018154018082558091505090600182039060005260206000209060050201600090919290919091506000820151816000019080519060200190610820929190610bf9565b50602082015181600101908051906020019061083d929190610bf9565b50604082015181600201908051906020019061085a929190610c83565b506060820151816003019080519060200190610877929190610c83565b506080820151816004019080519060200190610894929190610c83565b5050505060006001600080549050039050866001600083815260200190815260200160002090805190602001906108cc929190610d03565b50846002600083815260200190815260200160002090805190602001906108f4929190610d8d565b5060016000805490500391505095945050505050565b60008281548110151561091957fe5b90600052602060002090600502016000018190806001815401808255809150509060018203906000526020600020016000909192909190916101000a81548173ffffffffffffffffffffffffffffffffffffffff021916908373ffffffffffffffffffffffffffffffffffffffff160217905550505050565b606060016000838152602001908152602001600020805480602002602001604051908101604052809291908181526020018280548015610a2757602002820191906000526020600020905b8160009054906101000a900473ffffffffffffffffffffffffffffffffffffffff1673ffffffffffffffffffffffffffffffffffffffff16815260200190600101908083116109dd575b50505050509050919050565b600160205281600052604060002081815481101515610a4e57fe5b906000526020600020016000915091509054906101000a900473ffffffffffffffffffffffffffffffffffffffff1681565b60008090505b600083815481101515610a9557fe5b906000526020600020906005020160000180549050811015610bc4573373ffffffffffffffffffffffffffffffffffffffff16600084815481101515610ad757fe5b906000526020600020906005020160000182815481101515610af557fe5b9060005260206000200160009054906101000a900473ffffffffffffffffffffffffffffffffffffffff1673ffffffffffffffffffffffffffffffffffffffff161415610bb75781600084815481101515610b4c57fe5b906000526020600020906005020160000182815481101515610b6a57fe5b9060005260206000200160006101000a81548173ffffffffffffffffffffffffffffffffffffffff021916908373ffffffffffffffffffffffffffffffffffffffff160217905550610bc4565b8080600101915050610a86565b505050565b60a06040519081016040528060608152602001606081526020016060815260200160608152602001606081525090565b828054828255906000526020600020908101928215610c72579160200282015b82811115610c715782518260006101000a81548173ffffffffffffffffffffffffffffffffffffffff021916908373ffffffffffffffffffffffffffffffffffffffff16021790555091602001919060010190610c19565b5b509050610c7f9190610e0d565b5090565b828054600181600116156101000203166002900490600052602060002090601f016020900481019282601f10610cc457805160ff1916838001178555610cf2565b82800160010185558215610cf2579182015b82811115610cf1578251825591602001919060010190610cd6565b5b509050610cff9190610e50565b5090565b828054828255906000526020600020908101928215610d7c579160200282015b82811115610d7b5782518260006101000a81548173ffffffffffffffffffffffffffffffffffffffff021916908373ffffffffffffffffffffffffffffffffffffffff16021790555091602001919060010190610d23565b5b509050610d899190610e75565b5090565b828054600181600116156101000203166002900490600052602060002090601f016020900481019282601f10610dce57805160ff1916838001178555610dfc565b82800160010185558215610dfc579182015b82811115610dfb578251825591602001919060010190610de0565b5b509050610e099190610e50565b5090565b610e4d91905b80821115610e4957600081816101000a81549073ffffffffffffffffffffffffffffffffffffffff021916905550600101610e13565b5090565b90565b610e7291905b80821115610e6e576000816000905550600101610e56565b5090565b90565b610eb591905b80821115610eb157600081816101000a81549073ffffffffffffffffffffffffffffffffffffffff021916905550600101610e7b565b5090565b90565b6000610ec48235611519565b905092915050565b600082601f8301121515610edf57600080fd5b8135610ef2610eed82611417565b6113ea565b91508181835260208401935060208101905083856020840282011115610f1757600080fd5b60005b83811015610f475781610f2d8882610eb8565b845260208401935060208301925050600181019050610f1a565b5050505092915050565b600082601f8301121515610f6457600080fd5b8135610f77610f728261143f565b6113ea565b91508082526020830160208301858383011115610f9357600080fd5b610f9e838284611535565b50505092915050565b6000610fb3823561152b565b905092915050565b600080600080600060a08688031215610fd357600080fd5b600086013567ffffffffffffffff811115610fed57600080fd5b610ff988828901610ecc565b955050602086013567ffffffffffffffff81111561101657600080fd5b61102288828901610ecc565b945050604086013567ffffffffffffffff81111561103f57600080fd5b61104b88828901610f51565b935050606086013567ffffffffffffffff81111561106857600080fd5b61107488828901610f51565b925050608086013567ffffffffffffffff81111561109157600080fd5b61109d88828901610f51565b9150509295509295909350565b6000602082840312156110bc57600080fd5b60006110ca84828501610fa7565b91505092915050565b600080604083850312156110e657600080fd5b60006110f485828601610fa7565b925050602061110585828601610eb8565b9150509250929050565b6000806040838503121561112257600080fd5b600061113085828601610fa7565b925050602061114185828601610fa7565b9150509250929050565b611154816114dd565b82525050565b611163816114cb565b82525050565b600061117482611485565b8084526020840193506111868361146b565b60005b828110156111b85761119c86835161115a565b6111a5826114b1565b9150602086019550600181019050611189565b50849250505092915050565b60006111cf82611490565b8084526020840193506111e183611478565b60005b82811015611213576111f786835161114b565b611200826114be565b91506020860195506001810190506111e4565b50849250505092915050565b600061122a826114a6565b80845261123e816020860160208601611544565b61124781611577565b602085010191505092915050565b60006112608261149b565b808452611274816020860160208601611544565b61127d81611577565b602085010191505092915050565b600060a08301600083015184820360008601526112a882826111c4565b915050602083015184820360208601526112c282826111c4565b915050604083015184820360408601526112dc8282611255565b915050606083015184820360608601526112f68282611255565b915050608083015184820360808601526113108282611255565b9150508091505092915050565b6113268161150f565b82525050565b6000602082019050611341600083018461115a565b92915050565b600060208201905081810360008301526113618184611169565b905092915050565b600060208201905081810360008301526113838184611255565b905092915050565b600060208201905081810360008301526113a5818461121f565b905092915050565b600060208201905081810360008301526113c7818461128b565b905092915050565b60006020820190506113e4600083018461131d565b92915050565b6000604051905081810181811067ffffffffffffffff8211171561140d57600080fd5b8060405250919050565b600067ffffffffffffffff82111561142e57600080fd5b602082029050602081019050919050565b600067ffffffffffffffff82111561145657600080fd5b601f19601f8301169050602081019050919050565b6000602082019050919050565b6000602082019050919050565b600081519050919050565b600081519050919050565b600081519050919050565b600081519050919050565b6000602082019050919050565b6000602082019050919050565b60006114d6826114ef565b9050919050565b60006114e8826114ef565b9050919050565b600073ffffffffffffffffffffffffffffffffffffffff82169050919050565b6000819050919050565b6000611524826114ef565b9050919050565b6000819050919050565b82818337600083830152505050565b60005b83811015611562578082015181840152602081019050611547565b83811115611571576000848401525b50505050565b6000601f19601f830116905091905056fea265627a7a723058203acf5a518991a24fb44ce0c6df3167a16ed83ac92571d26f292e271607a5937e6c6578706572696d656e74616cf50037",
  "source": "pragma experimental ABIEncoderV2;\n\ncontract PatentManager {\n\n    struct Patent {\n        address payable[] owners;\n        address payable[] lisenceHolders;\n        string patentName;\n        string patentType;\n        string issueDate;\n    }\n\n    Patent[] private patents;\n\n    mapping(uint => address[]) public patentOwnerMap;\n    \n    //store name of the patent for a particular patentId\n    mapping(uint => string) public patentNameMap;\n\n    function registerPatent(address payable[] memory owners, address payable[] memory lisenceHolders, string memory patentName, string memory issueDate, string memory patentType) public returns (uint) {\n        patents.push(Patent(owners, lisenceHolders, patentName, patentType, issueDate));\n        uint patentId = patents.length-1;\n        patentOwnerMap[patentId] = owners;\n        patentNameMap[patentId] = patentName;\n        return (patents.length-1);\n    }\n\n    function addOwner(uint patentId, address payable person) public {\n        patents[patentId].owners.push(person);\n    }\n\n    function addLisenceHolder(uint patentId, address payable person) public {\n        patents[patentId].lisenceHolders.push(person);\n    }\n    \n    function transferPatent(uint patentid, address payable receiver) public {\n        for (uint i = 0; i < patents[patentid].owners.length; i++) {\n            if (patents[patentid].owners[i]==msg.sender) {\n                patents[patentid].owners[i]=receiver;\n                break;\n            }\n        }\n    }\n\n    function getPatents(uint patentId) public view returns (Patent memory) {\n        return (patents[patentId]);\n    }\n\n    function getOwnerList(uint patentId) public view returns (address[] memory){\n        return (patentOwnerMap[patentId]);\n    }\n\n    function getPatentName(uint patentId) public view returns (string memory){\n        return (patentNameMap[patentId]);\n    }\n}\n\n",
  "sourcePath": "/home/abhijeet/work/Blockchain/patent_bidding_transfer/patent-backend/contracts/PatentManager.sol",
  "compiler": {
    "name": "solc",
    "version": "0.5.0+commit.1d4f565a.Emscripten.clang"
  },
  "schemaVersion": "3.0.1",
  "updatedAt": "2019-02-07T07:41:50.986Z",
  "devdoc": {
    "methods": {}
  },
  "userdoc": {
    "methods": {}
  }
}