{
  "contractName": "PatentManager",
  "abi": [
    {
      "constant": true,
      "inputs": [
        {
          "name": "",
          "type": "uint256"
        }
      ],
      "name": "patentNameMap",
      "outputs": [
        {
          "name": "",
          "type": "string"
        }
      ],
      "payable": false,
      "stateMutability": "view",
      "type": "function"
    },
    {
      "constant": true,
      "inputs": [
        {
          "name": "",
          "type": "address"
        },
        {
          "name": "",
          "type": "uint256"
        }
      ],
      "name": "ownerPatentsMap",
      "outputs": [
        {
          "name": "patentName",
          "type": "string"
        },
        {
          "name": "patentType",
          "type": "string"
        },
        {
          "name": "issueDate",
          "type": "string"
        },
        {
          "name": "patentId",
          "type": "uint256"
        }
      ],
      "payable": false,
      "stateMutability": "view",
      "type": "function"
    },
    {
      "constant": true,
      "inputs": [
        {
          "name": "",
          "type": "uint256"
        },
        {
          "name": "",
          "type": "uint256"
        }
      ],
      "name": "patentOwnerMap",
      "outputs": [
        {
          "name": "",
          "type": "address"
        }
      ],
      "payable": false,
      "stateMutability": "view",
      "type": "function"
    },
    {
      "constant": false,
      "inputs": [
        {
          "name": "owners",
          "type": "address[]"
        },
        {
          "name": "lisenceHolders",
          "type": "address[]"
        },
        {
          "name": "patentName",
          "type": "string"
        },
        {
          "name": "issueDate",
          "type": "string"
        },
        {
          "name": "patentType",
          "type": "string"
        }
      ],
      "name": "registerPatent",
      "outputs": [
        {
          "name": "",
          "type": "uint256"
        }
      ],
      "payable": false,
      "stateMutability": "nonpayable",
      "type": "function"
    },
    {
      "constant": false,
      "inputs": [
        {
          "name": "patentId",
          "type": "uint256"
        },
        {
          "name": "person",
          "type": "address"
        }
      ],
      "name": "addOwner",
      "outputs": [],
      "payable": false,
      "stateMutability": "nonpayable",
      "type": "function"
    },
    {
      "constant": false,
      "inputs": [
        {
          "name": "patentId",
          "type": "uint256"
        },
        {
          "name": "person",
          "type": "address"
        }
      ],
      "name": "addLisenceHolder",
      "outputs": [],
      "payable": false,
      "stateMutability": "nonpayable",
      "type": "function"
    },
    {
      "constant": false,
      "inputs": [
        {
          "name": "patentId",
          "type": "uint256"
        },
        {
          "name": "receiver",
          "type": "address"
        }
      ],
      "name": "transferPatent",
      "outputs": [],
      "payable": false,
      "stateMutability": "nonpayable",
      "type": "function"
    },
    {
      "constant": true,
      "inputs": [
        {
          "name": "patentId",
          "type": "uint256"
        }
      ],
      "name": "getPatent",
      "outputs": [
        {
          "components": [
            {
              "name": "owners",
              "type": "address[]"
            },
            {
              "name": "lisenceHolders",
              "type": "address[]"
            },
            {
              "name": "patentName",
              "type": "string"
            },
            {
              "name": "patentType",
              "type": "string"
            },
            {
              "name": "issueDate",
              "type": "string"
            },
            {
              "name": "patentId",
              "type": "uint256"
            }
          ],
          "name": "",
          "type": "tuple"
        }
      ],
      "payable": false,
      "stateMutability": "view",
      "type": "function"
    },
    {
      "constant": true,
      "inputs": [
        {
          "name": "patentId",
          "type": "uint256"
        }
      ],
      "name": "getOwnerList",
      "outputs": [
        {
          "name": "",
          "type": "address[]"
        }
      ],
      "payable": false,
      "stateMutability": "view",
      "type": "function"
    },
    {
      "constant": true,
      "inputs": [
        {
          "name": "patentId",
          "type": "uint256"
        }
      ],
      "name": "getPatentName",
      "outputs": [
        {
          "name": "",
          "type": "string"
        }
      ],
      "payable": false,
      "stateMutability": "view",
      "type": "function"
    },
    {
      "constant": true,
      "inputs": [
        {
          "name": "patentId",
          "type": "uint256"
        }
      ],
      "name": "getPatentType",
      "outputs": [
        {
          "name": "",
          "type": "string"
        }
      ],
      "payable": false,
      "stateMutability": "view",
      "type": "function"
    },
    {
      "constant": true,
      "inputs": [
        {
          "name": "owner",
          "type": "address"
        }
      ],
      "name": "getPatentsByOwner",
      "outputs": [
        {
          "components": [
            {
              "name": "owners",
              "type": "address[]"
            },
            {
              "name": "lisenceHolders",
              "type": "address[]"
            },
            {
              "name": "patentName",
              "type": "string"
            },
            {
              "name": "patentType",
              "type": "string"
            },
            {
              "name": "issueDate",
              "type": "string"
            },
            {
              "name": "patentId",
              "type": "uint256"
            }
          ],
          "name": "",
          "type": "tuple[]"
        }
      ],
      "payable": false,
      "stateMutability": "view",
      "type": "function"
    }
  ],
  "bytecode": "0x608060405234801561001057600080fd5b506126a9806100206000396000f3fe6080604052600436106100ba576000357c0100000000000000000000000000000000000000000000000000000000900463ffffffff16806305c1ba22146100bf578063087344d3146100fc5780631a24177514610139578063257004661461017657806346e5e8e21461019f578063813d2ed0146101df5780638cd1bb201461021c5780638dd95e99146102455780639c6d0d7814610282578063be90b054146102bf578063d510bbd7146102fc578063fc8f39f514610325575b600080fd5b3480156100cb57600080fd5b506100e660048036036100e19190810190611fb8565b610362565b6040516100f391906123bf565b60405180910390f35b34801561010857600080fd5b50610123600480360361011e9190810190611fb8565b610412565b60405161013091906123e1565b60405180910390f35b34801561014557600080fd5b50610160600480360361015b9190810190611fb8565b6104c7565b60405161016d91906123e1565b60405180910390f35b34801561018257600080fd5b5061019d60048036036101989190810190611fe1565b610589565b005b3480156101ab57600080fd5b506101c660048036036101c19190810190611e8d565b610611565b6040516101d69493929190612403565b60405180910390f35b3480156101eb57600080fd5b5061020660048036036102019190810190611ec9565b610825565b604051610213919061247f565b60405180910390f35b34801561022857600080fd5b50610243600480360361023e9190810190611fe1565b610af4565b005b34801561025157600080fd5b5061026c60048036036102679190810190611fb8565b610cb6565b604051610279919061237b565b60405180910390f35b34801561028e57600080fd5b506102a960048036036102a49190810190611fb8565b610d57565b6040516102b6919061245d565b60405180910390f35b3480156102cb57600080fd5b506102e660048036036102e1919081019061201d565b61109b565b6040516102f39190612360565b60405180910390f35b34801561030857600080fd5b50610323600480360361031e9190810190611fe1565b6110e8565b005b34801561033157600080fd5b5061034c60048036036103479190810190611e64565b61156a565b604051610359919061239d565b60405180910390f35b60026020528060005260406000206000915090508054600181600116156101000203166002900480601f01602080910402602001604051908101604052809291908181526020018280546001816001161561010002031660029004801561040a5780601f106103df5761010080835404028352916020019161040a565b820191906000526020600020905b8154815290600101906020018083116103ed57829003601f168201915b505050505081565b6060600260008381526020019081526020016000208054600181600116156101000203166002900480601f0160208091040260200160405190810160405280929190818152602001828054600181600116156101000203166002900480156104bb5780601f10610490576101008083540402835291602001916104bb565b820191906000526020600020905b81548152906001019060200180831161049e57829003601f168201915b50505050509050919050565b60606000828154811015156104d857fe5b90600052602060002090600602016003018054600181600116156101000203166002900480601f01602080910402602001604051908101604052809291908181526020018280546001816001161561010002031660029004801561057d5780601f106105525761010080835404028352916020019161057d565b820191906000526020600020905b81548152906001019060200180831161056057829003601f168201915b50505050509050919050565b60008281548110151561059857fe5b90600052602060002090600602016001018190806001815401808255809150509060018203906000526020600020016000909192909190916101000a81548173ffffffffffffffffffffffffffffffffffffffff021916908373ffffffffffffffffffffffffffffffffffffffff160217905550505050565b60036020528160005260406000208181548110151561062c57fe5b906000526020600020906006020160009150915050806002018054600181600116156101000203166002900480601f0160208091040260200160405190810160405280929190818152602001828054600181600116156101000203166002900480156106d95780601f106106ae576101008083540402835291602001916106d9565b820191906000526020600020905b8154815290600101906020018083116106bc57829003601f168201915b505050505090806003018054600181600116156101000203166002900480601f0160208091040260200160405190810160405280929190818152602001828054600181600116156101000203166002900480156107775780601f1061074c57610100808354040283529160200191610777565b820191906000526020600020905b81548152906001019060200180831161075a57829003601f168201915b505050505090806004018054600181600116156101000203166002900480601f0160208091040260200160405190810160405280929190818152602001828054600181600116156101000203166002900480156108155780601f106107ea57610100808354040283529160200191610815565b820191906000526020600020905b8154815290600101906020018083116107f857829003601f168201915b5050505050908060050154905084565b6000806000805490509050600060c060405190810160405280898152602001888152602001878152602001858152602001868152602001838152509080600181540180825580915050906001820390600052602060002090600602016000909192909190915060008201518160000190805190602001906108a7929190611915565b5060208201518160010190805190602001906108c4929190611915565b5060408201518160020190805190602001906108e192919061199f565b5060608201518160030190805190602001906108fe92919061199f565b50608082015181600401908051906020019061091b92919061199f565b5060a0820151816005015550505086600160008381526020019081526020016000209080519060200190610950929190611a1f565b5084600260008381526020019081526020016000209080519060200190610978929190611aa9565b5060008090505b8751811015610ae65760036000898381518110151561099a57fe5b9060200190602002015173ffffffffffffffffffffffffffffffffffffffff1673ffffffffffffffffffffffffffffffffffffffff1681526020019081526020016000206000838154811015156109ed57fe5b9060005260206000209060060201908060018154018082558091505090600182039060005260206000209060060201600090919290919091506000820181600001908054610a3c929190611b29565b506001820181600101908054610a53929190611b29565b5060028201816002019080546001816001161561010002031660029004610a7b929190611b7b565b5060038201816003019080546001816001161561010002031660029004610aa3929190611b7b565b5060048201816004019080546001816001161561010002031660029004610acb929190611b7b565b5060058201548160050155505050808060010191505061097f565b508091505095945050505050565b600082815481101515610b0357fe5b90600052602060002090600602016000018190806001815401808255809150509060018203906000526020600020016000909192909190916101000a81548173ffffffffffffffffffffffffffffffffffffffff021916908373ffffffffffffffffffffffffffffffffffffffff16021790555050600360008273ffffffffffffffffffffffffffffffffffffffff1673ffffffffffffffffffffffffffffffffffffffff168152602001908152602001600020600083815481101515610bc657fe5b9060005260206000209060060201908060018154018082558091505090600182039060005260206000209060060201600090919290919091506000820181600001908054610c15929190611b29565b506001820181600101908054610c2c929190611b29565b5060028201816002019080546001816001161561010002031660029004610c54929190611b7b565b5060038201816003019080546001816001161561010002031660029004610c7c929190611b7b565b5060048201816004019080546001816001161561010002031660029004610ca4929190611b7b565b50600582015481600501555050505050565b606060016000838152602001908152602001600020805480602002602001604051908101604052809291908181526020018280548015610d4b57602002820191906000526020600020905b8160009054906101000a900473ffffffffffffffffffffffffffffffffffffffff1673ffffffffffffffffffffffffffffffffffffffff1681526020019060010190808311610d01575b50505050509050919050565b610d5f611c02565b600082815481101515610d6e57fe5b906000526020600020906006020160c0604051908101604052908160008201805480602002602001604051908101604052809291908181526020018280548015610e0d57602002820191906000526020600020905b8160009054906101000a900473ffffffffffffffffffffffffffffffffffffffff1673ffffffffffffffffffffffffffffffffffffffff1681526020019060010190808311610dc3575b5050505050815260200160018201805480602002602001604051908101604052809291908181526020018280548015610e9b57602002820191906000526020600020905b8160009054906101000a900473ffffffffffffffffffffffffffffffffffffffff1673ffffffffffffffffffffffffffffffffffffffff1681526020019060010190808311610e51575b50505050508152602001600282018054600181600116156101000203166002900480601f016020809104026020016040519081016040528092919081815260200182805460018160011615610100020316600290048015610f3d5780601f10610f1257610100808354040283529160200191610f3d565b820191906000526020600020905b815481529060010190602001808311610f2057829003601f168201915b50505050508152602001600382018054600181600116156101000203166002900480601f016020809104026020016040519081016040528092919081815260200182805460018160011615610100020316600290048015610fdf5780601f10610fb457610100808354040283529160200191610fdf565b820191906000526020600020905b815481529060010190602001808311610fc257829003601f168201915b50505050508152602001600482018054600181600116156101000203166002900480601f0160208091040260200160405190810160405280929190818152602001828054600181600116156101000203166002900480156110815780601f1061105657610100808354040283529160200191611081565b820191906000526020600020905b81548152906001019060200180831161106457829003601f168201915b505050505081526020016005820154815250509050919050565b6001602052816000526040600020818154811015156110b657fe5b906000526020600020016000915091509054906101000a900473ffffffffffffffffffffffffffffffffffffffff1681565b60008090505b6000838154811015156110fd57fe5b90600052602060002090600602016000018054905081101561122c573373ffffffffffffffffffffffffffffffffffffffff1660008481548110151561113f57fe5b90600052602060002090600602016000018281548110151561115d57fe5b9060005260206000200160009054906101000a900473ffffffffffffffffffffffffffffffffffffffff1673ffffffffffffffffffffffffffffffffffffffff16141561121f57816000848154811015156111b457fe5b9060005260206000209060060201600001828154811015156111d257fe5b9060005260206000200160006101000a81548173ffffffffffffffffffffffffffffffffffffffff021916908373ffffffffffffffffffffffffffffffffffffffff16021790555061122c565b80806001019150506110ee565b5060008090505b600360003373ffffffffffffffffffffffffffffffffffffffff1673ffffffffffffffffffffffffffffffffffffffff1681526020019081526020016000208054905081101561156557600080905083600360003373ffffffffffffffffffffffffffffffffffffffff1673ffffffffffffffffffffffffffffffffffffffff168152602001908152602001600020838154811015156112cf57fe5b90600052602060002090600602016005015414156112f05781905050611565565b60006001600360003373ffffffffffffffffffffffffffffffffffffffff1673ffffffffffffffffffffffffffffffffffffffff16815260200190815260200160002080549050039050600360003373ffffffffffffffffffffffffffffffffffffffff1673ffffffffffffffffffffffffffffffffffffffff1681526020019081526020016000208181548110151561138657fe5b9060005260206000209060060201600360003373ffffffffffffffffffffffffffffffffffffffff1673ffffffffffffffffffffffffffffffffffffffff168152602001908152602001600020838154811015156113e057fe5b90600052602060002090600602016000820181600001908054611404929190611b29565b50600182018160010190805461141b929190611b29565b5060028201816002019080546001816001161561010002031660029004611443929190611b7b565b506003820181600301908054600181600116156101000203166002900461146b929190611b7b565b5060048201816004019080546001816001161561010002031660029004611493929190611b7b565b5060058201548160050155905050600360003373ffffffffffffffffffffffffffffffffffffffff1673ffffffffffffffffffffffffffffffffffffffff168152602001908152602001600020818154811015156114ed57fe5b90600052602060002090600602016000808201600061150c9190611c39565b60018201600061151c9190611c39565b60028201600061152c9190611c5a565b60038201600061153c9190611c5a565b60048201600061154c9190611c5a565b6005820160009055505050508080600101915050611233565b505050565b6060600360008373ffffffffffffffffffffffffffffffffffffffff1673ffffffffffffffffffffffffffffffffffffffff168152602001908152602001600020805480602002602001604051908101604052809291908181526020016000905b8282101561190a578382906000526020600020906006020160c060405190810160405290816000820180548060200260200160405190810160405280929190818152602001828054801561167457602002820191906000526020600020905b8160009054906101000a900473ffffffffffffffffffffffffffffffffffffffff1673ffffffffffffffffffffffffffffffffffffffff168152602001906001019080831161162a575b505050505081526020016001820180548060200260200160405190810160405280929190818152602001828054801561170257602002820191906000526020600020905b8160009054906101000a900473ffffffffffffffffffffffffffffffffffffffff1673ffffffffffffffffffffffffffffffffffffffff16815260200190600101908083116116b8575b50505050508152602001600282018054600181600116156101000203166002900480601f0160208091040260200160405190810160405280929190818152602001828054600181600116156101000203166002900480156117a45780601f10611779576101008083540402835291602001916117a4565b820191906000526020600020905b81548152906001019060200180831161178757829003601f168201915b50505050508152602001600382018054600181600116156101000203166002900480601f0160208091040260200160405190810160405280929190818152602001828054600181600116156101000203166002900480156118465780601f1061181b57610100808354040283529160200191611846565b820191906000526020600020905b81548152906001019060200180831161182957829003601f168201915b50505050508152602001600482018054600181600116156101000203166002900480601f0160208091040260200160405190810160405280929190818152602001828054600181600116156101000203166002900480156118e85780601f106118bd576101008083540402835291602001916118e8565b820191906000526020600020905b8154815290600101906020018083116118cb57829003601f168201915b50505050508152602001600582015481525050815260200190600101906115cb565b505050509050919050565b82805482825590600052602060002090810192821561198e579160200282015b8281111561198d5782518260006101000a81548173ffffffffffffffffffffffffffffffffffffffff021916908373ffffffffffffffffffffffffffffffffffffffff16021790555091602001919060010190611935565b5b50905061199b9190611ca2565b5090565b828054600181600116156101000203166002900490600052602060002090601f016020900481019282601f106119e057805160ff1916838001178555611a0e565b82800160010185558215611a0e579182015b82811115611a0d5782518255916020019190600101906119f2565b5b509050611a1b9190611ce5565b5090565b828054828255906000526020600020908101928215611a98579160200282015b82811115611a975782518260006101000a81548173ffffffffffffffffffffffffffffffffffffffff021916908373ffffffffffffffffffffffffffffffffffffffff16021790555091602001919060010190611a3f565b5b509050611aa59190611d0a565b5090565b828054600181600116156101000203166002900490600052602060002090601f016020900481019282601f10611aea57805160ff1916838001178555611b18565b82800160010185558215611b18579182015b82811115611b17578251825591602001919060010190611afc565b5b509050611b259190611ce5565b5090565b828054828255906000526020600020908101928215611b6a5760005260206000209182015b82811115611b69578254825591600101919060010190611b4e565b5b509050611b779190611ca2565b5090565b828054600181600116156101000203166002900490600052602060002090601f016020900481019282601f10611bb45780548555611bf1565b82800160010185558215611bf157600052602060002091601f016020900482015b82811115611bf0578254825591600101919060010190611bd5565b5b509050611bfe9190611ce5565b5090565b60c0604051908101604052806060815260200160608152602001606081526020016060815260200160608152602001600081525090565b5080546000825590600052602060002090810190611c579190611ce5565b50565b50805460018160011615610100020316600290046000825580601f10611c805750611c9f565b601f016020900490600052602060002090810190611c9e9190611ce5565b5b50565b611ce291905b80821115611cde57600081816101000a81549073ffffffffffffffffffffffffffffffffffffffff021916905550600101611ca8565b5090565b90565b611d0791905b80821115611d03576000816000905550600101611ceb565b5090565b90565b611d4a91905b80821115611d4657600081816101000a81549073ffffffffffffffffffffffffffffffffffffffff021916905550600101611d10565b5090565b90565b6000611d5982356125ee565b905092915050565b6000611d6d8235612600565b905092915050565b600082601f8301121515611d8857600080fd5b8135611d9b611d96826124c7565b61249a565b91508181835260208401935060208101905083856020840282011115611dc057600080fd5b60005b83811015611df05781611dd68882611d61565b845260208401935060208301925050600181019050611dc3565b5050505092915050565b600082601f8301121515611e0d57600080fd5b8135611e20611e1b826124ef565b61249a565b91508082526020830160208301858383011115611e3c57600080fd5b611e4783828461261c565b50505092915050565b6000611e5c8235612612565b905092915050565b600060208284031215611e7657600080fd5b6000611e8484828501611d4d565b91505092915050565b60008060408385031215611ea057600080fd5b6000611eae85828601611d4d565b9250506020611ebf85828601611e50565b9150509250929050565b600080600080600060a08688031215611ee157600080fd5b600086013567ffffffffffffffff811115611efb57600080fd5b611f0788828901611d75565b955050602086013567ffffffffffffffff811115611f2457600080fd5b611f3088828901611d75565b945050604086013567ffffffffffffffff811115611f4d57600080fd5b611f5988828901611dfa565b935050606086013567ffffffffffffffff811115611f7657600080fd5b611f8288828901611dfa565b925050608086013567ffffffffffffffff811115611f9f57600080fd5b611fab88828901611dfa565b9150509295509295909350565b600060208284031215611fca57600080fd5b6000611fd884828501611e50565b91505092915050565b60008060408385031215611ff457600080fd5b600061200285828601611e50565b925050602061201385828601611d61565b9150509250929050565b6000806040838503121561203057600080fd5b600061203e85828601611e50565b925050602061204f85828601611e50565b9150509250929050565b612062816125b2565b82525050565b612071816125a0565b82525050565b600061208282612542565b8084526020840193506120948361251b565b60005b828110156120c6576120aa868351612068565b6120b382612579565b9150602086019550600181019050612097565b50849250505092915050565b60006120dd8261254d565b8084526020840193506120ef83612528565b60005b8281101561212157612105868351612059565b61210e82612586565b91506020860195506001810190506120f2565b50849250505092915050565b600061213882612558565b8084526020840193508360208202850161215185612535565b60005b8481101561218a57838303885261216c8383516122ac565b925061217782612593565b9150602088019750600181019050612154565b508196508694505050505092915050565b60006121a68261256e565b8084526121ba81602086016020860161262b565b6121c38161265e565b602085010191505092915050565b60006121dc82612563565b8084526121f081602086016020860161262b565b6121f98161265e565b602085010191505092915050565b600060c083016000830151848203600086015261222482826120d2565b9150506020830151848203602086015261223e82826120d2565b9150506040830151848203604086015261225882826121d1565b9150506060830151848203606086015261227282826121d1565b9150506080830151848203608086015261228c82826121d1565b91505060a08301516122a160a0860182612351565b508091505092915050565b600060c08301600083015184820360008601526122c982826120d2565b915050602083015184820360208601526122e382826120d2565b915050604083015184820360408601526122fd82826121d1565b9150506060830151848203606086015261231782826121d1565b9150506080830151848203608086015261233182826121d1565b91505060a083015161234660a0860182612351565b508091505092915050565b61235a816125e4565b82525050565b60006020820190506123756000830184612068565b92915050565b600060208201905081810360008301526123958184612077565b905092915050565b600060208201905081810360008301526123b7818461212d565b905092915050565b600060208201905081810360008301526123d981846121d1565b905092915050565b600060208201905081810360008301526123fb818461219b565b905092915050565b6000608082019050818103600083015261241d81876121d1565b9050818103602083015261243181866121d1565b9050818103604083015261244581856121d1565b90506124546060830184612351565b95945050505050565b600060208201905081810360008301526124778184612207565b905092915050565b60006020820190506124946000830184612351565b92915050565b6000604051905081810181811067ffffffffffffffff821117156124bd57600080fd5b8060405250919050565b600067ffffffffffffffff8211156124de57600080fd5b602082029050602081019050919050565b600067ffffffffffffffff82111561250657600080fd5b601f19601f8301169050602081019050919050565b6000602082019050919050565b6000602082019050919050565b6000602082019050919050565b600081519050919050565b600081519050919050565b600081519050919050565b600081519050919050565b600081519050919050565b6000602082019050919050565b6000602082019050919050565b6000602082019050919050565b60006125ab826125c4565b9050919050565b60006125bd826125c4565b9050919050565b600073ffffffffffffffffffffffffffffffffffffffff82169050919050565b6000819050919050565b60006125f9826125c4565b9050919050565b600061260b826125c4565b9050919050565b6000819050919050565b82818337600083830152505050565b60005b8381101561264957808201518184015260208101905061262e565b83811115612658576000848401525b50505050565b6000601f19601f830116905091905056fea265627a7a72305820a908db047367457b3a868e96c214bd7fda0c76ef0976153d43ada386f7f59ef06c6578706572696d656e74616cf50037",
  "source": "pragma experimental ABIEncoderV2;\n\ncontract PatentManager {\n\n    struct Patent {\n        address payable[] owners;\n        address payable[] lisenceHolders;\n        string patentName;\n        string patentType;\n        string issueDate;\n        uint patentId;\n    }\n\n    Patent[] private patents;\n\n    mapping(uint => address[]) public patentOwnerMap;\n    \n    //store name of the patent for a particular patentId\n    mapping(uint => string) public patentNameMap;\n\n    mapping(address => Patent[]) public ownerPatentsMap;\n\n    function registerPatent(address payable[] memory owners, address payable[] memory lisenceHolders, string memory patentName, string memory issueDate, string memory patentType) public returns (uint) {\n        uint patentId = patents.length;\n        patents.push(Patent(owners, lisenceHolders, patentName, patentType, issueDate, patentId));\n        patentOwnerMap[patentId] = owners;\n        patentNameMap[patentId] = patentName;\n        for (uint i = 0; i < owners.length; i++) {\n            ownerPatentsMap[owners[i]].push(patents[patentId]);\n        }\n        return patentId;\n    }\n\n    function addOwner(uint patentId, address payable person) public {\n        patents[patentId].owners.push(person);\n        ownerPatentsMap[person].push(patents[patentId]);\n    }\n\n    function addLisenceHolder(uint patentId, address payable person) public {\n        patents[patentId].lisenceHolders.push(person);\n    }\n    \n    function transferPatent(uint patentId, address payable receiver) public {\n        for (uint i = 0; i < patents[patentId].owners.length; i++) {\n            if (patents[patentId].owners[i]==msg.sender) {\n                patents[patentId].owners[i]=receiver;\n                break;\n            }\n        }\n\n        for (uint i = 0; i < ownerPatentsMap[msg.sender].length; i++) {\n            uint pos = 0;\n            if (ownerPatentsMap[msg.sender][i].patentId==patentId) {\n                pos = i;\n                break;\n            }\n            uint last = ownerPatentsMap[msg.sender].length - 1;\n            ownerPatentsMap[msg.sender][pos] = ownerPatentsMap[msg.sender][last];\n            delete ownerPatentsMap[msg.sender][last];\n        }\n    }\n\n    function getPatent(uint patentId) public view returns (Patent memory) {\n        return (patents[patentId]);\n    }\n\n    function getOwnerList(uint patentId) public view returns (address[] memory){\n        return (patentOwnerMap[patentId]);\n    }\n\n    function getPatentName(uint patentId) public view returns (string memory){\n        return (patentNameMap[patentId]);\n    }\n\n    function getPatentType(uint patentId) public view returns(string memory){\n        return patents[patentId].patentType;\n    }\n\n    function getPatentsByOwner(address owner) public view returns (Patent[] memory){\n        return ownerPatentsMap[owner];\n\n    }\n\n}",
  "sourcePath": "/home/abhijeet/work/Blockchain/patent_bidding_transfer/patent-backend/contracts/PatentManager.sol",
  "compiler": {
    "name": "solc",
    "version": "0.5.0+commit.1d4f565a.Emscripten.clang"
  },
  "schemaVersion": "3.0.1",
  "updatedAt": "2019-02-08T11:07:49.607Z",
  "devdoc": {
    "methods": {}
  },
  "userdoc": {
    "methods": {}
  }
}