{
  "contractName": "PatentManager",
  "abi": [
    {
      "constant": true,
      "inputs": [
        {
          "name": "",
          "type": "uint256"
        }
      ],
      "name": "patentNameMap",
      "outputs": [
        {
          "name": "",
          "type": "string"
        }
      ],
      "payable": false,
      "stateMutability": "view",
      "type": "function",
      "signature": "0x05c1ba22"
    },
    {
      "constant": true,
      "inputs": [
        {
          "name": "",
          "type": "address"
        },
        {
          "name": "",
          "type": "uint256"
        }
      ],
      "name": "ownerPatentsMap",
      "outputs": [
        {
          "name": "patentName",
          "type": "string"
        },
        {
          "name": "patentType",
          "type": "string"
        },
        {
          "name": "patentSubType",
          "type": "string"
        },
        {
          "name": "issueDate",
          "type": "string"
        },
        {
          "name": "patentId",
          "type": "uint256"
        }
      ],
      "payable": false,
      "stateMutability": "view",
      "type": "function",
      "signature": "0x46e5e8e2"
    },
    {
      "constant": true,
      "inputs": [
        {
          "name": "",
          "type": "uint256"
        },
        {
          "name": "",
          "type": "uint256"
        }
      ],
      "name": "patentOwnerMap",
      "outputs": [
        {
          "name": "",
          "type": "address"
        }
      ],
      "payable": false,
      "stateMutability": "view",
      "type": "function",
      "signature": "0xbe90b054"
    },
    {
      "constant": false,
      "inputs": [
        {
          "name": "owners",
          "type": "address[]"
        },
        {
          "name": "lisenceHolders",
          "type": "address[]"
        },
        {
          "name": "patentName",
          "type": "string"
        },
        {
          "name": "issueDate",
          "type": "string"
        },
        {
          "name": "patentType",
          "type": "string"
        },
        {
          "name": "patentSubType",
          "type": "string"
        }
      ],
      "name": "registerPatent",
      "outputs": [
        {
          "name": "",
          "type": "uint256"
        }
      ],
      "payable": false,
      "stateMutability": "nonpayable",
      "type": "function",
      "signature": "0x4b2be01c"
    },
    {
      "constant": false,
      "inputs": [
        {
          "name": "patentId",
          "type": "uint256"
        },
        {
          "name": "person",
          "type": "address"
        }
      ],
      "name": "addOwner",
      "outputs": [],
      "payable": false,
      "stateMutability": "nonpayable",
      "type": "function",
      "signature": "0x8cd1bb20"
    },
    {
      "constant": false,
      "inputs": [
        {
          "name": "patentId",
          "type": "uint256"
        },
        {
          "name": "person",
          "type": "address"
        }
      ],
      "name": "addLisenceHolder",
      "outputs": [],
      "payable": false,
      "stateMutability": "nonpayable",
      "type": "function",
      "signature": "0x25700466"
    },
    {
      "constant": false,
      "inputs": [
        {
          "name": "patentId",
          "type": "uint256"
        },
        {
          "name": "receiver",
          "type": "address"
        }
      ],
      "name": "transferPatent",
      "outputs": [],
      "payable": false,
      "stateMutability": "nonpayable",
      "type": "function",
      "signature": "0xd510bbd7"
    },
    {
      "constant": true,
      "inputs": [
        {
          "name": "patentId",
          "type": "uint256"
        }
      ],
      "name": "getPatent",
      "outputs": [
        {
          "components": [
            {
              "name": "owners",
              "type": "address[]"
            },
            {
              "name": "lisenceHolders",
              "type": "address[]"
            },
            {
              "name": "patentName",
              "type": "string"
            },
            {
              "name": "patentType",
              "type": "string"
            },
            {
              "name": "patentSubType",
              "type": "string"
            },
            {
              "name": "issueDate",
              "type": "string"
            },
            {
              "name": "patentId",
              "type": "uint256"
            }
          ],
          "name": "",
          "type": "tuple"
        }
      ],
      "payable": false,
      "stateMutability": "view",
      "type": "function",
      "signature": "0x9c6d0d78"
    },
    {
      "constant": true,
      "inputs": [
        {
          "name": "patentId",
          "type": "uint256"
        }
      ],
      "name": "getOwnerList",
      "outputs": [
        {
          "name": "",
          "type": "address[]"
        }
      ],
      "payable": false,
      "stateMutability": "view",
      "type": "function",
      "signature": "0x8dd95e99"
    },
    {
      "constant": true,
      "inputs": [
        {
          "name": "patentId",
          "type": "uint256"
        }
      ],
      "name": "getPatentName",
      "outputs": [
        {
          "name": "",
          "type": "string"
        }
      ],
      "payable": false,
      "stateMutability": "view",
      "type": "function",
      "signature": "0x087344d3"
    },
    {
      "constant": true,
      "inputs": [
        {
          "name": "patentId",
          "type": "uint256"
        }
      ],
      "name": "getPatentType",
      "outputs": [
        {
          "name": "",
          "type": "string"
        }
      ],
      "payable": false,
      "stateMutability": "view",
      "type": "function",
      "signature": "0x1a241775"
    },
    {
      "constant": true,
      "inputs": [
        {
          "name": "owner",
          "type": "address"
        }
      ],
      "name": "getPatentsByOwner",
      "outputs": [
        {
          "components": [
            {
              "name": "owners",
              "type": "address[]"
            },
            {
              "name": "lisenceHolders",
              "type": "address[]"
            },
            {
              "name": "patentName",
              "type": "string"
            },
            {
              "name": "patentType",
              "type": "string"
            },
            {
              "name": "patentSubType",
              "type": "string"
            },
            {
              "name": "issueDate",
              "type": "string"
            },
            {
              "name": "patentId",
              "type": "uint256"
            }
          ],
          "name": "",
          "type": "tuple[]"
        }
      ],
      "payable": false,
      "stateMutability": "view",
      "type": "function",
      "signature": "0xfc8f39f5"
    }
  ],
  "bytecode": "0x608060405234801561001057600080fd5b50612d23806100206000396000f3fe6080604052600436106100ba576000357c0100000000000000000000000000000000000000000000000000000000900463ffffffff16806305c1ba22146100bf578063087344d3146100fc5780631a24177514610139578063257004661461017657806346e5e8e21461019f5780634b2be01c146101e05780638cd1bb201461021d5780638dd95e99146102465780639c6d0d7814610283578063be90b054146102c0578063d510bbd7146102fd578063fc8f39f514610326575b600080fd5b3480156100cb57600080fd5b506100e660048036036100e191908101906125e9565b610363565b6040516100f39190612a24565b60405180910390f35b34801561010857600080fd5b50610123600480360361011e91908101906125e9565b610413565b6040516101309190612a46565b60405180910390f35b34801561014557600080fd5b50610160600480360361015b91908101906125e9565b6104c8565b60405161016d9190612a46565b60405180910390f35b34801561018257600080fd5b5061019d60048036036101989190810190612612565b61058a565b005b3480156101ab57600080fd5b506101c660048036036101c19190810190612494565b610612565b6040516101d7959493929190612a68565b60405180910390f35b3480156101ec57600080fd5b50610207600480360361020291908101906124d0565b6108c4565b6040516102149190612af9565b60405180910390f35b34801561022957600080fd5b50610244600480360361023f9190810190612612565b610bdf565b005b34801561025257600080fd5b5061026d600480360361026891908101906125e9565b610dc9565b60405161027a91906129e0565b60405180910390f35b34801561028f57600080fd5b506102aa60048036036102a591908101906125e9565b610e6a565b6040516102b79190612ad7565b60405180910390f35b3480156102cc57600080fd5b506102e760048036036102e2919081019061264e565b611250565b6040516102f491906129c5565b60405180910390f35b34801561030957600080fd5b50610324600480360361031f9190810190612612565b61129d565b005b34801561033257600080fd5b5061034d6004803603610348919081019061246b565b611ac8565b60405161035a9190612a02565b60405180910390f35b60026020528060005260406000206000915090508054600181600116156101000203166002900480601f01602080910402602001604051908101604052809291908181526020018280546001816001161561010002031660029004801561040b5780601f106103e05761010080835404028352916020019161040b565b820191906000526020600020905b8154815290600101906020018083116103ee57829003601f168201915b505050505081565b6060600260008381526020019081526020016000208054600181600116156101000203166002900480601f0160208091040260200160405190810160405280929190818152602001828054600181600116156101000203166002900480156104bc5780601f10610491576101008083540402835291602001916104bc565b820191906000526020600020905b81548152906001019060200180831161049f57829003601f168201915b50505050509050919050565b60606000828154811015156104d957fe5b90600052602060002090600702016003018054600181600116156101000203166002900480601f01602080910402602001604051908101604052809291908181526020018280546001816001161561010002031660029004801561057e5780601f106105535761010080835404028352916020019161057e565b820191906000526020600020905b81548152906001019060200180831161056157829003601f168201915b50505050509050919050565b60008281548110151561059957fe5b90600052602060002090600702016001018190806001815401808255809150509060018203906000526020600020016000909192909190916101000a81548173ffffffffffffffffffffffffffffffffffffffff021916908373ffffffffffffffffffffffffffffffffffffffff160217905550505050565b60036020528160005260406000208181548110151561062d57fe5b906000526020600020906007020160009150915050806002018054600181600116156101000203166002900480601f0160208091040260200160405190810160405280929190818152602001828054600181600116156101000203166002900480156106da5780601f106106af576101008083540402835291602001916106da565b820191906000526020600020905b8154815290600101906020018083116106bd57829003601f168201915b505050505090806003018054600181600116156101000203166002900480601f0160208091040260200160405190810160405280929190818152602001828054600181600116156101000203166002900480156107785780601f1061074d57610100808354040283529160200191610778565b820191906000526020600020905b81548152906001019060200180831161075b57829003601f168201915b505050505090806004018054600181600116156101000203166002900480601f0160208091040260200160405190810160405280929190818152602001828054600181600116156101000203166002900480156108165780601f106107eb57610100808354040283529160200191610816565b820191906000526020600020905b8154815290600101906020018083116107f957829003601f168201915b505050505090806005018054600181600116156101000203166002900480601f0160208091040260200160405190810160405280929190818152602001828054600181600116156101000203166002900480156108b45780601f10610889576101008083540402835291602001916108b4565b820191906000526020600020905b81548152906001019060200180831161089757829003601f168201915b5050505050908060060154905085565b6000806000805490509050600060e0604051908101604052808a81526020018981526020018881526020018681526020018581526020018781526020018381525090806001815401808255809150509060018203906000526020600020906007020160009091929091909150600082015181600001908051906020019061094c929190611f15565b506020820151816001019080519060200190610969929190611f15565b506040820151816002019080519060200190610986929190611f9f565b5060608201518160030190805190602001906109a3929190611f9f565b5060808201518160040190805190602001906109c0929190611f9f565b5060a08201518160050190805190602001906109dd929190611f9f565b5060c0820151816006015550505087600160008381526020019081526020016000209080519060200190610a1292919061201f565b5085600260008381526020019081526020016000209080519060200190610a3a9291906120a9565b5060008090505b8851811015610bd057600360008a83815181101515610a5c57fe5b9060200190602002015173ffffffffffffffffffffffffffffffffffffffff1673ffffffffffffffffffffffffffffffffffffffff168152602001908152602001600020600083815481101515610aaf57fe5b9060005260206000209060070201908060018154018082558091505090600182039060005260206000209060070201600090919290919091506000820181600001908054610afe929190612129565b506001820181600101908054610b15929190612129565b5060028201816002019080546001816001161561010002031660029004610b3d92919061217b565b5060038201816003019080546001816001161561010002031660029004610b6592919061217b565b5060048201816004019080546001816001161561010002031660029004610b8d92919061217b565b5060058201816005019080546001816001161561010002031660029004610bb592919061217b565b50600682015481600601555050508080600101915050610a41565b50809150509695505050505050565b600082815481101515610bee57fe5b90600052602060002090600702016000018190806001815401808255809150509060018203906000526020600020016000909192909190916101000a81548173ffffffffffffffffffffffffffffffffffffffff021916908373ffffffffffffffffffffffffffffffffffffffff16021790555050600360008273ffffffffffffffffffffffffffffffffffffffff1673ffffffffffffffffffffffffffffffffffffffff168152602001908152602001600020600083815481101515610cb157fe5b9060005260206000209060070201908060018154018082558091505090600182039060005260206000209060070201600090919290919091506000820181600001908054610d00929190612129565b506001820181600101908054610d17929190612129565b5060028201816002019080546001816001161561010002031660029004610d3f92919061217b565b5060038201816003019080546001816001161561010002031660029004610d6792919061217b565b5060048201816004019080546001816001161561010002031660029004610d8f92919061217b565b5060058201816005019080546001816001161561010002031660029004610db792919061217b565b50600682015481600601555050505050565b606060016000838152602001908152602001600020805480602002602001604051908101604052809291908181526020018280548015610e5e57602002820191906000526020600020905b8160009054906101000a900473ffffffffffffffffffffffffffffffffffffffff1673ffffffffffffffffffffffffffffffffffffffff1681526020019060010190808311610e14575b50505050509050919050565b610e72612202565b600082815481101515610e8157fe5b906000526020600020906007020160e0604051908101604052908160008201805480602002602001604051908101604052809291908181526020018280548015610f2057602002820191906000526020600020905b8160009054906101000a900473ffffffffffffffffffffffffffffffffffffffff1673ffffffffffffffffffffffffffffffffffffffff1681526020019060010190808311610ed6575b5050505050815260200160018201805480602002602001604051908101604052809291908181526020018280548015610fae57602002820191906000526020600020905b8160009054906101000a900473ffffffffffffffffffffffffffffffffffffffff1673ffffffffffffffffffffffffffffffffffffffff1681526020019060010190808311610f64575b50505050508152602001600282018054600181600116156101000203166002900480601f0160208091040260200160405190810160405280929190818152602001828054600181600116156101000203166002900480156110505780601f1061102557610100808354040283529160200191611050565b820191906000526020600020905b81548152906001019060200180831161103357829003601f168201915b50505050508152602001600382018054600181600116156101000203166002900480601f0160208091040260200160405190810160405280929190818152602001828054600181600116156101000203166002900480156110f25780601f106110c7576101008083540402835291602001916110f2565b820191906000526020600020905b8154815290600101906020018083116110d557829003601f168201915b50505050508152602001600482018054600181600116156101000203166002900480601f0160208091040260200160405190810160405280929190818152602001828054600181600116156101000203166002900480156111945780601f1061116957610100808354040283529160200191611194565b820191906000526020600020905b81548152906001019060200180831161117757829003601f168201915b50505050508152602001600582018054600181600116156101000203166002900480601f0160208091040260200160405190810160405280929190818152602001828054600181600116156101000203166002900480156112365780601f1061120b57610100808354040283529160200191611236565b820191906000526020600020905b81548152906001019060200180831161121957829003601f168201915b505050505081526020016006820154815250509050919050565b60016020528160005260406000208181548110151561126b57fe5b906000526020600020016000915091509054906101000a900473ffffffffffffffffffffffffffffffffffffffff1681565b60008090505b6000838154811015156112b257fe5b9060005260206000209060070201600001805490508110156113e1573373ffffffffffffffffffffffffffffffffffffffff166000848154811015156112f457fe5b90600052602060002090600702016000018281548110151561131257fe5b9060005260206000200160009054906101000a900473ffffffffffffffffffffffffffffffffffffffff1673ffffffffffffffffffffffffffffffffffffffff1614156113d4578160008481548110151561136957fe5b90600052602060002090600702016000018281548110151561138757fe5b9060005260206000200160006101000a81548173ffffffffffffffffffffffffffffffffffffffff021916908373ffffffffffffffffffffffffffffffffffffffff1602179055506113e1565b80806001019150506112a3565b5060008090505b600360003373ffffffffffffffffffffffffffffffffffffffff1673ffffffffffffffffffffffffffffffffffffffff1681526020019081526020016000208054905081101561175257600080905083600360003373ffffffffffffffffffffffffffffffffffffffff1673ffffffffffffffffffffffffffffffffffffffff1681526020019081526020016000208381548110151561148457fe5b90600052602060002090600702016006015414156114a55781905050611752565b60006001600360003373ffffffffffffffffffffffffffffffffffffffff1673ffffffffffffffffffffffffffffffffffffffff16815260200190815260200160002080549050039050600360003373ffffffffffffffffffffffffffffffffffffffff1673ffffffffffffffffffffffffffffffffffffffff1681526020019081526020016000208181548110151561153b57fe5b9060005260206000209060070201600360003373ffffffffffffffffffffffffffffffffffffffff1673ffffffffffffffffffffffffffffffffffffffff1681526020019081526020016000208381548110151561159557fe5b906000526020600020906007020160008201816000019080546115b9929190612129565b5060018201816001019080546115d0929190612129565b50600282018160020190805460018160011615610100020316600290046115f892919061217b565b506003820181600301908054600181600116156101000203166002900461162092919061217b565b506004820181600401908054600181600116156101000203166002900461164892919061217b565b506005820181600501908054600181600116156101000203166002900461167092919061217b565b5060068201548160060155905050600360003373ffffffffffffffffffffffffffffffffffffffff1673ffffffffffffffffffffffffffffffffffffffff168152602001908152602001600020818154811015156116ca57fe5b9060005260206000209060070201600080820160006116e99190612240565b6001820160006116f99190612240565b6002820160006117099190612261565b6003820160006117199190612261565b6004820160006117299190612261565b6005820160006117399190612261565b60068201600090555050505080806001019150506113e8565b5060008090505b600360003373ffffffffffffffffffffffffffffffffffffffff1673ffffffffffffffffffffffffffffffffffffffff16815260200190815260200160002080549050811015611ac357600080905083600360003373ffffffffffffffffffffffffffffffffffffffff1673ffffffffffffffffffffffffffffffffffffffff168152602001908152602001600020838154811015156117f557fe5b90600052602060002090600702016006015414156118165781905050611ac3565b60006001600360003373ffffffffffffffffffffffffffffffffffffffff1673ffffffffffffffffffffffffffffffffffffffff16815260200190815260200160002080549050039050600360003373ffffffffffffffffffffffffffffffffffffffff1673ffffffffffffffffffffffffffffffffffffffff168152602001908152602001600020818154811015156118ac57fe5b9060005260206000209060070201600360003373ffffffffffffffffffffffffffffffffffffffff1673ffffffffffffffffffffffffffffffffffffffff1681526020019081526020016000208381548110151561190657fe5b9060005260206000209060070201600082018160000190805461192a929190612129565b506001820181600101908054611941929190612129565b506002820181600201908054600181600116156101000203166002900461196992919061217b565b506003820181600301908054600181600116156101000203166002900461199192919061217b565b50600482018160040190805460018160011615610100020316600290046119b992919061217b565b50600582018160050190805460018160011615610100020316600290046119e192919061217b565b5060068201548160060155905050600360003373ffffffffffffffffffffffffffffffffffffffff1673ffffffffffffffffffffffffffffffffffffffff16815260200190815260200160002081815481101515611a3b57fe5b906000526020600020906007020160008082016000611a5a9190612240565b600182016000611a6a9190612240565b600282016000611a7a9190612261565b600382016000611a8a9190612261565b600482016000611a9a9190612261565b600582016000611aaa9190612261565b6006820160009055505050508080600101915050611759565b505050565b6060600360008373ffffffffffffffffffffffffffffffffffffffff1673ffffffffffffffffffffffffffffffffffffffff168152602001908152602001600020805480602002602001604051908101604052809291908181526020016000905b82821015611f0a578382906000526020600020906007020160e0604051908101604052908160008201805480602002602001604051908101604052809291908181526020018280548015611bd257602002820191906000526020600020905b8160009054906101000a900473ffffffffffffffffffffffffffffffffffffffff1673ffffffffffffffffffffffffffffffffffffffff1681526020019060010190808311611b88575b5050505050815260200160018201805480602002602001604051908101604052809291908181526020018280548015611c6057602002820191906000526020600020905b8160009054906101000a900473ffffffffffffffffffffffffffffffffffffffff1673ffffffffffffffffffffffffffffffffffffffff1681526020019060010190808311611c16575b50505050508152602001600282018054600181600116156101000203166002900480601f016020809104026020016040519081016040528092919081815260200182805460018160011615610100020316600290048015611d025780601f10611cd757610100808354040283529160200191611d02565b820191906000526020600020905b815481529060010190602001808311611ce557829003601f168201915b50505050508152602001600382018054600181600116156101000203166002900480601f016020809104026020016040519081016040528092919081815260200182805460018160011615610100020316600290048015611da45780601f10611d7957610100808354040283529160200191611da4565b820191906000526020600020905b815481529060010190602001808311611d8757829003601f168201915b50505050508152602001600482018054600181600116156101000203166002900480601f016020809104026020016040519081016040528092919081815260200182805460018160011615610100020316600290048015611e465780601f10611e1b57610100808354040283529160200191611e46565b820191906000526020600020905b815481529060010190602001808311611e2957829003601f168201915b50505050508152602001600582018054600181600116156101000203166002900480601f016020809104026020016040519081016040528092919081815260200182805460018160011615610100020316600290048015611ee85780601f10611ebd57610100808354040283529160200191611ee8565b820191906000526020600020905b815481529060010190602001808311611ecb57829003601f168201915b5050505050815260200160068201548152505081526020019060010190611b29565b505050509050919050565b828054828255906000526020600020908101928215611f8e579160200282015b82811115611f8d5782518260006101000a81548173ffffffffffffffffffffffffffffffffffffffff021916908373ffffffffffffffffffffffffffffffffffffffff16021790555091602001919060010190611f35565b5b509050611f9b91906122a9565b5090565b828054600181600116156101000203166002900490600052602060002090601f016020900481019282601f10611fe057805160ff191683800117855561200e565b8280016001018555821561200e579182015b8281111561200d578251825591602001919060010190611ff2565b5b50905061201b91906122ec565b5090565b828054828255906000526020600020908101928215612098579160200282015b828111156120975782518260006101000a81548173ffffffffffffffffffffffffffffffffffffffff021916908373ffffffffffffffffffffffffffffffffffffffff1602179055509160200191906001019061203f565b5b5090506120a59190612311565b5090565b828054600181600116156101000203166002900490600052602060002090601f016020900481019282601f106120ea57805160ff1916838001178555612118565b82800160010185558215612118579182015b828111156121175782518255916020019190600101906120fc565b5b50905061212591906122ec565b5090565b82805482825590600052602060002090810192821561216a5760005260206000209182015b8281111561216957825482559160010191906001019061214e565b5b50905061217791906122a9565b5090565b828054600181600116156101000203166002900490600052602060002090601f016020900481019282601f106121b457805485556121f1565b828001600101855582156121f157600052602060002091601f016020900482015b828111156121f05782548255916001019190600101906121d5565b5b5090506121fe91906122ec565b5090565b60e060405190810160405280606081526020016060815260200160608152602001606081526020016060815260200160608152602001600081525090565b508054600082559060005260206000209081019061225e91906122ec565b50565b50805460018160011615610100020316600290046000825580601f1061228757506122a6565b601f0160209004906000526020600020908101906122a591906122ec565b5b50565b6122e991905b808211156122e557600081816101000a81549073ffffffffffffffffffffffffffffffffffffffff0219169055506001016122af565b5090565b90565b61230e91905b8082111561230a5760008160009055506001016122f2565b5090565b90565b61235191905b8082111561234d57600081816101000a81549073ffffffffffffffffffffffffffffffffffffffff021916905550600101612317565b5090565b90565b60006123608235612c68565b905092915050565b60006123748235612c7a565b905092915050565b600082601f830112151561238f57600080fd5b81356123a261239d82612b41565b612b14565b915081818352602084019350602081019050838560208402820111156123c757600080fd5b60005b838110156123f757816123dd8882612368565b8452602084019350602083019250506001810190506123ca565b5050505092915050565b600082601f830112151561241457600080fd5b813561242761242282612b69565b612b14565b9150808252602083016020830185838301111561244357600080fd5b61244e838284612c96565b50505092915050565b60006124638235612c8c565b905092915050565b60006020828403121561247d57600080fd5b600061248b84828501612354565b91505092915050565b600080604083850312156124a757600080fd5b60006124b585828601612354565b92505060206124c685828601612457565b9150509250929050565b60008060008060008060c087890312156124e957600080fd5b600087013567ffffffffffffffff81111561250357600080fd5b61250f89828a0161237c565b965050602087013567ffffffffffffffff81111561252c57600080fd5b61253889828a0161237c565b955050604087013567ffffffffffffffff81111561255557600080fd5b61256189828a01612401565b945050606087013567ffffffffffffffff81111561257e57600080fd5b61258a89828a01612401565b935050608087013567ffffffffffffffff8111156125a757600080fd5b6125b389828a01612401565b92505060a087013567ffffffffffffffff8111156125d057600080fd5b6125dc89828a01612401565b9150509295509295509295565b6000602082840312156125fb57600080fd5b600061260984828501612457565b91505092915050565b6000806040838503121561262557600080fd5b600061263385828601612457565b925050602061264485828601612368565b9150509250929050565b6000806040838503121561266157600080fd5b600061266f85828601612457565b925050602061268085828601612457565b9150509250929050565b61269381612c2c565b82525050565b6126a281612c1a565b82525050565b60006126b382612bbc565b8084526020840193506126c583612b95565b60005b828110156126f7576126db868351612699565b6126e482612bf3565b91506020860195506001810190506126c8565b50849250505092915050565b600061270e82612bc7565b80845260208401935061272083612ba2565b60005b828110156127525761273686835161268a565b61273f82612c00565b9150602086019550600181019050612723565b50849250505092915050565b600061276982612bd2565b8084526020840193508360208202850161278285612baf565b60005b848110156127bb57838303885261279d8383516128f7565b92506127a882612c0d565b9150602088019750600181019050612785565b508196508694505050505092915050565b60006127d782612be8565b8084526127eb816020860160208601612ca5565b6127f481612cd8565b602085010191505092915050565b600061280d82612bdd565b808452612821816020860160208601612ca5565b61282a81612cd8565b602085010191505092915050565b600060e08301600083015184820360008601526128558282612703565b9150506020830151848203602086015261286f8282612703565b915050604083015184820360408601526128898282612802565b915050606083015184820360608601526128a38282612802565b915050608083015184820360808601526128bd8282612802565b91505060a083015184820360a08601526128d78282612802565b91505060c08301516128ec60c08601826129b6565b508091505092915050565b600060e08301600083015184820360008601526129148282612703565b9150506020830151848203602086015261292e8282612703565b915050604083015184820360408601526129488282612802565b915050606083015184820360608601526129628282612802565b9150506080830151848203608086015261297c8282612802565b91505060a083015184820360a08601526129968282612802565b91505060c08301516129ab60c08601826129b6565b508091505092915050565b6129bf81612c5e565b82525050565b60006020820190506129da6000830184612699565b92915050565b600060208201905081810360008301526129fa81846126a8565b905092915050565b60006020820190508181036000830152612a1c818461275e565b905092915050565b60006020820190508181036000830152612a3e8184612802565b905092915050565b60006020820190508181036000830152612a6081846127cc565b905092915050565b600060a0820190508181036000830152612a828188612802565b90508181036020830152612a968187612802565b90508181036040830152612aaa8186612802565b90508181036060830152612abe8185612802565b9050612acd60808301846129b6565b9695505050505050565b60006020820190508181036000830152612af18184612838565b905092915050565b6000602082019050612b0e60008301846129b6565b92915050565b6000604051905081810181811067ffffffffffffffff82111715612b3757600080fd5b8060405250919050565b600067ffffffffffffffff821115612b5857600080fd5b602082029050602081019050919050565b600067ffffffffffffffff821115612b8057600080fd5b601f19601f8301169050602081019050919050565b6000602082019050919050565b6000602082019050919050565b6000602082019050919050565b600081519050919050565b600081519050919050565b600081519050919050565b600081519050919050565b600081519050919050565b6000602082019050919050565b6000602082019050919050565b6000602082019050919050565b6000612c2582612c3e565b9050919050565b6000612c3782612c3e565b9050919050565b600073ffffffffffffffffffffffffffffffffffffffff82169050919050565b6000819050919050565b6000612c7382612c3e565b9050919050565b6000612c8582612c3e565b9050919050565b6000819050919050565b82818337600083830152505050565b60005b83811015612cc3578082015181840152602081019050612ca8565b83811115612cd2576000848401525b50505050565b6000601f19601f830116905091905056fea265627a7a72305820c8e6cc2bce84fc198b06608ee5e5be87821f80f9dc97a113aaee7ac107a010686c6578706572696d656e74616cf50037",
  "source": "pragma experimental ABIEncoderV2;\n\ncontract PatentManager {\n\n    struct Patent {\n        address payable[] owners;\n        address payable[] lisenceHolders;\n        string patentName;\n        string patentType;\n        string patentSubType;\n        string issueDate;\n        uint patentId;\n    }\n\n    Patent[] private patents;\n\n    mapping(uint => address[]) public patentOwnerMap;\n    \n    //store name of the patent for a particular patentId\n    mapping(uint => string) public patentNameMap;\n\n    mapping(address => Patent[]) public ownerPatentsMap;\n\n    function registerPatent(address payable[] memory owners, address payable[] memory lisenceHolders, string memory patentName, string memory issueDate, string memory patentType, string memory patentSubType) public returns (uint) {\n        uint patentId = patents.length;\n        patents.push(Patent(owners, lisenceHolders, patentName, patentType, patentSubType, issueDate, patentId));\n        patentOwnerMap[patentId] = owners;\n        patentNameMap[patentId] = patentName;\n        for (uint i = 0; i < owners.length; i++) {\n            ownerPatentsMap[owners[i]].push(patents[patentId]);\n        }\n        return patentId;\n    }\n\n    function addOwner(uint patentId, address payable person) public {\n        patents[patentId].owners.push(person);\n        ownerPatentsMap[person].push(patents[patentId]);\n    }\n\n    function addLisenceHolder(uint patentId, address payable person) public {\n        patents[patentId].lisenceHolders.push(person);\n    }\n    \n    function transferPatent(uint patentId, address payable receiver) public {\n        for (uint i = 0; i < patents[patentId].owners.length; i++) {\n            if (patents[patentId].owners[i]==msg.sender) {\n                patents[patentId].owners[i]=receiver;\n                break;\n            }\n        }\n\n        for (uint i = 0; i < ownerPatentsMap[msg.sender].length; i++) {\n            uint pos = 0;\n            if (ownerPatentsMap[msg.sender][i].patentId==patentId) {\n                pos = i;\n                break;\n            }\n            uint last = ownerPatentsMap[msg.sender].length - 1;\n            ownerPatentsMap[msg.sender][pos] = ownerPatentsMap[msg.sender][last];\n            delete ownerPatentsMap[msg.sender][last];\n        }\n\n        for (uint i = 0; i < ownerPatentsMap[msg.sender].length; i++) {\n            uint pos = 0;\n            if (ownerPatentsMap[msg.sender][i].patentId==patentId) {\n                pos = i;\n                break;\n            }\n            uint last = ownerPatentsMap[msg.sender].length - 1;\n            ownerPatentsMap[msg.sender][pos] = ownerPatentsMap[msg.sender][last];\n            delete ownerPatentsMap[msg.sender][last];\n        }\n    }\n\n    function getPatent(uint patentId) public view returns (Patent memory) {\n        return (patents[patentId]);\n    }\n\n    function getOwnerList(uint patentId) public view returns (address[] memory){\n        return (patentOwnerMap[patentId]);\n    }\n\n    function getPatentName(uint patentId) public view returns (string memory){\n        return (patentNameMap[patentId]);\n    }\n    \n    function getPatentType(uint patentId) public view returns(string memory){\n        return patents[patentId].patentType;\n    }\n\n    function getPatentsByOwner(address owner) public view returns (Patent[] memory){\n        return ownerPatentsMap[owner];  \n    }\n\n}",
  "sourcePath": "/media/anup/B290EFD890EFA159/Block8/patent_bidding_transfer/patent-backend/contracts/PatentManager.sol",
  "compiler": {
    "name": "solc",
    "version": "0.5.0+commit.1d4f565a.Emscripten.clang"
  },
  "schemaVersion": "3.0.1",
  "updatedAt": "2019-02-15T08:15:44.087Z",
  "devdoc": {
    "methods": {}
  },
  "userdoc": {
    "methods": {}
  }
}