{
  "contractName": "PatentManager",
  "abi": [
    {
      "constant": true,
      "inputs": [
        {
          "name": "",
          "type": "uint256"
        }
      ],
      "name": "patentNameMap",
      "outputs": [
        {
          "name": "",
          "type": "string"
        }
      ],
      "payable": false,
      "stateMutability": "view",
      "type": "function",
      "signature": "0x05c1ba22"
    },
    {
      "constant": true,
      "inputs": [
        {
          "name": "",
          "type": "address"
        },
        {
          "name": "",
          "type": "uint256"
        }
      ],
      "name": "ownerPatentsMap",
      "outputs": [
        {
          "name": "patentName",
          "type": "string"
        },
        {
          "name": "patentType",
          "type": "string"
        },
        {
          "name": "issueDate",
          "type": "string"
        },
        {
          "name": "patentId",
          "type": "uint256"
        }
      ],
      "payable": false,
      "stateMutability": "view",
      "type": "function",
      "signature": "0x46e5e8e2"
    },
    {
      "constant": true,
      "inputs": [
        {
          "name": "",
          "type": "uint256"
        },
        {
          "name": "",
          "type": "uint256"
        }
      ],
      "name": "patentOwnerMap",
      "outputs": [
        {
          "name": "",
          "type": "address"
        }
      ],
      "payable": false,
      "stateMutability": "view",
      "type": "function",
      "signature": "0xbe90b054"
    },
    {
      "constant": false,
      "inputs": [
        {
          "name": "owners",
          "type": "address[]"
        },
        {
          "name": "lisenceHolders",
          "type": "address[]"
        },
        {
          "name": "patentName",
          "type": "string"
        },
        {
          "name": "issueDate",
          "type": "string"
        },
        {
          "name": "patentType",
          "type": "string"
        }
      ],
      "name": "registerPatent",
      "outputs": [
        {
          "name": "",
          "type": "uint256"
        }
      ],
      "payable": false,
      "stateMutability": "nonpayable",
      "type": "function",
      "signature": "0x813d2ed0"
    },
    {
      "constant": false,
      "inputs": [
        {
          "name": "patentId",
          "type": "uint256"
        },
        {
          "name": "person",
          "type": "address"
        }
      ],
      "name": "addOwner",
      "outputs": [],
      "payable": false,
      "stateMutability": "nonpayable",
      "type": "function",
      "signature": "0x8cd1bb20"
    },
    {
      "constant": false,
      "inputs": [
        {
          "name": "patentId",
          "type": "uint256"
        },
        {
          "name": "person",
          "type": "address"
        }
      ],
      "name": "addLisenceHolder",
      "outputs": [],
      "payable": false,
      "stateMutability": "nonpayable",
      "type": "function",
      "signature": "0x25700466"
    },
    {
      "constant": false,
      "inputs": [
        {
          "name": "patentId",
          "type": "uint256"
        },
        {
          "name": "receiver",
          "type": "address"
        }
      ],
      "name": "transferPatent",
      "outputs": [],
      "payable": false,
      "stateMutability": "nonpayable",
      "type": "function",
      "signature": "0xd510bbd7"
    },
    {
      "constant": true,
      "inputs": [
        {
          "name": "patentId",
          "type": "uint256"
        }
      ],
      "name": "getPatent",
      "outputs": [
        {
          "components": [
            {
              "name": "owners",
              "type": "address[]"
            },
            {
              "name": "lisenceHolders",
              "type": "address[]"
            },
            {
              "name": "patentName",
              "type": "string"
            },
            {
              "name": "patentType",
              "type": "string"
            },
            {
              "name": "issueDate",
              "type": "string"
            },
            {
              "name": "patentId",
              "type": "uint256"
            }
          ],
          "name": "",
          "type": "tuple"
        }
      ],
      "payable": false,
      "stateMutability": "view",
      "type": "function",
      "signature": "0x9c6d0d78"
    },
    {
      "constant": true,
      "inputs": [
        {
          "name": "patentId",
          "type": "uint256"
        }
      ],
      "name": "getOwnerList",
      "outputs": [
        {
          "name": "",
          "type": "address[]"
        }
      ],
      "payable": false,
      "stateMutability": "view",
      "type": "function",
      "signature": "0x8dd95e99"
    },
    {
      "constant": true,
      "inputs": [
        {
          "name": "patentId",
          "type": "uint256"
        }
      ],
      "name": "getPatentName",
      "outputs": [
        {
          "name": "",
          "type": "string"
        }
      ],
      "payable": false,
      "stateMutability": "view",
      "type": "function",
      "signature": "0x087344d3"
    },
    {
      "constant": true,
      "inputs": [
        {
          "name": "patentId",
          "type": "uint256"
        }
      ],
      "name": "getPatentType",
      "outputs": [
        {
          "name": "",
          "type": "string"
        }
      ],
      "payable": false,
      "stateMutability": "view",
      "type": "function",
      "signature": "0x1a241775"
    },
    {
      "constant": true,
      "inputs": [
        {
          "name": "owner",
          "type": "address"
        }
      ],
      "name": "getPatentsByOwner",
      "outputs": [
        {
          "components": [
            {
              "name": "owners",
              "type": "address[]"
            },
            {
              "name": "lisenceHolders",
              "type": "address[]"
            },
            {
              "name": "patentName",
              "type": "string"
            },
            {
              "name": "patentType",
              "type": "string"
            },
            {
              "name": "issueDate",
              "type": "string"
            },
            {
              "name": "patentId",
              "type": "uint256"
            }
          ],
          "name": "",
          "type": "tuple[]"
        }
      ],
      "payable": false,
      "stateMutability": "view",
      "type": "function",
      "signature": "0xfc8f39f5"
    }
  ],
  "bytecode": "0x608060405234801561001057600080fd5b506129e2806100206000396000f3fe6080604052600436106100ba576000357c0100000000000000000000000000000000000000000000000000000000900463ffffffff16806305c1ba22146100bf578063087344d3146100fc5780631a24177514610139578063257004661461017657806346e5e8e21461019f578063813d2ed0146101df5780638cd1bb201461021c5780638dd95e99146102455780639c6d0d7814610282578063be90b054146102bf578063d510bbd7146102fc578063fc8f39f514610325575b600080fd5b3480156100cb57600080fd5b506100e660048036036100e191908101906122f1565b610362565b6040516100f391906126f8565b60405180910390f35b34801561010857600080fd5b50610123600480360361011e91908101906122f1565b610412565b604051610130919061271a565b60405180910390f35b34801561014557600080fd5b50610160600480360361015b91908101906122f1565b6104c7565b60405161016d919061271a565b60405180910390f35b34801561018257600080fd5b5061019d6004803603610198919081019061231a565b610589565b005b3480156101ab57600080fd5b506101c660048036036101c191908101906121c6565b610611565b6040516101d6949392919061273c565b60405180910390f35b3480156101eb57600080fd5b5061020660048036036102019190810190612202565b610825565b60405161021391906127b8565b60405180910390f35b34801561022857600080fd5b50610243600480360361023e919081019061231a565b610af4565b005b34801561025157600080fd5b5061026c600480360361026791908101906122f1565b610cb6565b60405161027991906126b4565b60405180910390f35b34801561028e57600080fd5b506102a960048036036102a491908101906122f1565b610d57565b6040516102b69190612796565b60405180910390f35b3480156102cb57600080fd5b506102e660048036036102e19190810190612356565b61109b565b6040516102f39190612699565b60405180910390f35b34801561030857600080fd5b50610323600480360361031e919081019061231a565b6110e8565b005b34801561033157600080fd5b5061034c6004803603610347919081019061219d565b6118a3565b60405161035991906126d6565b60405180910390f35b60026020528060005260406000206000915090508054600181600116156101000203166002900480601f01602080910402602001604051908101604052809291908181526020018280546001816001161561010002031660029004801561040a5780601f106103df5761010080835404028352916020019161040a565b820191906000526020600020905b8154815290600101906020018083116103ed57829003601f168201915b505050505081565b6060600260008381526020019081526020016000208054600181600116156101000203166002900480601f0160208091040260200160405190810160405280929190818152602001828054600181600116156101000203166002900480156104bb5780601f10610490576101008083540402835291602001916104bb565b820191906000526020600020905b81548152906001019060200180831161049e57829003601f168201915b50505050509050919050565b60606000828154811015156104d857fe5b90600052602060002090600602016003018054600181600116156101000203166002900480601f01602080910402602001604051908101604052809291908181526020018280546001816001161561010002031660029004801561057d5780601f106105525761010080835404028352916020019161057d565b820191906000526020600020905b81548152906001019060200180831161056057829003601f168201915b50505050509050919050565b60008281548110151561059857fe5b90600052602060002090600602016001018190806001815401808255809150509060018203906000526020600020016000909192909190916101000a81548173ffffffffffffffffffffffffffffffffffffffff021916908373ffffffffffffffffffffffffffffffffffffffff160217905550505050565b60036020528160005260406000208181548110151561062c57fe5b906000526020600020906006020160009150915050806002018054600181600116156101000203166002900480601f0160208091040260200160405190810160405280929190818152602001828054600181600116156101000203166002900480156106d95780601f106106ae576101008083540402835291602001916106d9565b820191906000526020600020905b8154815290600101906020018083116106bc57829003601f168201915b505050505090806003018054600181600116156101000203166002900480601f0160208091040260200160405190810160405280929190818152602001828054600181600116156101000203166002900480156107775780601f1061074c57610100808354040283529160200191610777565b820191906000526020600020905b81548152906001019060200180831161075a57829003601f168201915b505050505090806004018054600181600116156101000203166002900480601f0160208091040260200160405190810160405280929190818152602001828054600181600116156101000203166002900480156108155780601f106107ea57610100808354040283529160200191610815565b820191906000526020600020905b8154815290600101906020018083116107f857829003601f168201915b5050505050908060050154905084565b6000806000805490509050600060c060405190810160405280898152602001888152602001878152602001858152602001868152602001838152509080600181540180825580915050906001820390600052602060002090600602016000909192909190915060008201518160000190805190602001906108a7929190611c4e565b5060208201518160010190805190602001906108c4929190611c4e565b5060408201518160020190805190602001906108e1929190611cd8565b5060608201518160030190805190602001906108fe929190611cd8565b50608082015181600401908051906020019061091b929190611cd8565b5060a0820151816005015550505086600160008381526020019081526020016000209080519060200190610950929190611d58565b5084600260008381526020019081526020016000209080519060200190610978929190611de2565b5060008090505b8751811015610ae65760036000898381518110151561099a57fe5b9060200190602002015173ffffffffffffffffffffffffffffffffffffffff1673ffffffffffffffffffffffffffffffffffffffff1681526020019081526020016000206000838154811015156109ed57fe5b9060005260206000209060060201908060018154018082558091505090600182039060005260206000209060060201600090919290919091506000820181600001908054610a3c929190611e62565b506001820181600101908054610a53929190611e62565b5060028201816002019080546001816001161561010002031660029004610a7b929190611eb4565b5060038201816003019080546001816001161561010002031660029004610aa3929190611eb4565b5060048201816004019080546001816001161561010002031660029004610acb929190611eb4565b5060058201548160050155505050808060010191505061097f565b508091505095945050505050565b600082815481101515610b0357fe5b90600052602060002090600602016000018190806001815401808255809150509060018203906000526020600020016000909192909190916101000a81548173ffffffffffffffffffffffffffffffffffffffff021916908373ffffffffffffffffffffffffffffffffffffffff16021790555050600360008273ffffffffffffffffffffffffffffffffffffffff1673ffffffffffffffffffffffffffffffffffffffff168152602001908152602001600020600083815481101515610bc657fe5b9060005260206000209060060201908060018154018082558091505090600182039060005260206000209060060201600090919290919091506000820181600001908054610c15929190611e62565b506001820181600101908054610c2c929190611e62565b5060028201816002019080546001816001161561010002031660029004610c54929190611eb4565b5060038201816003019080546001816001161561010002031660029004610c7c929190611eb4565b5060048201816004019080546001816001161561010002031660029004610ca4929190611eb4565b50600582015481600501555050505050565b606060016000838152602001908152602001600020805480602002602001604051908101604052809291908181526020018280548015610d4b57602002820191906000526020600020905b8160009054906101000a900473ffffffffffffffffffffffffffffffffffffffff1673ffffffffffffffffffffffffffffffffffffffff1681526020019060010190808311610d01575b50505050509050919050565b610d5f611f3b565b600082815481101515610d6e57fe5b906000526020600020906006020160c0604051908101604052908160008201805480602002602001604051908101604052809291908181526020018280548015610e0d57602002820191906000526020600020905b8160009054906101000a900473ffffffffffffffffffffffffffffffffffffffff1673ffffffffffffffffffffffffffffffffffffffff1681526020019060010190808311610dc3575b5050505050815260200160018201805480602002602001604051908101604052809291908181526020018280548015610e9b57602002820191906000526020600020905b8160009054906101000a900473ffffffffffffffffffffffffffffffffffffffff1673ffffffffffffffffffffffffffffffffffffffff1681526020019060010190808311610e51575b50505050508152602001600282018054600181600116156101000203166002900480601f016020809104026020016040519081016040528092919081815260200182805460018160011615610100020316600290048015610f3d5780601f10610f1257610100808354040283529160200191610f3d565b820191906000526020600020905b815481529060010190602001808311610f2057829003601f168201915b50505050508152602001600382018054600181600116156101000203166002900480601f016020809104026020016040519081016040528092919081815260200182805460018160011615610100020316600290048015610fdf5780601f10610fb457610100808354040283529160200191610fdf565b820191906000526020600020905b815481529060010190602001808311610fc257829003601f168201915b50505050508152602001600482018054600181600116156101000203166002900480601f0160208091040260200160405190810160405280929190818152602001828054600181600116156101000203166002900480156110815780601f1061105657610100808354040283529160200191611081565b820191906000526020600020905b81548152906001019060200180831161106457829003601f168201915b505050505081526020016005820154815250509050919050565b6001602052816000526040600020818154811015156110b657fe5b906000526020600020016000915091509054906101000a900473ffffffffffffffffffffffffffffffffffffffff1681565b60008090505b6000838154811015156110fd57fe5b90600052602060002090600602016000018054905081101561122c573373ffffffffffffffffffffffffffffffffffffffff1660008481548110151561113f57fe5b90600052602060002090600602016000018281548110151561115d57fe5b9060005260206000200160009054906101000a900473ffffffffffffffffffffffffffffffffffffffff1673ffffffffffffffffffffffffffffffffffffffff16141561121f57816000848154811015156111b457fe5b9060005260206000209060060201600001828154811015156111d257fe5b9060005260206000200160006101000a81548173ffffffffffffffffffffffffffffffffffffffff021916908373ffffffffffffffffffffffffffffffffffffffff16021790555061122c565b80806001019150506110ee565b5060008090505b600360003373ffffffffffffffffffffffffffffffffffffffff1673ffffffffffffffffffffffffffffffffffffffff1681526020019081526020016000208054905081101561156557600080905083600360003373ffffffffffffffffffffffffffffffffffffffff1673ffffffffffffffffffffffffffffffffffffffff168152602001908152602001600020838154811015156112cf57fe5b90600052602060002090600602016005015414156112f05781905050611565565b60006001600360003373ffffffffffffffffffffffffffffffffffffffff1673ffffffffffffffffffffffffffffffffffffffff16815260200190815260200160002080549050039050600360003373ffffffffffffffffffffffffffffffffffffffff1673ffffffffffffffffffffffffffffffffffffffff1681526020019081526020016000208181548110151561138657fe5b9060005260206000209060060201600360003373ffffffffffffffffffffffffffffffffffffffff1673ffffffffffffffffffffffffffffffffffffffff168152602001908152602001600020838154811015156113e057fe5b90600052602060002090600602016000820181600001908054611404929190611e62565b50600182018160010190805461141b929190611e62565b5060028201816002019080546001816001161561010002031660029004611443929190611eb4565b506003820181600301908054600181600116156101000203166002900461146b929190611eb4565b5060048201816004019080546001816001161561010002031660029004611493929190611eb4565b5060058201548160050155905050600360003373ffffffffffffffffffffffffffffffffffffffff1673ffffffffffffffffffffffffffffffffffffffff168152602001908152602001600020818154811015156114ed57fe5b90600052602060002090600602016000808201600061150c9190611f72565b60018201600061151c9190611f72565b60028201600061152c9190611f93565b60038201600061153c9190611f93565b60048201600061154c9190611f93565b6005820160009055505050508080600101915050611233565b5060008090505b600360003373ffffffffffffffffffffffffffffffffffffffff1673ffffffffffffffffffffffffffffffffffffffff1681526020019081526020016000208054905081101561189e57600080905083600360003373ffffffffffffffffffffffffffffffffffffffff1673ffffffffffffffffffffffffffffffffffffffff1681526020019081526020016000208381548110151561160857fe5b9060005260206000209060060201600501541415611629578190505061189e565b60006001600360003373ffffffffffffffffffffffffffffffffffffffff1673ffffffffffffffffffffffffffffffffffffffff16815260200190815260200160002080549050039050600360003373ffffffffffffffffffffffffffffffffffffffff1673ffffffffffffffffffffffffffffffffffffffff168152602001908152602001600020818154811015156116bf57fe5b9060005260206000209060060201600360003373ffffffffffffffffffffffffffffffffffffffff1673ffffffffffffffffffffffffffffffffffffffff1681526020019081526020016000208381548110151561171957fe5b9060005260206000209060060201600082018160000190805461173d929190611e62565b506001820181600101908054611754929190611e62565b506002820181600201908054600181600116156101000203166002900461177c929190611eb4565b50600382018160030190805460018160011615610100020316600290046117a4929190611eb4565b50600482018160040190805460018160011615610100020316600290046117cc929190611eb4565b5060058201548160050155905050600360003373ffffffffffffffffffffffffffffffffffffffff1673ffffffffffffffffffffffffffffffffffffffff1681526020019081526020016000208181548110151561182657fe5b9060005260206000209060060201600080820160006118459190611f72565b6001820160006118559190611f72565b6002820160006118659190611f93565b6003820160006118759190611f93565b6004820160006118859190611f93565b600582016000905550505050808060010191505061156c565b505050565b6060600360008373ffffffffffffffffffffffffffffffffffffffff1673ffffffffffffffffffffffffffffffffffffffff168152602001908152602001600020805480602002602001604051908101604052809291908181526020016000905b82821015611c43578382906000526020600020906006020160c06040519081016040529081600082018054806020026020016040519081016040528092919081815260200182805480156119ad57602002820191906000526020600020905b8160009054906101000a900473ffffffffffffffffffffffffffffffffffffffff1673ffffffffffffffffffffffffffffffffffffffff1681526020019060010190808311611963575b5050505050815260200160018201805480602002602001604051908101604052809291908181526020018280548015611a3b57602002820191906000526020600020905b8160009054906101000a900473ffffffffffffffffffffffffffffffffffffffff1673ffffffffffffffffffffffffffffffffffffffff16815260200190600101908083116119f1575b50505050508152602001600282018054600181600116156101000203166002900480601f016020809104026020016040519081016040528092919081815260200182805460018160011615610100020316600290048015611add5780601f10611ab257610100808354040283529160200191611add565b820191906000526020600020905b815481529060010190602001808311611ac057829003601f168201915b50505050508152602001600382018054600181600116156101000203166002900480601f016020809104026020016040519081016040528092919081815260200182805460018160011615610100020316600290048015611b7f5780601f10611b5457610100808354040283529160200191611b7f565b820191906000526020600020905b815481529060010190602001808311611b6257829003601f168201915b50505050508152602001600482018054600181600116156101000203166002900480601f016020809104026020016040519081016040528092919081815260200182805460018160011615610100020316600290048015611c215780601f10611bf657610100808354040283529160200191611c21565b820191906000526020600020905b815481529060010190602001808311611c0457829003601f168201915b5050505050815260200160058201548152505081526020019060010190611904565b505050509050919050565b828054828255906000526020600020908101928215611cc7579160200282015b82811115611cc65782518260006101000a81548173ffffffffffffffffffffffffffffffffffffffff021916908373ffffffffffffffffffffffffffffffffffffffff16021790555091602001919060010190611c6e565b5b509050611cd49190611fdb565b5090565b828054600181600116156101000203166002900490600052602060002090601f016020900481019282601f10611d1957805160ff1916838001178555611d47565b82800160010185558215611d47579182015b82811115611d46578251825591602001919060010190611d2b565b5b509050611d54919061201e565b5090565b828054828255906000526020600020908101928215611dd1579160200282015b82811115611dd05782518260006101000a81548173ffffffffffffffffffffffffffffffffffffffff021916908373ffffffffffffffffffffffffffffffffffffffff16021790555091602001919060010190611d78565b5b509050611dde9190612043565b5090565b828054600181600116156101000203166002900490600052602060002090601f016020900481019282601f10611e2357805160ff1916838001178555611e51565b82800160010185558215611e51579182015b82811115611e50578251825591602001919060010190611e35565b5b509050611e5e919061201e565b5090565b828054828255906000526020600020908101928215611ea35760005260206000209182015b82811115611ea2578254825591600101919060010190611e87565b5b509050611eb09190611fdb565b5090565b828054600181600116156101000203166002900490600052602060002090601f016020900481019282601f10611eed5780548555611f2a565b82800160010185558215611f2a57600052602060002091601f016020900482015b82811115611f29578254825591600101919060010190611f0e565b5b509050611f37919061201e565b5090565b60c0604051908101604052806060815260200160608152602001606081526020016060815260200160608152602001600081525090565b5080546000825590600052602060002090810190611f90919061201e565b50565b50805460018160011615610100020316600290046000825580601f10611fb95750611fd8565b601f016020900490600052602060002090810190611fd7919061201e565b5b50565b61201b91905b8082111561201757600081816101000a81549073ffffffffffffffffffffffffffffffffffffffff021916905550600101611fe1565b5090565b90565b61204091905b8082111561203c576000816000905550600101612024565b5090565b90565b61208391905b8082111561207f57600081816101000a81549073ffffffffffffffffffffffffffffffffffffffff021916905550600101612049565b5090565b90565b60006120928235612927565b905092915050565b60006120a68235612939565b905092915050565b600082601f83011215156120c157600080fd5b81356120d46120cf82612800565b6127d3565b915081818352602084019350602081019050838560208402820111156120f957600080fd5b60005b83811015612129578161210f888261209a565b8452602084019350602083019250506001810190506120fc565b5050505092915050565b600082601f830112151561214657600080fd5b813561215961215482612828565b6127d3565b9150808252602083016020830185838301111561217557600080fd5b612180838284612955565b50505092915050565b6000612195823561294b565b905092915050565b6000602082840312156121af57600080fd5b60006121bd84828501612086565b91505092915050565b600080604083850312156121d957600080fd5b60006121e785828601612086565b92505060206121f885828601612189565b9150509250929050565b600080600080600060a0868803121561221a57600080fd5b600086013567ffffffffffffffff81111561223457600080fd5b612240888289016120ae565b955050602086013567ffffffffffffffff81111561225d57600080fd5b612269888289016120ae565b945050604086013567ffffffffffffffff81111561228657600080fd5b61229288828901612133565b935050606086013567ffffffffffffffff8111156122af57600080fd5b6122bb88828901612133565b925050608086013567ffffffffffffffff8111156122d857600080fd5b6122e488828901612133565b9150509295509295909350565b60006020828403121561230357600080fd5b600061231184828501612189565b91505092915050565b6000806040838503121561232d57600080fd5b600061233b85828601612189565b925050602061234c8582860161209a565b9150509250929050565b6000806040838503121561236957600080fd5b600061237785828601612189565b925050602061238885828601612189565b9150509250929050565b61239b816128eb565b82525050565b6123aa816128d9565b82525050565b60006123bb8261287b565b8084526020840193506123cd83612854565b60005b828110156123ff576123e38683516123a1565b6123ec826128b2565b91506020860195506001810190506123d0565b50849250505092915050565b600061241682612886565b80845260208401935061242883612861565b60005b8281101561245a5761243e868351612392565b612447826128bf565b915060208601955060018101905061242b565b50849250505092915050565b600061247182612891565b8084526020840193508360208202850161248a8561286e565b60005b848110156124c35783830388526124a58383516125e5565b92506124b0826128cc565b915060208801975060018101905061248d565b508196508694505050505092915050565b60006124df826128a7565b8084526124f3816020860160208601612964565b6124fc81612997565b602085010191505092915050565b60006125158261289c565b808452612529816020860160208601612964565b61253281612997565b602085010191505092915050565b600060c083016000830151848203600086015261255d828261240b565b91505060208301518482036020860152612577828261240b565b91505060408301518482036040860152612591828261250a565b915050606083015184820360608601526125ab828261250a565b915050608083015184820360808601526125c5828261250a565b91505060a08301516125da60a086018261268a565b508091505092915050565b600060c0830160008301518482036000860152612602828261240b565b9150506020830151848203602086015261261c828261240b565b91505060408301518482036040860152612636828261250a565b91505060608301518482036060860152612650828261250a565b9150506080830151848203608086015261266a828261250a565b91505060a083015161267f60a086018261268a565b508091505092915050565b6126938161291d565b82525050565b60006020820190506126ae60008301846123a1565b92915050565b600060208201905081810360008301526126ce81846123b0565b905092915050565b600060208201905081810360008301526126f08184612466565b905092915050565b60006020820190508181036000830152612712818461250a565b905092915050565b6000602082019050818103600083015261273481846124d4565b905092915050565b60006080820190508181036000830152612756818761250a565b9050818103602083015261276a818661250a565b9050818103604083015261277e818561250a565b905061278d606083018461268a565b95945050505050565b600060208201905081810360008301526127b08184612540565b905092915050565b60006020820190506127cd600083018461268a565b92915050565b6000604051905081810181811067ffffffffffffffff821117156127f657600080fd5b8060405250919050565b600067ffffffffffffffff82111561281757600080fd5b602082029050602081019050919050565b600067ffffffffffffffff82111561283f57600080fd5b601f19601f8301169050602081019050919050565b6000602082019050919050565b6000602082019050919050565b6000602082019050919050565b600081519050919050565b600081519050919050565b600081519050919050565b600081519050919050565b600081519050919050565b6000602082019050919050565b6000602082019050919050565b6000602082019050919050565b60006128e4826128fd565b9050919050565b60006128f6826128fd565b9050919050565b600073ffffffffffffffffffffffffffffffffffffffff82169050919050565b6000819050919050565b6000612932826128fd565b9050919050565b6000612944826128fd565b9050919050565b6000819050919050565b82818337600083830152505050565b60005b83811015612982578082015181840152602081019050612967565b83811115612991576000848401525b50505050565b6000601f19601f830116905091905056fea265627a7a723058209289590d3678ed93bdc53cc81c17b27df71790e29fa5cb1e981df144a5d91c0c6c6578706572696d656e74616cf50037",
  "source": "pragma experimental ABIEncoderV2;\n\ncontract PatentManager {\n\n    struct Patent {\n        address payable[] owners;\n        address payable[] lisenceHolders;\n        string patentName;\n        string patentType;\n        string issueDate;\n        uint patentId;\n    }\n\n    Patent[] private patents;\n\n    mapping(uint => address[]) public patentOwnerMap;\n    \n    //store name of the patent for a particular patentId\n    mapping(uint => string) public patentNameMap;\n\n    mapping(address => Patent[]) public ownerPatentsMap;\n\n    function registerPatent(address payable[] memory owners, address payable[] memory lisenceHolders, string memory patentName, string memory issueDate, string memory patentType) public returns (uint) {\n        uint patentId = patents.length;\n        patents.push(Patent(owners, lisenceHolders, patentName, patentType, issueDate, patentId));\n        patentOwnerMap[patentId] = owners;\n        patentNameMap[patentId] = patentName;\n        for (uint i = 0; i < owners.length; i++) {\n            ownerPatentsMap[owners[i]].push(patents[patentId]);\n        }\n        return patentId;\n    }\n\n    function addOwner(uint patentId, address payable person) public {\n        patents[patentId].owners.push(person);\n        ownerPatentsMap[person].push(patents[patentId]);\n    }\n\n    function addLisenceHolder(uint patentId, address payable person) public {\n        patents[patentId].lisenceHolders.push(person);\n    }\n    \n    function transferPatent(uint patentId, address payable receiver) public {\n        for (uint i = 0; i < patents[patentId].owners.length; i++) {\n            if (patents[patentId].owners[i]==msg.sender) {\n                patents[patentId].owners[i]=receiver;\n                break;\n            }\n        }\n\n        for (uint i = 0; i < ownerPatentsMap[msg.sender].length; i++) {\n            uint pos = 0;\n            if (ownerPatentsMap[msg.sender][i].patentId==patentId) {\n                pos = i;\n                break;\n            }\n            uint last = ownerPatentsMap[msg.sender].length - 1;\n            ownerPatentsMap[msg.sender][pos] = ownerPatentsMap[msg.sender][last];\n            delete ownerPatentsMap[msg.sender][last];\n        }\n\n        for (uint i = 0; i < ownerPatentsMap[msg.sender].length; i++) {\n            uint pos = 0;\n            if (ownerPatentsMap[msg.sender][i].patentId==patentId) {\n                pos = i;\n                break;\n            }\n            uint last = ownerPatentsMap[msg.sender].length - 1;\n            ownerPatentsMap[msg.sender][pos] = ownerPatentsMap[msg.sender][last];\n            delete ownerPatentsMap[msg.sender][last];\n        }\n    }\n\n    function getPatent(uint patentId) public view returns (Patent memory) {\n        return (patents[patentId]);\n    }\n\n    function getOwnerList(uint patentId) public view returns (address[] memory){\n        return (patentOwnerMap[patentId]);\n    }\n\n    function getPatentName(uint patentId) public view returns (string memory){\n        return (patentNameMap[patentId]);\n    }\n    \n    function getPatentType(uint patentId) public view returns(string memory){\n        return patents[patentId].patentType;\n    }\n\n    function getPatentsByOwner(address owner) public view returns (Patent[] memory){\n        return ownerPatentsMap[owner];\n\n    }\n\n}",
  "sourcePath": "/media/anup/B290EFD890EFA159/Block8/patent_bidding_transfer/patent-backend/contracts/PatentManager.sol",
  "compiler": {
    "name": "solc",
    "version": "0.5.0+commit.1d4f565a.Emscripten.clang"
  },
  "schemaVersion": "3.0.1",
  "updatedAt": "2019-02-12T10:49:02.425Z",
  "devdoc": {
    "methods": {}
  },
  "userdoc": {
    "methods": {}
  }
}