{
  "contractName": "PatentManager",
  "abi": [
    {
      "constant": true,
      "inputs": [
        {
          "name": "",
          "type": "uint256"
        }
      ],
      "name": "patentNameMap",
      "outputs": [
        {
          "name": "",
          "type": "string"
        }
      ],
      "payable": false,
      "stateMutability": "view",
      "type": "function",
      "signature": "0x05c1ba22"
    },
    {
      "constant": true,
      "inputs": [
        {
          "name": "",
          "type": "address"
        },
        {
          "name": "",
          "type": "uint256"
        }
      ],
      "name": "ownerPatentsMap",
      "outputs": [
        {
          "name": "patentName",
          "type": "string"
        },
        {
          "name": "patentType",
          "type": "string"
        },
        {
          "name": "issueDate",
          "type": "string"
        },
        {
          "name": "patentId",
          "type": "uint256"
        }
      ],
      "payable": false,
      "stateMutability": "view",
      "type": "function",
      "signature": "0x46e5e8e2"
    },
    {
      "constant": true,
      "inputs": [
        {
          "name": "",
          "type": "uint256"
        },
        {
          "name": "",
          "type": "uint256"
        }
      ],
      "name": "patentOwnerMap",
      "outputs": [
        {
          "name": "",
          "type": "address"
        }
      ],
      "payable": false,
      "stateMutability": "view",
      "type": "function",
      "signature": "0xbe90b054"
    },
    {
      "constant": false,
      "inputs": [
        {
          "name": "owners",
          "type": "address[]"
        },
        {
          "name": "lisenceHolders",
          "type": "address[]"
        },
        {
          "name": "patentName",
          "type": "string"
        },
        {
          "name": "issueDate",
          "type": "string"
        },
        {
          "name": "patentType",
          "type": "string"
        }
      ],
      "name": "registerPatent",
      "outputs": [
        {
          "name": "",
          "type": "uint256"
        }
      ],
      "payable": false,
      "stateMutability": "nonpayable",
      "type": "function",
      "signature": "0x813d2ed0"
    },
    {
      "constant": false,
      "inputs": [
        {
          "name": "patentId",
          "type": "uint256"
        },
        {
          "name": "person",
          "type": "address"
        }
      ],
      "name": "addOwner",
      "outputs": [],
      "payable": false,
      "stateMutability": "nonpayable",
      "type": "function",
      "signature": "0x8cd1bb20"
    },
    {
      "constant": false,
      "inputs": [
        {
          "name": "patentId",
          "type": "uint256"
        },
        {
          "name": "person",
          "type": "address"
        }
      ],
      "name": "addLisenceHolder",
      "outputs": [],
      "payable": false,
      "stateMutability": "nonpayable",
      "type": "function",
      "signature": "0x25700466"
    },
    {
      "constant": false,
      "inputs": [
        {
          "name": "patentId",
          "type": "uint256"
        },
        {
          "name": "receiver",
          "type": "address"
        }
      ],
      "name": "transferPatent",
      "outputs": [],
      "payable": false,
      "stateMutability": "nonpayable",
      "type": "function",
      "signature": "0xd510bbd7"
    },
    {
      "constant": true,
      "inputs": [
        {
          "name": "patentId",
          "type": "uint256"
        }
      ],
      "name": "getPatent",
      "outputs": [
        {
          "components": [
            {
              "name": "owners",
              "type": "address[]"
            },
            {
              "name": "lisenceHolders",
              "type": "address[]"
            },
            {
              "name": "patentName",
              "type": "string"
            },
            {
              "name": "patentType",
              "type": "string"
            },
            {
              "name": "issueDate",
              "type": "string"
            },
            {
              "name": "patentId",
              "type": "uint256"
            }
          ],
          "name": "",
          "type": "tuple"
        }
      ],
      "payable": false,
      "stateMutability": "view",
      "type": "function",
      "signature": "0x9c6d0d78"
    },
    {
      "constant": true,
      "inputs": [
        {
          "name": "patentId",
          "type": "uint256"
        }
      ],
      "name": "getOwnerList",
      "outputs": [
        {
          "name": "",
          "type": "address[]"
        }
      ],
      "payable": false,
      "stateMutability": "view",
      "type": "function",
      "signature": "0x8dd95e99"
    },
    {
      "constant": true,
      "inputs": [
        {
          "name": "patentId",
          "type": "uint256"
        }
      ],
      "name": "getPatentName",
      "outputs": [
        {
          "name": "",
          "type": "string"
        }
      ],
      "payable": false,
      "stateMutability": "view",
      "type": "function",
      "signature": "0x087344d3"
    },
    {
      "constant": true,
      "inputs": [
        {
          "name": "owner",
          "type": "address"
        }
      ],
      "name": "getPatentsByOwner",
      "outputs": [
        {
          "components": [
            {
              "name": "owners",
              "type": "address[]"
            },
            {
              "name": "lisenceHolders",
              "type": "address[]"
            },
            {
              "name": "patentName",
              "type": "string"
            },
            {
              "name": "patentType",
              "type": "string"
            },
            {
              "name": "issueDate",
              "type": "string"
            },
            {
              "name": "patentId",
              "type": "uint256"
            }
          ],
          "name": "",
          "type": "tuple[]"
        }
      ],
      "payable": false,
      "stateMutability": "view",
      "type": "function",
      "signature": "0xfc8f39f5"
    }
  ],
  "bytecode": "0x608060405234801561001057600080fd5b5061259f806100206000396000f3fe6080604052600436106100af576000357c0100000000000000000000000000000000000000000000000000000000900463ffffffff16806305c1ba22146100b4578063087344d3146100f1578063257004661461012e57806346e5e8e214610157578063813d2ed0146101975780638cd1bb20146101d45780638dd95e99146101fd5780639c6d0d781461023a578063be90b05414610277578063d510bbd7146102b4578063fc8f39f5146102dd575b600080fd5b3480156100c057600080fd5b506100db60048036036100d69190810190611eae565b61031a565b6040516100e891906122b5565b60405180910390f35b3480156100fd57600080fd5b5061011860048036036101139190810190611eae565b6103ca565b60405161012591906122d7565b60405180910390f35b34801561013a57600080fd5b5061015560048036036101509190810190611ed7565b61047f565b005b34801561016357600080fd5b5061017e60048036036101799190810190611d83565b610507565b60405161018e94939291906122f9565b60405180910390f35b3480156101a357600080fd5b506101be60048036036101b99190810190611dbf565b61071b565b6040516101cb9190612375565b60405180910390f35b3480156101e057600080fd5b506101fb60048036036101f69190810190611ed7565b6109ea565b005b34801561020957600080fd5b50610224600480360361021f9190810190611eae565b610bac565b6040516102319190612271565b60405180910390f35b34801561024657600080fd5b50610261600480360361025c9190810190611eae565b610c4d565b60405161026e9190612353565b60405180910390f35b34801561028357600080fd5b5061029e60048036036102999190810190611f13565b610f91565b6040516102ab9190612256565b60405180910390f35b3480156102c057600080fd5b506102db60048036036102d69190810190611ed7565b610fde565b005b3480156102e957600080fd5b5061030460048036036102ff9190810190611d5a565b611460565b6040516103119190612293565b60405180910390f35b60026020528060005260406000206000915090508054600181600116156101000203166002900480601f0160208091040260200160405190810160405280929190818152602001828054600181600116156101000203166002900480156103c25780601f10610397576101008083540402835291602001916103c2565b820191906000526020600020905b8154815290600101906020018083116103a557829003601f168201915b505050505081565b6060600260008381526020019081526020016000208054600181600116156101000203166002900480601f0160208091040260200160405190810160405280929190818152602001828054600181600116156101000203166002900480156104735780601f1061044857610100808354040283529160200191610473565b820191906000526020600020905b81548152906001019060200180831161045657829003601f168201915b50505050509050919050565b60008281548110151561048e57fe5b90600052602060002090600602016001018190806001815401808255809150509060018203906000526020600020016000909192909190916101000a81548173ffffffffffffffffffffffffffffffffffffffff021916908373ffffffffffffffffffffffffffffffffffffffff160217905550505050565b60036020528160005260406000208181548110151561052257fe5b906000526020600020906006020160009150915050806002018054600181600116156101000203166002900480601f0160208091040260200160405190810160405280929190818152602001828054600181600116156101000203166002900480156105cf5780601f106105a4576101008083540402835291602001916105cf565b820191906000526020600020905b8154815290600101906020018083116105b257829003601f168201915b505050505090806003018054600181600116156101000203166002900480601f01602080910402602001604051908101604052809291908181526020018280546001816001161561010002031660029004801561066d5780601f106106425761010080835404028352916020019161066d565b820191906000526020600020905b81548152906001019060200180831161065057829003601f168201915b505050505090806004018054600181600116156101000203166002900480601f01602080910402602001604051908101604052809291908181526020018280546001816001161561010002031660029004801561070b5780601f106106e05761010080835404028352916020019161070b565b820191906000526020600020905b8154815290600101906020018083116106ee57829003601f168201915b5050505050908060050154905084565b6000806000805490509050600060c0604051908101604052808981526020018881526020018781526020018581526020018681526020018381525090806001815401808255809150509060018203906000526020600020906006020160009091929091909150600082015181600001908051906020019061079d92919061180b565b5060208201518160010190805190602001906107ba92919061180b565b5060408201518160020190805190602001906107d7929190611895565b5060608201518160030190805190602001906107f4929190611895565b506080820151816004019080519060200190610811929190611895565b5060a0820151816005015550505086600160008381526020019081526020016000209080519060200190610846929190611915565b508460026000838152602001908152602001600020908051906020019061086e92919061199f565b5060008090505b87518110156109dc5760036000898381518110151561089057fe5b9060200190602002015173ffffffffffffffffffffffffffffffffffffffff1673ffffffffffffffffffffffffffffffffffffffff1681526020019081526020016000206000838154811015156108e357fe5b9060005260206000209060060201908060018154018082558091505090600182039060005260206000209060060201600090919290919091506000820181600001908054610932929190611a1f565b506001820181600101908054610949929190611a1f565b5060028201816002019080546001816001161561010002031660029004610971929190611a71565b5060038201816003019080546001816001161561010002031660029004610999929190611a71565b50600482018160040190805460018160011615610100020316600290046109c1929190611a71565b50600582015481600501555050508080600101915050610875565b508091505095945050505050565b6000828154811015156109f957fe5b90600052602060002090600602016000018190806001815401808255809150509060018203906000526020600020016000909192909190916101000a81548173ffffffffffffffffffffffffffffffffffffffff021916908373ffffffffffffffffffffffffffffffffffffffff16021790555050600360008273ffffffffffffffffffffffffffffffffffffffff1673ffffffffffffffffffffffffffffffffffffffff168152602001908152602001600020600083815481101515610abc57fe5b9060005260206000209060060201908060018154018082558091505090600182039060005260206000209060060201600090919290919091506000820181600001908054610b0b929190611a1f565b506001820181600101908054610b22929190611a1f565b5060028201816002019080546001816001161561010002031660029004610b4a929190611a71565b5060038201816003019080546001816001161561010002031660029004610b72929190611a71565b5060048201816004019080546001816001161561010002031660029004610b9a929190611a71565b50600582015481600501555050505050565b606060016000838152602001908152602001600020805480602002602001604051908101604052809291908181526020018280548015610c4157602002820191906000526020600020905b8160009054906101000a900473ffffffffffffffffffffffffffffffffffffffff1673ffffffffffffffffffffffffffffffffffffffff1681526020019060010190808311610bf7575b50505050509050919050565b610c55611af8565b600082815481101515610c6457fe5b906000526020600020906006020160c0604051908101604052908160008201805480602002602001604051908101604052809291908181526020018280548015610d0357602002820191906000526020600020905b8160009054906101000a900473ffffffffffffffffffffffffffffffffffffffff1673ffffffffffffffffffffffffffffffffffffffff1681526020019060010190808311610cb9575b5050505050815260200160018201805480602002602001604051908101604052809291908181526020018280548015610d9157602002820191906000526020600020905b8160009054906101000a900473ffffffffffffffffffffffffffffffffffffffff1673ffffffffffffffffffffffffffffffffffffffff1681526020019060010190808311610d47575b50505050508152602001600282018054600181600116156101000203166002900480601f016020809104026020016040519081016040528092919081815260200182805460018160011615610100020316600290048015610e335780601f10610e0857610100808354040283529160200191610e33565b820191906000526020600020905b815481529060010190602001808311610e1657829003601f168201915b50505050508152602001600382018054600181600116156101000203166002900480601f016020809104026020016040519081016040528092919081815260200182805460018160011615610100020316600290048015610ed55780601f10610eaa57610100808354040283529160200191610ed5565b820191906000526020600020905b815481529060010190602001808311610eb857829003601f168201915b50505050508152602001600482018054600181600116156101000203166002900480601f016020809104026020016040519081016040528092919081815260200182805460018160011615610100020316600290048015610f775780601f10610f4c57610100808354040283529160200191610f77565b820191906000526020600020905b815481529060010190602001808311610f5a57829003601f168201915b505050505081526020016005820154815250509050919050565b600160205281600052604060002081815481101515610fac57fe5b906000526020600020016000915091509054906101000a900473ffffffffffffffffffffffffffffffffffffffff1681565b60008090505b600083815481101515610ff357fe5b906000526020600020906006020160000180549050811015611122573373ffffffffffffffffffffffffffffffffffffffff1660008481548110151561103557fe5b90600052602060002090600602016000018281548110151561105357fe5b9060005260206000200160009054906101000a900473ffffffffffffffffffffffffffffffffffffffff1673ffffffffffffffffffffffffffffffffffffffff16141561111557816000848154811015156110aa57fe5b9060005260206000209060060201600001828154811015156110c857fe5b9060005260206000200160006101000a81548173ffffffffffffffffffffffffffffffffffffffff021916908373ffffffffffffffffffffffffffffffffffffffff160217905550611122565b8080600101915050610fe4565b5060008090505b600360003373ffffffffffffffffffffffffffffffffffffffff1673ffffffffffffffffffffffffffffffffffffffff1681526020019081526020016000208054905081101561145b57600080905083600360003373ffffffffffffffffffffffffffffffffffffffff1673ffffffffffffffffffffffffffffffffffffffff168152602001908152602001600020838154811015156111c557fe5b90600052602060002090600602016005015414156111e6578190505061145b565b60006001600360003373ffffffffffffffffffffffffffffffffffffffff1673ffffffffffffffffffffffffffffffffffffffff16815260200190815260200160002080549050039050600360003373ffffffffffffffffffffffffffffffffffffffff1673ffffffffffffffffffffffffffffffffffffffff1681526020019081526020016000208181548110151561127c57fe5b9060005260206000209060060201600360003373ffffffffffffffffffffffffffffffffffffffff1673ffffffffffffffffffffffffffffffffffffffff168152602001908152602001600020838154811015156112d657fe5b906000526020600020906006020160008201816000019080546112fa929190611a1f565b506001820181600101908054611311929190611a1f565b5060028201816002019080546001816001161561010002031660029004611339929190611a71565b5060038201816003019080546001816001161561010002031660029004611361929190611a71565b5060048201816004019080546001816001161561010002031660029004611389929190611a71565b5060058201548160050155905050600360003373ffffffffffffffffffffffffffffffffffffffff1673ffffffffffffffffffffffffffffffffffffffff168152602001908152602001600020818154811015156113e357fe5b9060005260206000209060060201600080820160006114029190611b2f565b6001820160006114129190611b2f565b6002820160006114229190611b50565b6003820160006114329190611b50565b6004820160006114429190611b50565b6005820160009055505050508080600101915050611129565b505050565b6060600360008373ffffffffffffffffffffffffffffffffffffffff1673ffffffffffffffffffffffffffffffffffffffff168152602001908152602001600020805480602002602001604051908101604052809291908181526020016000905b82821015611800578382906000526020600020906006020160c060405190810160405290816000820180548060200260200160405190810160405280929190818152602001828054801561156a57602002820191906000526020600020905b8160009054906101000a900473ffffffffffffffffffffffffffffffffffffffff1673ffffffffffffffffffffffffffffffffffffffff1681526020019060010190808311611520575b50505050508152602001600182018054806020026020016040519081016040528092919081815260200182805480156115f857602002820191906000526020600020905b8160009054906101000a900473ffffffffffffffffffffffffffffffffffffffff1673ffffffffffffffffffffffffffffffffffffffff16815260200190600101908083116115ae575b50505050508152602001600282018054600181600116156101000203166002900480601f01602080910402602001604051908101604052809291908181526020018280546001816001161561010002031660029004801561169a5780601f1061166f5761010080835404028352916020019161169a565b820191906000526020600020905b81548152906001019060200180831161167d57829003601f168201915b50505050508152602001600382018054600181600116156101000203166002900480601f01602080910402602001604051908101604052809291908181526020018280546001816001161561010002031660029004801561173c5780601f106117115761010080835404028352916020019161173c565b820191906000526020600020905b81548152906001019060200180831161171f57829003601f168201915b50505050508152602001600482018054600181600116156101000203166002900480601f0160208091040260200160405190810160405280929190818152602001828054600181600116156101000203166002900480156117de5780601f106117b3576101008083540402835291602001916117de565b820191906000526020600020905b8154815290600101906020018083116117c157829003601f168201915b50505050508152602001600582015481525050815260200190600101906114c1565b505050509050919050565b828054828255906000526020600020908101928215611884579160200282015b828111156118835782518260006101000a81548173ffffffffffffffffffffffffffffffffffffffff021916908373ffffffffffffffffffffffffffffffffffffffff1602179055509160200191906001019061182b565b5b5090506118919190611b98565b5090565b828054600181600116156101000203166002900490600052602060002090601f016020900481019282601f106118d657805160ff1916838001178555611904565b82800160010185558215611904579182015b828111156119035782518255916020019190600101906118e8565b5b5090506119119190611bdb565b5090565b82805482825590600052602060002090810192821561198e579160200282015b8281111561198d5782518260006101000a81548173ffffffffffffffffffffffffffffffffffffffff021916908373ffffffffffffffffffffffffffffffffffffffff16021790555091602001919060010190611935565b5b50905061199b9190611c00565b5090565b828054600181600116156101000203166002900490600052602060002090601f016020900481019282601f106119e057805160ff1916838001178555611a0e565b82800160010185558215611a0e579182015b82811115611a0d5782518255916020019190600101906119f2565b5b509050611a1b9190611bdb565b5090565b828054828255906000526020600020908101928215611a605760005260206000209182015b82811115611a5f578254825591600101919060010190611a44565b5b509050611a6d9190611b98565b5090565b828054600181600116156101000203166002900490600052602060002090601f016020900481019282601f10611aaa5780548555611ae7565b82800160010185558215611ae757600052602060002091601f016020900482015b82811115611ae6578254825591600101919060010190611acb565b5b509050611af49190611bdb565b5090565b60c0604051908101604052806060815260200160608152602001606081526020016060815260200160608152602001600081525090565b5080546000825590600052602060002090810190611b4d9190611bdb565b50565b50805460018160011615610100020316600290046000825580601f10611b765750611b95565b601f016020900490600052602060002090810190611b949190611bdb565b5b50565b611bd891905b80821115611bd457600081816101000a81549073ffffffffffffffffffffffffffffffffffffffff021916905550600101611b9e565b5090565b90565b611bfd91905b80821115611bf9576000816000905550600101611be1565b5090565b90565b611c4091905b80821115611c3c57600081816101000a81549073ffffffffffffffffffffffffffffffffffffffff021916905550600101611c06565b5090565b90565b6000611c4f82356124e4565b905092915050565b6000611c6382356124f6565b905092915050565b600082601f8301121515611c7e57600080fd5b8135611c91611c8c826123bd565b612390565b91508181835260208401935060208101905083856020840282011115611cb657600080fd5b60005b83811015611ce65781611ccc8882611c57565b845260208401935060208301925050600181019050611cb9565b5050505092915050565b600082601f8301121515611d0357600080fd5b8135611d16611d11826123e5565b612390565b91508082526020830160208301858383011115611d3257600080fd5b611d3d838284612512565b50505092915050565b6000611d528235612508565b905092915050565b600060208284031215611d6c57600080fd5b6000611d7a84828501611c43565b91505092915050565b60008060408385031215611d9657600080fd5b6000611da485828601611c43565b9250506020611db585828601611d46565b9150509250929050565b600080600080600060a08688031215611dd757600080fd5b600086013567ffffffffffffffff811115611df157600080fd5b611dfd88828901611c6b565b955050602086013567ffffffffffffffff811115611e1a57600080fd5b611e2688828901611c6b565b945050604086013567ffffffffffffffff811115611e4357600080fd5b611e4f88828901611cf0565b935050606086013567ffffffffffffffff811115611e6c57600080fd5b611e7888828901611cf0565b925050608086013567ffffffffffffffff811115611e9557600080fd5b611ea188828901611cf0565b9150509295509295909350565b600060208284031215611ec057600080fd5b6000611ece84828501611d46565b91505092915050565b60008060408385031215611eea57600080fd5b6000611ef885828601611d46565b9250506020611f0985828601611c57565b9150509250929050565b60008060408385031215611f2657600080fd5b6000611f3485828601611d46565b9250506020611f4585828601611d46565b9150509250929050565b611f58816124a8565b82525050565b611f6781612496565b82525050565b6000611f7882612438565b808452602084019350611f8a83612411565b60005b82811015611fbc57611fa0868351611f5e565b611fa98261246f565b9150602086019550600181019050611f8d565b50849250505092915050565b6000611fd382612443565b808452602084019350611fe58361241e565b60005b8281101561201757611ffb868351611f4f565b6120048261247c565b9150602086019550600181019050611fe8565b50849250505092915050565b600061202e8261244e565b808452602084019350836020820285016120478561242b565b60005b848110156120805783830388526120628383516121a2565b925061206d82612489565b915060208801975060018101905061204a565b508196508694505050505092915050565b600061209c82612464565b8084526120b0816020860160208601612521565b6120b981612554565b602085010191505092915050565b60006120d282612459565b8084526120e6816020860160208601612521565b6120ef81612554565b602085010191505092915050565b600060c083016000830151848203600086015261211a8282611fc8565b915050602083015184820360208601526121348282611fc8565b9150506040830151848203604086015261214e82826120c7565b9150506060830151848203606086015261216882826120c7565b9150506080830151848203608086015261218282826120c7565b91505060a083015161219760a0860182612247565b508091505092915050565b600060c08301600083015184820360008601526121bf8282611fc8565b915050602083015184820360208601526121d98282611fc8565b915050604083015184820360408601526121f382826120c7565b9150506060830151848203606086015261220d82826120c7565b9150506080830151848203608086015261222782826120c7565b91505060a083015161223c60a0860182612247565b508091505092915050565b612250816124da565b82525050565b600060208201905061226b6000830184611f5e565b92915050565b6000602082019050818103600083015261228b8184611f6d565b905092915050565b600060208201905081810360008301526122ad8184612023565b905092915050565b600060208201905081810360008301526122cf81846120c7565b905092915050565b600060208201905081810360008301526122f18184612091565b905092915050565b6000608082019050818103600083015261231381876120c7565b9050818103602083015261232781866120c7565b9050818103604083015261233b81856120c7565b905061234a6060830184612247565b95945050505050565b6000602082019050818103600083015261236d81846120fd565b905092915050565b600060208201905061238a6000830184612247565b92915050565b6000604051905081810181811067ffffffffffffffff821117156123b357600080fd5b8060405250919050565b600067ffffffffffffffff8211156123d457600080fd5b602082029050602081019050919050565b600067ffffffffffffffff8211156123fc57600080fd5b601f19601f8301169050602081019050919050565b6000602082019050919050565b6000602082019050919050565b6000602082019050919050565b600081519050919050565b600081519050919050565b600081519050919050565b600081519050919050565b600081519050919050565b6000602082019050919050565b6000602082019050919050565b6000602082019050919050565b60006124a1826124ba565b9050919050565b60006124b3826124ba565b9050919050565b600073ffffffffffffffffffffffffffffffffffffffff82169050919050565b6000819050919050565b60006124ef826124ba565b9050919050565b6000612501826124ba565b9050919050565b6000819050919050565b82818337600083830152505050565b60005b8381101561253f578082015181840152602081019050612524565b8381111561254e576000848401525b50505050565b6000601f19601f830116905091905056fea265627a7a723058209e1645ec792dbeb6cbd831a32b0d5e6962a7a6c891cee5feb25c9861aec520ab6c6578706572696d656e74616cf50037",
  "source": "pragma experimental ABIEncoderV2;\n\ncontract PatentManager {\n\n    struct Patent {\n        address payable[] owners;\n        address payable[] lisenceHolders;\n        string patentName;\n        string patentType;\n        string issueDate;\n        uint patentId;\n    }\n\n    Patent[] private patents;\n\n    mapping(uint => address[]) public patentOwnerMap;\n    \n    //store name of the patent for a particular patentId\n    mapping(uint => string) public patentNameMap;\n\n    mapping(address => Patent[]) public ownerPatentsMap;\n\n    function registerPatent(address payable[] memory owners, address payable[] memory lisenceHolders, string memory patentName, string memory issueDate, string memory patentType) public returns (uint) {\n        uint patentId = patents.length;\n        patents.push(Patent(owners, lisenceHolders, patentName, patentType, issueDate, patentId));\n        patentOwnerMap[patentId] = owners;\n        patentNameMap[patentId] = patentName;\n        for (uint i = 0; i < owners.length; i++) {\n            ownerPatentsMap[owners[i]].push(patents[patentId]);\n        }\n        return patentId;\n    }\n\n    function addOwner(uint patentId, address payable person) public {\n        patents[patentId].owners.push(person);\n        ownerPatentsMap[person].push(patents[patentId]);\n    }\n\n    function addLisenceHolder(uint patentId, address payable person) public {\n        patents[patentId].lisenceHolders.push(person);\n    }\n    \n    function transferPatent(uint patentId, address payable receiver) public {\n        for (uint i = 0; i < patents[patentId].owners.length; i++) {\n            if (patents[patentId].owners[i]==msg.sender) {\n                patents[patentId].owners[i]=receiver;\n                break;\n            }\n        }\n\n        for (uint i = 0; i < ownerPatentsMap[msg.sender].length; i++) {\n            uint pos = 0;\n            if (ownerPatentsMap[msg.sender][i].patentId==patentId) {\n                pos = i;\n                break;\n            }\n            uint last = ownerPatentsMap[msg.sender].length - 1;\n            ownerPatentsMap[msg.sender][pos] = ownerPatentsMap[msg.sender][last];\n            delete ownerPatentsMap[msg.sender][last];\n        }\n    }\n\n    function getPatent(uint patentId) public view returns (Patent memory) {\n        return (patents[patentId]);\n    }\n\n    function getOwnerList(uint patentId) public view returns (address[] memory){\n        return (patentOwnerMap[patentId]);\n    }\n\n    function getPatentName(uint patentId) public view returns (string memory){\n        return (patentNameMap[patentId]);\n    }\n\n    function getPatentsByOwner(address owner) public view returns (Patent[] memory){\n        return ownerPatentsMap[owner];\n    }\n}\n\n",
  "sourcePath": "/media/anup/B290EFD890EFA159/Block8/patent_bidding_transfer/patent-backend/contracts/PatentManager.sol",
  "compiler": {
    "name": "solc",
    "version": "0.5.0+commit.1d4f565a.Emscripten.clang"
  },
  "schemaVersion": "3.0.1",
  "updatedAt": "2019-01-29T08:35:59.788Z",
  "devdoc": {
    "methods": {}
  },
  "userdoc": {
    "methods": {}
  }
}