{
  "contractName": "PatentManager",
  "abi": [
    {
      "constant": true,
      "inputs": [
        {
          "name": "",
          "type": "uint256"
        }
      ],
      "name": "patentNameMap",
      "outputs": [
        {
          "name": "",
          "type": "string"
        }
      ],
      "payable": false,
      "stateMutability": "view",
      "type": "function",
      "signature": "0x05c1ba22"
    },
    {
      "constant": true,
      "inputs": [
        {
          "name": "",
          "type": "address"
        },
        {
          "name": "",
          "type": "uint256"
        }
      ],
      "name": "ownerPatentsMap",
      "outputs": [
        {
          "name": "patentName",
          "type": "string"
        },
        {
          "name": "patentType",
          "type": "string"
        },
        {
          "name": "patentSubType",
          "type": "string"
        },
        {
          "name": "issueDate",
          "type": "string"
        },
        {
          "name": "patentId",
          "type": "uint256"
        }
      ],
      "payable": false,
      "stateMutability": "view",
      "type": "function",
      "signature": "0x46e5e8e2"
    },
    {
      "constant": true,
      "inputs": [
        {
          "name": "",
          "type": "uint256"
        },
        {
          "name": "",
          "type": "uint256"
        }
      ],
      "name": "patentOwnerMap",
      "outputs": [
        {
          "name": "",
          "type": "address"
        }
      ],
      "payable": false,
      "stateMutability": "view",
      "type": "function",
      "signature": "0xbe90b054"
    },
    {
      "constant": true,
      "inputs": [
        {
          "name": "",
          "type": "uint256"
        }
      ],
      "name": "patents",
      "outputs": [
        {
          "name": "patentName",
          "type": "string"
        },
        {
          "name": "patentType",
          "type": "string"
        },
        {
          "name": "patentSubType",
          "type": "string"
        },
        {
          "name": "issueDate",
          "type": "string"
        },
        {
          "name": "patentId",
          "type": "uint256"
        }
      ],
      "payable": false,
      "stateMutability": "view",
      "type": "function",
      "signature": "0xf422bc68"
    },
    {
      "constant": false,
      "inputs": [
        {
          "name": "owners",
          "type": "address[]"
        },
        {
          "name": "lisenceHolders",
          "type": "address[]"
        },
        {
          "name": "patentName",
          "type": "string"
        },
        {
          "name": "issueDate",
          "type": "string"
        },
        {
          "name": "patentType",
          "type": "string"
        },
        {
          "name": "patentSubType",
          "type": "string"
        }
      ],
      "name": "registerPatent",
      "outputs": [
        {
          "name": "",
          "type": "uint256"
        }
      ],
      "payable": false,
      "stateMutability": "nonpayable",
      "type": "function",
      "signature": "0x4b2be01c"
    },
    {
      "constant": false,
      "inputs": [
        {
          "name": "patentId",
          "type": "uint256"
        },
        {
          "name": "person",
          "type": "address"
        }
      ],
      "name": "addOwner",
      "outputs": [],
      "payable": false,
      "stateMutability": "nonpayable",
      "type": "function",
      "signature": "0x8cd1bb20"
    },
    {
      "constant": false,
      "inputs": [
        {
          "name": "patentId",
          "type": "uint256"
        },
        {
          "name": "person",
          "type": "address"
        }
      ],
      "name": "addLisenceHolder",
      "outputs": [],
      "payable": false,
      "stateMutability": "nonpayable",
      "type": "function",
      "signature": "0x25700466"
    },
    {
      "constant": false,
      "inputs": [
        {
          "name": "patentId",
          "type": "uint256"
        },
        {
          "name": "receiver",
          "type": "address"
        }
      ],
      "name": "transferPatent",
      "outputs": [],
      "payable": false,
      "stateMutability": "nonpayable",
      "type": "function",
      "signature": "0xd510bbd7"
    },
    {
      "constant": true,
      "inputs": [
        {
          "name": "patentId",
          "type": "uint256"
        }
      ],
      "name": "getPatent",
      "outputs": [
        {
          "components": [
            {
              "name": "owners",
              "type": "address[]"
            },
            {
              "name": "lisenceHolders",
              "type": "address[]"
            },
            {
              "name": "patentName",
              "type": "string"
            },
            {
              "name": "patentType",
              "type": "string"
            },
            {
              "name": "patentSubType",
              "type": "string"
            },
            {
              "name": "issueDate",
              "type": "string"
            },
            {
              "name": "patentId",
              "type": "uint256"
            }
          ],
          "name": "",
          "type": "tuple"
        }
      ],
      "payable": false,
      "stateMutability": "view",
      "type": "function",
      "signature": "0x9c6d0d78"
    },
    {
      "constant": true,
      "inputs": [
        {
          "name": "patentId",
          "type": "uint256"
        }
      ],
      "name": "getOwnerList",
      "outputs": [
        {
          "name": "",
          "type": "address[]"
        }
      ],
      "payable": false,
      "stateMutability": "view",
      "type": "function",
      "signature": "0x8dd95e99"
    },
    {
      "constant": true,
      "inputs": [
        {
          "name": "patentId",
          "type": "uint256"
        }
      ],
      "name": "getPatentName",
      "outputs": [
        {
          "name": "",
          "type": "string"
        }
      ],
      "payable": false,
      "stateMutability": "view",
      "type": "function",
      "signature": "0x087344d3"
    },
    {
      "constant": true,
      "inputs": [
        {
          "name": "patentId",
          "type": "uint256"
        }
      ],
      "name": "getPatentType",
      "outputs": [
        {
          "name": "",
          "type": "string"
        }
      ],
      "payable": false,
      "stateMutability": "view",
      "type": "function",
      "signature": "0x1a241775"
    },
    {
      "constant": true,
      "inputs": [
        {
          "name": "owner",
          "type": "address"
        }
      ],
      "name": "getPatentsByOwner",
      "outputs": [
        {
          "components": [
            {
              "name": "owners",
              "type": "address[]"
            },
            {
              "name": "lisenceHolders",
              "type": "address[]"
            },
            {
              "name": "patentName",
              "type": "string"
            },
            {
              "name": "patentType",
              "type": "string"
            },
            {
              "name": "patentSubType",
              "type": "string"
            },
            {
              "name": "issueDate",
              "type": "string"
            },
            {
              "name": "patentId",
              "type": "uint256"
            }
          ],
          "name": "",
          "type": "tuple[]"
        }
      ],
      "payable": false,
      "stateMutability": "view",
      "type": "function",
      "signature": "0xfc8f39f5"
    }
  ],
  "bytecode": "0x608060405234801561001057600080fd5b50613014806100206000396000f3fe6080604052600436106100c5576000357c0100000000000000000000000000000000000000000000000000000000900463ffffffff16806305c1ba22146100ca578063087344d3146101075780631a24177514610144578063257004661461018157806346e5e8e2146101aa5780634b2be01c146101eb5780638cd1bb20146102285780638dd95e99146102515780639c6d0d781461028e578063be90b054146102cb578063d510bbd714610308578063f422bc6814610331578063fc8f39f514610372575b600080fd5b3480156100d657600080fd5b506100f160048036036100ec91908101906128da565b6103af565b6040516100fe9190612d15565b60405180910390f35b34801561011357600080fd5b5061012e600480360361012991908101906128da565b61045f565b60405161013b9190612d37565b60405180910390f35b34801561015057600080fd5b5061016b600480360361016691908101906128da565b610514565b6040516101789190612d37565b60405180910390f35b34801561018d57600080fd5b506101a860048036036101a39190810190612903565b6105d6565b005b3480156101b657600080fd5b506101d160048036036101cc9190810190612785565b61065e565b6040516101e2959493929190612d59565b60405180910390f35b3480156101f757600080fd5b50610212600480360361020d91908101906127c1565b610910565b60405161021f9190612dea565b60405180910390f35b34801561023457600080fd5b5061024f600480360361024a9190810190612903565b610c2b565b005b34801561025d57600080fd5b50610278600480360361027391908101906128da565b610e15565b6040516102859190612cd1565b60405180910390f35b34801561029a57600080fd5b506102b560048036036102b091908101906128da565b610eb6565b6040516102c29190612dc8565b60405180910390f35b3480156102d757600080fd5b506102f260048036036102ed919081019061293f565b61129c565b6040516102ff9190612cb6565b60405180910390f35b34801561031457600080fd5b5061032f600480360361032a9190810190612903565b6112e9565b005b34801561033d57600080fd5b50610358600480360361035391908101906128da565b611b14565b604051610369959493929190612d59565b60405180910390f35b34801561037e57600080fd5b506103996004803603610394919081019061275c565b611db9565b6040516103a69190612cf3565b60405180910390f35b60026020528060005260406000206000915090508054600181600116156101000203166002900480601f0160208091040260200160405190810160405280929190818152602001828054600181600116156101000203166002900480156104575780601f1061042c57610100808354040283529160200191610457565b820191906000526020600020905b81548152906001019060200180831161043a57829003601f168201915b505050505081565b6060600260008381526020019081526020016000208054600181600116156101000203166002900480601f0160208091040260200160405190810160405280929190818152602001828054600181600116156101000203166002900480156105085780601f106104dd57610100808354040283529160200191610508565b820191906000526020600020905b8154815290600101906020018083116104eb57829003601f168201915b50505050509050919050565b606060008281548110151561052557fe5b90600052602060002090600702016003018054600181600116156101000203166002900480601f0160208091040260200160405190810160405280929190818152602001828054600181600116156101000203166002900480156105ca5780601f1061059f576101008083540402835291602001916105ca565b820191906000526020600020905b8154815290600101906020018083116105ad57829003601f168201915b50505050509050919050565b6000828154811015156105e557fe5b90600052602060002090600702016001018190806001815401808255809150509060018203906000526020600020016000909192909190916101000a81548173ffffffffffffffffffffffffffffffffffffffff021916908373ffffffffffffffffffffffffffffffffffffffff160217905550505050565b60036020528160005260406000208181548110151561067957fe5b906000526020600020906007020160009150915050806002018054600181600116156101000203166002900480601f0160208091040260200160405190810160405280929190818152602001828054600181600116156101000203166002900480156107265780601f106106fb57610100808354040283529160200191610726565b820191906000526020600020905b81548152906001019060200180831161070957829003601f168201915b505050505090806003018054600181600116156101000203166002900480601f0160208091040260200160405190810160405280929190818152602001828054600181600116156101000203166002900480156107c45780601f10610799576101008083540402835291602001916107c4565b820191906000526020600020905b8154815290600101906020018083116107a757829003601f168201915b505050505090806004018054600181600116156101000203166002900480601f0160208091040260200160405190810160405280929190818152602001828054600181600116156101000203166002900480156108625780601f1061083757610100808354040283529160200191610862565b820191906000526020600020905b81548152906001019060200180831161084557829003601f168201915b505050505090806005018054600181600116156101000203166002900480601f0160208091040260200160405190810160405280929190818152602001828054600181600116156101000203166002900480156109005780601f106108d557610100808354040283529160200191610900565b820191906000526020600020905b8154815290600101906020018083116108e357829003601f168201915b5050505050908060060154905085565b6000806000805490509050600060e0604051908101604052808a815260200189815260200188815260200186815260200185815260200187815260200183815250908060018154018082558091505090600182039060005260206000209060070201600090919290919091506000820151816000019080519060200190610998929190612206565b5060208201518160010190805190602001906109b5929190612206565b5060408201518160020190805190602001906109d2929190612290565b5060608201518160030190805190602001906109ef929190612290565b506080820151816004019080519060200190610a0c929190612290565b5060a0820151816005019080519060200190610a29929190612290565b5060c0820151816006015550505087600160008381526020019081526020016000209080519060200190610a5e929190612310565b5085600260008381526020019081526020016000209080519060200190610a8692919061239a565b5060008090505b8851811015610c1c57600360008a83815181101515610aa857fe5b9060200190602002015173ffffffffffffffffffffffffffffffffffffffff1673ffffffffffffffffffffffffffffffffffffffff168152602001908152602001600020600083815481101515610afb57fe5b9060005260206000209060070201908060018154018082558091505090600182039060005260206000209060070201600090919290919091506000820181600001908054610b4a92919061241a565b506001820181600101908054610b6192919061241a565b5060028201816002019080546001816001161561010002031660029004610b8992919061246c565b5060038201816003019080546001816001161561010002031660029004610bb192919061246c565b5060048201816004019080546001816001161561010002031660029004610bd992919061246c565b5060058201816005019080546001816001161561010002031660029004610c0192919061246c565b50600682015481600601555050508080600101915050610a8d565b50809150509695505050505050565b600082815481101515610c3a57fe5b90600052602060002090600702016000018190806001815401808255809150509060018203906000526020600020016000909192909190916101000a81548173ffffffffffffffffffffffffffffffffffffffff021916908373ffffffffffffffffffffffffffffffffffffffff16021790555050600360008273ffffffffffffffffffffffffffffffffffffffff1673ffffffffffffffffffffffffffffffffffffffff168152602001908152602001600020600083815481101515610cfd57fe5b9060005260206000209060070201908060018154018082558091505090600182039060005260206000209060070201600090919290919091506000820181600001908054610d4c92919061241a565b506001820181600101908054610d6392919061241a565b5060028201816002019080546001816001161561010002031660029004610d8b92919061246c565b5060038201816003019080546001816001161561010002031660029004610db392919061246c565b5060048201816004019080546001816001161561010002031660029004610ddb92919061246c565b5060058201816005019080546001816001161561010002031660029004610e0392919061246c565b50600682015481600601555050505050565b606060016000838152602001908152602001600020805480602002602001604051908101604052809291908181526020018280548015610eaa57602002820191906000526020600020905b8160009054906101000a900473ffffffffffffffffffffffffffffffffffffffff1673ffffffffffffffffffffffffffffffffffffffff1681526020019060010190808311610e60575b50505050509050919050565b610ebe6124f3565b600082815481101515610ecd57fe5b906000526020600020906007020160e0604051908101604052908160008201805480602002602001604051908101604052809291908181526020018280548015610f6c57602002820191906000526020600020905b8160009054906101000a900473ffffffffffffffffffffffffffffffffffffffff1673ffffffffffffffffffffffffffffffffffffffff1681526020019060010190808311610f22575b5050505050815260200160018201805480602002602001604051908101604052809291908181526020018280548015610ffa57602002820191906000526020600020905b8160009054906101000a900473ffffffffffffffffffffffffffffffffffffffff1673ffffffffffffffffffffffffffffffffffffffff1681526020019060010190808311610fb0575b50505050508152602001600282018054600181600116156101000203166002900480601f01602080910402602001604051908101604052809291908181526020018280546001816001161561010002031660029004801561109c5780601f106110715761010080835404028352916020019161109c565b820191906000526020600020905b81548152906001019060200180831161107f57829003601f168201915b50505050508152602001600382018054600181600116156101000203166002900480601f01602080910402602001604051908101604052809291908181526020018280546001816001161561010002031660029004801561113e5780601f106111135761010080835404028352916020019161113e565b820191906000526020600020905b81548152906001019060200180831161112157829003601f168201915b50505050508152602001600482018054600181600116156101000203166002900480601f0160208091040260200160405190810160405280929190818152602001828054600181600116156101000203166002900480156111e05780601f106111b5576101008083540402835291602001916111e0565b820191906000526020600020905b8154815290600101906020018083116111c357829003601f168201915b50505050508152602001600582018054600181600116156101000203166002900480601f0160208091040260200160405190810160405280929190818152602001828054600181600116156101000203166002900480156112825780601f1061125757610100808354040283529160200191611282565b820191906000526020600020905b81548152906001019060200180831161126557829003601f168201915b505050505081526020016006820154815250509050919050565b6001602052816000526040600020818154811015156112b757fe5b906000526020600020016000915091509054906101000a900473ffffffffffffffffffffffffffffffffffffffff1681565b60008090505b6000838154811015156112fe57fe5b90600052602060002090600702016000018054905081101561142d573373ffffffffffffffffffffffffffffffffffffffff1660008481548110151561134057fe5b90600052602060002090600702016000018281548110151561135e57fe5b9060005260206000200160009054906101000a900473ffffffffffffffffffffffffffffffffffffffff1673ffffffffffffffffffffffffffffffffffffffff16141561142057816000848154811015156113b557fe5b9060005260206000209060070201600001828154811015156113d357fe5b9060005260206000200160006101000a81548173ffffffffffffffffffffffffffffffffffffffff021916908373ffffffffffffffffffffffffffffffffffffffff16021790555061142d565b80806001019150506112ef565b5060008090505b600360003373ffffffffffffffffffffffffffffffffffffffff1673ffffffffffffffffffffffffffffffffffffffff1681526020019081526020016000208054905081101561179e57600080905083600360003373ffffffffffffffffffffffffffffffffffffffff1673ffffffffffffffffffffffffffffffffffffffff168152602001908152602001600020838154811015156114d057fe5b90600052602060002090600702016006015414156114f1578190505061179e565b60006001600360003373ffffffffffffffffffffffffffffffffffffffff1673ffffffffffffffffffffffffffffffffffffffff16815260200190815260200160002080549050039050600360003373ffffffffffffffffffffffffffffffffffffffff1673ffffffffffffffffffffffffffffffffffffffff1681526020019081526020016000208181548110151561158757fe5b9060005260206000209060070201600360003373ffffffffffffffffffffffffffffffffffffffff1673ffffffffffffffffffffffffffffffffffffffff168152602001908152602001600020838154811015156115e157fe5b9060005260206000209060070201600082018160000190805461160592919061241a565b50600182018160010190805461161c92919061241a565b506002820181600201908054600181600116156101000203166002900461164492919061246c565b506003820181600301908054600181600116156101000203166002900461166c92919061246c565b506004820181600401908054600181600116156101000203166002900461169492919061246c565b50600582018160050190805460018160011615610100020316600290046116bc92919061246c565b5060068201548160060155905050600360003373ffffffffffffffffffffffffffffffffffffffff1673ffffffffffffffffffffffffffffffffffffffff1681526020019081526020016000208181548110151561171657fe5b9060005260206000209060070201600080820160006117359190612531565b6001820160006117459190612531565b6002820160006117559190612552565b6003820160006117659190612552565b6004820160006117759190612552565b6005820160006117859190612552565b6006820160009055505050508080600101915050611434565b5060008090505b600360003373ffffffffffffffffffffffffffffffffffffffff1673ffffffffffffffffffffffffffffffffffffffff16815260200190815260200160002080549050811015611b0f57600080905083600360003373ffffffffffffffffffffffffffffffffffffffff1673ffffffffffffffffffffffffffffffffffffffff1681526020019081526020016000208381548110151561184157fe5b90600052602060002090600702016006015414156118625781905050611b0f565b60006001600360003373ffffffffffffffffffffffffffffffffffffffff1673ffffffffffffffffffffffffffffffffffffffff16815260200190815260200160002080549050039050600360003373ffffffffffffffffffffffffffffffffffffffff1673ffffffffffffffffffffffffffffffffffffffff168152602001908152602001600020818154811015156118f857fe5b9060005260206000209060070201600360003373ffffffffffffffffffffffffffffffffffffffff1673ffffffffffffffffffffffffffffffffffffffff1681526020019081526020016000208381548110151561195257fe5b9060005260206000209060070201600082018160000190805461197692919061241a565b50600182018160010190805461198d92919061241a565b50600282018160020190805460018160011615610100020316600290046119b592919061246c565b50600382018160030190805460018160011615610100020316600290046119dd92919061246c565b5060048201816004019080546001816001161561010002031660029004611a0592919061246c565b5060058201816005019080546001816001161561010002031660029004611a2d92919061246c565b5060068201548160060155905050600360003373ffffffffffffffffffffffffffffffffffffffff1673ffffffffffffffffffffffffffffffffffffffff16815260200190815260200160002081815481101515611a8757fe5b906000526020600020906007020160008082016000611aa69190612531565b600182016000611ab69190612531565b600282016000611ac69190612552565b600382016000611ad69190612552565b600482016000611ae69190612552565b600582016000611af69190612552565b60068201600090555050505080806001019150506117a5565b505050565b600081815481101515611b2357fe5b9060005260206000209060070201600091509050806002018054600181600116156101000203166002900480601f016020809104026020016040519081016040528092919081815260200182805460018160011615610100020316600290048015611bcf5780601f10611ba457610100808354040283529160200191611bcf565b820191906000526020600020905b815481529060010190602001808311611bb257829003601f168201915b505050505090806003018054600181600116156101000203166002900480601f016020809104026020016040519081016040528092919081815260200182805460018160011615610100020316600290048015611c6d5780601f10611c4257610100808354040283529160200191611c6d565b820191906000526020600020905b815481529060010190602001808311611c5057829003601f168201915b505050505090806004018054600181600116156101000203166002900480601f016020809104026020016040519081016040528092919081815260200182805460018160011615610100020316600290048015611d0b5780601f10611ce057610100808354040283529160200191611d0b565b820191906000526020600020905b815481529060010190602001808311611cee57829003601f168201915b505050505090806005018054600181600116156101000203166002900480601f016020809104026020016040519081016040528092919081815260200182805460018160011615610100020316600290048015611da95780601f10611d7e57610100808354040283529160200191611da9565b820191906000526020600020905b815481529060010190602001808311611d8c57829003601f168201915b5050505050908060060154905085565b6060600360008373ffffffffffffffffffffffffffffffffffffffff1673ffffffffffffffffffffffffffffffffffffffff168152602001908152602001600020805480602002602001604051908101604052809291908181526020016000905b828210156121fb578382906000526020600020906007020160e0604051908101604052908160008201805480602002602001604051908101604052809291908181526020018280548015611ec357602002820191906000526020600020905b8160009054906101000a900473ffffffffffffffffffffffffffffffffffffffff1673ffffffffffffffffffffffffffffffffffffffff1681526020019060010190808311611e79575b5050505050815260200160018201805480602002602001604051908101604052809291908181526020018280548015611f5157602002820191906000526020600020905b8160009054906101000a900473ffffffffffffffffffffffffffffffffffffffff1673ffffffffffffffffffffffffffffffffffffffff1681526020019060010190808311611f07575b50505050508152602001600282018054600181600116156101000203166002900480601f016020809104026020016040519081016040528092919081815260200182805460018160011615610100020316600290048015611ff35780601f10611fc857610100808354040283529160200191611ff3565b820191906000526020600020905b815481529060010190602001808311611fd657829003601f168201915b50505050508152602001600382018054600181600116156101000203166002900480601f0160208091040260200160405190810160405280929190818152602001828054600181600116156101000203166002900480156120955780601f1061206a57610100808354040283529160200191612095565b820191906000526020600020905b81548152906001019060200180831161207857829003601f168201915b50505050508152602001600482018054600181600116156101000203166002900480601f0160208091040260200160405190810160405280929190818152602001828054600181600116156101000203166002900480156121375780601f1061210c57610100808354040283529160200191612137565b820191906000526020600020905b81548152906001019060200180831161211a57829003601f168201915b50505050508152602001600582018054600181600116156101000203166002900480601f0160208091040260200160405190810160405280929190818152602001828054600181600116156101000203166002900480156121d95780601f106121ae576101008083540402835291602001916121d9565b820191906000526020600020905b8154815290600101906020018083116121bc57829003601f168201915b5050505050815260200160068201548152505081526020019060010190611e1a565b505050509050919050565b82805482825590600052602060002090810192821561227f579160200282015b8281111561227e5782518260006101000a81548173ffffffffffffffffffffffffffffffffffffffff021916908373ffffffffffffffffffffffffffffffffffffffff16021790555091602001919060010190612226565b5b50905061228c919061259a565b5090565b828054600181600116156101000203166002900490600052602060002090601f016020900481019282601f106122d157805160ff19168380011785556122ff565b828001600101855582156122ff579182015b828111156122fe5782518255916020019190600101906122e3565b5b50905061230c91906125dd565b5090565b828054828255906000526020600020908101928215612389579160200282015b828111156123885782518260006101000a81548173ffffffffffffffffffffffffffffffffffffffff021916908373ffffffffffffffffffffffffffffffffffffffff16021790555091602001919060010190612330565b5b5090506123969190612602565b5090565b828054600181600116156101000203166002900490600052602060002090601f016020900481019282601f106123db57805160ff1916838001178555612409565b82800160010185558215612409579182015b828111156124085782518255916020019190600101906123ed565b5b50905061241691906125dd565b5090565b82805482825590600052602060002090810192821561245b5760005260206000209182015b8281111561245a57825482559160010191906001019061243f565b5b509050612468919061259a565b5090565b828054600181600116156101000203166002900490600052602060002090601f016020900481019282601f106124a557805485556124e2565b828001600101855582156124e257600052602060002091601f016020900482015b828111156124e15782548255916001019190600101906124c6565b5b5090506124ef91906125dd565b5090565b60e060405190810160405280606081526020016060815260200160608152602001606081526020016060815260200160608152602001600081525090565b508054600082559060005260206000209081019061254f91906125dd565b50565b50805460018160011615610100020316600290046000825580601f106125785750612597565b601f01602090049060005260206000209081019061259691906125dd565b5b50565b6125da91905b808211156125d657600081816101000a81549073ffffffffffffffffffffffffffffffffffffffff0219169055506001016125a0565b5090565b90565b6125ff91905b808211156125fb5760008160009055506001016125e3565b5090565b90565b61264291905b8082111561263e57600081816101000a81549073ffffffffffffffffffffffffffffffffffffffff021916905550600101612608565b5090565b90565b60006126518235612f59565b905092915050565b60006126658235612f6b565b905092915050565b600082601f830112151561268057600080fd5b813561269361268e82612e32565b612e05565b915081818352602084019350602081019050838560208402820111156126b857600080fd5b60005b838110156126e857816126ce8882612659565b8452602084019350602083019250506001810190506126bb565b5050505092915050565b600082601f830112151561270557600080fd5b813561271861271382612e5a565b612e05565b9150808252602083016020830185838301111561273457600080fd5b61273f838284612f87565b50505092915050565b60006127548235612f7d565b905092915050565b60006020828403121561276e57600080fd5b600061277c84828501612645565b91505092915050565b6000806040838503121561279857600080fd5b60006127a685828601612645565b92505060206127b785828601612748565b9150509250929050565b60008060008060008060c087890312156127da57600080fd5b600087013567ffffffffffffffff8111156127f457600080fd5b61280089828a0161266d565b965050602087013567ffffffffffffffff81111561281d57600080fd5b61282989828a0161266d565b955050604087013567ffffffffffffffff81111561284657600080fd5b61285289828a016126f2565b945050606087013567ffffffffffffffff81111561286f57600080fd5b61287b89828a016126f2565b935050608087013567ffffffffffffffff81111561289857600080fd5b6128a489828a016126f2565b92505060a087013567ffffffffffffffff8111156128c157600080fd5b6128cd89828a016126f2565b9150509295509295509295565b6000602082840312156128ec57600080fd5b60006128fa84828501612748565b91505092915050565b6000806040838503121561291657600080fd5b600061292485828601612748565b925050602061293585828601612659565b9150509250929050565b6000806040838503121561295257600080fd5b600061296085828601612748565b925050602061297185828601612748565b9150509250929050565b61298481612f1d565b82525050565b61299381612f0b565b82525050565b60006129a482612ead565b8084526020840193506129b683612e86565b60005b828110156129e8576129cc86835161298a565b6129d582612ee4565b91506020860195506001810190506129b9565b50849250505092915050565b60006129ff82612eb8565b808452602084019350612a1183612e93565b60005b82811015612a4357612a2786835161297b565b612a3082612ef1565b9150602086019550600181019050612a14565b50849250505092915050565b6000612a5a82612ec3565b80845260208401935083602082028501612a7385612ea0565b60005b84811015612aac578383038852612a8e838351612be8565b9250612a9982612efe565b9150602088019750600181019050612a76565b508196508694505050505092915050565b6000612ac882612ed9565b808452612adc816020860160208601612f96565b612ae581612fc9565b602085010191505092915050565b6000612afe82612ece565b808452612b12816020860160208601612f96565b612b1b81612fc9565b602085010191505092915050565b600060e0830160008301518482036000860152612b4682826129f4565b91505060208301518482036020860152612b6082826129f4565b91505060408301518482036040860152612b7a8282612af3565b91505060608301518482036060860152612b948282612af3565b91505060808301518482036080860152612bae8282612af3565b91505060a083015184820360a0860152612bc88282612af3565b91505060c0830151612bdd60c0860182612ca7565b508091505092915050565b600060e0830160008301518482036000860152612c0582826129f4565b91505060208301518482036020860152612c1f82826129f4565b91505060408301518482036040860152612c398282612af3565b91505060608301518482036060860152612c538282612af3565b91505060808301518482036080860152612c6d8282612af3565b91505060a083015184820360a0860152612c878282612af3565b91505060c0830151612c9c60c0860182612ca7565b508091505092915050565b612cb081612f4f565b82525050565b6000602082019050612ccb600083018461298a565b92915050565b60006020820190508181036000830152612ceb8184612999565b905092915050565b60006020820190508181036000830152612d0d8184612a4f565b905092915050565b60006020820190508181036000830152612d2f8184612af3565b905092915050565b60006020820190508181036000830152612d518184612abd565b905092915050565b600060a0820190508181036000830152612d738188612af3565b90508181036020830152612d878187612af3565b90508181036040830152612d9b8186612af3565b90508181036060830152612daf8185612af3565b9050612dbe6080830184612ca7565b9695505050505050565b60006020820190508181036000830152612de28184612b29565b905092915050565b6000602082019050612dff6000830184612ca7565b92915050565b6000604051905081810181811067ffffffffffffffff82111715612e2857600080fd5b8060405250919050565b600067ffffffffffffffff821115612e4957600080fd5b602082029050602081019050919050565b600067ffffffffffffffff821115612e7157600080fd5b601f19601f8301169050602081019050919050565b6000602082019050919050565b6000602082019050919050565b6000602082019050919050565b600081519050919050565b600081519050919050565b600081519050919050565b600081519050919050565b600081519050919050565b6000602082019050919050565b6000602082019050919050565b6000602082019050919050565b6000612f1682612f2f565b9050919050565b6000612f2882612f2f565b9050919050565b600073ffffffffffffffffffffffffffffffffffffffff82169050919050565b6000819050919050565b6000612f6482612f2f565b9050919050565b6000612f7682612f2f565b9050919050565b6000819050919050565b82818337600083830152505050565b60005b83811015612fb4578082015181840152602081019050612f99565b83811115612fc3576000848401525b50505050565b6000601f19601f830116905091905056fea265627a7a7230582093e0bf731ac283c9262b121c28c01e018db7f094dec84169a591177e246720776c6578706572696d656e74616cf50037",
  "source": "pragma experimental ABIEncoderV2;\n\ncontract PatentManager {\n\n    struct Patent {\n        address payable[] owners;\n        address payable[] lisenceHolders;\n        string patentName;\n        string patentType;\n        string patentSubType;\n        string issueDate;\n        uint patentId;\n    }\n\n    Patent[] public patents;\n\n    mapping(uint => address[]) public patentOwnerMap;\n    \n    //store name of the patent for a particular patentId\n    mapping(uint => string) public patentNameMap;\n\n    mapping(address => Patent[]) public ownerPatentsMap;\n\n    function registerPatent(address payable[] memory owners, address payable[] memory lisenceHolders, string memory patentName, string memory issueDate, string memory patentType, string memory patentSubType) public returns (uint) {\n        uint patentId = patents.length;\n        patents.push(Patent(owners, lisenceHolders, patentName, patentType, patentSubType, issueDate, patentId));\n        patentOwnerMap[patentId] = owners;\n        patentNameMap[patentId] = patentName;\n        for (uint i = 0; i < owners.length; i++) {\n            ownerPatentsMap[owners[i]].push(patents[patentId]);\n        }\n        return patentId;\n    }\n\n    function addOwner(uint patentId, address payable person) public {\n        patents[patentId].owners.push(person);\n        ownerPatentsMap[person].push(patents[patentId]);\n    }\n\n    function addLisenceHolder(uint patentId, address payable person) public {\n        patents[patentId].lisenceHolders.push(person);\n    }\n    \n    function transferPatent(uint patentId, address payable receiver) public {\n        for (uint i = 0; i < patents[patentId].owners.length; i++) {\n            if (patents[patentId].owners[i]==msg.sender) {\n                patents[patentId].owners[i]=receiver;\n                break;\n            }\n        }\n\n        for (uint i = 0; i < ownerPatentsMap[msg.sender].length; i++) {\n            uint pos = 0;\n            if (ownerPatentsMap[msg.sender][i].patentId==patentId) {\n                pos = i;\n                break;\n            }\n            uint last = ownerPatentsMap[msg.sender].length - 1;\n            ownerPatentsMap[msg.sender][pos] = ownerPatentsMap[msg.sender][last];\n            delete ownerPatentsMap[msg.sender][last];\n        }\n\n        for (uint i = 0; i < ownerPatentsMap[msg.sender].length; i++) {\n            uint pos = 0;\n            if (ownerPatentsMap[msg.sender][i].patentId==patentId) {\n                pos = i;\n                break;\n            }\n            uint last = ownerPatentsMap[msg.sender].length - 1;\n            ownerPatentsMap[msg.sender][pos] = ownerPatentsMap[msg.sender][last];\n            delete ownerPatentsMap[msg.sender][last];\n        }\n    }\n\n    function getPatent(uint patentId) public view returns (Patent memory) {\n        return (patents[patentId]);\n    }\n\n    function getOwnerList(uint patentId) public view returns (address[] memory){\n        return (patentOwnerMap[patentId]);\n    }\n\n    function getPatentName(uint patentId) public view returns (string memory){\n        return (patentNameMap[patentId]);\n    }\n    \n    function getPatentType(uint patentId) public view returns(string memory){\n        return patents[patentId].patentType;\n    }\n\n    function getPatentsByOwner(address owner) public view returns (Patent[] memory){\n        return ownerPatentsMap[owner];  \n    }\n\n}",
  "sourcePath": "/media/anup/B290EFD890EFA159/Block8/patent_bidding_transfer/patent-backend/contracts/PatentManager.sol",
  "compiler": {
    "name": "solc",
    "version": "0.5.0+commit.1d4f565a.Emscripten.clang"
  },
  "schemaVersion": "3.0.1",
  "updatedAt": "2019-02-19T12:08:05.524Z",
  "devdoc": {
    "methods": {}
  },
  "userdoc": {
    "methods": {}
  }
}