{
  "contractName": "PatentManager",
  "abi": [
    {
      "constant": false,
      "inputs": [
        {
          "name": "owners",
          "type": "address[]"
        },
        {
          "name": "lisenceHolders",
          "type": "address[]"
        }
      ],
      "name": "registerPatent",
      "outputs": [
        {
          "name": "",
          "type": "uint256"
        }
      ],
      "payable": false,
      "stateMutability": "nonpayable",
      "type": "function",
      "signature": "0x3ce95a19"
    },
    {
      "constant": false,
      "inputs": [
        {
          "name": "id",
          "type": "uint256"
        },
        {
          "name": "person",
          "type": "address"
        }
      ],
      "name": "addOwner",
      "outputs": [],
      "payable": false,
      "stateMutability": "nonpayable",
      "type": "function",
      "signature": "0x8cd1bb20"
    },
    {
      "constant": false,
      "inputs": [
        {
          "name": "id",
          "type": "uint256"
        },
        {
          "name": "person",
          "type": "address"
        }
      ],
      "name": "addLisenceHolder",
      "outputs": [],
      "payable": false,
      "stateMutability": "nonpayable",
      "type": "function",
      "signature": "0x25700466"
    },
    {
      "constant": false,
      "inputs": [
        {
          "name": "id",
          "type": "uint256"
        },
        {
          "name": "receiver",
          "type": "address"
        }
      ],
      "name": "transferPatent",
      "outputs": [],
      "payable": false,
      "stateMutability": "nonpayable",
      "type": "function",
      "signature": "0xd510bbd7"
    },
    {
      "constant": true,
      "inputs": [],
      "name": "getPatents",
      "outputs": [
        {
          "name": "",
          "type": "address[]"
        },
        {
          "name": "",
          "type": "address[]"
        }
      ],
      "payable": false,
      "stateMutability": "view",
      "type": "function",
      "signature": "0x63d287bd"
    }
  ],
  "bytecode": "0x608060405234801561001057600080fd5b506108dc806100206000396000f3fe60806040526004361061006d576000357c0100000000000000000000000000000000000000000000000000000000900463ffffffff16806325700466146100725780633ce95a19146100cd57806363d287bd1461023a5780638cd1bb20146102ee578063d510bbd714610349575b600080fd5b34801561007e57600080fd5b506100cb6004803603604081101561009557600080fd5b8101908080359060200190929190803573ffffffffffffffffffffffffffffffffffffffff1690602001909291905050506103a4565b005b3480156100d957600080fd5b50610224600480360360408110156100f057600080fd5b810190808035906020019064010000000081111561010d57600080fd5b82018360208201111561011f57600080fd5b8035906020019184602083028401116401000000008311171561014157600080fd5b919080806020026020016040519081016040528093929190818152602001838360200280828437600081840152601f19601f820116905080830192505050505050509192919290803590602001906401000000008111156101a157600080fd5b8201836020820111156101b357600080fd5b803590602001918460208302840111640100000000831117156101d557600080fd5b919080806020026020016040519081016040528093929190818152602001838360200280828437600081840152601f19601f82011690508083019250505050505050919291929050505061042c565b6040518082815260200191505060405180910390f35b34801561024657600080fd5b5061024f6104b7565b604051808060200180602001838103835285818151815260200191508051906020019060200280838360005b8381101561029657808201518184015260208101905061027b565b50505050905001838103825284818151815260200191508051906020019060200280838360005b838110156102d85780820151818401526020810190506102bd565b5050505090500194505050505060405180910390f35b3480156102fa57600080fd5b506103476004803603604081101561031157600080fd5b8101908080359060200190929190803573ffffffffffffffffffffffffffffffffffffffff169060200190929190505050610612565b005b34801561035557600080fd5b506103a26004803603604081101561036c57600080fd5b8101908080359060200190929190803573ffffffffffffffffffffffffffffffffffffffff16906020019092919050505061069a565b005b6000828154811015156103b357fe5b90600052602060002090600202016001018190806001815401808255809150509060018203906000526020600020016000909192909190916101000a81548173ffffffffffffffffffffffffffffffffffffffff021916908373ffffffffffffffffffffffffffffffffffffffff160217905550505050565b60006001600060408051908101604052808681526020018581525090806001815401808255809150509060018203906000526020600020906002020160009091929091909150600082015181600001908051906020019061048e9291906107e3565b5060208201518160010190805190602001906104ab9291906107e3565b50505003905092915050565b6060806000808154811015156104c957fe5b90600052602060002090600202016000016000808154811015156104e957fe5b90600052602060002090600202016001018180548060200260200160405190810160405280929190818152602001828054801561057b57602002820191906000526020600020905b8160009054906101000a900473ffffffffffffffffffffffffffffffffffffffff1673ffffffffffffffffffffffffffffffffffffffff1681526020019060010190808311610531575b505050505091508080548060200260200160405190810160405280929190818152602001828054801561060357602002820191906000526020600020905b8160009054906101000a900473ffffffffffffffffffffffffffffffffffffffff1673ffffffffffffffffffffffffffffffffffffffff16815260200190600101908083116105b9575b50505050509050915091509091565b60008281548110151561062157fe5b90600052602060002090600202016000018190806001815401808255809150509060018203906000526020600020016000909192909190916101000a81548173ffffffffffffffffffffffffffffffffffffffff021916908373ffffffffffffffffffffffffffffffffffffffff160217905550505050565b60008090505b6000838154811015156106af57fe5b9060005260206000209060020201600001805490508110156107de573373ffffffffffffffffffffffffffffffffffffffff166000848154811015156106f157fe5b90600052602060002090600202016000018281548110151561070f57fe5b9060005260206000200160009054906101000a900473ffffffffffffffffffffffffffffffffffffffff1673ffffffffffffffffffffffffffffffffffffffff1614156107d1578160008481548110151561076657fe5b90600052602060002090600202016000018281548110151561078457fe5b9060005260206000200160006101000a81548173ffffffffffffffffffffffffffffffffffffffff021916908373ffffffffffffffffffffffffffffffffffffffff1602179055506107de565b80806001019150506106a0565b505050565b82805482825590600052602060002090810192821561085c579160200282015b8281111561085b5782518260006101000a81548173ffffffffffffffffffffffffffffffffffffffff021916908373ffffffffffffffffffffffffffffffffffffffff16021790555091602001919060010190610803565b5b509050610869919061086d565b5090565b6108ad91905b808211156108a957600081816101000a81549073ffffffffffffffffffffffffffffffffffffffff021916905550600101610873565b5090565b9056fea165627a7a7230582034cc2d0a16f3245758bafc02dee5ea00ccd16589c7bf4eee9629a8633032c99a0029",
  "source": "pragma solidity ^0.5.0;\n\ncontract PatentManager {\n\n    struct Patent {\n        address payable[] owners;\n        address payable[] lisenceHolders;\n    }\n\n    Patent[] private patents;\n    \n    function registerPatent(address payable[] memory owners, address payable[] memory lisenceHolders) public returns (uint) {\n        return patents.push(Patent(owners, lisenceHolders)) - 1;\n    }\n\n    function addOwner(uint id, address payable person) public {\n        patents[id].owners.push(person);\n    }\n\n    function addLisenceHolder(uint id, address payable person) public {\n        patents[id].lisenceHolders.push(person);\n    }\n    \n    function transferPatent(uint id, address payable receiver) public {\n        for (uint i = 0; i < patents[id].owners.length; i++) {\n            if (patents[id].owners[i]==msg.sender) {\n                patents[id].owners[i]=receiver;\n                break;\n            }\n        }\n    }\n\n    function getPatents() public view returns (address payable[] memory, address payable[] memory) {\n        return (patents[0].owners, patents[0].lisenceHolders);\n    }\n}\n",
  "sourcePath": "/media/anup/B290EFD890EFA159/Block8/rte/contracts/PatentManager.sol",
  "compiler": {
    "name": "solc",
    "version": "0.5.0+commit.1d4f565a.Emscripten.clang"
  },
  "schemaVersion": "3.0.1",
  "updatedAt": "2019-01-24T06:16:23.441Z",
  "devdoc": {
    "methods": {}
  },
  "userdoc": {
    "methods": {}
  }
}