{
  "contractName": "PatentManager",
  "abi": [
    {
      "constant": false,
      "inputs": [
        {
          "name": "owners",
          "type": "address[]"
        },
        {
          "name": "lisenceHolders",
          "type": "address[]"
        }
      ],
      "name": "registerPatent",
      "outputs": [
        {
          "name": "",
          "type": "uint256"
        }
      ],
      "payable": false,
      "stateMutability": "nonpayable",
      "type": "function",
      "signature": "0x3ce95a19"
    },
    {
      "constant": false,
      "inputs": [
        {
          "name": "id",
          "type": "uint256"
        },
        {
          "name": "person",
          "type": "address"
        }
      ],
      "name": "addOwner",
      "outputs": [],
      "payable": false,
      "stateMutability": "nonpayable",
      "type": "function",
      "signature": "0x8cd1bb20"
    },
    {
      "constant": false,
      "inputs": [
        {
          "name": "id",
          "type": "uint256"
        },
        {
          "name": "person",
          "type": "address"
        }
      ],
      "name": "addLisenceHolder",
      "outputs": [],
      "payable": false,
      "stateMutability": "nonpayable",
      "type": "function",
      "signature": "0x25700466"
    },
    {
      "constant": false,
      "inputs": [
        {
          "name": "id",
          "type": "uint256"
        },
        {
          "name": "receiver",
          "type": "address"
        }
      ],
      "name": "transferPatent",
      "outputs": [],
      "payable": false,
      "stateMutability": "nonpayable",
      "type": "function",
      "signature": "0xd510bbd7"
    },
    {
      "constant": true,
      "inputs": [
        {
          "name": "id",
          "type": "uint256"
        }
      ],
      "name": "getPatents",
      "outputs": [
        {
          "name": "",
          "type": "address[]"
        },
        {
          "name": "",
          "type": "address[]"
        }
      ],
      "payable": false,
      "stateMutability": "view",
      "type": "function",
      "signature": "0x6dba911d"
    }
  ],
  "bytecode": "0x608060405234801561001057600080fd5b50610907806100206000396000f3fe60806040526004361061006d576000357c0100000000000000000000000000000000000000000000000000000000900463ffffffff16806325700466146100725780633ce95a19146100cd5780636dba911d1461023a5780638cd1bb2014610312578063d510bbd71461036d575b600080fd5b34801561007e57600080fd5b506100cb6004803603604081101561009557600080fd5b8101908080359060200190929190803573ffffffffffffffffffffffffffffffffffffffff1690602001909291905050506103c8565b005b3480156100d957600080fd5b50610224600480360360408110156100f057600080fd5b810190808035906020019064010000000081111561010d57600080fd5b82018360208201111561011f57600080fd5b8035906020019184602083028401116401000000008311171561014157600080fd5b919080806020026020016040519081016040528093929190818152602001838360200280828437600081840152601f19601f820116905080830192505050505050509192919290803590602001906401000000008111156101a157600080fd5b8201836020820111156101b357600080fd5b803590602001918460208302840111640100000000831117156101d557600080fd5b919080806020026020016040519081016040528093929190818152602001838360200280828437600081840152601f19601f820116905080830192505050505050509192919290505050610450565b6040518082815260200191505060405180910390f35b34801561024657600080fd5b506102736004803603602081101561025d57600080fd5b81019080803590602001909291905050506104e1565b604051808060200180602001838103835285818151815260200191508051906020019060200280838360005b838110156102ba57808201518184015260208101905061029f565b50505050905001838103825284818151815260200191508051906020019060200280838360005b838110156102fc5780820151818401526020810190506102e1565b5050505090500194505050505060405180910390f35b34801561031e57600080fd5b5061036b6004803603604081101561033557600080fd5b8101908080359060200190929190803573ffffffffffffffffffffffffffffffffffffffff16906020019092919050505061063d565b005b34801561037957600080fd5b506103c66004803603604081101561039057600080fd5b8101908080359060200190929190803573ffffffffffffffffffffffffffffffffffffffff1690602001909291905050506106c5565b005b6000828154811015156103d757fe5b90600052602060002090600202016001018190806001815401808255809150509060018203906000526020600020016000909192909190916101000a81548173ffffffffffffffffffffffffffffffffffffffff021916908373ffffffffffffffffffffffffffffffffffffffff160217905550505050565b6000806040805190810160405280858152602001848152509080600181540180825580915050906001820390600052602060002090600202016000909192909190915060008201518160000190805190602001906104af92919061080e565b5060208201518160010190805190602001906104cc92919061080e565b50505050600160008054905003905092915050565b6060806000838154811015156104f357fe5b906000526020600020906002020160000160008481548110151561051357fe5b9060005260206000209060020201600101818054806020026020016040519081016040528092919081815260200182805480156105a557602002820191906000526020600020905b8160009054906101000a900473ffffffffffffffffffffffffffffffffffffffff1673ffffffffffffffffffffffffffffffffffffffff168152602001906001019080831161055b575b505050505091508080548060200260200160405190810160405280929190818152602001828054801561062d57602002820191906000526020600020905b8160009054906101000a900473ffffffffffffffffffffffffffffffffffffffff1673ffffffffffffffffffffffffffffffffffffffff16815260200190600101908083116105e3575b5050505050905091509150915091565b60008281548110151561064c57fe5b90600052602060002090600202016000018190806001815401808255809150509060018203906000526020600020016000909192909190916101000a81548173ffffffffffffffffffffffffffffffffffffffff021916908373ffffffffffffffffffffffffffffffffffffffff160217905550505050565b60008090505b6000838154811015156106da57fe5b906000526020600020906002020160000180549050811015610809573373ffffffffffffffffffffffffffffffffffffffff1660008481548110151561071c57fe5b90600052602060002090600202016000018281548110151561073a57fe5b9060005260206000200160009054906101000a900473ffffffffffffffffffffffffffffffffffffffff1673ffffffffffffffffffffffffffffffffffffffff1614156107fc578160008481548110151561079157fe5b9060005260206000209060020201600001828154811015156107af57fe5b9060005260206000200160006101000a81548173ffffffffffffffffffffffffffffffffffffffff021916908373ffffffffffffffffffffffffffffffffffffffff160217905550610809565b80806001019150506106cb565b505050565b828054828255906000526020600020908101928215610887579160200282015b828111156108865782518260006101000a81548173ffffffffffffffffffffffffffffffffffffffff021916908373ffffffffffffffffffffffffffffffffffffffff1602179055509160200191906001019061082e565b5b5090506108949190610898565b5090565b6108d891905b808211156108d457600081816101000a81549073ffffffffffffffffffffffffffffffffffffffff02191690555060010161089e565b5090565b9056fea165627a7a7230582040587208db68e2519e9d86586847f10917dcac6d123bee2e5e09a99f775e41f20029",
  "source": "pragma solidity ^0.5.0;\n\ncontract PatentManager {\n\n    struct Patent {\n        address payable[] owners;\n        address payable[] lisenceHolders;\n    }\n\n    Patent[] private patents;\n    \n    function registerPatent(address payable[] memory owners, address payable[] memory lisenceHolders) public returns (uint) {\n        patents.push(Patent(owners, lisenceHolders));\n        return (patents.length-1);\n    }\n\n    function addOwner(uint id, address payable person) public {\n        patents[id].owners.push(person);\n    }\n\n    function addLisenceHolder(uint id, address payable person) public {\n        patents[id].lisenceHolders.push(person);\n    }\n    \n    function transferPatent(uint id, address payable receiver) public {\n        for (uint i = 0; i < patents[id].owners.length; i++) {\n            if (patents[id].owners[i]==msg.sender) {\n                patents[id].owners[i]=receiver;\n                break;\n            }\n        }\n    }\n\n    function getPatents(uint id) public view returns (address payable[] memory, address payable[] memory) {\n        return (patents[id].owners, patents[id].lisenceHolders);\n    }\n}\n",
  "sourcePath": "/media/anup/B290EFD890EFA159/Block8/rte/contracts/PatentManager.sol",
  "compiler": {
    "name": "solc",
    "version": "0.5.0+commit.1d4f565a.Emscripten.clang"
  },
  "schemaVersion": "3.0.1",
  "updatedAt": "2019-01-24T11:15:03.919Z",
  "devdoc": {
    "methods": {}
  },
  "userdoc": {
    "methods": {}
  }
}